:020000040800F2
:10000000E05100207D020008F94100089534000805
:1000100079410008A10A0008054C00080000000012
:10002000000000000000000000000000C101000806
:10003000F50E00080000000015020008A9440008A1
:10004000970200089702000897020008970200082C
:10005000970200089702000897020008970200081C
:10006000970200089702000897020008970200080C
:10007000F90D00089702000897020008970200088F
:10008000050E00089702000897020008B10A000850
:10009000A50A0008970200089702000897020008C6
:1000A00097020008970200089702000897020008CC
:1000B00097020008970200089702000897020008BC
:1000C00097020008970200089702000897020008AC
:1000D00097020008BD4B0008D54B0008E14B000813
:1000E000970200089702000897020008970200088C
:1000F000970200089702000897020008970200087C
:10010000970200089702000897020008970200086B
:100110009702000897020008A5450008970200080A
:1001200097020008110E00081D0E00089702000833
:10013000970200089702000897020008C90A000801
:10014000BD0A0008970200089702000897020008FD
:10015000970200089702000897020008F94B000870
:10016000970200089702000897020008970200080B
:10017000970200089702000897020008000000009C
:1001800097020008970200089702000897020008EB
:1001900097020008970200089702000897020008DB
:1001A000000000000000000097020008DFF80CD0FB
:1001B00000F05CFB004800470D5A0008E0510020A9
:1001C0002B4B19680868B0E8F04F80F30988BFF33B
:1001D0006F8F4FF0000080F311887047000000001F
:1001E00006480068006880F3088862B661B6BFF30D
:1001F0004F8FBFF36F8F00DF00BF00BF08ED00E03F
:10020000DFF80C00016841F470010160704700BF25
:1002100088ED00E0EFF30980BFF36F8F144B1A688D
:100220001EF0100F08BF20ED108A20E9F04F10607B
:1002300008B44FF0500080F31188BFF34F8FBFF325
:100240006F8F06F005FC4FF0000080F3118808BCAA
:1002500019680868B0E8F04F1EF0100F08BFB0EC46
:10026000108A80F30988BFF36F8F704700BF00BF0B
:1002700008000020EFF30580704700000648804723
:1002800006480047FEE7FEE7FEE7FEE7FEE7FEE77B
:10029000FEE7FEE7FEE7FEE751450008AD01000876
:1002A00040EA01039B0703D009E008C9121F08C0F8
:1002B000042AFAD203E011F8013B00F8013B521E78
:1002C000F9D27047D2B201E000F8012B491EFBD2EF
:1002D00070470022F6E710B513460A460446194651
:1002E000FFF7F0FF204610BD2DE9FE4F81EA030421
:1002F00004F0004421F0004100944FF0000B23F083
:10030000004350EA01045ED052EA03045BD0C3F319
:100310000A54C1F30A552C44A4F2F3340194A0FB0F
:100320000254C1F3130141F48011C3F3130343F4E6
:10033000801301FB024400FB034E840A970A44EA3F
:10034000815447EA8357A4FB076802958D0A05FB91
:1003500007854FEA932C04FB0C542705029D4FEAB6
:10036000065847EA1637B5EB08056EEB070C870E03
:10037000920E47EA811742EA8312A7FB0201B6EB0D
:100380000B0164EB00042B0D43EA0C335E1844EBC5
:100390001C50DA465146E7FB0201C5F313044FEA4D
:1003A0000B3343EA14534FEA0432019C43EA060339
:1003B000A4F10C040294009CCDE900B400F0D9F83B
:1003C00003B0BDE8F08F00200146F9E70EB5C10F7C
:1003D00080EAE0700844CA07002140F233438DE808
:1003E0000E000A460B4600F0C4F803B000BD000042
:1003F00030B5041E71F1000404DB4FF000444042AC
:1004000064EB0101141E73F1000405DB1C464FF080
:100410000043524263EB0403994208BF904230BD4F
:1004200001F0004330B421F0004150EA010206D04F
:100430000A0DA2F56072C1F31301002A02DC30BC80
:1004400000207047440F44EAC104C100E01830BCEA
:1004500000EBC25000F047B830B50B460146002013
:100460002022012409E021FA02F59D4205D303FA76
:1004700002F5491B04FA02F52844151EA2F10102F7
:10048000F1DC30BD2DE9F05F0546002092469B4629
:1004900088460646814640241BE02846414647469A
:1004A000224600F004FA53465A46C01A914110D32E
:1004B00011461846224600F0EBF92D1A67EB0108A9
:1004C0004F4622460120002100F0E2F917EB000917
:1004D0004E41201EA4F10104DFDC484631462A4685
:1004E0004346BDE8F09F0029A8BF7047401C490063
:1004F00008BF20F00100704710B4B0FA80FC00FA89
:100500000CF050EA010404BF10BC704749B1CCF1B3
:10051000200421FA04F411FA0CF118BF012121433F
:100520000843A3EB0C01CB1D4FEA00614FEA1020FA
:1005300042BF002010BC704700EBC350104400299C
:10054000A4BF10BC7047401C490008BF20F0010048
:1005500010BC704710B5141E73F1000408DA401C7B
:1005600041F1000192185B411A4301D120F00100D2
:1005700010BD2DE9F04D92469B4611B1B1FA81F2C2
:1005800002E0B0FA80F22032904600F081F9044691
:100590000F4640EA0A0041EA0B0153465A46084317
:1005A00013D0114653EA010019D0C8F14002504659
:1005B00000F07DF905460E4650465946424600F089
:1005C00067F9084305D0012004E020463946BDE81C
:1005D000F08D0020054346EAE0762C4337430A9825
:1005E0006305E40AA0EB08000022FD0A44EA475430
:1005F0000A3002D500200146E9E7010510196941DA
:10060000DDE9084500196941BDE8F04DA2E72DE993
:10061000FE4F804681EA0300C00F0C46009021F097
:10062000004123F00045B8EB0200A94105D2404645
:10063000214690461C460B46024623F000401043DC
:1006400047D0270DC7F30A00C3F30A510290401A9E
:10065000019040286BDAC3F3130040F4801B00982C
:10066000924620B10023D2EB030A63EB0B0B0198F7
:100670005946C0F14002504600F00AF906460D46C0
:1006800050465946019A00F022F910EB08006141EA
:10069000002487EA115284EAE7731A4340D0009A93
:1006A00062B3019A012A4FEA075215DC001B61EB85
:1006B00002014FF0004202EA0752CDE90042001C5D
:1006C00041F5801132462B46FFF753FF03B0BDE8DA
:1006D000F08F40462146F9E7001B61EB0201001C48
:1006E00041F5801300185B412018A2F5001747EB75
:1006F000030140EAD570B6196D4111E06D084FEA6B
:10070000360645EAC0754FEA0752001B61EB02014D
:10071000001C41F5801149084FEA30000019514191
:1007200032462B4603B0BDE8F04FFFF713BF0098E9
:10073000012240000023D0EB020263EBE07300983B
:1007400021464FEAE074B8EB000061EB0401E9E7F1
:1007500083F000435BE781F0004158E72DE9F04D5D
:1007600081EA030404F0004B21F0004514464FF0E9
:10077000000A23F0004150EA050220D054EA0102A9
:100780001DD0C5F30A570246C5F31303C1F3130086
:10079000C1F30A5640F4801543F48013A7EB060812
:1007A000101BD64608F2FD3873EB050002D308F1A2
:1007B000010801E092185B41B8F1000F03DA002054
:1007C0000146BDE8F08D00204FF4801106468446B6
:1007D0000EE0171B73EB050705D3121B63EB050334
:1007E00006434CEA010C49084FEA300092185B417D
:1007F00050EA0107EDD152EA030012D082EA040068
:1008000083EA0501084305D0101BAB4106D2012243
:10081000002306E000224FF0004302E06FF00102E7
:1008200053101AEB06004CEB085110EB0A0041EB99
:100830000B01BDE8F04DFFF78DBEC1F30A52C1F3C5
:10084000130140F2FF3341F480119A4202DA002092
:100850000146704740F233439A42A2F2334202DC2F
:10086000524200F024B800F013B80000064C074DC7
:1008700006E0E06840F0010394E807009847103470
:10088000AC42F6D3FFF796FC3C7C00085C7C000889
:10089000202A04DB203A00FA02F100207047914040
:1008A000C2F1200320FA03F3194390407047202A35
:1008B00004DB203A21FA02F00021704721FA02F30A
:1008C000D040C2F120029140084319467047202AC7
:1008D00006DBCB17203A41FA02F043EAE07306E068
:1008E00041FA02F3D040C2F1200291400843194678
:1008F000704700004A4910B5D1F8042322F4403271
:10090000C1F80423D1F8042343681A43C1F804232F
:1009100001684A6822F480724A6001684A68036983
:1009200042EA03224A6001684A6822F040724A6043
:1009300001684A6883681A434A6001688A6822F439
:1009400000628A6001688A68C3681A438A60816AA3
:100950006FF07062D14201688A6822F070628A602A
:1009600001688A680CD0836A1A438A6001688A68C1
:1009700022F040528A6001688A68C36A1A4301E023
:1009800022F040528A6001688A6822F002028A607E
:1009900001688A68836942EA43028A60016A002921
:1009A00001684A6815D042F400624A6001684A68EA
:1009B00022F460424A6001684B684FF46044426A26
:1009C00094FAA4F4B4FA84F4521EA24013434B6088
:1009D00002E022F400624A600168CA6A22F47002EE
:1009E000CA620168CA6A838B0E4C04EB03531A4334
:1009F000CA6201688A6822F400728A6001688A68A3
:100A0000036B42EA43228A6001688A6822F48062AA
:100A10008A6001688A68406942EA8020886010BD67
:100A2000002001400000F0FF30B51B4A4FF4805415
:100A30001046D18963004089A14208D3984203D867
:100A4000A1F58055A8420ADC00F5005007E0984265
:100A500005D801F58055A84201D9A0F50050401AEB
:100A6000D0800E4A1046D1894089A14208D39842CD
:100A700003D8A1F5805398420ADC00F5005007E046
:100A8000984205D801F58053984201D9A0F500504D
:100A9000401AD08030BD0000F044002020450020E6
:100AA000FEE70000014800F0A5BC0000203E002049
:100AB000014800F09FBC0000203E0020014800F0EB
:100AC00099BC0000603E0020014800F093BC00008B
:100AD000603E002010B54FF4D872036802EB01129B
:100AE0009B5813F00404436B9C600468436BA45848
:100AF00054D0E4085C6003689A58436B02F0020229
:100B0000DA604FF4DA72036802EB01129B58446B0F
:100B100003F00F03236103689A58436BC2F3072263
:100B2000DA614FF4DC72036802EB01129B58446BEC
:100B3000237503689B58446B1B0A637503689B58B5
:100B4000446B1B0CA37503689A58436B120EDA753D
:100B50004FF4DE72036802EB01129B58446B23765C
:100B600003689B58446B1B0A637603689B58446B6D
:100B70001B0CA37603689A58436B120EDA76202278
:100B8000002901680DD00A6101684A6922F010024B
:100B90004A6190F83810222909D021E0640D1C60C8
:100BA000A9E7CA6001684A6922F00202F0E7016819
:100BB0004A6922F480724A6101684A6922F400722B
:100BC0004A6101684A6922F480624A6101684A699F
:100BD00022F400624A6101684A6922F400424A61D3
:100BE00090F83810322907D05FF0010180F83810F2
:100BF00000F018FE002010BD1221F7E710B50168C3
:100C00004A6922F001024A6190F83810122918D17D
:100C100001684A6922F480724A6101684A6922F4D3
:100C200000724A6101684A6922F480624A6101687F
:100C30004A6922F400624A6101684A6922F400426A
:100C40004A6190F83810322906D0012180F8381016
:100C500000F0EEFE002010BD2221F7E72DE9F04163
:100C600000212DED028B1E4802F004FA04211C48DD
:100C700002F000FA08211A4802F0FCF90C21184889
:100C800002F0F8F9174805F057F80021154800F070
:100C900085FD0021144800F081FD144D9FED148A5C
:100CA000DFED148A00244FF4FA6640F6B83700BF2F
:100CB00004EBC40000EB400005EB8000B0EE481AE6
:100CC000F0EE680AB7EE080A33463A46032103F00D
:100CD000A5FA641C042CEBDBBDEC028BBDE8F081B3
:100CE00040400020203E0020603E0020A44B002019
:100CF00000000000CDCCCC3D00F003F800F004F87B
:100D0000FCE7FFF7ABBF000070B5364C36492DED60
:100D1000068BA08A088035480078401F0B285ED2D9
:100D2000DFE800F05D16065D5D57065D5D160600A6
:100D300000202F4A014600BF22F81010401C042852
:100D4000FADBBDEC068BBDE87040294803F046BBDA
:100D500020886FF0090110FB01F0FFF737FB254DEC
:100D600041EC1A0B6FF0090185ED00AB608810FBB8
:100D700001F0FFF72BFB41EC190B6FF0090185ED3A
:100D8000029BA08810FB01F0FFF720FB41EC100B49
:100D900085ED040BFFF744FB08EE100A51EC190B2C
:100DA000FFF73EFB08EE900A51EC1A0BFFF738FBF9
:100DB0000F4900EE100A081FB0EE481AD0ED000AE5
:100DC000FDEEE00A10EE900AF0EE680A03F024F956
:100DD000B7E7BDEC068BBDE8704002F025BCBDEC6A
:100DE000068B70BDF4450020D2000020D00000200A
:100DF000DC000020C04D0020014800F02DBE0000A6
:100E0000B4420020014800F027BE000054420020F8
:100E1000014800F021BE000014430020014800F00A
:100E20001BBE0000F441002001681823CAB2103A2A
:100E3000B2FBF3F2054B6FF30901032A9B5CC36518
:100E400000D9091D8165084670470000206F000821
:100E500010B5014600208B698A6A4FF0C07453B107
:100E6000B3F5005F15D072B1012A0CD0022A0AD066
:100E7000032A09D104E01AB1012A06D0022A03D1BB
:100E8000C96AC90100D5012010BDC96AA142FAD0C2
:100E900010BD002AF7D0012AF2D0022AF3D0032A8B
:100EA000F3D010BD30B50468256825F48025256091
:100EB000046863608368402B036803D0996000680E
:100EC000C26030BD9A600068C16030BD074882B022
:100ED0000068016841680091C16841F01001C1607B
:100EE00032220349014802B005F018BCF44000204A
:100EF000E24500207047FEE700F04EB82DE9F041D2
:100F0000FFF792FD21484FF47A75EC0601786614DC
:100F10001F4F2048491F0B2935D2DFE801F0060E8C
:100F20000E341D301D3412121200BDE8F0410022B3
:100F30004FF4E171104603F0EDB90022114610465E
:100F400005E0C188B0F90A00494209B2002203F065
:100F5000E1F9656300220CE04FF4FA616163C18836
:100F6000B0F90A00494209B24FF4966203F0D2F98F
:100F7000012231463846BDE8F04100F0BDBFBDE872
:100F8000F04103F0FBB8BDE8F0810000D000002084
:100F900000180240F445002010B500F017F80021B9
:100FA000074802F067F8074841F6902140F6AA2268
:100FB000C1810549CA81002202820A8210BD000057
:100FC0008C3F002020450020F044002070B541F205
:100FD000883447F230559FED151AF6EE000A9FED62
:100FE000140A23462A460321124803F017F99FEDFD
:100FF000121ADFED120A9FED120A23462A46032138
:10100000104803F00BF99FED101ADFED100AB7EE50
:10101000080A23464FF4804203210D4803F0FEF8EE
:10102000BDE87040642000F076BE000000007A4306
:1010300000001643384B0020CDCC61439A99D93F2C
:101040003333E742CC4A002000000000CDCCCC3D39
:10105000544D0020FFF750FFFFF750FFFCE7000062
:1010600078B50024009490F83C20012A19D0012280
:1010700080F83C200A6807230568092A13D9EE681E
:101080000A3A02EB420293409E43EE600B788A6874
:101090000A3B03EB43039A400368DD682A43DA60A6
:1010A00010E0022078BD2E6902EB420293409E437D
:1010B0002E610A788B6802EB420293400268156940
:1010C0002B4313614A681F23072A13D205686E6BEE
:1010D000521E02EB820293409E436E630A8893B2D3
:1010E0000A79521E02EB820293400268556B2B4331
:1010F000536327E005680D2A12D22E6BD21F02EB34
:10110000820293409E432E630B790A88DB1F92B2C2
:1011100003EB83039A4003681D6B2A431A6311E0B3
:10112000EE6A0D3A02EB820293409E43EE620B7927
:101130000A880D3B92B203EB83039A400368DD6A91
:101140002A43DA62174A0368934208D10B68122BCC
:1011500005D1D2F8043343F48003C2F804330368A2
:1011600093421BD1104B0D689D4201D0112D15D11A
:10117000D2F8045345F40005C2F8045309689942B3
:101180000CD10A490A4A0968B1FBF2F101EB81016D
:10119000490000E0491E00910029FBD180F83C4045
:1011A000002078BD00200140120000100400002043
:1011B00040420F000068C06C704770B504004FF0EB
:1011C000000503D0206C002610B107E0012070BD9F
:1011D000666484F83C60204600F01AF8206CC00673
:1011E00010D4206C20F4885040F002002064204687
:1011F000FFF780FB6664206C20F0020040F00100E5
:10120000206400E0012584F83C60284670BD0000A1
:1012100000B500680C4987B0884212D10B48002104
:10122000026842F480720260006800F480700590E9
:10123000402000900320CDE901016946044800F0F8
:1012400075FD07B000BD0000002001404438024099
:101250000000024018B50021009190F83C20012ABE
:1012600007D0012280F83C2002689368DB0702D097
:1012700011E0022018BD936843F001039360204AF7
:10128000204B1268B2FBF3F202EB420200E0521E66
:101290000092002AFBD102689368DB072DD0036C13
:1012A00040F20164A34343F48073036453685B0515
:1012B00005D5036C23F4005343F480530364036C9B
:1012C000DB0404D5436C23F00603436400E041646F
:1012D00080F83C106FF0220111600B49D1F8042313
:1012E0000068D20601D0884207D1816811F0405FC2
:1012F00003D1816841F080418160002018BD000069
:101300000400002040420F0000200140F0B50A7D9B
:1013100001209040344A136843F0010313601368BE
:1013200023F47C53136013684C6A43EA042313606C
:101330002D4B1C331C6884431C602B4D2B4CCE69F9
:101340000C35A6B92E6886432E608F894E6867F3E8
:101350001F464F6904EBC707C7F840660F890E6840
:1013600067F31F464F6904EBC707C7F84466CE69A9
:10137000012E14D12E6806432E600E884D6866F348
:101380001F454E6904EBC606C6F840560E89CD6867
:1013900066F31F454E6904EBC604C4F84456124C6C
:1013A0008D69241D002D256806D0054325600E4C4F
:1013B0000D69143415B104E08543F7E725688543CA
:1013C00025600D69012D02D1256805432560096A54
:1013D000012902D1196801431960106820F0010049
:1013E00010600020F0BD000000660040006000407A
:1013F0007047000010B5044600684169C943C90739
:1014000014D182685849914368D000218368574AB3
:101410009A4365D0002283685548984362D00020E3
:101420001143014302D02046FFF7E8FB2068C16862
:10143000406911F0030FC0F3400004D018B100213F
:101440002046FFF747FB21680869496910F0030F40
:10145000C1F3001104D019B101212046FFF73AFB76
:1014600020688169426911F0010FC2F300234269CB
:10147000C2F3C03205D023B11AB1E16B41F00101D2
:10148000E1638169C1F3400341694269C1F34021CD
:10149000C2F3C0322BB121B11AB1E16B41F00201AC
:1014A000E16381694269C1F38001C2F3802342692B
:1014B000C2F3C03229B123B11AB1E16B41F004018A
:1014C000E163816911F0700F0ED000214269436918
:1014D000C2F3C022C3F3C03341B127E0012195E735
:1014E000012298E701209BE70121EFE7F2B1EBB180
:1014F000816901F07001402929D006DC102909D04A
:1015000020290BD030290DD11DE0502923D060298E
:1015100008D124E0E16B41F0080102E0E16B41F009
:101520001001E163816921F070018161E06B0028A5
:1015300008D0216804204860012084F83800204643
:10154000FFF756FF10BDE16B41F02001E9E7E16BC9
:1015500041F04001E5E7E16B41F08001E1E7E16B3B
:1015600041F48071DDE7000003000004000300087F
:10157000000003102DE9F041040004D094F8380075
:10158000002518B107E00120BDE8F08184F839504A
:10159000204600F093F8022084F8380020680168A3
:1015A00021F0020101602068016841F00101016041
:1015B00000F0A8FC0746032605E000BF00F0A2FCEF
:1015C000C01B0A2863D820684068C007F6D020688E
:1015D0004168C90768D0A169012901683FD021F09D
:1015E00080010160E0690128206801683AD021F09B
:1015F00040010160206A01282068016835D021F08F
:1016000020010160606A01282068016830D021F063
:1016100010010160A06A0128206801682BD021F028
:1016200008010160E06A01282068016826D021F0E5
:1016300004010160D4E902010843D4E90412114312
:1016400008436168491E08432168C8612068016831
:1016500021F00101016000F055FC07461CE041F05B
:101660008001BEE741F04001C3E741F02001C8E737
:1016700041F01001CDE741F00801D2E741F004014B
:10168000D7E700BF00F03EFCC01B0A2804D904F8CD
:10169000386F0320657077E720684068C007F1D194
:1016A00020684068C00703D0042084F838006AE747
:1016B000E563012084F83800002065E7F0B5324B7F
:1016C0000768DFF8C0C018680322022409252F49E3
:1016D0000026401C87B0674521D11860012807D13A
:1016E000086840F000700860086800F0007005901D
:1016F0008DE85400CDE903256946254800F016FB26
:1017000000220521132000F097FC132000F088FC34
:1017100000220521142000F08FFC14202EE0DFF8B9
:1017200074C067452CD10F6847F080670F600F6861
:10173000012807F080670597186007D1086840F016
:1017400000700860086800F0007005904FF4405089
:101750008DE85100CDE9032569460F4800F0E6FA0F
:10176000002211463F2000F067FC3F2000F058FCAB
:1017700000221146402000F05FFC402000F050FCA9
:1017800007B0F0BD00640040640000204038024013
:10179000000C0240006800400004024010B590F8C0
:1017A0003820012A01D0122A39D190F83920012A93
:1017B00035D0012280F8392090F83820122A29D01B
:1017C0005FF0220280F838200022C26303685C695F
:1017D00044F480745C6103685C6944F400745C6187
:1017E00003685C6944F480645C6103685C6944F488
:1017F00000645C6103685C6944F400445C6180F8E7
:10180000392000680029416906D041F0100141618A
:10181000002010BD3222D5E741F00201F7E7022097
:1018200010BD000000B5416B0968A1F20121072934
:1018300014D2DFE801F00404040420240F00124A4B
:10184000C9B21170114A01EB410102EB01120146CC
:10185000104601E001460E4803F0D2FE0D48006834
:10186000416941F0020141610B480068416941F062
:101870000201416100BD014605483038ECE70146F0
:1018800003486038E8E700006C000020B043002007
:1018900050450020203E0020603E00202DE9F05FF2
:1018A0000E46016804468868400105D48868000136
:1018B00002D48868C00067D594F8390001280ED09A
:1018C000012784F8397094F8380022280AD01220B1
:1018D00084F838008868400106D500250AE0022017
:1018E000BDE8F09F3220F3E78868000101D50125AB
:1018F00000E002254FF4C07000EB05100A5802F01A
:1019000001020A50216B8A68EAB3D4F800C05CF87F
:1019100000301343CA68496842EAC1010B434CF8DE
:101920000030216B0A7C02F00F020A614FF4C27191
:10193000226801EB0511535823F00F03535022681E
:101940005358D4F830C0DCF810C043EA0C035350AD
:10195000216B4FF4C47303EB05130A7DD1F8151006
:1019600042EA01212268D150216B4FF4C67303EB88
:1019700005130A7ED1F8191042EA01212268D150DC
:1019800021680A5801E00DE046E042F001020A50E9
:1019900000F0B8FA81464FF00008DFF888A0DFF8C1
:1019A00088B019E022681358D1F80CC0098843EABE
:1019B0000C0343EA41511150B3E7701C0CD02EB117
:1019C00000F0A0FAA0EB0900B04205D9032084F88A
:1019D000380084F8398083E795B12068012D81684B
:1019E00013D0124888430028E7D194F838003228F1
:1019F0000ED084F8387000BF84F8398000206FE77B
:101A0000206881682AEA0100EDE72BEA0100EAE795
:101A1000222084F83800EFE7042084F83800012001
:101A20005EE700000300000400030008000003104C
:101A3000704790F83510022903D0802141650120BC
:101A40007047052180F835100068016821F0010118
:101A500001600020704700002DE9F84304464FF074
:101A60000008CDF8008064484FF41651A56D006859
:101A7000B0FBF1F72E6894F85C10082000FA01F131
:101A800031420FD021680A6852070BD50A6822F04C
:101A900004020A6094F85C108840A860606D40F011
:101AA0000100606594F85C1054488840304208D0CA
:101AB00021684969090604D5A860606D40F00200FC
:101AC00060654E4894F85C10C01C8840304208D0D5
:101AD00021680968890704D5A860606D40F004009A
:101AE000606594F85C1010208840304218D021685E
:101AF0000968090714D5A86020680168490304D55E
:101B00000068000308D5A16C07E00168C90503D48B
:101B1000016821F008010160216C09B12046884765
:101B200094F85C102020884030424FF0010631D0FC
:101B300021680968C9062DD5A86094F835000528E4
:101B40002068016806D0490347D5006800031DD40A
:101B5000616C1CE021F0160101602068416921F0F0
:101B600080014161206C08B9A06C20B12068016837
:101B700021F00801016094F85C103F208840A860C3
:101B800084F8348084F83560216D1FE0E16B09B181
:101B900020468847606D00282BD0606DC00714D0A8
:101BA000052084F835002068016821F001010160FA
:101BB0000098401C0090B84203D820680068C00715
:101BC000F6D184F8348084F83560E16C002910D0B7
:101BD00001B02046BDE8F04308470168C905D5D4E7
:101BE000016821F01001016084F8348084F83560C8
:101BF000CCE7BDE8F883000004000020010080006D
:101C00002DE9F041044600F07DF906465CB100255F
:101C100084F83450022084F835002068016821F0EF
:101C2000010101600DE00120BDE8F08100F06AF9DA
:101C3000801B052805D920206065032084F8350025
:101C4000F2E720680068C007F0D1226811681F48D9
:101C50000140D4E901031843D4E903363343184360
:101C600063691843A3691843E3691843236A184357
:101C70000843616A042903D1D4E90B1319430843CB
:101C8000106020684069666A20F0070130460E4304
:101C9000012704280AD1A06A06432046FFF7D8F896
:101CA00020B14020606584F83570BCE7206846614B
:101CB0002046FFF7B9F894F85C203F2191408160FD
:101CC000656584F835700020AEE700003F8010F0B5
:101CD00070B5044690F83400002501280CD001208E
:101CE00084F8340094F835600020012E06D084F882
:101CF00034000225284670BD022070BD022684F8FB
:101D0000356060652046FFF7CDF82068016841F036
:101D100001010160EEE731B500F0F4F8044600F08F
:101D2000F1F80099001B8842F9D338BD2DE9F84F2E
:101D3000DFF890B100224FF001084FF0030A4FF096
:101D40000F090BF1040E00BF0B6808FA02F42340E0
:101D5000A3426ED14D68022D01D0122D0ED1D508AF
:101D600000EB850CDCF820505607F70E09FA07F651
:101D7000B5430E69BE402E43CCF82060066855007E
:101D80000F790AFA05FC07F0030726EA0C06AF40B4
:101D9000374307604E68012E05D0022E03D0112E66
:101DA00001D0122E0ED18768CE6827EA0C07AE400C
:101DB0003E4386604668A6430C79C4F30014944001
:101DC00034434460C4688E6824EA0C04AE40264361
:101DD000C6604C68E4006FD53B4C256845F48045EF
:101DE0002560246822F0030504F480440094374CF5
:101DF0002E19D6F8084895072F0F09FA07F5AC43B6
:101E0000334DA84201D100252EE0324DA84201D128
:101E1000012529E0304DA84201D1022524E02F4DB3
:101E2000A84201D103251FE02D4DA84202D104256F
:101E30001AE041E02B4DA84201D1052514E02A4DBE
:101E4000A84201D106250FE0284DA84201D107255F
:101E50000AE0274DA84201D1082505E0254DA842FA
:101E600001D1092500E00A25BD402543C6F80858E0
:101E7000DBF800405D464E689C43F60300D51C43EA
:101E80002C60DEF8004075464E689C43B60300D5D2
:101E90001C432C600B4D08352C684E689C43F602A1
:101EA00000D51C432C60074D0C352C684E689C43B4
:101EB000B60200D51C432C60521C102AFFF444AF1C
:101EC000BDE8F88F003C014044380240003001403A
:101ED000000002400004024000080240000C0240E2
:101EE000001002400014024000180240001C024092
:101EF00000200240002402400AB1816170470904B9
:101F0000FBE7000001480068704700000000002067
:101F100002480168491C0160704700000000002071
:101F20000B4810B5016841F400710160016841F48B
:101F300080610160016841F480710160032000F05C
:101F40009BF8002000F006F800F03EF8002010BDDD
:101F5000003C024010B5014688B00022362000F057
:101F60006BF8362000F05CF813480024016841F05B
:101F700010010160006805A900F010000690684695
:101F800000F090F900F0B4F90C494000B0FBF1F119
:101F90000C480B4A491E026040F2E732C0E90324B4
:101FA000C0E9011400F01DFE10B1012008B010BD01
:101FB000044800F032FEF9E74038024040420F008A
:101FC000001000407443002010B5032000F054F8C6
:101FD000002211466FF00B0000F02EF8002211468F
:101FE0006FF00A0000F028F8002211466FF0090097
:101FF00000F022F800221146501F00F01DF80022C8
:102000001146101F00F018F800220F21901E00F05A
:1020100013F800220F21BDE81040501E00F00CB84C
:1020200000F01F02012191404009800000F1E020F2
:10203000C0F8001170470000F0B40E4B1B680C464E
:10204000C3F30223C3F10705042D00D90425191D8C
:10205000072901D2002300E0DB1E012606FA05F164
:10206000491E214099409E40761E16403143F0BCE7
:1020700002F0C3B80CED00E0064900F00702086862
:102080004FF6FF03184040EA0220034A104308605D
:10209000704700000CED00E00000FA052DE9F84360
:1020A0001E48016841F0805101600068012600F07F
:1020B00080500090300490FAA0F0194FB0FA80F0F0
:1020C00047F82060FFF71EFF05464FF47A78154C5D
:1020D00005E000BFFFF716FF401B404515D86068BC
:1020E000C003F7D54FF4003090FAA0F0B0FA80F0BA
:1020F00047F82060FFF706FF0546464608E000BFA8
:10210000FFF700FF401BB04202D90320BDE8F8836F
:1021100060688003F4D50020F8E7000040380240F2
:1021200000000E42007000402DE9F047DFF8649196
:1021300005460F46D9F8000000F00F01F8B28046BE
:10214000B94208D2014689F80010D9F8000000F021
:102150000F00B84274D128784F4C800705D520680D
:10216000A96820F0F000084320602878C00759D003
:1021700049496868083901281AD002281BD0032869
:1021800019D00968890700295ADA216821F003016A
:1021900001432160FFF7B6FE6968064641F28830C8
:1021A000012911D002291DD00329824627D035E00C
:1021B00009688903E7E709688901E4E7FFF7A2FEF8
:1021C000811B514501D926E082462068C0F3810079
:1021D0000128F3D126E000BFFFF794FE811B514593
:1021E00001D918E082462068C0F381000228F3D1AB
:1021F00018E000BFFFF786FE811B51450BD8206811
:10220000C0F381000328F5D10CE000BFFFF77AFE90
:10221000811B514502D90320BDE8F087206810F0EA
:102220000C0FF3D1D9F80010484601F00F01B94264
:1022300008D980F80080006800F00F00B84201D093
:102240000120E9E72878400705D52068E96820F4EF
:10225000E050084320602878000706D520682969E7
:1022600020F4604040EAC100206000F071F821686D
:10227000F02292FAA2F201F0F001B2FA82F2D14019
:10228000064A515CC840064908600020FFF762FE1C
:102290000020C1E7003C024008380240286F0008D7
:1022A000040000200F2202600C4A136803F00303AD
:1022B0004360136803F0F0038360136803F4E05392
:1022C000C36012684FF4E05303EAD202026104488B
:1022D000006800F00F0008607047000008380240F6
:1022E000003C0240014800687047000004000020E4
:1022F00008480949006809684FF4E05292FAA2F2CE
:1023000001F4E051B2FA82F2D140044A515CC84073
:10231000704700000400002008380240286F0008C1
:1023200008480949006809684FF4604292FAA2F22D
:1023300001F46041B2FA82F2D140044A515CC840D3
:10234000704700000400002008380240286F000891
:1023500030B51948006810F00C01184812D0184C1C
:1023600004290ED008290DD11349091F0A6802F06B
:102370003F030A68550247F6C07204D5B4FBF3F078
:1023800003E0204630BDB0FBF3F00B680968134052
:1023900092FAA2F2B2FA82F2D34058434FF440329A
:1023A00092FAA2F201F44031B2FA82F2D140491C11
:1023B0004900B0FBF1F030BD083802400024F400C1
:1023C000001BB7002DE9F84F0446DFF8CC820078F7
:1023D000A8F1040BC007ABF1040537D0D8F8001002
:1023E0004046C1F38101012908D00068C0F3810093
:1023F00002280AD1DBF80000400206D528688003D5
:1024000024D56068002878D020E0A3492079891F6E
:102410000870606868B1FFF775FD064605E000BF0B
:10242000FFF770FD801B642868D828688003F7D503
:102430000CE0FFF767FD064605E000BFFFF762FD11
:10244000801B6428F0D828688003F7D42078934E46
:1024500080074FF0010A4FF0000742D5D8F800106E
:10246000404611F00C0F08D00068C0F3810002282C
:102470000AD1DBF80000400206D42868800714D592
:10248000E068012839D110E0E068D8B1C6F800A0B2
:10249000FFF738FD814605E0FFF734FDA0EB0900AA
:1024A0000228C1D828688007F6D52868F82292FA51
:1024B000A2F22169B2FA82F220F0F80091400843BA
:1024C00028600EE03760FFF71DFD814606E000BF83
:1024D000FFF718FDA0EB090002280FD82868800735
:1024E000F6D42078000728D56D486169A1B1C0F8FD
:1024F00000A0FFF707FD814608E0CAE079E000BFD1
:10250000FFF700FDA0EB0900022872D862486C308A
:1025100000688007F4D510E00760FFF7F3FC814600
:1025200006E000BFFFF7EEFCA0EB0900022860D830
:1025300059486C3000688007F4D42078400749D5AA
:1025400055483830016841F080510160006800F062
:10255000805000905348016841F480710160FFF79A
:10256000D1FC814606E000BFFFF7CCFCA0EB0900E0
:1025700002283ED84B480068C005F5D5DFF8189111
:10258000207A09F1680989F80000A06888B1FFF78E
:10259000B9FC009008E000BFFFF7B4FC0099411AB5
:1025A00041F2883081426CD8D9F800008007F3D519
:1025B00010E0FFF7A7FC009008E000BFFFF7A2FCC7
:1025C0000099411A41F2883081425AD8D9F8000066
:1025D0008007F3D4A069E0B3D8F80010C1F38101FB
:1025E000022956D00228376604D0FFF78BFC044638
:1025F0004AE046E0FFF786FC074604E0FFF782FC6E
:10260000C01B02283DD828688001F7D4D4E907010F
:10261000084347F6C07292FAA2F2616AB2FA82F2F5
:102620009140A26A4FF0FF3303EB52024FF4403364
:1026300093FAA3F3B3FA83F39A40114308434FF09C
:10264000706292FAA2F2E16AB2FA82F29140084311
:1026500000E01CE0CBF80000C6F860A0FFF752FCD9
:10266000044604E0FFF74EFC001B022809D8286846
:102670008001F7D50BE000BFFFF744FC001B0228E8
:1026800002D90320BDE8F88F28688001F4D4002027
:10269000F8E70120F6E70000083802400000474252
:1026A000800E47420070004070B5040005D0002540
:1026B000A56294F8510010B106E0012070BD84F8C5
:1026C0005050204600F030F8022084F85100206875
:1026D000016821F040010160D4E901010843D4E917
:1026E00003121143084361690843218B01F400710F
:1026F0000843E1690843216A0843A16A0843216845
:102700000860A069042101EA1040616A0843216859
:1027100048602068C16921F40061C16165650120DC
:1027200084F85100002070BD2DE9F0430746006891
:1027300020490025204C022687B04FF003084FF0B7
:10274000050988421BD1206840F480502060206831
:1027500002AA00F4805005901820CDE9000682E816
:10276000200369461548FFF7E1FA8020CDE900060D
:1027700002AA694682E820031148FFF7D7FA1149F7
:102780003868884212D1206840F4801020602068A8
:1027900002AA00F4801005904FF46070CDE90006A5
:1027A00082E8200369460848FFF7C0FA07B0BDE891
:1027B000F083000000300140443802400004024031
:1027C0000000024000500140001402402DE9F84F83
:1027D000044690F850000026994617460D460128F9
:1027E0000DD04FF0010B84F850B0FFF78BFB804603
:1027F00094F85100B246012804D0022694E0022049
:10280000BDE8F88F002D7BD0002F79D0032084F80D
:102810005100C4F854A02563A786E786C4F838A001
:10282000A4F83CA0A4F83EA0C4F844A0C4F840A07A
:10283000A068B0F5004F04D12068016841F48041E0
:10284000016020680168490603D4016841F0400135
:102850000160E068B0F5006F606804D030B3E08ECE
:10286000012823D03EE010B1E08E01281AD135F8BE
:10287000021B206805E020688168890706D535F8C5
:10288000021BC160E08E401EE0860BE0B9F1000F34
:1028900034D0B9F1FF3F05D0FFF734FBA0EB0801BE
:1028A00049452BD2E08E0028E5D11EE0216815F8BD
:1028B000010B087306E020688168890706D515F8C2
:1028C000011B0173E08E401EE0860BE0B9F1000FA2
:1028D00014D0B9F1FF3F05D0FFF714FBA0EB0801BE
:1028E00049450BD2E08E0028E5D14B46012202215A
:1028F0002046CDF8008001F0C1FC10B1032613E0A2
:1029000011E042464946204601F0A8FC18B10126D4
:102910002020606508E0A06818B92068C168806858
:102920000090606D00B1012684F851B084F850A089
:10293000304665E72DE9F84F044690F85000002630
:102940000A9F9A4693460D464FF0010801280ED083
:10295000012084F85000FFF7D5FA814694F8510021
:10296000616801280CD0B1F5827F07D102E0022016
:10297000BDE8F88FA16809B9042801D00226BDE09E
:1029800055B1BBF1000F07D0BAF1000F04D094F895
:102990005100012802D004E00126AFE0052084F8B0
:1029A000510000206065C4F838B0A4F83EA0A4F837
:1029B0003CA02563A4F836A0A4F834A02064606489
:1029C00020680168490603D4016841F040010160B4
:1029D000E068B0F5006F606804D0E8B3E08E0128CD
:1029E0003BD06AE010B1E08E01282ED1216835F885
:1029F000020BC860E08E401EE08626E0B8F1000FB2
:102A00000DD0E08E58B120688168890707D535F868
:102A1000021BC160E08E401EE0864FF00008E08F90
:102A200058B120688168C90707D0C0682BF8020B2D
:102A3000E08F401EE0874FF00108781C05D0FFF7BB
:102A400061FAA0EB0900B84246D2E08E0028D5D149
:102A5000E08F0028D2D136E0FFE7216815F8010B9E
:102A60000873E08E401EE08627E000BFB8F1000F3B
:102A70000DD0E08E58B120688168890707D515F818
:102A8000011B0173E08E401EE0864FF00008E08FCE
:102A900058B120688168C90707D0C0680BF8010BDE
:102AA000E08F401EE0874FF00108781C05D0FFF74B
:102AB00029FAA0EB0900B8420ED2E08E0028D5D149
:102AC000E08F0028D2D13B46012202212046CDF8DA
:102AD000009001F0D3FB08B103260FE04A463946C7
:102AE000204601F0BBFB18B101262020606505E0FF
:102AF000A06818B92068C16880680090012084F837
:102B00005100002084F85000304631E74FF0E021BA
:102B10000428086903D020F004000861704740F0E1
:102B20000400FAE710B5401EB0F1807F01D3012008
:102B300010BD4FF0E02460610F21601701F05DFBD4
:102B40000020A06107202061002010BD7047704761
:102B500030B590F83820012A19D0012200F8382F1A
:102B600002234370D1E900342343D1E902452C43C9
:102B700023430C6923434C69896923430B4350F871
:102B8000381C4B64427000210170084630BD0220A1
:102B900030BD30B590F83820012A20D0012280F8CD
:102BA0003820022380F8393003685C6824F0700410
:102BB0005C6003685C680D682C435C6003689C681B
:102BC00024F080049C6003689C6849680C439C6006
:102BD00080F83920002180F83810084630BD0220E6
:102BE00030BD10B5040003D094F8390010B107E0EF
:102BF000012010BD002084F83800204600F00CF8B9
:102C0000022084F83900211D206801F0D1FC012048
:102C100084F83900002010BD70470168CA6842F08E
:102C20000102CA600068016841F0010101600020F2
:102C30007047704770B50446006801694FF00005A1
:102C4000C943890715D4C168C943890711D4E91E4E
:102C5000016101202076206880698007204602D02B
:102C6000FFF7E7FF04E000F021F9204600F000FA4A
:102C7000257620680169C943490717D4C168C9434B
:102C8000490713D46FF00401016102202076206807
:102C9000806910F4407F204602D0FFF7CAFF04E0AD
:102CA00000F004F9204600F0E3F925762068016978
:102CB000C943090716D4C168C943090712D46FF084
:102CC00008010161042020762068C0698007204641
:102CD00002D0FFF7AEFF04E000F0E8F8204600F075
:102CE000C7F9257620680169C943C90617D4C168A8
:102CF000C943C90613D46FF0100101610820207682
:102D00002068C06910F4407F204602D0FFF791FF91
:102D100004E000F0CBF8204600F0AAF92576206800
:102D20000169C943C90708D1C168C943C90704D1AA
:102D3000891E0161204600F0B9F920680169C94384
:102D4000090609D4C168C943090605D46FF080019A
:102D500001612046FFF7FAFE20680169C943490670
:102D600009D4C168C943490605D46FF04001016127
:102D7000204600F0A5F920680169C94389060BD4F3
:102D8000C168C943890607D46FF02001016120465C
:102D9000BDE87040FFF7DBBE70BD0000F0B5374AFC
:102DA0000168002402250126354885B0914211D1E1
:102DB0004FF440710091CDE90154CDE903466946D5
:102DC000FEF7B4FF4FF4C0400090CDE901546946CE
:102DD0002C4811E0B1F1804F09D02B48814211D12C
:102DE00060200090CDE901546946284829E0072178
:102DF0000091CDE901546946CDE90346FEF796FFFF
:102E000005B0F0BD2248814207D14FF470400090D8
:102E1000CDE9015469461F4813E01F4A1F48204F5F
:102E2000914211D10096CDE901546946CDE903459F
:102E3000FEF77CFF4FF4E0500090CDE90154694665
:102E40003846CDE90345D9E7164A914208D1E42135
:102E50000091CDE901540321CDE903416946CDE755
:102E600011488142CCD140200090CDE90154092085
:102E7000CDE9034069463846C0E700000000014044
:102E80000000024000100240000400400004024024
:102E900000080040000C0240000C004000200240EE
:102EA000001C02400004014000180040704770B54B
:102EB000044690F838000D4601280DD0012684F80C
:102EC0003860022084F8390042B1042A18D0082A58
:102ED0002AD00C2A4DD139E0022070BD206801F0C3
:102EE000D3FB2068816941F0080181612068816914
:102EF00021F004018161206881692A69114311E090
:102F0000206801F0EDFB2068816941F40061816176
:102F10002068816921F480618161206881692A6962
:102F200041EA0221816124E0206801F00BFC206865
:102F3000C16941F00801C1612068C16921F0040143
:102F4000C1612068C1692A69114311E0206801F05C
:102F500029FC2068C16941F40061C1612068C16930
:102F600021F48061C1612068C1692A6941EA0221B6
:102F7000C16184F83960002084F8380070BD10B554
:102F8000040003D094F8390010B107E0012010BD0F
:102F9000002084F83800204600F00CF8022084F865
:102FA0003900211D206801F003FB012084F839005D
:102FB000002010BD08B501682648274A814205D186
:102FC000106840F001001060106812E02248001FF5
:102FD000B1F1804F08D0214B99420ED1016841F0E8
:102FE00002010160006826E0016841F00101016012
:102FF000006800F00100009008BD194B994207D10C
:10300000016841F004010160006800F00400F2E78B
:10301000144B994207D1016841F008010160006832
:1030200000F00800E7E7104B994207D1106840F024
:1030300002001060106800F00200DCE70B4A9142C9
:10304000DAD1016841F040010160006800F0400001
:10305000D1E7000000000140443802400004004075
:1030600000080040000C004000040140001800402F
:103070007047000010B504460068012201F0F8FA1C
:1030800008492068884202D00749884203D1416C30
:1030900041F4004141642068016841F00101016090
:1030A000002010BD000001400004014000680349F9
:1030B000884201D1FEF72CBF70470000001000408D
:1030C0007047704770B5026804461068D16853694C
:1030D00010F00F0F50D003F0010501F49076354346
:1030E0005DD0C20705D0CA0503D5E26B42F00102EC
:1030F000E263420705D5DA0703D0E26B42F0020231
:10310000E263820705D5DA0703D0E26B42F00402DE
:10311000E263020705D5DA0703D0E26B42F008024A
:10312000E263E26B002A33D0800604D5880602D51C
:10313000204601F075FB20684069E16BC0F3801008
:10314000090700D428B3204601F05CFB20684169E0
:1031500049061AD5416921F040014161606BA0B177
:103160001B490165606BFEF764FC002810D0606BA2
:10317000016DBDE870400847830610D58B060ED55B
:103180002046BDE8704001F04BBB2046FFF799FF99
:1031900070BD2046FFF795FF0020E06370BD030679
:1031A00006D50B0604D52046BDE8704001F0D4BC1E
:1031B0004006F3D54806F1D5D168204621F04001FC
:1031C000D160202184F8391000F063F970BD00004F
:1031D000F547000870B5040004D094F839000025C4
:1031E00010B106E0012070BD84F83850204600F090
:1031F00023F8242084F839002068C16821F40051A4
:10320000C160204601F052FB2068016921F4904121
:1032100001612068416921F02A0141612068C1688B
:1032200041F40051C160E563202084F8390084F83E
:103230003A00002070BD00002DE9F04F0546D0F89F
:1032400000C00220DFF818820024DFF818A2012154
:10325000032207238706460287B04FF4807BC445CC
:1032600039D1DAF8008048F01008CAF80080DAF89E
:1032700000C00DF104080CF0100CCDF814C04FF094
:10328000C00CCDF800C088E80F0069467648FEF70C
:103290004DFDDFF8DC8175494046C8F80010C0E9F3
:1032A0000174C0E90346C8F81440C0E9064BC8F8E9
:1032B0002040C8F82440FEF7A3FC08B1FDF71BFE30
:1032C000C5F83480002205212520C8F83850FEF7C3
:1032D000B3FE252046E0DFF89C81DFF88891DFF817
:1032E00098E1A9F10409C44541D1D9F8008048F416
:1032F0000038C9F80080D9F800C00DF104080CF4BA
:10330000003CCDF814C04FF0600CCDF800C088E848
:103310000F0069467046FEF709FDDFF854815749F2
:1033200008F160084046C8F80010C0E90174C0E91F
:103330000346C8F81440C8F81840C8F81C40C8F83C
:103340002040C8F82440FEF75BFC08B1FDF7D3FD30
:10335000C5F83480002211462620C8F83850FEF700
:103360006BFE2620FEF75CFE07B0BDE8F08FDFF8AD
:103370001081C4453CD1D9F8008048F48028C9F8B0
:103380000080D9F800C00DF104080CF4802CCDF8B1
:1033900014C04FF4407CCDF800C088E80F006946A7
:1033A0007046FEF7C3FCDFF8C880344908F1C00856
:1033B00060394046C8F80010C0E90174C0E903460E
:1033C000C8F81440C0E9064BC8F82040C8F82440AB
:1033D000FEF716FC08B1FDF78EFDC5F8348000221B
:1033E00011462720C8F83850FEF726FE2720B9E7F7
:1033F000244B9C45B8D1DAF8007047F02007CAF892
:103400000070DAF8003001AF03F0200305934FF4A9
:103410008443009387E807000820049069461A480F
:10342000FEF784FC1148194F183838608005C7E949
:103430000104C7E903467C61BC61FC613C6238461B
:103440007C62FEF7DDFB08B1FDF755FD6F630022DE
:1034500005214720BD63FEF7EFFD472082E700000E
:103460000010014044380240000402404064024021
:10347000F441002000440040000C024088600240FB
:10348000004800400014014000180240144300208E
:1034900070477047FEE700002DE9FC4100212448F9
:1034A000FFF7E8FD00212348FFF7E4FD0421214850
:1034B000FFF7E0FD204C012204212046FEF71CFD11
:1034C000012208212046FEF717FD01221021204687
:1034D000FEF712FD012220212046FEF70DFD0120FE
:1034E0000321CDE90001034600221146134800F0F4
:1034F0007FF800241148009401232246214614300D
:10350000019400F075F8002002F078FC02F044FC11
:1035100002F06EFD0A4E0B4DFA2700BF03F0EEF8E5
:103520003078052801D02F60F8E72C60BDE8FC81D9
:10353000B84000208C3F0020001C0240A446002020
:10354000D00000203418004070B504460D462748CE
:10355000FDF780FE002005B10120617B30EA01010A
:103560002173607339D020784FF0FF01C207A27B2E
:1035700003D0FF2A19D0A17332E0FF2A30D0A17303
:10358000E17BC1F10101E17381071FD42169491C6D
:1035900021616268914223D9400700D5A268226167
:1035A0001EE0400710D561680EE0E17BC1F101012A
:1035B000E17381070AD42269521C226161688A4240
:1035C0000ED9400700D5A168216109E02269521E89
:1035D0002261A1688A42E4D302E008B90020A07306
:1035E000BDE870400A2002F09DBD0000D83D0020DB
:1035F00070B50478DDE9046561F3000462F3410409
:1036000063F382040470C0E901560AB1294600E060
:1036100031460161AE4204D3002181604160012046
:1036200070BD002070BD000070B53D484FF24841AC
:103630002DED068B058805F0010010FB01F0C5F3A8
:10364000400140F2771211FB02F100EBC100FCF7E0
:10365000BDFE41EC190B334CC5F3C0004FF248419D
:1036600084ED029B10FB01F0C5F3800140F277125C
:1036700011FB02F100EBC100FCF7A8FE41EC180BB6
:10368000E80684ED008B48D4A80611D59FED26AB43
:1036900051EC190B53EC1A2BFCF726FEC4E902017E
:1036A00053EC1A2B51EC180BFCF71EFEC4E9000179
:1036B0001F486FF06301808910FB01F0FCF786FE64
:1036C00041EC100B84ED040BFCF7AAFE94ED020B09
:1036D00008EE900A51EC100BFCF7A2FE94ED000BE3
:1036E00008EE100A51EC100BFCF79AFE114900EE9F
:1036F000100A081FB0EE681AD0ED000AFDEEE00ACD
:1037000010EE900AF0EE480A00F086FCBDEC068B45
:10371000BDE87040074800F061BE9FED07ABB7E71A
:10372000D2000020C04D0020000000000000E03F5B
:10373000F4450020DC0000200000000000000040F4
:103740001FB513481149012401604FF480314160D5
:1037500000218160016184610E4A0162C0E90A2191
:10376000C46104634461C160FDF727FD08B1FDF742
:10377000C2FB0620CDE90004694605480294FDF726
:103780006FFC002801D0FDF7B6FB1FBD00200140F3
:10379000D83D00200100000F0F4810B50D49016011
:1037A0000521416000214FF400328160C0E903121D
:1037B0005201C0E905210122C0E90721416281626D
:1037C000C162FDF7D7FE002803D0BDE81040FDF729
:1037D00092BB10BD00640040203E0020104810B590
:1037E0000E4901600521416000214FF04072C0E99F
:1037F00002124FF4003202615201C0E90521012298
:10380000C0E9072141628162C162FDF7B3FE002871
:1038100003D0BDE81040FDF76EBB10BD006800404E
:10382000603E0020194808B5016841F4800101603C
:10383000016801F480010091016841F40011016008
:103840000068002200F40010009005210C20FEF713
:10385000F3FB0C20FEF7E4FB002205211020FEF70D
:10386000EBFB1020FEF7DCFB002205213920FEF7E0
:10387000E3FB3920FEF7D4FB002205213A20FEF7B6
:10388000DBFBBDE808403A20FEF7CABB30380240F7
:1038900000B595B0142215496846FCF701FD0021DA
:1038A000684602F055FC1249142208600F4905A829
:1038B0001431FCF7F5FC002105A802F049FC0B4986
:1038C000142228310AA8FCF7EBFC00210AA802F018
:1038D0003FFC064914223C310FA8FCF7E1FC002113
:1038E0000FA802F035FC15B000BD0000386F0008CD
:1038F000680000202DE9F04F6E4887B00024016871
:1039000041F001010160016801F0010105910168C8
:1039100041F002010160016801F0020105910168B6
:1039200041F004010160016801F0040105910168A2
:1039300041F008010160016801F00801059101688A
:1039400041F010010160016801F01001059101686A
:1039500041F020010160016801F02001059101683A
:1039600041F040010160016801F0400105910168EA
:1039700041F0800101600068002200F080000590A5
:1039800008214D48FEF7B8FA012204214A48FEF703
:10399000B3FA4FF40057002239464848FEF7ACFA14
:1039A000002240214648FEF7A7FADFF818B14FF48D
:1039B000C068002241465846FEF79EFABE1000221B
:1039C00031463D48FEF798FA4FF4804900224946B7
:1039D0003B48FEF791FA4FF4FF7A012251463748EF
:1039E000FEF78AFA0C2000900125CDE901546946C2
:1039F00031480394FEF79AF9022000903248CDE94D
:103A0000010569462C48FEF791F90097CDE901546C
:103A100069462A480394FEF789F94FF49060CDE98E
:103A20000004694629480294FEF780F9402000907E
:103A3000CDE90154694622480394FEF777F9CDF8A1
:103A40000080CDE90154694658460394FEF76EF9AB
:103A50000096CDE90154694617480394FEF766F9CC
:103A6000CDF80090CDE90154694615480394FEF75E
:103A70005DF9CDF800A0CDE9015469460F480394E3
:103A8000FEF754F93C200090CDE9015469461048F6
:103A90000394FEF74BF9002202210848FEF72CFAA6
:103AA00001F0A2FF002231460348FEF725FA07B0D5
:103AB000BDE8F08F3038024000100240001802408C
:103AC000001402400004024000002110000C0240DB
:103AD000001C0240104810B50E4901604FF482717D
:103AE000416000218160C1604FF400720161C0E952
:103AF00005123022C0E90721416281620A21C162B8
:103B0000FEF7D2FD002803D0BDE81040FDF7F3B961
:103B100010BD000000300140A03E0020104810B54C
:103B20000E4901604FF48271416000218160C160E3
:103B30004FF400720161C0E905123022C0E907218B
:103B4000416281620A21C162FEF7AEFD002803D006
:103B5000BDE81040FDF7CFB910BD00000050014096
:103B6000F83E002010B5174888B01549016059216A
:103B70000024C0E9011440F2F311C0E90314FFF777
:103B8000FEF908B1FDF7B7F960200090FA20CDE901
:103B90000104002269460B480494FFF788F908B134
:103BA000FDF7A9F9042269460648FFF780F908B134
:103BB000FDF7A1F90348FFF7F1F808B010BD0000C8
:103BC00000180040B840002010B521488AB01F49B5
:103BD0000024C0E900148460C4600461FFF7CFF9D9
:103BE00008B1FDF788F9079407A919480894FEF76A
:103BF000D0FF08B1FDF77FF96020CDE90004029401
:103C00000022694612480494FFF751F908B1FDF704
:103C100072F9042269460E48FFF749F908B1FDF729
:103C20006AF9082269460A48FFF741F908B1FDF729
:103C300062F90C2269460648FFF739F908B1FDF729
:103C40005AF90348FFF7AAF80AB010BD0000014076
:103C5000503F002010B523488AB04FF080410160EA
:103C600059210024C0E9011440F6C311C0E903142E
:103C7000FFF785F908B1FDF73EF9079407A9194840
:103C80000894FEF786FF08B1FDF735F96020009033
:103C90004FF47A70CDE9010400226946114804947A
:103CA000FFF705F908B1FDF726F9042269460D482A
:103CB000FFF7FDF808B1FDF71EF90822694609482B
:103CC000FFF7F5F808B1FDF716F90C22694605482B
:103CD000FFF7EDF808B1FDF70EF90248FFF75EF8BF
:103CE0000AB010BD8C3F002010B51A488AB01849A0
:103CF0000160B3210024C0E90114C4600461FFF72E
:103D00003EF908B1FDF7F7F8079407A911480894A0
:103D1000FEF73FFF08B1FDF7EEF86020CDE90004A3
:103D20000294002269460B480494FFF7C0F808B1DA
:103D3000FDF7E1F8042269460648FFF7B8F808B134
:103D4000FDF7D9F80348FFF729F80AB010BD0000C5
:103D500000040040C83F002010B521488AB01F4928
:103D60000024C0E900148460C4600461FFF707F90F
:103D700008B1FDF7C0F8079407A919480894FEF7A1
:103D800008FF08B1FDF7B7F86020CDE90004029400
:103D90000022694612480494FFF789F808B1FDF73C
:103DA000AAF8042269460E48FFF781F808B1FDF72A
:103DB000A2F8082269460A48FFF779F808B1FDF72A
:103DC0009AF80C2269460648FFF771F808B1FDF72A
:103DD00092F80348FEF7E2FF0AB010BD0008004069
:103DE0000440002010B524488AB0224901605921BE
:103DF0000024C0E901144FF4FA61C0E90314FFF78D
:103E0000BEF808B1FDF777F8079407A91A48089497
:103E1000FEF7BFFE08B1FDF76EF8602000904FF48A
:103E20007A70CDE901040022694613480494FFF733
:103E30003EF808B1FDF75FF8042269460E48FFF727
:103E400036F808B1FDF757F8082269460A48019488
:103E5000FFF72DF808B1FDF74EF80C226946064829
:103E6000FFF725F808B1FDF746F80348FEF796FF7F
:103E70000AB010BD000C00404040002010B52B4897
:103E800090B029490024C0E900148460C460046132
:103E90004461FFF774F808B1FDF72DF80E940EA9F0
:103EA00022480F94FEF775FE08B1FDF724F8079439
:103EB000089409944FF400500A94CDE90B4007A9E7
:103EC0001A480D94FEF744FE08B1FDF714F860207F
:103ED000CDE90004029403940494059400226946F9
:103EE00012480694FEF7E3FF08B1FDF704F8042238
:103EF00069460E48FEF7DBFF08B1FCF7FCFF08221D
:103F000069460A48FEF7D3FF08B1FCF7F4FF0C221C
:103F100069460648FEF7CBFF08B1FCF7ECFF034803
:103F2000FEF73CFF10B010BD000401407C400020B3
:103F30000D4810B50B4901600C49416000214FF458
:103F400080628160C0E903120C22C0E90521C161D1
:103F5000FFF740F9002803D0BDE81040FCF7CBBFC5
:103F600010BD000000100140F4400020A0860100B8
:103F70000C4810B50A4901604FF4E131416000215D
:103F800081600C22C160C0E904128161C161FFF748
:103F900021F9002803D0BDE81040FCF7ACBF10BDEC
:103FA00000440040344100200C4810B50A4901602B
:103FB0004FF4E1314160002181600C22C160C0E911
:103FC00004128161C161FFF705F9002803D0BDE843
:103FD0001040FCF790BF10BD004800407441002025
:103FE0000C4810B50A4901604FF4E13141600021ED
:103FF00081600C22C160C0E904128161C161FFF7D8
:10400000E9F8002803D0BDE81040FCF774BF10BDEC
:1040100000140140B44100203CB5DFED4E1A10EE13
:10402000103A4D4A9FED4D2A4D4CDFED4E2A9342FA
:1040300002DDB0EE420A05E010EE103AA34201D9CB
:10404000B0EE620A10EE903A934202DDF0EE420AC0
:1040500005E010EE902AA24201D9F0EE620A11EEBC
:10406000102A414C414BA24202DD9FED411A05E06E
:1040700011EE102A9A4201D99FED3E1A30EEC02A65
:1040800000236C4632EE412ABDEEC22A12EE102AFF
:10409000B1EE402AADF8002032EE602A32EE412A1D
:1040A000BDEEC22A12EE102A30EE602A30EE200A4F
:1040B000ADF8022032EE412A30EE410ABDEEC22AAE
:1040C000BDEEC00A12EE102AADF8042010EE102A40
:1040D000ADF8062034F91320002A01DD154600E072
:1040E000554200EE105AB8EEC00AB4EEE10AF1EE05
:1040F00010FA06DD002A00DC524200EE102AF8EE2B
:10410000C01A5B1C042BE5DB00EE100AB8EEC00AF7
:10411000F4EEC01AF1EE10FA17DD00EE100A0020DE
:10412000F8EEC00A80EEA10A34F9102000EE902AC1
:10413000F8EEE00A60EE800AFDEEE00A10EE902A4A
:1041400024F81020401C0428EEDB00980860019839
:1041500048603CBD0000000000C05A4600C05A46FE
:1041600000C05AC600C05AC600401C4600401CC6CB
:1041700000401C4600401CC6FEE7000010B51A486F
:104180001A49C2894B881A4412B24FF4FA734A8012
:104190009A4202DC5B429A4200DA4B80C37C4FF0C9
:1041A000804233B140F214535363827C22B10A221D
:1041B00003E04FF47A73536300220A70D2B264238F
:1041C00012FB03F2B0F90A00B1F9021000F0A2F8F4
:1041D00007484FF40051C27B064802B10122BDE8F6
:1041E0001040FDF789BE0000F4450020E4000020E7
:1041F000B84600200018024070470907090E002841
:1042000006DA00F00F0000F1E02080F8141D70477E
:1042100000F1E02080F800147047000030B4034C37
:104220004466034C846630BC02F090B84D630008CD
:104230005B630008074882B000680168416800912C
:10424000C16841F01001C16080220349014802B0F9
:1042500002F064BA744100200A46002038B50B46CB
:10426000009204460022802100F008F8002804D0C3
:10427000606D40F020006065032038BD2DE9F041FD
:104280001D4617460E460446DDF8188035E0681CCA
:1042900033D02DB1FDF736FEA0EB0800A8422CD399
:1042A0002068416821F0E00141606068B0F5827FDC
:1042B0000BD1A068B0F5004F02D0B0F5806F04D1EB
:1042C0002068016821F040010160A06AB0F5005F3C
:1042D0000AD1206801684DF6FF7211400160206824
:1042E000016841F400510160012084F85100002070
:1042F00084F850000320BDE8F0812068806836EA29
:10430000000004D00020B842C1D10020F3E7012012
:10431000F9E700007CB50D462949144600EE900AE5
:10432000B1F90620098AF8EEE00A114400EE101AED
:104330002448B8EEC00A01F027FF234800EE905A47
:10434000B0F90610008AF8EEE00A084400EE100A00
:104350001E48B8EEC00A01F017FF1D4800EE904A53
:10436000B0F90000F8EEE00A00EE100A1948B8EEC5
:10437000C00A01F009FF01210020CDE90001154824
:1043800090ED0F0ABDEEC00A10EE100A03B20F48FE
:1043900090ED0F0ABDEEC00A10EE100A02B20948F5
:1043A00090ED0F0ABDEEC00A10EE100A01B20A48E5
:1043B00002F078F9BDE87C400A2001F0B3BE0000AD
:1043C00020450020384B0020F0440020CC4A00203B
:1043D00050450020544D0020203E00202DE9FC4196
:1043E000224F234D0646002436F9140000EE100A31
:1043F00004EB440007EB0010F8EEC00AB0F900002F
:1044000000EE100A04EBC40000EB4000B8EEC00A56
:1044100005EB800001F0B8FE641C042CE4DB95ED94
:10442000600A0021BDEEC00A10EE100A00B2CDE90C
:10443000000195ED450ABDEEC00A10EE100A95ED9B
:104440002A0A03B2BDEEC00A10EE100A95ED0F0A5B
:1044500002B2BDEEC00A10EE100A01B2054802F029
:1044600021F9BDE8FC410A2001F05CBEB043002008
:10447000A44B0020203E00204FF40064084D094F5B
:10448000E60000BF01F08AFA012221462846FDF726
:1044900033FD002231463846FDF72EFDF2E70000DD
:1044A000001002400014024001F048BE30B526481A
:1044B00093B00025016841F080510160006800F070
:1044C000805011902148016841F44041016000682A
:1044D000022400F4404011900120009001908005DA
:1044E000CDE9064006200890B420CDE90904042057
:1044F0000B906846FDF766FF00B1FEE7FDF7CEFDC5
:1045000000B1FEE70CA90F2081E831004FF4A05064
:104510000F904FF48050109005210CA8FDF704FE79
:1045200000B1FEE7FDF7DEFE4FF47A71B0FBF1F06B
:10453000FEF7F8FA0420FEF7E9FA00220F21501ED8
:10454000FDF77AFD13B030BD4038024000700040E6
:104550001048016841F4700101600F48016841F0A2
:10456000010101600C4A00210832116002680B4B06
:104570001A400260031D0A4A1A60026822F480226F
:10458000026005480C300160024958068039086015
:104590007047000088ED00E000380240FFFFF6FEA3
:1045A000103000240148FEF745BB00007443002092
:1045B000F0B50268234B244D244E254F254C4FF077
:1045C000804C984209D0604507D0A84205D0B0423F
:1045D00003D0B84201D0A04204D122F0700E4A6844
:1045E00042EA0E0298421BD0604519D0A84217D06B
:1045F000B04215D0B84213D0A04211D0164DA842F7
:104600000ED0164DA8420BD0154DA84208D0154D1E
:10461000A84205D0144DA84202D0144DA84203D19F
:1046200022F44075CA682A4302608A68C2620A6836
:104630008262984201D0A04201D10969016301213F
:104640004161F0BD0000014000040040000800404E
:10465000000C0040000401400040014000440140C3
:104660000048014000180040001C004000200040AD
:1046700010B50123046A8B409C430462036A8A409C
:104680001343036210BD000030B5026A22F001023C
:104690000262026A436884690D6824F0730425434A
:1046A00022F002048A6822430B4CA04202D00B4C39
:1046B000A0420BD122F00804CA6823F440732243BD
:1046C0004C6922F004021C438B69234343608561DB
:1046D00049684163026230BD0000014000040140AE
:1046E00030B5026A22F010020262026A43688469ED
:1046F0000D6824F4E64444EA05248D6822F0200283
:1047000042EA05120D4DA84202D00D4DA8420ED12D
:10471000CD6822F0800242EA05124D6923F440631D
:1047200043EA85038D6922F0400243EA8503436032
:10473000846149688163026230BD0000000001406D
:104740000004014030B5026A22F480720262036AFA
:104750004268C46923F4007324F073050C682C4389
:104760008D6843EA05230D4DA84202D00C4DA842A6
:104770000ED1CD6823F4006343EA05234D6922F48A
:10478000405242EA05128D6923F4806342EA051221
:104790004260C4614968C163036230BD00000140EA
:1047A0000004014030B5026A22F480520262046AB9
:1047B0004268C3690D6823F4E64343EA05238D6824
:1047C00024F4005444EA0534084DA84202D0084DB0
:1047D000A84204D14D6922F4804242EA8512426027
:1047E000C36149680164046230BD000000000140FB
:1047F0000004014010B5806B0021C185C184FEF723
:1048000060FC10BD0168CA6822F49072CA60016839
:104810004A6922F001024A61202180F83A1070476B
:1048200010B590F83A10222901D0022010BD8168FD
:10483000B1F5805F11D00169002901681FD0496876
:1048400001F07F03816A4A1C82620B70C18D491E90
:104850000904090CC18518D026E00269816A002A82
:104860000268526805D0D2B20A80816A491C81620E
:10487000ECE7C2F308020A80816A891CF7E74A68FC
:10488000816A4B1C83620A70E0E70168CA6822F4FF
:104890009072CA6001684A6922F001024A612021CF
:1048A00080F83A10FEF7F4FD002010BD2DE9F0412C
:1048B00004460068016921F44052E1681143016136
:1048C0002168C86849F20C6290432369A268E569CF
:1048D0001A4363692B431A430243CA60216848693B
:1048E00020F44072A06910434861E1696425B1F584
:1048F000004F9748974A21684FF032083FD09142C5
:1049000001D081427CD1FDF70BFD00EBC00101EB32
:10491000001061688900B0FBF1F6FDF701FD00EBC6
:10492000C00101EB001061688900B0FBF1F0B0FB41
:10493000F5F06FF01801484306EB800108EB011019
:10494000B0FBF5F000F0F006FDF7EAFC00EBC0016B
:1049500001EB001061688900B0FBF1F0B0FBF5F0ED
:1049600006EB0016FDF7DCFC00EBC00101EB0010CC
:1049700061688900B0FBF1F7FDF7D2FCD2E091420B
:1049800001D081423DD1FDF7CBFC00EBC00101EB32
:10499000001061684900B0FBF1F0B0FBF5F00601D2
:1049A000FDF7BEFC00EBC00101EB0010616849009F
:1049B000B0FBF1F7FDF7B4FC00EBC00101EB001018
:1049C00061684900B0FBF1F0B0FBF5F06FF0180141
:1049D000484307EB800108EBC100B0FBF5F000F0A5
:1049E000F80006EB4006FDF79BFC00EBC00101EB75
:1049F000001061684900B0FBF1F7FDF791FC3CE065
:104A000055E0FDF775FC00EBC00101EB001061689B
:104A10004900B0FBF1F0B0FBF5F00601FDF768FCD2
:104A200000EBC00101EB001061684900B0FBF1F739
:104A3000FDF75EFC00EBC00101EB0010616849006E
:104A4000B0FBF1F0B0FBF5F06FF01801484307EB55
:104A5000800108EBC100B0FBF5F000F0F80006EBB8
:104A60004006FDF745FC00EBC00101EB001061685A
:104A70004900B0FBF1F7FDF73BFC00EBC00101EB97
:104A8000001061684900B0FBF1F0B0FBF5F06FF089
:104A90001801484307EB800108EBC100B0FBF5F0BB
:104AA00000F00700216830448860BDE8F081FDF720
:104AB0001FFC00EBC00101EB001061688900B0FB36
:104AC000F1F6FDF715FC00EBC00101EB0010616889
:104AD0008900B0FBF1F0B0FBF5F06FF0180148432E
:104AE00006EB800108EB0110B0FBF5F000F0F006DA
:104AF000FDF7FEFB00EBC00101EB001061688900CF
:104B0000B0FBF1F0B0FBF5F006EB0016FDF7F0FBA3
:104B100000EBC00101EB001061688900B0FBF1F708
:104B2000FDF7E6FB00EBC00101EB001061688900B6
:104B3000B0FBF1F0B0FBF5F06FF01801484307EB64
:104B4000800108EB0110B0FBF5F000F00F00A9E7C1
:104B5000001401400010014090F83910212901D0C3
:104B6000022070478168B1F5805F016A0BD04A1C52
:104B70000262026809785160C18C491E0904090C5F
:104B8000C1840ED017E009880268C1F308015160A2
:104B900001690029016A02D0491C0162ECE7891C05
:104BA000FBE70168CA6822F08002CA600068C16839
:104BB00041F04001C16000207047000010B504487A
:104BC00001F0CBFDBDE810400148FEF77BBA0000C4
:104BD000F44000200148FEF775BA0000344100207F
:104BE00010B5044801F0B9FDBDE810400148FEF7DA
:104BF00069BA0000744100200148FEF763BA000062
:104C0000B4410020FEE7000037B514460846064BC5
:104C10006A46214600F0E6F804466946002000F0A6
:104C200078FC20463EBD0000135500082DED020B18
:104C3000019820F0004001909DED000B02B07047FC
:104C400002E008C8121F08C1002AFAD17047704755
:104C5000002001E001C1121F002AFBD170470000B3
:104C60002DE9FF5F82B00021DDE90430020DDDF89F
:104C700040B0034318D044F61050A2F2FF32424332
:104C80001514119801281FD0A5EB0B00401C5FEAFA
:104C9000000A4FF000064E4FDFF83891B0465046FC
:104CA00015D5CAF1000413E0119801244AA3012884
:104CB00001D16FEA0B010298119AC0E90031C0E9F5
:104CC000024206B0BDE8F09FCBF10000DFE70446EA
:104CD0000021404A491842EB0450CDE9001012E08F
:104CE000E00707D032463B4640464946FBF7FCFA10
:104CF0008046894632463B4610461946FBF7F4FA91
:104D000006460F466410002CEAD1DDE90401DDE916
:104D10000023BAF1000F06DAFBF7E6FA42464B46EB
:104D2000FBF7E2FA05E0FBF719FD42464B46FBF7BD
:104D300015FD04460E460022284BFBF759FB03D80D
:104D40004FF0FF30014607E00022254B2046314658
:104D5000FBF75DFCFBF771FD102409E0002C0ADB7A
:104D60000A220023FBF78EFB039B30321A55641E88
:104D700050EA0102F2D1641C039AC4F111031444F5
:104D8000119A012A03D0012208430DD10AE00843F9
:104D900004D000204FF0110B119072E7A3EB0B052C
:104DA0006D1E0DE05B4504DD4FF0000205F10105CD
:104DB00004E003DA4FF00002A5F10105002AECD06F
:104DC00002981199C0E90231C0E9004579E7000075
:104DD000000014400000F03F300000000000F043ED
:104DE0000000E03F2DE9FF4F95B09B4689460646FF
:104DF00000250FE2252877D100242746F84A012113
:104E0000059400E0044316F8013F203B01FA03F04B
:104E10001042F7D130782A2811D06FF02F03307864
:104E2000A0F13002092A16D8059A44F0020402EBD8
:104E3000820203EB42021044761C0590EFE759F81A
:104E4000042B0592002A03DA504244F400540590E2
:104E500044F00204761C30782E2816D116F8010F83
:104E600044F004042A280DD06FF02F023078A0F10E
:104E70003003092B09D807EB870302EB4303C7185C
:104E8000761CF3E759F8047B761C30786C280FD039
:104E900006DC4C2817D068280DD06A2814D104E00D
:104EA000742810D07A280FD10DE044F400140AE0E1
:104EB00044F4801401E044F440147278824202D138
:104EC00004F58014761C761C307866280BD013DC31
:104ED000582877D009DC002875D04528F6D0462818
:104EE000F4D047281AD19DE118E0632835D0642812
:104EF00079D0652812D195E1702873D008DC672835
:104F0000F1D069286FD06E280DD06F2806D1B5E09A
:104F100073282CD0752875D0782874D05A461799E4
:104F200090476D1C75E1C4F30250022809D0032894
:104F30000DD0D9F8001004280DD00D6009F1040936
:104F400067E1D9F80010EA17C1E90052F6E7D9F88D
:104F500000100D80F2E70D70F0E719F8041B8DF8D2
:104F6000001000208DF80100EA46012003E059F806
:104F700004AB4FF0FF3061074FF0000102D40DE0A9
:104F800008F101018846B9420FDA8045F8DB1AF8CA
:104F900008100029F4D108E008F101018846814297
:104FA000FADB1AF808100029F6D105985B46A0EB49
:104FB000080721463846179A00F094FA284400EB77
:104FC000080507E04DE029E10DE01AF8010B5A460B
:104FD00017999047B8F10108F7D25B462146384649
:104FE000179A13E142E00A220092C4F302524FF0F2
:104FF000000A022A08D059F804CB032A4FEAEC71C0
:105000000AD00DE029E02AE009F1070121F00702AA
:10501000F2E802C1914609E00FFA8CFC4FEAEC710C
:10502000042A03D14FFA8CFC4FEAEC71002907DA0D
:105030000A460021DCF1000C61EB02012D2202E0A6
:10504000220504D52B228DF80420012203E0E2077B
:1050500001D02022F7E7904659E00A2102E0102211
:105060000DE010214FF0000A00910BE010224FF0EC
:10507000000A44F004040827009203E008224FF0DD
:10508000000A0092C4F30252022A05D059F804CB58
:105090000021032A08D009E009F1070121F00702E5
:1050A000F2E802C1914605E01FFA8CFC042A01D106
:1050B0000CF0FF0C4FF00008220728D5702806D00E
:1050C000009B83F0100353EA0A0305D00EE0402250
:1050D0008DF80420012208E05CEA010206D03022AB
:1050E0008DF804208DF8050002229046009B83F085
:1050F000080353EA0A030AD15CEA010201D16207FC
:1051000005D530228DF804204FF001087F1E582865
:1051100004D034A003900EA802900DE036A0F9E769
:1051200053466046009AFBF7ADF984460398825CCB
:105130000298401E029002705CEA0100F0D10298D1
:1051400006A9081A00F1200A600702D524F4803469
:1051500000E00127574502DDA7EB0A0000E0002030
:1051600000EB0A01009005984144401A0590E003C5
:1051700006D45B462146179A059800F0B3F905441A
:10518000002706E001A85A46C05D179990476D1C9C
:105190007F1C4745F6DBE0030CD55B462146179A9A
:1051A000059800F09FF9054404E030205A4617990D
:1051B00090476D1C0099481E00900029F5DC08E01E
:1051C000029802995A460078491C02911799904713
:1051D0006D1CBAF10001AAF1010AF1DC65E10000E1
:1051E00009280100303132333435363738396162BD
:1051F0006364656600000000303132333435363781
:1052000038394142434445460000000000F058F957
:105210000544761C307800287FF4ECAD19B02846A0
:10522000BDE8F08F620700D4062709F1070222F0DB
:10523000070CFCE80223E14603F000485FEA080C93
:1052400002D00FF2702C0DE05FEA045C02D50FF281
:10525000682C07E05FEAC47C02D00FF2602C01E00A
:10526000AFF2700C4FF0FF3823F00043CDF850C080
:1052700065280CD006DC452809D046281DD04728D3
:105280003DD13DE0662818D067287ED138E0002166
:10529000112F01DB112000E0781CCDE9000106A9E7
:1052A0000EA8FFF7DDFCDDE90F010E9A0391002146
:1052B000009207F1010A04914DE04FF00040009781
:1052C000CDE9011006A90EA8FFF7CAFCDDE90F021F
:1052D00003920E9B11990022DDF80CA0009304921A
:1052E00011B9791C00EB010AB7EB0A0004D4C0F134
:1052F000FF3007F1010A0490AAEB0700019044E097
:10530000012F00DA01270021112F01DD112000E01B
:105310003846CDE9000106A90EA8FFF7A1FCDDE99A
:105320000F010E9A0391002104910092BA462107C1
:105330000CD40399514500DA8A46BAF1010F05DD14
:10534000009AAAF10101515C302908D0B84202DA72
:1053500010F1040F06DA0121CDE9011015E0AAF1E0
:105360000101E9E7002805DC049901440491AAEB56
:10537000000102E0411C514500DD8A460499401AB3
:10538000401C01904FF000400290200704D4019887
:10539000504501DBCDF8048000208DF84F000298C5
:1053A0000DF14F07B0F1004F25D02B200E90029841
:1053B0004FF0020800280CDA404202902D200E9097
:1053C00007E00A210298FBF747F83031029007F80E
:1053D000011DB8F10001A8F10108F2DC02980028D3
:1053E000EFD1791E0E980870307800F0200040F060
:1053F000450007F8020D12A8C01B00F10708149819
:10540000007800B1012000EB0A01019801EBE07186
:1054100005984144401A401E0590E00306D45B46BF
:105420002146179A059800F05DF805441498007815
:1054300018B15A46179990476D1CE00324D55B4676
:105440002146179A059800F04DF805441CE0049891
:10545000002807DBDDE90301884203DD0098405C9A
:10546000179901E0179930205A469047049805F1A2
:105470000105401C04900198401E019004D12E208B
:105480005A46179990476D1CBAF10001AAF1010A1A
:10549000DDDC05E017F8010B5A46179990476D1CA3
:1054A000B8F10001A8F10108F4DC5B462146179A27
:1054B0000598ABE62D0000002B0000002000000046
:1054C0002DE9F041044600251E461746880404D401
:1054D00005E039462020B0476D1C641EF9D52846EA
:1054E000BDE8F0812DE9F041044600251E469046B6
:1054F000C80301D5302700E02027880404D505E043
:1055000041463846B0476D1C641EF9D52846BDE8B3
:10551000F0810A68531C0B6010707047D0ED000AD0
:10552000F4EEC00AF1EE10FA01DD80ED000AD0EDD4
:10553000000AB1EE400AF4EEC00AF1EE10FA01D210
:1055400080ED000A70470000002000F057FC00F0DA
:105550004FFD0A4C2069012801D100F037F820697D
:10556000022801D100F00CF82069032802D10020A4
:1055700000F044FC00F03CFDECE70000A4460020F5
:10558000084810B5037A08A20121032000F00CFDA1
:105590000948012109A2037ABDE81040042000F067
:1055A00003BD0000F044002054454D505F50495465
:1055B0003A202532640000002045002054454D501B
:1055C0005F5941573A202532640000000EB5074864
:1055D000B0F801100379C2788DE80E00037804A2B8
:1055E0000121002000F0E0FC0EBD00000A46002072
:1055F0002532582025326420253258202532580083
:1056000030B5448984814A6B6FF00405928A52BA9E
:1056100042814B6BDB8A5BBA438003804B6B1B8BF5
:105620005BBA1BB293FBF5F38380496B131BB3F595
:10563000805F897E0172416901DD491E03E013F537
:10564000805F01DA491C416102EB4131028A891A0B
:10565000816130BD10B559482DED0A8BB0F90610A7
:10566000B0F908009FED569BDFED57BA574C9FED00
:10567000588A9FED58BADFED58AA9FED58AADFED82
:10568000588A00294EDA9FED57CA00282ADA91FB82
:10569000F0F0FAF79BFE41EC100BFFF7C7FA53EC62
:1056A000192B51EC100BFAF7A3FE0AD8C4ED01BA7E
:1056B00084ED028A9FED4C0A84ED030A9FED4B0AAC
:1056C0000BE09FED4B0A84ED010A9FED4A0A84ED41
:1056D000020A84ED03BA9FED480A84ED040ABDEC8A
:1056E0000A8B10BDFBDD91FBF0F0FAF76FFE41EC89
:1056F000100BFFF79BFA53EC192B51EC100BFAF738
:1057000077FE84ED01CA06D884ED028AC4ED03AAAF
:105710009FED3A0AE1E784ED02AAC4ED038A9FED0A
:10572000380ADAE7DBDD00289FED36CA22DD91FB7F
:10573000F0F0FAF74BFE41EC100BFFF777FA53EC61
:10574000192B51EC100BFAF753FE0AD89FED2E0AD5
:1057500084ED010AC4ED02AA84ED038AC4ED04BA03
:10576000BDE79FED2A0A84ED010AC4ED028A84EDAB
:1057700003AAB2E7B3DA91FBF0F0FAF727FE41ECA7
:10578000100BFFF753FA53EC192B51EC100BFAF7EF
:105790002FFE84ED01CA08D89FED1D0A84ED020A90
:1057A00084ED038A9FED1B0A97E79FED1B0A84EDAA
:1057B00002BA84ED030A9FED190A8EE780450020A6
:1057C000000000000000F03F0AD7A3BB70000020DB
:1057D000A8C64BBEE17A543F355E7ABF68910DBFD3
:1057E000E17A54BF0AD7A33BBE9F7A3F4ED111BC8A
:1057F0006F1203BC7B140EBF6F1203BBA69B443C0D
:1058000099BB16BB0AD7233B52499D3A99BB163B1D
:10581000355E7A3F6F12033C295C0FBFBC74933B2B
:1058200010B530216A2000F05DFA0A20FCF773FA07
:105830000D21242000F056FA0A20FCF76CFA0E2104
:10584000282000F04FFA0A20FCF765FA8E2131205B
:1058500000F048FA0A20FCF75EFA01210B2000F064
:105860007BF80A20FCF757FA002000F059F81028BE
:1058700001D0012010BD01210B2000F06DF80A209D
:10588000FCF749FA00210A2000F066F80A2000F02F
:1058900047F808B1022010BD0A20FCF73CFA0021AD
:1058A0000B2000F059F80B2000F03AF808B1032063
:1058B00010BD0A20FCF72FFA2421412000F04CF8FB
:1058C000412000F02DF8242801D0042010BD0A202A
:1058D000FCF721FAC021422000F03EF8422000F0FF
:1058E0001FF8C02801D0052010BD0A20FCF713FACC
:1058F00000212A2000F0F6F90A20FCF70CFA00211A
:10590000342000F0EFF90A20FCF705FA0622032103
:105910000E2000F0EDF86420FCF7FDF9002010BD2A
:1059200010B50146322000F0DDF90A20FCF7F3F94A
:105930008021342000F0D6F90A20FCF7ECF935205C
:1059400000F070F904460021342000F0CBF90A2061
:10595000FCF7E1F9204610BD70B50D460446002164
:105960002A2000F0BFF90220FCF7D5F921462920B2
:1059700000F0B8F90220FCF7CEF92946642000F0C7
:10598000B1F90220FCF7C7F981212A2000F0AAF919
:10599000BDE870400A20FCF7BEB9000010B500F069
:1059A000ADFE0E480088C0F300310D48FDF7CCFD78
:1059B0000C48FBF7FFFB6421B0FBF1F0074980B214
:1059C000891E88801F38042801D2012100E00021AF
:1059D0000348BDE810401438FDF7B6BDD2000020E2
:1059E000B8460020D83D002010B50122D10205485C
:1059F000FCF782FA0122BDE8104091030248FCF74F
:105A00007BBA00000010024000140240FCF788FA44
:105A1000FEF74CFDFDF76EFFFDF704FFFDF790FE6E
:105A2000FDF7BAFEFDF7DAFEFEF754F8FEF776F85A
:105A3000FEF77EFAFEF79CFAFEF7B6FAFEF7D0FA0A
:105A4000FEF7C2F8FEF706F9FEF74EF9FEF784F905
:105A5000FEF7C8F9FEF712FAFEF784F8FBF736FAFC
:105A6000FEF7E8FB00F00EFAFDF716FDFFF7F2FD7A
:105A700000F00CF8FDF70CFF00F05BFBFEE70146C1
:105A80000020842900D0C81C7047000030B585B0C4
:105A90006420FCF740F9752000F0C4F81249002496
:105AA0001422887011496846FAF7FAFB4FEA0D058F
:105AB00005EB4400417815F8140000F013F90120BB
:105AC000FCF729F9641CE4B20A2CF1D3032000F09E
:105AD00004F9022000F0FCF8FFF7A2FE00F050F8F5
