:020000040800F2
:1000000008550020BD030008EF590008354E0008D0
:10001000ED590008012400081566000800000000E2
:1000200000000000000000000000000001030008C4
:10003000552900080000000055030008955D0008E0
:10004000D7030008D7030008D7030008D703000828
:10005000D7030008D7030008D7030008D703000818
:10006000D7030008D7030008D7030008D703000808
:1000700059280008D7030008D7030008D703000851
:1000800065280008D7030008D703000811240008DA
:1000900005240008D7030008D7030008D703000889
:1000A000D7030008D7030008D7030008D7030008C8
:1000B000D7030008D7030008D7030008D7030008B8
:1000C000D7030008D7030008D7030008D7030008A8
:1000D000D7030008A9640008C1640008CD640008C3
:1000E000D7030008D7030008D7030008D703000888
:1000F000D7030008D7030008D7030008D703000878
:10010000D7030008D7030008D7030008D703000867
:10011000D7030008D7030008915E0008D703000842
:10012000D7030008712800087D280008D7030008BD
:10013000D7030008D7030008D703000829240008C4
:100140001D240008D7030008D7030008D7030008C0
:10015000D7030008D7030008D7030008E5640008A8
:10016000D7030008D7030008D7030008D703000807
:10017000D7030008D7030008D703000800000000D9
:10018000D7030008D7030008D7030008D7030008E7
:10019000D7030008D7030008D7030008D7030008D7
:1001A0000000000000000000D703000800F002F883
:1001B00000F096F80AA090E8000C82448344AAF16B
:1001C0000107DA4501D100F08BF8AFF2090EBAE869
:1001D0000F0013F0010F18BFFB1A43F0010318477B
:1001E0002CB500004CB50000103A24BF78C878C187
:1001F000FAD8520724BF30C830C144BF04680C602D
:10020000704700000023002400250026103A28BF74
:1002100078C1FBD8520728BF30C148BF0B60704778
:100220006E2900F01B83702900F05D8466290AF0B6
:10023000E28065290AF0DF8067290AF0DC80612905
:100240000AF0DB8003681B0A28BF41F0800169299E
:1002500000F0C882642900F0C582752900F0C282CE
:100260006F2900F0EA83782900F02984E92900F059
:100270008583E42900F08283F52900F07F83EF294C
:1002800000F0E783F82900F028840368DB0928BF21
:1002900041F08001632901F04D81732901F0528101
:1002A000E32901F05D81F32901F0628100207047AC
:1002B0001FB50AF096F89DE8030000F0C9F901F0B7
:1002C000B1F904000020002109F0BEFA401C606072
:1002D0000020002109F0A2FAE0601FBD10B510BD9A
:1002E00001F072F91146FFF7E3FF07F051FA01F050
:1002F0004FFA03B4FFF7F2FF03BC01F07FFA0000EE
:100300002B4B19680868B0E8F04F80F30988BFF3F9
:100310006F8F4FF0000080F31188704700000000DD
:1003200006480068006880F3088862B661B6BFF3CB
:100330004F8FBFF36F8F00DF00BF00BF08ED00E0FD
:10034000DFF80C00016841F470010160704700BFE4
:1003500088ED00E0EFF30980BFF36F8F144B1A684C
:100360001EF0100F08BF20ED108A20E9F04F10603A
:1003700008B44FF0500080F31188BFF34F8FBFF3E4
:100380006F8F08F047FD4FF0000080F3118808BC24
:1003900019680868B0E8F04F1EF0100F08BFB0EC05
:1003A000108A80F30988BFF36F8F704700BF00BFCA
:1003B00008000020EFF305807047000009488047DF
:1003C00009480047FEE7FEE7FEE7FEE7FEE7FEE737
:1003D000FEE7FEE7FEE7FEE704480549054A064B4F
:1003E000704700003D5E0008AD010008084F002086
:1003F00008550020085100200851002070B506461D
:1004000000F00AF9056806F10B0020F00704B44279
:100410009CBF002070BD2B466A68BAB11068A0422C
:1004200010D304F1080188423CBF5068586007D3DC
:100430005168101941601168091B0160586014600F
:10044000101D70BD13465268002AE7D12146284688
:1004500000F0EAF80028DED170BD00001CB50C46A3
:10046000064B7B4469460090204600F010FA044693
:100470000020694600F01EFA20461CBD4F04000013
:10048000032A40F2308010F0030C00F0158011F8C0
:10049000013BBCF1020F624498BF11F801CB00F898
:1004A000013B38BF11F8013BA2F1040298BF00F8EC
:1004B00001CB38BF00F8013B11F0030300F02580A9
:1004C000083AC0F0088051F8043B083A51F804CBD0
:1004D000A0E80810F5E7121D5CBF51F8043B40F896
:1004E000043BAFF30080D20724BF11F8013B11F8A1
:1004F00001CB48BF11F8012B24BF00F8013B00F8E5
:1005000001CB48BF00F8012B704710B5203AC0F06E
:100510000B80B1E81850203AA0E81850B1E8185004
:10052000A0E81850BFF4F5AF5FEA027C24BFB1E841
:100530001850A0E8185044BF18C918C0BDE81040B2
:100540005FEA827C24BF51F8043B40F8043B08BFBB
:100550007047D20728BF31F8023B48BF11F8012B82
:1005600028BF20F8023B48BF00F8012B704702F07B
:10057000FF0343EA032242EA024200F002B84FF0CE
:1005800000020429C0F0128010F0030C00F01B8060
:10059000CCF1040CBCF1020F18BF00F8012BA8BF6E
:1005A00020F8022BA1EB0C0100F00DB85FEAC17C32
:1005B00024BF00F8012B00F8012B48BF00F8012BE5
:1005C00070474FF0000200B5134694469646203916
:1005D00022BFA0E80C50A0E80C50B1F12001BFF4FC
:1005E000F7AF090728BFA0E80C5048BF0CC05DF862
:1005F00004EB890028BF40F8042B08BF704748BFB0
:1006000020F8022B11F0804F18BF00F8012B704723
:10061000704770477047000000487047B04E002098
:10062000704770477047704738B504460A46002047
:100630006946AFF30080002808BF38BD0246009924
:10064000204600F027FB012038BD012000F0B4BF98
:10065000F8B5AFF30080054600200C46102000BF1F
:100660000646A819A0420DD9324669460020AFF3CC
:100670000080070008BF00F09FFF0098A04218BF4D
:100680000546C419FFF7C8FF05600746F01D20F0B6
:1006900007004619284600F00AF8B44208BFF8BD22
:1006A000A21B31463868BDE8F84000F0F3BA0021DB
:1006B0000160C0E9011070471020704770B5044612
:1006C000051FFFF7A9FF0068002C14BF446870BD28
:1006D000002C18BFAC423CBF20466468F8D30168C8
:1006E0000A18AA4218BF456003D12A68054611447A
:1006F000016028684119A1421CBF6C6070BD61682F
:10070000696021680844286070BD10B500F0BEFA29
:10071000006810BD10B5044600F0B8FA046010BDC2
:1007200070B5044685690068C10601D5302600E031
:100730002026C00707D070BDD4E90121304690477C
:10074000206A401C20626D1EF6D570BD70B504464F
:1007500085690078C00707D170BDD4E90121202048
:100760009047206A401C20626D1EF6D570BD096856
:100770004A0501D540B27047C905FCD500B27047A3
:1007800009684A0501D5C0B27047C905FCD580B2D9
:10079000704770B50C460546012A05D028788006BA
:1007A00000D5EA69002302E0012305E05B1C9342C7
:1007B00002D2E05C0028F9D1A869E618C01AA86145
:1007C000286A184428622846FFF7AAFF04E0D5E902
:1007D000012114F8010B9047B442F8D32846FFF7E3
:1007E000B5FF70BD2DE9F04106460024106875295B
:1007F000314616A510D0FFF7BAFF002802DA4042B2
:1008000013A507E031688A0701D512A502E0490760
:1008100004D511A5012401E0FFF7B2FF00210A224F
:1008200006F1240709E0B0FBF2FCB0FBF2F302FB97
:100830001C00303078541846491C0028F3D1234658
:100840002A463046BDE8F04100F083BA00000000BF
:100850002D0000002B00000020000000116802683D
:10086000006A530501D508700AE0D30501D5088058
:1008700006E0130603D5C217C1E9000200E00860D4
:100880000120704701694A1C02610878704700B571
:100890008FB0CDE901310021059105497944CDE9B9
:1008A00003101146684600F029F90FB000BD0000A2
:1008B000E5FFFFFF0A6802F8010B0A6070470000BD
:1008C0002DE9FF5F15468A460446DFF8AC80F84400
:1008D0000027D8E900103E46CDE9001010E03AF8B4
:1008E00016106A4602A800F047FE411C07D0217886
:1008F000890603D5E269391891420DD80744761C60
:100900002078800602D5E069B84205DDAE42E6DB1C
:100910003AF816000028E2D1A069C01BA061204669
:10092000FFF7FEFED8E90010CDE90010002017E027
:100930003AF818106A4602A800F01EFEB0F1FF3F18
:1009400081460BD000250DF1080B05E0D4E901210B
:100950001BF8050090476D1C4D45F7D308F10100C9
:10096000B0428046E4DB206A384420622046FFF72C
:10097000EDFEBDE8FF9F0000CEAB00002DE9F04189
:100980008046D21D22F007020025D2E90002F52997
:1009900015A614D0011E72F1000106DA0023D0EB77
:1009A000030063EB020211A608E0D8F800108B07E1
:1009B00001D50FA602E0490701D50EA60125114673
:1009C000002408F1240704E000F07EF930323A55A3
:1009D000641C50EA0102F7D12B46324621464046BC
:1009E000BDE8F04100F0B5B9000000002D000000A6
:1009F0002B0000002000000030B4002100F124048E
:100A000008E002F00705D208303542EA4372DB08FD
:100A10006554491C52EA0305F3D10468002310A26F
:100A2000250707D5A40600D421B1C46901230DA26E
:100A3000641EC46130BC00F08CB910B50446214678
:100A40001068FFF79DFE02462046BDE810400023D7
:100A5000D2E7D21D22F00701D1E90023CCE7000044
:100A60000000000030000000F0B40D4601880905C8
:100A700002D5214C7C4402E01F4C7C440E34002102
:100A800000F1240608E002F00F071209E75D42EAD0
:100A900003721B097754491C52EA0307F3D1027809
:100AA0000023120704D5702D06D009B1022311349A
:100AB0002246F0BC00F04DB901231034F8E770B5C0
:100AC00004460D4621461068FFF75AFE02462946A5
:100AD0002046BDE870400023C6E7D21D22F0070380
:100AE000D3E90023C0E70368126843F020030360E2
:100AF0000823C3610023B7E730AA00002DE9F05FA7
:100B0000894604464FF0000ADFF874B1FB44C0F890
:100B100020A02046E1688847002874D0252806D008
:100B2000D4E901219047206A401C2062F1E70026A9
:100B30005F462046E16888472028054607DB312DBF
:100B400005D2781910F8200C08B10643F1E7B00778
:100B500001D526F00406C4F81CA00027C4F818A08C
:100B60002A2D09D0284606F0E3FB38B304EB8708AA
:100B7000303DC8F8185019E059F8041B204604EB22
:100B800087029161E1688847012F054618D1E06925
:100B9000002820DA26F020061DE0D8F8180000EB27
:100BA000800005EB40003038C8F818002046E168A6
:100BB0008847054606F0BCFB0028EED1012F0AD07D
:100BC0002E2D08D12046E16888477F1C0546022F5C
:100BD00046F02006C4DBA069002803DA404246F054
:100BE0000106A061F00701D026F010066C2D0BD095
:100BF000682D09D04C2D39D06A2D35D0742D35D0C3
:100C00007A2D33D016E038E0E1682F462046884739
:100C1000B842054609D16C2F26D04FF48060E168B8
:100C2000064320468847054604E06C2F1AD04FF44F
:100C3000807006430DB3A5F14100192802D8203574
:100C400046F400664A462946204626604E46FFF78F
:100C5000E7FA80B101280BD0F61D26F0070000F15D
:100C6000080956E74020E4E78020D8E70020D6E7CF
:100C700006F104094DE7284652E7206ABDE8F09FD7
:100C8000C0A9000000487047A84E002000487047E7
:100C9000A84E0020034640688C46002818BF8842B2
:100CA0003CBF03464068F8D318681844884207D010
:100CB0000CF1030020F00700001D411A521A0146F2
:100CC000081D0A60FFF7FABC30B5B0F10A024FEA1E
:100CD000900E71F100034EEA817EB0EB0E0061EBE5
:100CE00091014FEA101E4EEA017E10EB0E0041EB1F
:100CF00011114FEA102E4EEA016E10EB0E0041EB7F
:100D000011214FEA104E4EEA014E10EB0E0041EB5E
:100D10001141401841F100014FEAD00040EA417012
:100D20004FEAD10110EB80054FEA810444EA907448
:100D300044EB01046D1944EB0404521BA3414FF032
:100D4000000348BF0A3200D530BD401C41F100010C
:100D500030BD2DE9F0470D4699469246044600F114
:100D600024080168880604D5E06921F0100121609B
:100D700000E00120A84201DD471B00E00027A16937
:100D80007A1902EB0900081AA0612078C00602D483
:100D90002046FFF7C5FC002608E0D4E901211AF837
:100DA00006009047206A401C761C20624E45F4DB0A
:100DB0002078C0060AD52046FFF7B2FC06E0D4E949
:100DC000012130209047206A401C2062381EA7F184
:100DD0000107F4DC07E0D4E9012118F80500904789
:100DE000206A401C2062281EA5F10105F3DC204684
:100DF000FFF7ACFC2078000602D50220BDE8F087A2
:100E00000120FBE770472DE9FF4F0C461E464FF0CF
:100E1000FF378BB0D2E90001DDF860800A908A4686
:100E2000C1F30A5505B93D46002108464FF00000C0
:100E3000BAF1000F00F4400005DA00EB80004FF437
:100E4000400101EA50004FEA9059B9F1010F00DD6D
:100E5000B9460A9850EA4A000ED044F61050A5F25E
:100E6000FF3545432F14B8F1000F1ED07542291EDF
:100E70001EDDC9F100021CE0B8F1010F4FF00000C7
:100E800001D0302103E0F24305E02154401CB04280
:100E9000FBDB30460022002121540B99C1F8088069
:100EA000C1E900200FB0BDE8F08FBD1B6D1CDEE76F
:100EB0004A4600DA694206A800F0F8FB06AB93E860
:100EC000070003AB83E8070050460A9900F0FDFCD9
:100ED0008DE80700A0F500501F3800900398002D02
:100EE0000ADD42F21F014A460844002303A9039089
:100EF000684600F066FF09E0A0F500504A461F383A
:100F0000002303A90390684600F070FF8DE80700F6
:100F10000004000C03D04FF0FF30410800E0104601
:100F2000B8F1000F03D00022009215461EE0751E96
:100F300005D4FFF7C9FE303262556D1EF9D5B346B0
:100F40000122084302D000227F1C04E020783028D0
:100F500001D100227F1E002A099784D01DE0112DA7
:100F600007DAFFF7B1FE303262556D1C50EA01021C
:100F7000F5D1084302D00098C8B10EE00021681EE8
:100F800005E0235C625C63542254401E491C81428C
:100F9000F7DBAB46A81B401E0990002004F80B00AD
:100FA0000B98099AC0F80880C0E9002B7AE711264F
:100FB0004FF0000857E72DE9F04F88460446D21D50
:100FC00022F0070191B0D1E90001CDE90A0105F055
:100FD0004FFB02460B98C00F01D02D2007E0206880
:100FE000810701D52B2002E0202101EAC000032A5D
:100FF000099001D0072A05DB03464146204600F050
:1010000015FB0BE12078800601D5E06900E00620A1
:10101000B8F1650F814606D0B8F1660F18D0B8F167
:10102000670F70D131E00020B9F1110F009001DBA2
:10103000112301E009F101030AAA01A90CA8FFF795
:10104000E2FEDDE90C70002609F10105834647E068
:1010500001204B4600904FF000470AAA01A90CA8B6
:10106000FFF7D1FEDDE90DB00C995D46002610B901
:1010700009F101000D18B9EB050003D4C0F1FF36EA
:1010800009F10105A5EB09002BE0B9F1010F01DA27
:101090004FF001090020B9F1110F0090484601DD21
:1010A000112300E003460AAA01A90CA8FFF7ABFE32
:1010B000DDE90C704D4600268346207800070AD4EF
:1010C000AB4500DA5D4601A8012D04DD411911F898
:1010D000011C302907D04F4502DA17F1040F04DA5A
:1010E000012082460FE06D1EEEE7002F02DCED1BB3
:1010F0003E4403E0781CA84200DD7D1CB81B00F1D3
:10110000010A4FF000472078000703D4AA4501DB0D
:101110004FF0FF3A0021B7F1004F0DF143088DF871
:10112000431024D002202B23002F01DA7F422D23ED
:101130000A21021EA0F1010000DC5FB197FBF1FC67
:1011400097FBF1F201FB1C7C17460CF1300C08F800
:1011500001CDEEE7A8F1010003702188090501D552
:10116000452100E06521A0F1010800F8011C099863
:101170000FA9A1EB0807FF1D00B10120411901EBE8
:10118000EA70A1693844081A401EA0612078C006A0
:1011900002D42046FFF7C4FA099828B1D4E9012106
:1011A0009047206A401C20622078C00622D5204645
:1011B000FFF7B6FA1EE0002E04DBB34502DD01A8FE
:1011C000805D00E03020D4E901219047206A401C76
:1011D0002062761CAAF101005FEA000A0AD100F041
:1011E00021FAC0680168405CD4E901219047206A77
:1011F000401C2062281EA5F10105DCDC07E0D4E9D3
:10120000012118F8010B9047206A401C2062381E0B
:10121000A7F10107F3DC2046FFF798FA032011B08D
:1012200041E600002DE9F04F04460D46D21D22F0A4
:10123000070089B0D0E900974846394605F018FA0A
:101240000246F80F01D02D2307E02068810701D561
:101250002B2302E0202101EAC0038DF820300BB1DE
:10126000012000E00020032A824601D0072A04DB87
:101270002946204600F0DAF93FE12078800601D4C3
:101280000D2500E0E569C7F30A560D2D49DA002166
:101290004FEA175B08464FF00000002F00F44000B3
:1012A00007DA00EB80004FF4400100EBD07001EA58
:1012B00060008115012901DD4FF0FF3100224FEA66
:1012C000850CBCF1180F06D31346ACF118004FF093
:1012D0008052C24003E04FF4801323FA0CF30CF168
:1012E0000C0CBCF1200F04D3ACF1200C09FA0CF06B
:1012F00001E007FA0CF000294FF0004801DD18B9B1
:101300000FE00ED140450CD319EB02095F4121B922
:10131000404502D19F4329EA0209BBEB175F00D089
:10132000761C2088000502D57B48784402E07A4884
:101330007844193808AA302302F80A30037C0AF1ED
:101340000101002E0AF1020A53546A4602DC4FF0F2
:10135000300101E04FF031014FF001088DF800102D
:1013600002D0A6F2FF3603E059EA470100D06B4EE7
:10137000002D02DC2178090704D54FF002082E2148
:101380008DF80110C44600210BE0C7F303433F0171
:10139000C35C491C6D1E02F80830052908F10108DC
:1013A00001DA002DF1DC00210CE000EB1973491C7F
:1013B0001B786D1E082902F808304FEA091908F158
:1013C000010801DA002DF0DC21688B0602D516E059
:1013D000A8F10108E04505DD02EB080313F8013C24
:1013E000302BF5D0B8F1000F09DD02EB080313F83C
:1013F000013C2E2B03D1090701D4A8F10108002DCF
:1014000005DD3E2102F808106D1E08F10108407C40
:10141000002E02F8080008F1010804DA2D207642B7
:1014200002F8080002E02B2002F808000A214FF41D
:101430007A70864208F101080BDB96FBF0F330333B
:1014400002F8083096FBF0F308F1010800FB136680
:1014500001E0642E0CDB642096FBF0F3303302F8DD
:10146000083096FBF0F308F1010800FB136601E079
:101470000A2E06DB96FBF1F0303002F8080008F186
:10148000010896FBF1F001FB1060303002F8080013
:10149000A16908F1010808EB050202EB0A00081A2D
:1014A000A0612078C00602D42046FFF739F9216AEE
:1014B00008AE01EB0A00206204E0D4E9012116F82D
:1014C000010B9047BAF1010AF7D22078C00602D585
:1014D0002046FFF725F96E4609E016F8010B3E2875
:1014E0000FD0D4E901219047206A401C2062B8F156
:1014F0000108F2D22046FFF729F909B00320BDE820
:10150000F08F206A2844206203E0D4E901213020D2
:1015100090476D1EEBD3F8E7EDA2000002FCFFFF41
:1015200010B5436913B1AFF3008001E0FFF731F963
:10153000012010BD127800F124010A7000224A70C7
:101540000122EDE711684FF0FF32E9E710B543697A
:1015500013B1AFF3008001E0FFF7B2F9012010BD35
:10156000128800F1240182840022C2840122EDE766
:1015700011684FF0FF32E9E770B516460C46054694
:1015800000F048F8036893F80101012806D0FF2C09
:101590000FD8185D68B101202C7070BDD3F8070119
:1015A0003246214603F2071303442846BDE8704043
:1015B00018474FF0FF3070BD10B500F0F7F8BDE8E8
:1015C000104000F0EEB870477546FFF75BFBAE4683
:1015D00005006946534620F00700854618B020B53F
:1015E000FEF7FAFEBDE820404FF000064FF000077E
:1015F0004FF000084FF0000B21F00701AC46ACE8BB
:10160000C009ACE8C009ACE8C009ACE8C0098D4627
:101610007047000010B500F005F8001D10BD00BFB8
:101620002982000000487047C84E00202DE9F04193
:101630001F46044603260168072A01F4006004DB04
:1016400008B116A505E016A503E008B115A500E050
:1016500015A521F010002060A069C01EA0610FB187
:10166000401EA0612046FFF75BF84FB1D4E901218D
:1016700038469047206A401C2062C01C206206E069
:10168000206AFAE7D4E9012115F8010B9047761E8C
:10169000F8D22046FFF75AF8BDE8F0814E414E00DF
:1016A0006E616E00494E4600696E66002DE9F04796
:1016B000814616468AB0354878440DC88DE80D003D
:1016C00032487844801C03AC0DC884E80D0041F614
:1016D0009B300844372190FBF1F290FBF1F5A5F126
:1016E000800501FB12041B3C02D56442012000E08E
:1016F0000020DFF898A080460027FA44AAF1BE0A2D
:101700000EE0E0070AD03246684607EB47010123A6
:101710000AEB810100F06AFB8DE8070064107F1C72
:10172000002CEED1194F7F44AE3F19E0E80715D0E9
:1017300007EB04100DF1180A90E80E008AE80E007D
:10174000C068F04201D1981908903246012306A9D9
:1017500003A800F04BFB03AB83E807006D10641C8B
:10176000002DE3D14FF0010332466946B8F1000F76
:1017700003A802D000F025FB01E000F037FBC9E927
:101780000001C9F808200AB0BDE8F087F09F00000A
:1017900010B50446AFF300802046BDE81040FEF7C8
:1017A000A8BD002801D000F029B8704710B5012865
:1017B00005D0002103A000F027F8012010BD09A1E9
:1017C000F8E7000053494752544D454D3A204F75B4
:1017D00074206F662068656170206D656D6F727929
:1017E000000000003A2048656170206D656D6F72E1
:1017F0007920636F727275707465640001491820F6
:10180000ABBEFEE72600020070B505460C460A2076
:1018100000E06D1C00F052F835B128780028F8D1AE
:1018200002E0641C00F04AF814B120780028F8D1D6
:10183000BDE870400A2000F041B800004FF0013CC4
:1018400050F8042B51F8043B9A4221D1A2EB0C032F
:10185000934313EACC1317D150F8042B51F8043BEF
:101860009A4215D1A2EB0C03934313EACC130BD18C
:1018700050F8042B51F8043B9A4209D1A2EB0C0317
:10188000934313EACC13DBD04FF00000704700BF46
:10189000D01A01BAB1FA81F101F0180122FA01F06F
:1018A000CB40C1F12001DBB2C0B2C01A2CFA01F367
:1018B000D11A914311EAC311E6D1704708B56946C0
:1018C0008DF800000320ABBE08BD5FEA400C08BFE6
:1018D00091F0000F4FEA8C234FEAC12243EA5151A5
:1018E0004FEA1C5018BF00F5F0404FEA300018BF17
:1018F00041F000415FEA6C5C00F02980BCF1FF3FE1
:1019000008BF40F080407047130C06BF12044FF030
:10191000100C4FF0000C130E04BF12020CF1080C57
:10192000130F04BF12010CF1040C930F04BF9200BB
:101930000CF1020CD30F04BF52000CF1010C114644
:101940004FF00002A0F11F00A0EB0C00704711F057
:10195000004F08BF704731F000413FF4D5AF0B0C8A
:1019600006BF09044FF0100C4FF0000C0B0E04BF23
:1019700009020CF1080C0B0F04BF09010CF1040C57
:101980008B0F04BF89000CF1020CCB0F04BF490080
:101990000CF1010CCCF12003A0EB0C0022FA03F3B4
:1019A00002FA0CF241EA030100F10100704720F055
:1019B0007F4C80EA030023F07F47ACEB070303F57D
:1019C0007C5300F0004003F1FF032DE980494FEA0A
:1019D000154B09B44FEA144325EA0B4E24EA034899
:1019E0000FF2042606EB132749083E785FEA32021D
:1019F00003FB0667C7F5000707FB06F64FEA5437F7
:101A00004FEAD64606F1020607FB066CCCF1005CF5
:101A10004FEA1C472CEA074C07FB06F40CFB06F5C3
:101A200004EB15464FEA961634BF00204FF00040F5
:101A30004FEAD13706FB07FC4FEA1C4C0CFB0BF7B7
:101A4000D21B03FB0CF761EB07010CFB0EF7B0EBAD
:101A5000074072EB17420CFB08F734BFA2EB0742BA
:101A6000B2EB074261EB17414FEA0C444FEA910792
:101A700006FB07FC4FEA1C4C0CFB0BF7B0EBC74016
:101A800072EB573203FB0CF734BFA2EBC742B2EB49
:101A9000C74261EB57310CFB0EF7B0EBC70072EB9E
:101AA00057720CFB08F734BFA2EBC702B2EBC702B8
:101AB00061EB5771039F4FEA816141EA921104EB98
:101AC000CC044FEAD1374FEA826206FB07FC42EAB8
:101AD00090124FEA80604FEA1C4C0CFB0BF7D21BB4
:101AE00003FB0CF761EB07010CFB0EF7B0EB0740B3
:101AF00072EB17420CFB08F734BFA2EB0742B2EBC4
:101B0000074261EB17414FEA8C554FEA910704EB0E
:101B10009C2406FB07FC4FEA1C4C0CFB0BF7B0EBBC
:101B2000C74072EB573203FB0CF734BFA2EBC7423E
:101B3000B2EBC74261EB57310CFB0EF7B0EBC700BD
:101B400072EB57720CFB08F734BFA2EBC702B2EB83
:101B5000C70261EB577115EB4C254FEA816141EAF1
:101B600092114FEA82624FEAD13742EA901206FBA5
:101B700007FC44F100044FEA80604FEA1C4C0CFB68
:101B80000BF7D21B03FB0CF761EB07010CFB0EF705
:101B9000B0EB074072EB17420CFB08F734BFA2EB27
:101BA0000742B2EB074261EB174115EB1C154FEAF8
:101BB000813141EA92414FEA823242EA90424FEA51
:101BC00080304FEA0C7644F1000448EA03434EEAC1
:101BD0000B484FF0000EB2EB080C71EB030724BF6B
:101BE000624639464EEB0E0E4FF0000B0018524184
:101BF00049414BEB0B0BB2EB080C71EB03077BF18C
:101C0000000B24BF624639464EEB0E0E4FF0000B20
:101C10000018524149414BEB0B0BB2EB080C71EB36
:101C200003077BF1000B24BF624639464EEB0E0ED4
:101C300051EA020718BF46F0010616EB0E7655F181
:101C4000000254F1000103D5BDE88901BDE8008818
:101C5000BDE88901BDE80048B619524141EB0101D8
:101C6000A3F10103704780807F7E7D7C7B7A797849
:101C7000777676757473727171706F6E6E6D6C6C51
:101C80006B6A6A69686867666665646463636261F3
:101C90006160605F5F5E5E5D5D5C5C5B5B5A5A5974
:101CA00059585857575656555555545453535252E0
:101CB0005251515050504F4F4F4E4E4D4D4D4C4C38
:101CC0004C4B4B4B4A4A4A49494948484847474781
:101CD00047464646454545444444444343434342BE
:101CE000424242414141002B9C4630D477002BD0E8
:101CF0001CB54FEA370703B44FF010004FF0100146
:101D0000BAF1000F06D0BCF1000FDCBF40F00800B4
:101D100040F008014FF000000FBCBDE810400BF18F
:101D2000010BBBF1010F08BF5FEA170722BF12F1D9
:101D3000010211F101014FF0004143F1000300F0F5
:101D4000004043EA00007047F9D35708D0E746EA5D
:101D5000064613F1400F4FEA16461FDD13F1200F20
:101D6000DFBF16430A46002120335B42BED0C3F1D9
:101D7000200746EA064602FA07F74FEA164646EA01
:101D80000706C3F1200722FA03F201FA07F721FA46
:101D900003F14FF0000342EA0702A7E746EA020612
:101DA00046EA06464FEA164646EA0106BCBF46EA40
:101DB0000646360C4FF000034FF000024FF00001D2
:101DC00094E72DE9804C9A46934670B491E8380028
:101DD00007C831EA400C48BF34EA430C03D5FFF78B
:101DE000E6FDFFF780FFF0BCBDE8008C2DE9804CDC
:101DF0009A46934670B491E8380007C810F0804FB7
:101E000008BF13F0804F03D100F005F8FFF76BFF18
:101E1000F0BCBDE8008C20F07F4780EA030023F08F
:101E20007F4C07EB0C03A3F57C5300F00040A3F1BB
:101E3000FE0392F0000F00F0B38095F0000F00F069
:101E400077802DE901494FEA11404FEA144621EA13
:101E5000004800FB06FC24EA064708FB06F607FBE1
:101E600008F800FB07F718EB06484CEB164C4FEA56
:101E7000124B18EB07484FEA15464CEB174022EA85
:101E80000B4E0BFB06FC25EA06470EFB06F607FB8E
:101E90000EFE0BFB07F71EEB064E4CEB164C4FF0FD
:101EA00000061EEB074E4CEB174B18EB0B0840F1EE
:101EB000000018EB0E0B58EB000840F100008F1AE1
:101EC0004FF000013CBFC943661B14BFB5EB040CC7
:101ED00000213CBFC943F61B4FEA17444EEA8E0E61
:101EE00027EA04454FEA1C4704FB07622CEA074C2B
:101EF00005FB07F70CFB05F604FB0CFC16EB07468D
:101F000042EB174216EB0C4642EB1C421BEB06065B
:101F100058EB0202414146EA9E0601D5BDE801891F
:101F2000B619524141EB0101A3F10103BDE801895A
:101F30004FEA14454FEA114724EA054621EA074CC7
:101F400005FB07F406FB07F70CFB06F105FB0CFC91
:101F500011EB074144EB17444FEA124711EB0C41D8
:101F600044EB1C4422EA074C05FB07F206FB07F78B
:101F70000CFB06F605FB0CFC16EB074642EB174282
:101F800016EB0C4642EB1C456A1854F1000148BFA1
:101F90007047B619524141EB0101A3F101037047AB
:101FA00095F0000F37D04FEA11424FEA144721EA6B
:101FB000024624EA074C02FB07F106FB07F70CFB7D
:101FC00006F402FB0CFC14EB074441EB17414FEA0B
:101FD000154714EB0C4441EB1C4125EA074C02FB6E
:101FE00007F506FB07F70CFB06F602FB0CFC16EBED
:101FF000074645EB174516EB0C4645EB1C421219FC
:1020000051F1000148BF7047B619524141EB01013F
:10201000A3F1010370474FEA14454FEA114724EA40
:10202000054621EA074C05FB07F106FB07F70CFB09
:1020300006F24FF0000605FB0CFC12EB074241EBE9
:10204000174112EB0C4251EB1C4148BF70479218EC
:1020500041EB0101A3F10103704700004A4910B5AB
:10206000D1F8042322F44032C1F80423D1F8042328
:1020700043681A43C1F8042301684A6822F4807255
:102080004A6001684A68036942EA03224A600168BB
:102090004A6822F040724A6001684A6883681A43BD
:1020A0004A6001688A6822F400628A6001688A686E
:1020B000C3681A438A60816A6FF07062D142016816
:1020C0008A6822F070628A6001688A680CD0836A2C
:1020D0001A438A6001688A6822F040528A60016867
:1020E0008A68C36A1A4301E022F040528A6001689C
:1020F0008A6822F002028A6001688A68836942EA7B
:1021000043028A60016A002901684A6815D042F4D6
:1021100000624A6001684A6822F460424A600168CD
:102120004B684FF46044426A94FAA4F4B4FA84F41D
:10213000521EA24013434B6002E022F400624A6048
:102140000168CA6A22F47002CA620168CA6A838B93
:102150000E4C04EB03531A43CA6201688A6822F4E6
:1021600000728A6001688A68036B42EA43228A60CF
:1021700001688A6822F480628A6001688A6840691E
:1021800042EA8020886010BD002001400000F0FF7E
:1021900070B56E496E4C6F4D4FF400522DED048BAF
:1021A000B0F5805F498908D3914203D8A0F58052E9
:1021B00091420ADC01F5005107E0914205D800F593
:1021C0008052914201D9A1F50051081A80B22080B5
:1021D00007F01CFE9FED601B53EC112B07F066FE11
:1021E00007F054FBE06095ED000B9FED5D1B51EC9B
:1021F000100B53EC112B07F087FD36D194ED030A39
:10220000DFED590A60EE200A9FED581A80EE810A30
:1022100010EE100A08F074F841EC180BB0EE480A02
:10222000F0EE680A04F0A8FB84ED080BB0EE480A53
:10223000F0EE680A04F004FC84ED060B95ED028BC9
:10224000B0EE409AF0EE609A51EC180B07F012FBDA
:1022500053EC192B07F02AFEC5E9000194ED080B99
:1022600051EC180B53EC102B68E095EC040B53EC7D
:10227000102B51EC110B07F0EFFB41EC100B04F0AD
:102280000FFA84ED0A0B04F077FB84ED080B95ED53
:10229000001B53EC102B51EC110B07F0DDFB07F08A
:1022A000F5FAA0609FED329B94ED0A0B53EC192BCD
:1022B00051EC100B07F0FAFD9FED2F1B53EC112B87
:1022C00007F0CAFB41EC180B84ED0C8BE06808F0BA
:1022D00017F853EC182B07F00BFB9FED291B53EC61
:1022E000112B07F0E3FD53EC192B07F0B5FB41EC84
:1022F000180BB0EE480AF0EE680A04F03DFB84EDDE
:10230000080BB0EE480AF0EE680A04F099FB84ED81
:10231000060BA068B0EE408AF0EE608A064607F031
:10232000EFFF94ED081B53EC112B07F0BFFDC5E93F
:102330000001304607F0E4FF53EC182B07F0B6FD20
:10234000C5E90201BDEC048B70BD0000944500207E
:10235000B0000020884E0020000000000080A63F52
:102360000000000000000000DB0F49400000344383
:1023700000000000008066406F1283C0CA2109403F
:1023800000000060FB21094030B51B4A4FF4805427
:102390001046D18963004089A14208D3984203D8EE
:1023A000A1F58055A8420ADC00F5005007E09842EC
:1023B00005D801F58055A84201D9A0F50050401A72
:1023C000D0800E4A1046D1894089A14208D3984254
:1023D00003D8A1F5805398420ADC00F5005007E0CD
:1023E000984205D801F58053984201D9A0F50050D4
:1023F000401AD08030BD0000644500209445002084
:10240000FEE70000014800F0B7BD0000943E002048
:10241000014800F0B1BD0000943E0020014800F0EA
:10242000ABBD0000D43E0020014800F0A5BD000077
:10243000D43E002010B54FF4D872036802EB0112AD
:102440009B5813F00404436B9C600468436BA458CE
:1024500054D0E4085C6003689A58436B02F00202AF
:10246000DA604FF4DA72036802EB01129B58446B96
:1024700003F00F03236103689A58436BC2F30722EA
:10248000DA614FF4DC72036802EB01129B58446B73
:10249000237503689B58446B1B0A637503689B583C
:1024A000446B1B0CA37503689A58436B120EDA75C4
:1024B0004FF4DE72036802EB01129B58446B2376E3
:1024C00003689B58446B1B0A637603689B58446BF4
:1024D0001B0CA37603689A58436B120EDA762022FF
:1024E000002901680DD00A6101684A6922F01002D2
:1024F0004A6190F83810222909D021E0640D1C604F
:10250000A9E7CA6001684A6922F00202F0E701689F
:102510004A6922F480724A6101684A6922F40072B1
:102520004A6101684A6922F480624A6101684A6925
:1025300022F400624A6101684A6922F400424A6159
:1025400090F83810322907D05FF0010180F8381078
:1025500000F02AFF002010BD1221F7E710B5016836
:102560004A6922F001024A6190F83810122918D104
:1025700001684A6922F480724A6101684A6922F45A
:1025800000724A6101684A6922F480624A61016806
:102590004A6922F400624A6101684A6922F40042F1
:1025A0004A6190F83810322906D0012180F838109D
:1025B00001F000F8002010BD2221F7E72DE9F041DD
:1025C00000212DED028B1D4802F02AFA04211B4840
:1025D00002F026FA0821194802F022FA0C211748C5
:1025E00002F01EFA164805F009F90021144800F01F
:1025F00097FE0021134800F093FE134D9FED138AC0
:1026000000244FF4FA6640F6AC5700BF04EBC40058
:10261000F0EE480A00EB400005EB8000B0EE601AD7
:10262000B7EE080A33463A46032103F005FA641C64
:10263000042CEBDBBDEC028BBDE8F081B440002044
:10264000943E0020D43E0020E0470020CDCCCC3D7D
:102650002DED068B82B0FFF7B1FF05F0D8FADFF859
:10266000D891744DDFF8D4A1754F764C002641F611
:10267000B32BA9F1100801900A2101A805F0BBFABB
:102680002878401F0B28F7D2DFE800F00615070670
:102690000657070606150700EEE731464A46A9F831
:1026A0000060012022F81010401C0428FADB624868
:1026B00003F00AFBE0E738886FF0090110FB01F036
:1026C00007F08DFBC4E9000179886FF0090011FB68
:1026D00000F007F084FBC4E90201B8886FF009013B
:1026E00010FB01F007F07BFBC4E904015846FFF73B
:1026F0004FFD94ED040B51EC100B07F0C7F894ED6F
:10270000020B08EE100A51EC100B07F0BFF894ED25
:10271000000B08EE900A51EC100B07F0B7F8D8ED5B
:10272000010A00EE100A4449FDEEE00AB0EE481A34
:1027300010EE900AF0EE680A75E0DAF800000090FA
:102740004FF22812007800F0010111FB02F1C0F3F2
:10275000400040F2DB1210FB02F001EBC00007F07A
:102760003EFB41EC190B4FF2281284ED029B0098BE
:102770000078C0F3C00111FB02F1C0F3800040F209
:10278000DB1210FB02F001EBC00007F028FB41EC6C
:10279000180B84ED008B00980078C10646D48006A3
:1027A00012D59FED29AB00BF53EC1A2B51EC190B3E
:1027B00007F07CFBC4E9020153EC1A2B51EC180B17
:1027C00007F074FBC4E90001B8896FF0950110FBB4
:1027D00001F007F004FBC4E904015846FFF7D8FCF8
:1027E00094ED040B51EC100B07F050F894ED020B34
:1027F00008EE900A51EC100B07F048F894ED000B2E
:1028000008EE100A51EC100B07F040F8D8ED010A61
:1028100000EE100A0849FDEEE00AB0EE681A10EE6C
:10282000900AF0EE480A03F031F840E79FED08AB5C
:10283000BAE70000A8000020C0000020AC00002083
:1028400006460020884E0020000000000000E03F07
:102850000000000000000040014800F0BFBE000082
:1028600028430020014800F0B9BE0000C842002003
:10287000014800F0B3BE000088430020014800F08A
:10288000ADBE00006842002001681823CAB2103AA9
:10289000B2FBF3F2054B6FF30901032A9B5CC3659E
:1028A00000D9091D8165084670470000FEA3000895
:1028B00010B5014600208B698A6A4FF0C07453B18D
:1028C000B3F5005F15D072B1012A0CD0022A0AD0EC
:1028D000032A09D104E01AB1012A06D0022A03D141
:1028E000C96AC90100D5012010BDC96AA142FAD048
:1028F00010BD002AF7D0012AF2D0022AF3D0032A11
:10290000F3D010BD30B50468256825F48025256016
:10291000046863608368402B036803D09960006893
:10292000C26030BD9A600068C16030BD074882B0A7
:102930000068016841680091C16841F01001C16000
:1029400032220349014802B003F0D8BD684100209B
:10295000F44500207047FEE710B558B1084C491EF9
:102960000BD310F8013B5340DBB234F8133083EA49
:102970001222F4E74FF6FF7010BD104610BD0000A4
:1029800090A5000810B5054C04E000BF10F8013B0D
:102990005340E25C491EF9D2104610BD90A40008D5
:1029A00010B500F017F80021074802F039F8074881
:1029B00041F6B32140F6AA22C1810549CA8100220D
:1029C00002820A8210BD00000040002094450020D1
:1029D0006445002070B541F2883447F230552DED42
:1029E000028B23469FED1D1ADFED1D0A9FED1D0A88
:1029F0002A4603211C4803F01FF89FED1C8A4FF460
:102A00008052B2EE041AF0EE480A9FED190A1346FE
:102A10000321184803F010F8DFED178AF0EE480A9A
:102A2000B3EE0E0AB0EE681A23462A460321134875
:102A300003F002F8B0EE681AF0EE480AB7EE080AA2
:102A400023464FF4804203210D4802F0F5FFBDEC10
:102A5000028B6420BDE8704000F01FBF0040E643D9
:102A6000CDCCCC3E0000F14208470020CDCCCC3D7F
:102A7000333353409C460020000000007447002080
:102A8000904900202DED028B82B0FFF789FF05F001
:102A9000BEF84A4F4A4CDFF82CB14B4D40F2B638E5
:102AA0004FF080464FF4C8694FF4C87A0190012175
:102AB00001A805F0A0F8FFF767FC3878401F0B2845
:102AC000F5D2DFE800F0060707061B2F1B060E0EE7
:102AD0000E00ECE72888002102B2084603F082F8D5
:102AE00069E0E0882A88404201B2608912B2400061
:102AF00000B203F077F8C6F83C805CE0E0882A88F2
:102B0000404201B2608912B2400000B203F06AF89C
:102B1000C6F83C904DE000BF4FF400512B4800F048
:102B2000ADFFC4E72A48006800904078400701D50F
:102B3000C6F83C8000984078C00701D0C6F83C90A9
:102B4000B4F90E0007F04BF99FED221B53EC112B4B
:102B500007F0ACF941EC180B2048B0F9020007F07F
:102B60003EF953EC182B06F0C3FE07F009F91B4998
:102B700000B25045488003DD0846A0F802A004E0FA
:102B8000164A584501DAA2F802B000984078C0F31E
:102B9000800100980078A1EBD010104980020880D5
:102BA0002A88B1F9021012B203F01CF80C48C07B5D
:102BB00008B10122B0E70022AEE70000A800002023
:102BC0000646002044FDFFFFEE00002000180240F2
:102BD000AC000020CDCCCCCCCCCCF43FE800002025
:102BE000104E002078B50024009490F83C20012A73
:102BF00019D0012280F83C200A6807230568092AB9
:102C000013D9EE680A3A02EB420293409E43EE600B
:102C10000B788A680A3B03EB43039A400368DD683C
:102C20002A43DA6010E0022078BD2E6902EB4202EE
:102C300093409E432E610A788B6802EB42029340D8
:102C4000026815692B4313614A681F23072A13D2B0
:102C500005686E6B521E02EB820293409E436E63C8
:102C60000A8893B20A79521E02EB820293400268EC
:102C7000556B2B43536327E005680D2A12D22E6B48
:102C8000D21F02EB820293409E432E630B790A8887
:102C9000DB1F92B203EB83039A4003681D6B2A4348
:102CA0001A6311E0EE6A0D3A02EB820293409E43F2
:102CB000EE620B790A880D3B92B203EB83039A40D4
:102CC0000368DD6A2A43DA62174A0368934208D12F
:102CD0000B68122B05D1D2F8043343F48003C2F8F9
:102CE0000433036893421BD1104B0D689D4201D001
:102CF000112D15D1D2F8045345F40005C2F8045340
:102D0000096899420CD10A490A4A0968B1FBF2F1F3
:102D100001EB8101490000E0491E00910029FBD12F
:102D200080F83C40002078BD0020014012000010D7
:102D30000400002040420F000068C06C704770B56E
:102D400004004FF0000503D0206C002610B107E00E
:102D5000012070BD666484F83C60204600F01AF8DB
:102D6000206CC00610D4206C20F4885040F0020083
:102D700020642046FFF772F96664206C20F00200A0
:102D800040F00100206400E0012584F83C60284602
:102D900070BD000000B500680C4987B0884212D1B0
:102DA0000B480021026842F480720260006800F45F
:102DB00080700590402000900320CDE90101694614
:102DC000044800F075FD07B000BD00000020014080
:102DD000443802400000024018B50021009190F8EC
:102DE0003C20012A07D0012280F83C200268936829
:102DF000DB0702D011E0022018BD936843F0010305
:102E00009360204A204B1268B2FBF3F202EB4202BD
:102E100000E0521E0092002AFBD102689368DB0793
:102E20002DD0036C40F20164A34343F48073036428
:102E300053685B0505D5036C23F4005343F48053BA
:102E40000364036CDB0404D5436C23F00603436482
:102E500000E0416480F83C106FF0220111600B49E2
:102E6000D1F804230068D20601D0884207D18168D6
:102E700011F0405F03D1816841F080418160002002
:102E800018BD00000400002040420F000020014057
:102E9000F0B50A7D01209040344A136843F00103E5
:102EA0001360136823F47C53136013684C6A43EA7D
:102EB000042313602D4B1C331C6884431C602B4D72
:102EC0002B4CCE690C35A6B92E6886432E608F89AF
:102ED0004E6867F31F464F6904EBC707C7F84066A3
:102EE0000F890E6867F31F464F6904EBC707C7F8E1
:102EF0004466CE69012E14D12E6806432E600E88DA
:102F00004D6866F31F454E6904EBC606C6F8405689
:102F10000E89CD6866F31F454E6904EBC604C4F8FC
:102F20004456124C8D69241D002D256806D005439A
:102F300025600E4C0D69143415B104E08543F7E7A4
:102F40002568854325600D69012D02D1256805435B
:102F50002560096A012902D11968014319601068C6
:102F600020F0010010600020F0BD0000006600406D
:102F7000006000407047000010B5044600684169D9
:102F8000C943C90714D182685849914368D00021C8
:102F90008368574A9A4365D000228368554898430E
:102FA00062D000201143014302D02046FFF7D6FA39
:102FB0002068C168406911F0030FC0F3400004D0DD
:102FC00018B100212046FFF735FA216808694969E0
:102FD00010F0030FC1F3001104D019B101212046F4
:102FE000FFF728FA20688169426911F0010FC2F3E6
:102FF00000234269C2F3C03205D023B11AB1E16B9C
:1030000041F00101E1638169C1F340034169426913
:10301000C1F34021C2F3C0322BB121B11AB1E16B2F
:1030200041F00201E16381694269C1F38001C2F3A9
:1030300080234269C2F3C03229B123B11AB1E16BD6
:1030400041F00401E163816911F0700F0ED000219D
:1030500042694369C2F3C022C3F3C03341B127E0E0
:10306000012195E7012298E701209BE70121EFE785
:10307000F2B1EBB1816901F07001402929D006DC81
:10308000102909D020290BD030290DD11DE050295D
:1030900023D0602908D124E0E16B41F0080102E06F
:1030A000E16B41F01001E163816921F07001816100
:1030B000E06B002808D0216804204860012084F8D3
:1030C00038002046FFF756FF10BDE16B41F02001AC
:1030D000E9E7E16B41F04001E5E7E16B41F0800198
:1030E000E1E7E16B41F48071DDE7000003000004DB
:1030F00000030008000003102DE9F041040004D093
:1031000094F83800002518B107E00120BDE8F081EF
:1031100084F83950204600F093F8022084F83800F3
:103120002068016821F0020101602068016841F017
:103130000101016000F0A8FC0746032605E000BF7E
:1031400000F0A2FCC01B0A2863D820684068C007B2
:10315000F6D020684168C90768D0A16901290168D3
:103160003FD021F080010160E069012820680168FA
:103170003AD021F040010160206A012820680168EE
:1031800035D021F020010160606A012820680168C3
:1031900030D021F010010160A06A01282068016888
:1031A0002BD021F008010160E06A01282068016845
:1031B00026D021F004010160D4E902010843D4E9DA
:1031C0000412114308436168491E08432168C8611D
:1031D0002068016821F00101016000F055FC0746FC
:1031E0001CE041F08001BEE741F04001C3E741F03F
:1031F0002001C8E741F01001CDE741F00801D2E716
:1032000041F00401D7E700BF00F03EFCC01B0A28D4
:1032100004D904F8386F0320657077E720684068A8
:10322000C007F1D120684068C00703D0042084F8AB
:1032300038006AE7E563012084F83800002065E77C
:10324000F0B5324B0768DFF8C0C0186803220224CB
:1032500009252F490026401C87B0674521D11860F9
:10326000012807D1086840F000700860086800F085
:10327000007005908DE85400CDE903256946254886
:1032800000F016FB00220521132000F097FC13200C
:1032900000F088FC00220521142000F08FFC14208F
:1032A0002EE0DFF874C067452CD10F6847F08067C7
:1032B0000F600F68012807F080670597186007D135
:1032C000086840F000700860086800F00070059021
:1032D0004FF440508DE85100CDE9032569460F4871
:1032E00000F0E6FA002211463F2000F067FC3F2084
:1032F00000F058FC00221146402000F05FFC402006
:1033000000F050FC07B0F0BD006400407C000020DD
:1033100040380240000C02400068004000040240B7
:1033200010B590F83820012A01D0122A39D190F82E
:103330003920012A35D0012280F8392090F8382030
:10334000122A29D05FF0220280F838200022C263BE
:1033500003685C6944F480745C6103685C6944F4EC
:1033600000745C6103685C6944F480645C610368B8
:103370005C6944F400645C6103685C6944F4004483
:103380005C6180F8392000680029416906D041F06D
:1033900010014161002010BD3222D5E741F0020149
:1033A000F7E7022010BD000000B5416B0968A1F2EB
:1033B0000121072914D2DFE801F0040404042024C9
:1033C0000F00124AC9B21170114A01EB410102EB20
:1033D00001120146104601E001460E4804F022F9B0
:1033E0000D480068416941F0020141610B480068E5
:1033F000416941F00201416100BD01460548303894
:10340000ECE7014603486038E8E700009800002038
:1034100024440020C4450020943E0020D43E0020D7
:103420002DE9F05F0E46016804468868400105D426
:103430008868000102D48868C00067D594F8390014
:1034400001280ED0012784F8397094F8380022281A
:103450000AD0122084F838008868400106D500257B
:103460000AE00220BDE8F09F3220F3E788680001FF
:1034700001D5012500E002254FF4C07000EB0510D6
:103480000A5802F001020A50216B8A68EAB3D4F8A4
:1034900000C05CF800301343CA68496842EAC101C1
:1034A0000B434CF80030216B0A7C02F00F020A61DA
:1034B0004FF4C271226801EB0511535823F00F033A
:1034C000535022685358D4F830C0DCF810C043EA97
:1034D0000C035350216B4FF4C47303EB05130A7DA7
:1034E000D1F8151042EA01212268D150216B4FF426
:1034F000C67303EB05130A7ED1F8191042EA0121C5
:103500002268D15021680A5801E00DE046E042F0FF
:1035100001020A5000F0B8FA81464FF00008DFF8C7
:1035200088A0DFF888B019E022681358D1F80CC0E1
:10353000098843EA0C0343EA41511150B3E7701C78
:103540000CD02EB100F0A0FAA0EB0900B04205D9D2
:10355000032084F8380084F8398083E795B1206827
:10356000012D816813D0124888430028E7D194F8D0
:10357000380032280ED084F8387000BF84F83980C3
:1035800000206FE7206881682AEA0100EDE72BEA56
:103590000100EAE7222084F83800EFE7042084F8ED
:1035A000380001205EE7000003000004000300086B
:1035B00000000310704790F83510022903D08021D5
:1035C000416501207047052180F8351000680168C9
:1035D00021F0010101600020704700002DE9F8434F
:1035E00004464FF00008CDF8008064484FF41651AF
:1035F000A56D0068B0FBF1F72E6894F85C10082008
:1036000000FA01F131420FD021680A6852070BD548
:103610000A6822F004020A6094F85C108840A860EE
:10362000606D40F00100606594F85C10544888407B
:10363000304208D021684969090604D5A860606D48
:1036400040F0020060654E4894F85C10C01C884051
:10365000304208D021680968890704D5A860606DE8
:1036600040F00400606594F85C10102088403042FF
:1036700018D021680968090714D5A8602068016876
:10368000490304D50068000308D5A16C07E0016870
:10369000C90503D4016821F008010160216C09B15A
:1036A0002046884794F85C102020884030424FF034
:1036B000010631D021680968C9062DD5A86094F8A3
:1036C000350005282068016806D0490347D5006801
:1036D00000031DD4616C1CE021F01601016020681C
:1036E000416921F080014161206C08B9A06C20B1D2
:1036F0002068016821F00801016094F85C103F2007
:103700008840A86084F8348084F83560216D1FE01B
:10371000E16B09B120468847606D00282BD0606DB1
:10372000C00714D0052084F835002068016821F016
:10373000010101600098401C0090B84203D8206845
:103740000068C007F6D184F8348084F83560E16CF5
:10375000002910D001B02046BDE8F04308470168B9
:10376000C905D5D4016821F01001016084F83480C6
:1037700084F83560CCE7BDE8F88300000400002041
:10378000010080002DE9F041044600F07DF9064675
:103790005CB1002584F83450022084F8350020689C
:1037A000016821F0010101600DE00120BDE8F08118
:1037B00000F06AF9801B052805D9202060650320E8
:1037C00084F83500F2E720680068C007F0D122686D
:1037D00011681F480140D4E901031843D4E90336B6
:1037E0003343184363691843A3691843E3691843D3
:1037F000236A18430843616A042903D1D4E90B13EF
:1038000019430843106020684069666A20F0070188
:1038100030460E43012704280AD1A06A06432046F9
:10382000FFF746F820B14020606584F83570BCE7AA
:10383000206846612046FFF727F894F85C203F2176
:1038400091408160656584F835700020AEE7000026
:103850003F8010F070B5044690F834000025012830
:103860000CD0012084F8340094F835600020012E3B
:1038700006D084F834000225284670BD022070BDB1
:10388000022684F8356060652046FFF73BF8206823
:10389000016841F001010160EEE731B500F0F4F894
:1038A000044600F0F1F80099001B8842F9D338BDB6
:1038B0002DE9F84FDFF890B100224FF001084FF0EA
:1038C000030A4FF00F090BF1040E00BF0B6808FA52
:1038D00002F42340A3426ED14D68022D01D0122D77
:1038E0000ED1D50800EB850CDCF820505607F70EFA
:1038F00009FA07F6B5430E69BE402E43CCF82060A6
:10390000066855000F790AFA05FC07F0030726EA56
:103910000C06AF40374307604E68012E05D0022EDB
:1039200003D0112E01D0122E0ED18768CE6827EA5F
:103930000C07AE403E4386604668A6430C79C4F34C
:103940000014944034434460C4688E6824EA0C0434
:10395000AE402643C6604C68E4006FD53B4C2568FA
:1039600045F480452560246822F0030504F4804472
:103970000094374C2E19D6F8084895072F0F09FAEE
:1039800007F5AC43334DA84201D100252EE0324D5E
:10399000A84201D1012529E0304DA84201D10225DC
:1039A00024E02F4DA84201D103251FE02D4DA84250
:1039B00002D104251AE041E02B4DA84201D1052592
:1039C00014E02A4DA84201D106250FE0284DA84257
:1039D00001D107250AE0274DA84201D1082505E0BD
:1039E000254DA84201D1092500E00A25BD40254307
:1039F000C6F80858DBF800405D464E689C43F60365
:103A000000D51C432C60DEF8004075464E689C4390
:103A1000B60300D51C432C600B4D08352C684E684E
:103A20009C43F60200D51C432C60074D0C352C68D6
:103A30004E689C43B60200D51C432C60521C102AD1
:103A4000FFF444AFBDE8F88F003C01404438024029
:103A50000030014000000240000402400008024023
:103A6000000C024000100240001402400018024006
:103A7000001C024000200240002402400AB1816183
:103A800070470904FBE70000014800687047000028
:103A90000000002002480168491C016070470000D6
:103AA000000000200B4810B5016841F4007101606E
:103AB000016841F480610160016841F48071016036
:103AC000032000F09BF8002000F006F800F03EF81C
:103AD000002010BD003C024010B5014688B0002215
:103AE000362000F06BF8362000F05CF81348002414
:103AF000016841F010010160006805A900F01000A4
:103B00000690684600F090F900F0B4F90C494000C6
:103B1000B0FBF1F10C480B4A491E026040F2E7325B
:103B2000C0E90324C0E9011400F031FD10B1012007
:103B300008B010BD044800F046FDF9E740380240E7
:103B400040420F0000100040E843002010B5032061
:103B500000F054F8002211466FF00B0000F02EF830
:103B6000002211466FF00A0000F028F800221146EA
:103B70006FF0090000F022F800221146501F00F0FB
:103B80001DF800221146101F00F018F800220F2126
:103B9000901E00F013F800220F21BDE81040501EC7
:103BA00000F00CB800F01F02012191404009800094
:103BB00000F1E020C0F8001170470000F0B40E4B97
:103BC0001B680C46C3F30223C3F10705042D00D97B
:103BD0000425191D072901D2002300E0DB1E012660
:103BE00006FA05F1491E214099409E40761E164076
:103BF0003143F0BC01F0FCBE0CED00E0064900F0E2
:103C0000070208684FF6FF03184040EA0220034A03
:103C100010430860704700000CED00E00000FA055A
:103C20002DE9F8431E48016841F0805101600068A9
:103C3000012600F080500090300490FAA0F0194F57
:103C4000B0FA80F047F82060FFF71EFF05464FF4FA
:103C50007A78154C05E000BFFFF716FF401B404582
:103C600015D86068C003F7D54FF4003090FAA0F083
:103C7000B0FA80F047F82060FFF706FF0546464699
:103C800008E000BFFFF700FF401BB04202D903204D
:103C9000BDE8F88360688003F4D50020F8E70000F1
:103CA0004038024000000E42007000402DE9F0470D
:103CB000DFF8649105460F46D9F8000000F00F01C7
:103CC000F8B28046B94208D2014689F80010D9F806
:103CD000000000F00F00B84274D128784F4C8007E4
:103CE00005D52068A96820F0F000084320602878F6
:103CF000C00759D049496868083901281AD00228F4
:103D00001BD0032819D00968890700295ADA2168CD
:103D100021F0030101432160FFF7B6FE6968064602
:103D200041F28830012911D002291DD00329824691
:103D300027D035E009688903E7E709688901E4E7E6
:103D4000FFF7A2FE811B514501D926E0824620687B
:103D5000C0F381000128F3D126E000BFFFF794FEF5
:103D6000811B514501D918E082462068C0F38100CB
:103D70000228F3D118E000BFFFF786FE811B5145F2
:103D80000BD82068C0F381000328F5D10CE000BFF8
:103D9000FFF77AFE811B514502D90320BDE8F08769
:103DA000206810F00C0FF3D1D9F80010484601F04C
:103DB0000F01B94208D980F80080006800F00F00B8
:103DC000B84201D00120E9E72878400705D52068EE
:103DD000E96820F4E050084320602878000706D501
:103DE0002068296920F4604040EAC100206000F0AA
:103DF00071F82168F02292FAA2F201F0F001B2FA11
:103E000082F2D140064A515CC84006490860002051
:103E1000FFF762FE0020C1E7003C02400838024084
:103E200006A40008040000200F2202600C4A136858
:103E300003F003034360136803F0F0038360136827
:103E400003F4E053C36012684FF4E05303EAD20274
:103E500002610448006800F00F000860704700002D
:103E600008380240003C02400148006870470000EA
:103E70000400002008480949006809684FF4E0522E
:103E800092FAA2F201F4E051B2FA82F2D140044A6D
:103E9000515CC84070470000040000200838024010
:103EA00006A4000808480949006809684FF4604200
:103EB00092FAA2F201F46041B2FA82F2D140044ACD
:103EC000515CC840704700000400002008380240E0
:103ED00006A4000830B51948006810F00C01184815
:103EE00012D0184C04290ED008290DD11349091FEE
:103EF0000A6802F03F030A68550247F6C07204D50B
:103F0000B4FBF3F003E0204630BDB0FBF3F00B68E8
:103F10000968134092FAA2F2B2FA82F2D3405843EF
:103F20004FF4403292FAA2F201F44031B2FA82F236
:103F3000D140491C4900B0FBF1F030BD08380240C7
:103F40000024F400001BB7002DE9F84F0446DFF809
:103F5000CC820078A8F1040BC007ABF1040537D080
:103F6000D8F800104046C1F38101012908D000684B
:103F7000C0F3810002280AD1DBF80000400206D518
:103F80002868800324D56068002878D020E0A34901
:103F90002079891F0870606868B1FFF775FD0646D3
:103FA00005E000BFFFF770FD801B642868D8286813
:103FB0008003F7D50CE0FFF767FD064605E000BF7C
:103FC000FFF762FD801B6428F0D828688003F7D4CF
:103FD0002078934E80074FF0010A4FF0000742D53A
:103FE000D8F80010404611F00C0F08D00068C0F35C
:103FF000810002280AD1DBF80000400206D42868BC
:10400000800714D5E068012839D110E0E068D8B104
:10401000C6F800A0FFF738FD814605E0FFF734FD44
:10402000A0EB09000228C1D828688007F6D52868C7
:10403000F82292FAA2F22169B2FA82F220F0F80094
:104040009140084328600EE03760FFF71DFD814670
:1040500006E000BFFFF718FDA0EB090002280FD80B
:1040600028688007F6D42078000728D56D48616954
:10407000A1B1C0F800A0FFF707FD814608E0CAE043
:1040800079E000BFFFF700FDA0EB0900022872D81D
:1040900062486C3000688007F4D510E00760FFF7D5
:1040A000F3FC814606E000BFFFF7EEFCA0EB090041
:1040B000022860D859486C3000688007F4D4207812
:1040C000400749D555483830016841F080510160BA
:1040D000006800F0805000905348016841F48071FE
:1040E0000160FFF7D1FC814606E000BFFFF7CCFC82
:1040F000A0EB090002283ED84B480068C005F5D562
:10410000DFF81891207A09F1680989F80000A068A1
:1041100088B1FFF7B9FC009008E000BFFFF7B4FCDE
:104120000099411A41F2883081426CD8D9F80000D8
:104130008007F3D510E0FFF7A7FC009008E000BF70
:10414000FFF7A2FC0099411A41F2883081425AD807
:10415000D9F800008007F3D4A069E0B3D8F80010C4
:10416000C1F38101022956D00228376604D0FFF737
:104170008BFC04464AE046E0FFF786FC074604E075
:10418000FFF782FCC01B02283DD828688001F7D4C5
:10419000D4E90701084347F6C07292FAA2F2616AB5
:1041A000B2FA82F29140A26A4FF0FF3303EB52025F
:1041B0004FF4403393FAA3F3B3FA83F39A401143D5
:1041C00008434FF0706292FAA2F2E16AB2FA82F208
:1041D0009140084300E01CE0CBF80000C6F860A066
:1041E000FFF752FC044604E0FFF74EFC001B0228D8
:1041F00009D828688001F7D50BE000BFFFF744FC21
:10420000001B022802D90320BDE8F88F286880012E
:10421000F4D40020F8E70120F6E700000838024057
:1042200000004742800E47420070004070B5040015
:1042300005D00025A56294F8510010B106E00120D8
:1042400070BD84F85050204600F030F8022084F809
:1042500051002068016821F040010160D4E90101AA
:104260000843D4E903121143084361690843218BD1
:1042700001F400710843E1690843216A0843A16A17
:10428000084321680860A069042101EA1040616ABE
:104290000843216848602068C16921F40061C16158
:1042A0006565012084F85100002070BD2DE9F043C0
:1042B0000746006820490025204C022687B04FF0B1
:1042C00003084FF0050988421BD1206840F4805054
:1042D0002060206802AA00F4805005901820CDE9E3
:1042E000000682E8200369461548FFF7E1FA8020BE
:1042F000CDE9000602AA694682E820031148FFF7CB
:10430000D7FA11493868884212D1206840F48010E9
:104310002060206802AA00F4801005904FF46070BD
:10432000CDE9000682E8200369460848FFF7C0FA95
:1043300007B0BDE8F083000000300140443802407F
:1043400000040240000002400050014000140240FE
:104350002DE9F84F044690F850000026994617467C
:104360000D4601280DD04FF0010B84F850B0FFF737
:104370008BFB804694F85100B246012804D00226F7
:1043800094E00220BDE8F88F002D7BD0002F79D07B
:10439000032084F85100C4F854A02563A786E7865B
:1043A000C4F838A0A4F83CA0A4F83EA0C4F844A0E7
:1043B000C4F840A0A068B0F5004F04D1206801689F
:1043C00041F48041016020680168490603D4016816
:1043D00041F040010160E068B0F5006F606804D012
:1043E00030B3E08E012823D03EE010B1E08E0128EA
:1043F0001AD135F8021B206805E02068816889071A
:1044000006D535F8021BC160E08E401EE0860BE049
:10441000B9F1000F34D0B9F1FF3F05D0FFF734FBFD
:10442000A0EB080149452BD2E08E0028E5D11EE023
:10443000216815F8010B087306E020688168890778
:1044400006D515F8011B0173E08E401EE0860BE0D7
:10445000B9F1000F14D0B9F1FF3F05D0FFF714FBFD
:10446000A0EB080149450BD2E08E0028E5D14B4670
:10447000012202212046CDF8008001F067FB10B137
:10448000032613E011E042464946204601F04EFB68
:1044900018B101262020606508E0A06818B92068DE
:1044A000C16880680090606D00B1012684F851B049
:1044B00084F850A0304665E74FF0E02104280869F1
:1044C00003D020F004000861704740F00400FAE7D0
:1044D00010B5401EB0F1807F01D3012010BD4FF018
:1044E000E02460610F21601701F082FA0020A061D2
:1044F00007202061002010BD7047704730B590F84C
:104500003820012A19D0012200F8382F02234370E5
:10451000D1E900342343D1E902452C4323430C69FC
:1045200023434C69896923430B4350F8381C4B647F
:10453000427000210170084630BD022030BD30B508
:1045400090F83820012A20D0012280F83820022358
:1045500080F8393003685C6824F070045C6003689C
:104560005C680D682C435C6003689C6824F08004E0
:104570009C6003689C6849680C439C6080F8392003
:10458000002180F83810084630BD022030BD10B53B
:10459000040003D094F8390010B107E0012010BDE9
:1045A000002084F83800204600F00CF8022084F83F
:1045B0003900211D206801F071FC012084F83900C8
:1045C000002010BD70470168CA6842F00102CA604D
:1045D0000068016841F001010160002070477047E8
:1045E00070B50446006801694FF00005C9438907AA
:1045F00015D4C168C943890711D4E91E016101209E
:104600002076206880698007204602D0FFF7E7FF08
:1046100004E000F021F9204600F000FA2576206839
:104620000169C943490717D4C168C943490713D46D
:104630006FF004010161022020762068806910F487
:10464000407F204602D0FFF7CAFF04E000F004F9E3
:10465000204600F0E3F9257620680169C94309077F
:1046600016D4C168C943090712D46FF0080101616B
:10467000042020762068C0698007204602D0FFF71A
:10468000AEFF04E000F0E8F8204600F0C7F9257618
:1046900020680169C943C90617D4C168C943C9065E
:1046A00013D46FF010010161082020762068C069E2
:1046B00010F4407F204602D0FFF791FF04E000F0A5
:1046C000CBF8204600F0AAF9257620680169C94395
:1046D000C90708D1C168C943C90704D1891E01614E
:1046E000204600F0B9F920680169C943090609D4D8
:1046F000C168C943090605D46FF0800101612046F5
:10470000FFF7FAFE20680169C943490609D4C16868
:10471000C943490605D46FF040010161204600F00D
:10472000A5F920680169C94389060BD4C168C9434A
:10473000890607D46FF0200101612046BDE8704072
:10474000FFF7DBBE70BD0000F0B5374A01680024FA
:1047500002250126354885B0914211D14FF44071B0
:104760000091CDE90154CDE903466946FFF7A0F871
:104770004FF4C0400090CDE9015469462C4811E047
:10478000B1F1804F09D02B48814211D160200090B7
:10479000CDE901546946284829E007210091CDE977
:1047A00001546946CDE90346FFF782F805B0F0BD34
:1047B0002248814207D14FF470400090CDE9015466
:1047C00069461F4813E01F4A1F48204F914211D1EC
:1047D0000096CDE901546946CDE90345FFF768F835
:1047E0004FF4E0500090CDE9015469463846CDE9D8
:1047F0000345D9E7164A914208D1E4210091CDE959
:1048000001540321CDE903416946CDE711488142B6
:10481000CCD140200090CDE901540920CDE90340DE
:1048200069463846C0E70000000001400000024031
:104830000010024000040040000402400008004054
:10484000000C0240000C004000200240001C02400E
:104850000004014000180040704770B5044690F80D
:1048600038000D4601280DD0012684F8386002205A
:1048700084F8390042B1042A18D0082A2AD00C2A18
:104880004DD139E0022070BD206801F073FB206833
:10489000816941F0080181612068816921F004018A
:1048A0008161206881692A69114311E0206801F063
:1048B0008DFB2068816941F4006181612068816914
:1048C00021F480618161206881692A6941EA0221BD
:1048D000816124E0206801F0ABFB2068C16941F0F0
:1048E0000801C1612068C16921F00401C16120682B
:1048F000C1692A69114311E0206801F0C9FB2068F1
:10490000C16941F40061C1612068C16921F480611D
:10491000C1612068C1692A6941EA0221C16184F844
:104920003960002084F8380070BD10B5040003D051
:1049300094F8390010B107E0012010BD002084F880
:104940003800204600F00CF8022084F83900211DC0
:10495000206801F0A3FA012084F83900002010BD7E
:1049600008B501682648274A814205D1106840F001
:1049700001001060106812E02248001FB1F1804F62
:1049800008D0214B99420ED1016841F0020101602B
:10499000006826E0016841F001010160006800F054
:1049A0000100009008BD194B994207D1016841F000
:1049B00004010160006800F00400F2E7144B994222
:1049C00007D1016841F008010160006800F00800AB
:1049D000E7E7104B994207D1106840F002001060E1
:1049E000106800F00200DCE70B4A9142DAD101685E
:1049F00041F040010160006800F04000D1E7000094
:104A0000000001404438024000040040000800401B
:104A1000000C0040000401400018004070470000F6
:104A200010B504460068012201F098FA0849206890
:104A3000884202D00749884203D1416C41F40041C9
:104A400041642068016841F001010160002010BD4F
:104A5000000001400004014000680349884201D180
:104A6000FFF718B87047000000100040704770470B
:104A700070B5026804461068D168536910F00F0FD2
:104A800050D003F0010501F4907635435DD0C207A4
:104A900005D0CA0503D5E26B42F00102E26342078A
:104AA00005D5DA0703D0E26B42F00202E263820727
:104AB00005D5DA0703D0E26B42F00402E263020795
:104AC00005D5DA0703D0E26B42F00802E263E26B3D
:104AD000002A33D0800604D5880602D5204601F08E
:104AE00015FB20684069E16BC0F38010090700D412
:104AF00028B3204601F0FCFA2068416949061AD51E
:104B0000416921F040014161606BA0B11B49016521
:104B1000606BFEF750FD002810D0606B016DBDE8A2
:104B200070400847830610D58B060ED52046BDE899
:104B3000704001F0EBBA2046FFF799FF70BD2046A8
:104B4000FFF795FF0020E06370BD030606D50B0656
:104B500004D52046BDE8704001F074BC4006F3D592
:104B60004806F1D5D168204621F04001D1602021CE
:104B700084F8391000F05DF970BD0000E1600008B4
:104B800070B5040004D094F83900002510B106E097
:104B9000012070BD84F83850204600F023F824200E
:104BA00084F839002068C16821F40051C1602046B2
:104BB00001F0F2FA2068016921F490410161206856
:104BC000416921F02A0141612068C16841F4005126
:104BD000C160E563202084F8390084F83A000020A1
:104BE00070BD00002DE9F04F0546D0F800C002204E
:104BF000DFF80C820024DFF80CB201210322072326
:104C00004602C70187B04FF00069C44539D1DBF8CF
:104C1000008048F01008CBF80080DBF800C00DF1F0
:104C200004080CF0100CCDF814C04FF0C00CCDF8F7
:104C300000C088E80F0069467348FEF739FEDFF8C8
:104C4000D08172494046C8F80010C0E90194C0E91B
:104C50000346C8F81440C0E90647C8F82040C8F821
:104C60002440FEF78FFD08B1FDF775FEC5F83480CE
:104C7000002201212520C8F83850FEF79FFF25208B
:104C800039E0DFF89081DFF87CA1DFF88CE1AAF150
:104C9000040AC44534D1DAF800C04CF4003CCAF828
:104CA00000C0DAF800700DF1040807F4003705972A
:104CB0006027009788E80F0069467046FEF7F8FD08
:104CC000534F564860373860C7E90194C7E9034637
:104CD0007C61BC61FC613C6238467C62FEF752FD3F
:104CE00008B1FDF738FE6F63002201212620BD6365
:104CF000FEF764FF2620FEF755FF07B0BDE8F08FF2
:104D0000DFF81C81C4453CD1DAF8008048F48028E3
:104D1000CAF80080DAF800C00DF104080CF4802C09
:104D2000CDF814C04FF4407CCDF800C088E80F00E7
:104D300069467046FEF7BCFDDFF8D480374908F1BC
:104D4000C00860394046C8F80010C0E90194C0E9C5
:104D50000346C8F81440C0E90647C8F82040C8F820
:104D60002440FEF70FFD08B1FDF7F5FDC5F83480CE
:104D7000002211462720C8F83850FEF71FFF2720D1
:104D8000B9E7284B9C45B8D1DBF800C04CF0200CAB
:104D9000CBF800C0DBF800300DF1040803F020036D
:104DA00005934FF48443009388E80700082004909B
:104DB00069461D48FEF77CFD1449DFF870801839FC
:104DC0004046C8F800108905C0E90114C0E903464F
:104DD000C8F81440C0E90647C8F82040C8F8244085
:104DE000FEF7D0FC08B1FDF7B6FDC5F8348000220F
:104DF00005214720C8F83850FEF7E0FE47207AE743
:104E00000010014044380240000402404064024067
:104E10006842002000440040000C024088600240CC
:104E20000048004000140140001802408843002060
:104E300070477047FEE7000010B500211348FFF7E8
:104E4000EFFD00211248FFF7EBFD04211048FFF7AA
:104E5000E7FD08210E48FFF7E3FD0E4C0122042177
:104E60002046FEF70BFE012208212046FEF706FE33
:104E7000012210212046FEF701FE012220212046BA
:104E8000FEF7FCFD04490020086010BD2C41002005
:104E900000400020001C02403418004070B5044659
:104EA0000D462748FDF798FF002005B10120617BE2
:104EB00030EA01012173607339D020784FF0FF018F
:104EC000C207A27B03D0FF2A19D0A17332E0FF2AC8
:104ED00030D0A173E17BC1F10101E17381071FD4DF
:104EE0002169491C21616268914223D9400700D59C
:104EF000A26822611EE0400710D561680EE0E17BE8
:104F0000C1F10101E17381070AD42269521C2261B7
:104F100061688A420ED9400700D5A168216109E085
:104F20002269521E2261A1688A42E4D302E008B9D4
:104F30000020A073BDE870400A2002F055BE0000BA
:104F40004C3E002070B50478DDE9046561F300048F
:104F500062F3410463F382040470C0E901560AB1AC
:104F6000294600E031460161AE4204D30021816050
:104F70004160012070BD002070BD00001FB51348C6
:104F80001149012401604FF48031416000218160AA
:104F9000016184610E4A0162C0E90A21C4610463AF
:104FA0004461C160FDF7CBFE08B1FDF7D4FC0620DB
:104FB000CDE90004694605480294FDF713FE002878
:104FC00001D0FDF7C8FC1FBD002001404C3E002071
:104FD0000100000F0F4810B50D4901600521416027
:104FE00000214FF400328160C0E903125201C0E990
:104FF00005210122C0E9072141628162C162FEF7F9
:105000007BF8002803D0BDE81040FDF7A4BC10BD1C
:1050100000640040943E0020104810B50E49016025
:105020000521416000214FF04072C0E902124FF4A7
:10503000003202615201C0E905210122C0E90721C5
:1050400041628162C162FEF757F8002803D0BDE8D3
:105050001040FDF780BC10BD00680040D43E002029
:10506000194808B5016841F480010160016801F444
:1050700080010091016841F4001101600068002284
:1050800000F40010009005210C20FEF797FD0C2085
:10509000FEF788FD002205211020FEF78FFD10206D
:1050A000FEF780FD002205213920FEF787FD39201B
:1050B000FEF778FD002205213A20FEF77FFDBDE8CE
:1050C00008403A20FEF76EBD3038024010B59EB061
:1050D00003F094FC142222496846FBF716FA0021DB
:1050E000684602F0AAFD1F4C1D49142220601431AD
:1050F00005A8FBF70AFA002105A802F09EFD184951
:105100006060142228310AA8FBF7FFF900210AA8E1
:1051100002F093FD1249A06014223C310FA8FBF766
:10512000F4F900210FA802F088FD0D49E060142277
:10513000503114A8FBF7E9F9002114A802F07DFD15
:10514000074920611422643119A8FBF7DEF9002118
:1051500019A802F072FD606103F070FC1EB010BD72
:1051600018A40008800000202DE9F04F6E4887B099
:105170000024016841F001010160016801F00101B2
:105180000591016841F002010160016801F002012E
:105190000591016841F004010160016801F004011A
:1051A0000591016841F008010160016801F0080102
:1051B0000591016841F010010160016801F01001E2
:1051C0000591016841F020010160016801F02001B2
:1051D0000591016841F040010160016801F0400162
:1051E0000591016841F0800101600068002200F033
:1051F0008000059008214D48FEF740FC0122042163
:105200004A48FEF73BFC4FF4005700223946484815
:10521000FEF734FC002240214648FEF72FFCDFF861
:1052200018B14FF4C068002241465846FEF726FCEC
:10523000BE10002231463D48FEF720FC4FF4804965
:10524000002249463B48FEF719FC4FF4FF7A012241
:1052500051463748FEF712FC0C2000900125CDE99D
:105260000154694631480394FEF722FB0220009066
:105270003248CDE9010569462C48FEF719FB009735
:10528000CDE9015469462A480394FEF711FB4FF417
:105290009060CDE90004694629480294FEF708FBB6
:1052A00040200090CDE90154694622480394FEF75E
:1052B000FFFACDF80080CDE90154694658460394C1
:1052C000FEF7F6FA0096CDE90154694617480394B3
:1052D000FEF7EEFACDF80090CDE901546946154885
:1052E0000394FEF7E5FACDF800A0CDE90154694634
:1052F0000F480394FEF7DCFA3C200090CDE90154FE
:10530000694610480394FEF7D3FA002202210848A8
:10531000FEF7B4FB02F02AFA002231460348FEF7FA
:10532000ADFB07B0BDE8F08F3038024000100240FE
:105330000018024000140240000402400000211046
:10534000000C0240001C0240104810B50E490160DC
:105350004FF48271416000218160C1604FF400729E
:105360000161C0E905123022C0E907214162816272
:105370000A21C162FEF75AFF002803D0BDE81040A1
:10538000FDF7E9BA10BD000000300140143F0020D5
:10539000104810B50E4901604FF482714160002140
:1053A0008160C1604FF400720161C0E905123022D2
:1053B000C0E90721416281620A21C162FEF736FF1E
:1053C000002803D0BDE81040FDF7C5BA10BD0000AD
:1053D000005001406C3F002010B5174888B01549B7
:1053E000016059210024C0E9011440F2F311C0E921
:1053F0000314FFF79AFA08B1FDF7ADFA60200090A8
:10540000FA20CDE90104002269460B480494FFF715
:1054100024FA08B1FDF79FFA042269460648FFF70F
:105420001CFA08B1FDF797FA0348FFF78DF908B0A9
:1054300010BD0000001800402C41002010B521488C
:105440008AB01F490024C0E900148460C46004616C
:10545000FFF76BFA08B1FDF77EFA079407A9194820
:105460000894FFF76CF808B1FDF775FA6020CDE9F4
:10547000000402940022694612480494FFF7EDF9F3
:1054800008B1FDF768FA042269460E48FFF7E5F90E
:1054900008B1FDF760FA082269460A48FFF7DDF90E
:1054A00008B1FDF758FA0C2269460648FFF7D5F90E
:1054B00008B1FDF750FA0348FFF746F90AB010BDEE
:1054C00000000140C43F002010B523488AB04FF0CF
:1054D0008041016059210024C0E9011440F6C31144
:1054E000C0E90314FFF721FA08B1FDF734FA079475
:1054F00007A919480894FFF722F808B1FDF72BFA1D
:10550000602000904FF47A70CDE9010400226946D2
:1055100011480494FFF7A1F908B1FDF71CFA042221
:1055200069460D48FFF799F908B1FDF714FA08220A
:1055300069460948FFF791F908B1FDF70CFA0C220A
:1055400069460548FFF789F908B1FDF704FA0248F2
:10555000FFF7FAF80AB010BD0040002010B51A4855
:105560008AB018490160B3210024C0E90114C46065
:105570000461FFF7DAF908B1FDF7EDF9079407A91F
:1055800011480894FEF7DBFF08B1FDF7E4F960204D
:10559000CDE900040294002269460B480494FFF709
:1055A0005CF908B1FDF7D7F9042269460648FFF710
:1055B00054F908B1FDF7CFF90348FFF7C5F80AB071
:1055C00010BD0000000400403C40002010B5214800
:1055D0008AB01F490024C0E900148460C4600461DB
:1055E000FFF7A3F908B1FDF7B6F9079407A9194821
:1055F0000894FEF7A4FF08B1FDF7ADF96020CDE9EE
:10560000000402940022694612480494FFF725F929
:1056100008B1FDF7A0F9042269460E48FFF71DF90D
:1056200008B1FDF798F9082269460A48FFF715F90D
:1056300008B1FDF790F90C2269460648FFF70DF90D
:1056400008B1FDF788F90348FFF77EF80AB010BDEE
:10565000000800407840002010B524488AB0224954
:10566000016059210024C0E901144FF4FA61C0E936
:105670000314FFF75AF908B1FDF76DF9079407A96C
:105680001A480894FEF75BFF08B1FDF764F9602043
:1056900000904FF47A70CDE9010400226946134866
:1056A0000494FFF7DAF808B1FDF755F904226946CA
:1056B0000E48FFF7D2F808B1FDF74DF90822694608
:1056C0000A480194FFF7C9F808B1FDF744F90C2224
:1056D00069460648FFF7C1F808B1FDF73CF90348F1
:1056E000FFF732F80AB010BD000C0040B4400020B3
:1056F00010B52B4890B029490024C0E900148460FB
:10570000C46004614461FFF710F908B1FDF723F9A3
:105710000E940EA922480F94FEF711FF08B1FDF771
:105720001AF90794089409944FF400500A94CDE9AB
:105730000B4007A91A480D94FEF7E0FE08B1FDF7EB
:105740000AF96020CDE900040294039404940594BE
:105750000022694612480694FFF77FF808B1FDF76A
:10576000FAF8042269460E48FFF777F808B1FDF70A
:10577000F2F8082269460A48FFF76FF808B1FDF70A
:10578000EAF80C2269460648FFF767F808B1FDF70A
:10579000E2F80348FEF7D8FF10B010BD0004014046
:1057A000F04000200D4810B50B4901600C494160E4
:1057B00000214FF480628160C0E903120C22C0E92D
:1057C0000521C161FFF7DCF9002803D0BDE81040D6
:1057D000FDF7C1B810BD0000001001406841002075
:1057E000A08601000C4810B50A4901604FF4E13170
:1057F0004160002181600C22C160C0E90412816116
:10580000C161FFF7BDF9002803D0BDE81040FDF7E6
:10581000A2B810BD00440040A84100200C4810B5BB
:105820000A4901604FF4E1314160002181600C229E
:10583000C160C0E904128161C161FFF7A1F90028CC
:1058400003D0BDE81040FDF786B810BD0048004009
:10585000E84100200C4810B50A4901604FF4E131DD
:105860004160002181600C22C160C0E904128161A5
:10587000C161FFF785F9002803D0BDE81040FDF7AE
:105880006AB810BD00140140284200203CB5DFED8D
:105890004E1A10EE103A4D4A9FED4D2A4D4CDFED59
:1058A0004E2A934202DDB0EE420A05E010EE103AB5
:1058B000A34201D9B0EE620A10EE903A934202DDA3
:1058C000F0EE420A05E010EE902AA24201D9F0EE75
:1058D000620A11EE102A414C414BA24202DD9FEDBB
:1058E000411A05E011EE102A9A4201D99FED3E1AA5
:1058F00030EEC02A00236C4632EE412ABDEEC22AA9
:1059000012EE102AB1EE402AADF8002032EE602AE5
:1059100032EE412ABDEEC22A12EE102A30EE602A83
:1059200030EE200AADF8022032EE412A30EE410A74
:10593000BDEEC22ABDEEC00A12EE102AADF8042058
:1059400010EE102AADF8062034F91320002A01DDEC
:10595000154600E0554200EE105AB8EEC00AB4EE0B
:10596000E10AF1EE10FA06DD002A00DC524200EEF8
:10597000102AF8EEC01A5B1C042BE5DB00EE100ABF
:10598000B8EEC00AF4EEC01AF1EE10FA17DD00EE20
:10599000100A0020F8EEC00A80EEA10A34F91020A7
:1059A00000EE902AF8EEE00A60EE800AFDEEE00AD2
:1059B00010EE902A24F81020401C0428EEDB0098FA
:1059C0000860019848603CBD0000000000C05A46D5
:1059D00000C05A4600C05AC600C05AC600401C4605
:1059E00000401CC600401C4600401CC6FEE7704735
:1059F0000907090E002806DA00F00F0000F1E02088
:105A000080F8141D704700F1E02080F80014704702
:105A1000074882B00068016841680091C16841F0A0
:105A20001001C16008220349014802B000F066BDC0
:105A300028420020A000002030B4034C4466034CF0
:105A4000846630BC02F0F8B9397E0008477E000851
:105A500070B5054608880C46C0F30A02A2F58062BC
:105A60002A8048788978C00840EA4110C0F30A03C8
:105A7000A3F580636B80A078E178800940EA81001B
:105A8000217902F5257240EA8120C0F30A01A1F5CF
:105A90008061A98020796679400840EAC610C0F389
:105AA0000A00A0F58060E8806679B6092E726679F2
:105AB000C6F301166E724FF4A566B2420BD803F519
:105AC0002573B34207D801F52571B14203D800F51B
:105AD0002570B04203D916212846FAF750FDE08818
:105AE000A8812089E88160892882207BA874607B56
:105AF000E874E089A882208AC0F30A00A0F58060DB
:105B0000688170BD074882B00068016841680091F3
:105B1000C16841F01001C16080220349014802B010
:105B200000F0ECBCE84100201C46002038B50B46D4
:105B3000009204460022802100F008F8002804D0DA
:105B4000606D40F020006065032038BD2DE9F04114
:105B50001D4617460E460446DDF8188035E0681CE1
:105B600033D02DB1FDF790FFA0EB0800A8422CD355
:105B70002068416821F0E00141606068B0F5827FF3
:105B80000BD1A068B0F5004F02D0B0F5806F04D102
:105B90002068016821F040010160A06AB0F5005F53
:105BA0000AD1206801684DF6FF721140016020683B
:105BB000016841F400510160012084F85100002087
:105BC00084F850000320BDE8F0812068806836EA40
:105BD000000004D00020B842C1D10020F3E701202A
:105BE000F9E700007CB50D462F49144600EE900AF7
:105BF000B1F90620098AF8EEE00A114400EE101A05
:105C00002A48B8EEC00A02F035F8294E00EE905A44
:105C1000B6F90600318AF8EEE00A084400EE100AF0
:105C20002448B8EEC00A02F025F82248D0ED0F0A49
:105C3000B6F9020000EE100A1F48B8EEC00A02F0E2
:105C400019F81E4800EE904AB0F90000F8EEE00A9C
:105C500000EE100A1A48B8EEC00A02F00BF8012153
:105C60000020CDE90001164890ED0F0ABDEEC00AF4
:105C700010EE100A03B2104890ED0F0ABDEEC00AF4
:105C800010EE100A02B2094890ED0F0ABDEEC00AEC
:105C900010EE100A01B20B4802F01CFDBDE87C407A
:105CA0000A2001F0A1BF0000944500200847002011
:105CB000644500209C46002074470020C445002015
:105CC00090490020943E00202DE9FC41224F234DB5
:105CD0000646002436F9140000EE100A04EB4400D6
:105CE00007EB0010F8EEC00AB0F9000000EE100A51
:105CF00004EBC40000EB4000B8EEC00A05EB8000E6
:105D000001F0B8FF641C042CE4DB95ED600A00216F
:105D1000BDEEC00A10EE100A00B2CDE9000195ED0B
:105D2000450ABDEEC00A10EE100A95ED2A0A03B22C
:105D3000BDEEC00A10EE100A95ED0F0A02B2BDEEDC
:105D4000C00A10EE100A01B2054802F0C3FCBDE81B
:105D5000FC410A2001F048BF24440020E047002015
:105D6000943E00204FF40064084D094FE60000BF48
:105D700001F0C2FC012221462846FDF77FFE0022E9
:105D800031463846FDF77AFEF2E700000010024087
:105D90000014024001F047BF30B5264893B00025FB
:105DA000016841F080510160006800F0805011905E
:105DB0002148016841F4404101600068022400F478
:105DC000404011900120009001908005CDE90640EF
:105DD00006200890B420CDE9090404200B90684601
:105DE000FEF7B2F800B1FEE7FDF71AFF00B1FEE7DB
:105DF0000CA90F2081E831004FF4A0500F904FF410
:105E00008050109005210CA8FDF750FF00B1FEE76F
:105E1000FEF72AF84FF47A71B0FBF1F0FEF758FB69
:105E20000420FEF749FB00220F21501EFDF7C6FE9D
:105E300013B030BD40380240007000401048016887
:105E400041F4700101600F48016841F001010160F7
:105E50000C4A00210832116002680B4B1A400260A4
:105E6000031D0A4A1A60026822F480220260054873
:105E70000C30016002495806803908607047000004
:105E800088ED00E000380240FFFFF6FE10300024ED
:105E90000148FEF7A5BB0000E8430020F0B502680A
:105EA000234B244D244E254F254C4FF0804C9842D7
:105EB00009D0604507D0A84205D0B04203D0B8420F
:105EC00001D0A04204D122F0700E4A6842EA0E02CC
:105ED00098421BD0604519D0A84217D0B04215D0C7
:105EE000B84213D0A04211D0164DA8420ED0164D84
:105EF000A8420BD0154DA84208D0154DA84205D098
:105F0000144DA84202D0144DA84203D122F440758A
:105F1000CA682A4302608A68C2620A68826298423A
:105F200001D0A04201D10969016301214161F0BDA5
:105F3000000001400004004000080040000C004048
:105F4000000401400040014000440140004801407D
:105F500000180040001C00400020004010B5012344
:105F6000046A8B409C430462036A8A4013430362C1
:105F700010BD000030B5026A22F001020262026A1E
:105F8000436884690D6824F07304254322F00204F9
:105F90008A6822430B4CA04202D00B4CA0420BD18A
:105FA00022F00804CA6823F4407322434C6922F0AB
:105FB00004021C438B692343436085614968416344
:105FC000026230BD000001400004014030B5026AA9
:105FD00022F010020262026A436884690D6824F4A8
:105FE000E64444EA05248D6822F0200242EA0512C4
:105FF0000D4DA84202D00D4DA8420ED1CD6822F021
:10600000800242EA05124D6923F4406343EA8503A6
:106010008D6922F0400243EA850343608461496848
:106020008163026230BD00000000014000040140B5
:1060300030B5026A22F480720262036A4268C4695F
:1060400023F4007324F073050C682C438D6843EA35
:1060500005230D4DA84202D00C4DA8420ED1CD68AB
:1060600023F4006343EA05234D6922F4405242EAD7
:1060700005128D6923F4806342EA05124260C4610F
:106080004968C163036230BD000001400004014063
:1060900030B5026A22F480520262046A4268C3691F
:1060A0000D6823F4E64343EA05238D6824F4005485
:1060B00044EA0534084DA84202D0084DA84204D154
:1060C0004D6922F4804242EA85124260C361496808
:1060D0000164046230BD0000000001400004014082
:1060E00010B5806B0021C185C184FEF7C0FC10BDD6
:1060F0000168CA6822F49072CA6001684A6922F095
:1061000001024A61202180F83A10704710B590F8DA
:106110003A10222901D0022010BD8168B1F5805FBC
:1061200011D00169002901681FD0496801F07F037F
:10613000816A4A1C82620B70C18D491E0904090CD8
:10614000C18518D026E00269816A002A0268526877
:1061500005D0D2B20A80816A491C8162ECE7C2F3A1
:1061600008020A80816A891CF7E74A68816A4B1C29
:1061700083620A70E0E70168CA6822F49072CA601C
:1061800001684A6922F001024A61202180F83A1030
:10619000FEF74EFE002010BD2DE9F04104460068D8
:1061A000016921F44052E168114301612168C86826
:1061B00049F20C6290432369A268E5691A43636956
:1061C0002B431A430243CA602168486920F4407295
:1061D000A06910434861E1696425B1F5004F974813
:1061E000974A21684FF032083FD0914201D0814256
:1061F0007CD1FDF757FE00EBC00101EB0010616898
:106200008900B0FBF1F6FDF74DFE00EBC00101EB9C
:10621000001061688900B0FBF1F0B0FBF5F06FF0A1
:106220001801484306EB800108EB0110B0FBF5F0C4
:1062300000F0F006FDF736FE00EBC00101EB0010A8
:1062400061688900B0FBF1F0B0FBF5F006EB0016D9
:10625000FDF728FE00EBC00101EB0010616889002A
:10626000B0FBF1F7FDF71EFED2E0914201D0814272
:106270003DD1FDF717FE00EBC00101EB0010616896
:106280004900B0FBF1F0B0FBF5F00601FDF70AFEA6
:1062900000EBC00101EB001061684900B0FBF1F7B1
:1062A000FDF700FE00EBC00101EB00106168490042
:1062B000B0FBF1F0B0FBF5F06FF01801484307EBCD
:1062C000800108EBC100B0FBF5F000F0F80006EB30
:1062D0004006FDF7E7FD00EBC00101EB001061682F
:1062E0004900B0FBF1F7FDF7DDFD3CE055E0FDF7BF
:1062F000C1FD00EBC00101EB001061684900B0FB7B
:10630000F1F0B0FBF5F00601FDF7B4FD00EBC001C4
:1063100001EB001061684900B0FBF1F7FDF7AAFD41
:1063200000EBC00101EB001061684900B0FBF1F027
:10633000B0FBF5F06FF01801484307EB800108EB64
:10634000C100B0FBF5F000F0F80006EB4006FDF7E9
:1063500091FD00EBC00101EB001061684900B0FB4A
:10636000F1F7FDF787FD00EBC00101EB001061685C
:106370004900B0FBF1F0B0FBF5F06FF018014843B5
:1063800007EB800108EBC100B0FBF5F000F007005F
:10639000216830448860BDE8F081FDF76BFD00EBBB
:1063A000C00101EB001061688900B0FBF1F6FDF758
:1063B00061FD00EBC00101EB001061688900B0FBDA
:1063C000F1F0B0FBF5F06FF01801484306EB8001E7
:1063D00008EB0110B0FBF5F000F0F006FDF74AFD08
:1063E00000EBC00101EB001061688900B0FBF1F027
:1063F000B0FBF5F006EB0016FDF73CFD00EBC0012D
:1064000001EB001061688900B0FBF1F7FDF732FD88
:1064100000EBC00101EB001061688900B0FBF1F0F6
:10642000B0FBF5F06FF01801484307EB800108EB73
:106430000110B0FBF5F000F00F00A9E700140140D7
:106440000010014090F83910212901D00220704736
:106450008168B1F5805F016A0BD04A1C0262026854
:1064600009785160C18C491E0904090CC1840ED001
:1064700017E009880268C1F3080151600169002929
:10648000016A02D0491C0162ECE7891CFBE7016844
:10649000CA6822F08002CA600068C16841F0400109
:1064A000C16000207047000010B5044802F054FAA3
:1064B000BDE810400148FEF7DBBA0000684100204B
:1064C0000148FEF7D5BA0000A841002010B50448E5
:1064D00002F042FABDE810400148FEF7C9BA0000D8
:1064E000E841002010B5044802F036FABDE810403B
:1064F0000148FEF7BDBA00002842002070B50446EE
:1065000090F83A00202801D0022070BD99B192B1D4
:10651000A162A2850020E063134620680A46656BED
:10652000011D2846FDF796F92068416941F04001B8
:106530004161002070BD012070BD000038B50446E7
:1065400000680168406800902D4884421AD1606B51
:106550000068016821F001010160606B006840681B
:1065600080B2202804D1274901F11200FFF770FA08
:10657000616B322009684860606B0068016841F017
:10658000010101602048844226D1606B00680168E7
:1065900021F0010101601B4D28352878A52811D173
:1065A0000521284600F051F860B1B5F805102846DD
:1065B000093100F030F828B114487E2229460068DD
:1065C000F9F75EFF616B802009684860606B0068C6
:1065D000016841F0010101600D4884420FD1606BF8
:1065E0000068016821F001010160616B0820096801
:1065F0004860606B0068016841F00101016038BDCE
:1066000068410020F4450020E84100209C00002063
:1066100028420020FEE730B50C46050013D0022CBE
:1066200011D94FF6FF72A11EFCF796F92919C2B2D3
:1066300011F8023C9A4206D111F8011CB1EB102F5F
:1066400001D1012030BD002030BD30B50C46050021
:106650000CD0022C0AD9FF22611EFCF793F92919EC
:1066600011F8011C814201D1012030BD002030BD54
:1066700003B401984100009850EAC12018BF0420DB
:106680004A0D18BF40F0010040F2FF72B2EB515FBB
:1066900008BF40F00200012808BF052002B0704783
:1066A00070B59B482DED020B2DED068B079D25F057
:1066B0000044A04218DC9748844202DC0AD10698C4
:1066C00040B19DED060BBDEC068B02B0BDE87040FD
:1066D00000F002BE002DCCBF9FED8F0B9FED900B05
:1066E000BDEC068B02B070BD8F48A04215DD8F480F
:1066F000A042D8BF4FF0FF3458DD9DED060B51ECA2
:10670000100BFFF7B5FF042808BF00F001FE9DED58
:10671000060BBDEC068B02B070BD9DED060B51EC77
:10672000100B00F073FFCDE9060181489FED828BCD
:10673000A0423CDD8248A0421FDD00249FED82ABD9
:106740009DED060B53EC1A2B51EC100B03F0D0F817
:106750009DED060B41EC190B53EC1A2B51EC100B71
:1067600003F0A4FB53EC182B03F0E0FC53EC192BC3
:1067700003F072F9CDE9060149E09DED060B012415
:1067800053EC182B51EC100B03F0B2F89DED060BF7
:1067900041EC190B53EC182B51EC100B03F0C6FC19
:1067A00053EC192B03F058F9CDE906012FE06848A6
:1067B000A0421FDD02249FED689B9DED060B53EC6C
:1067C000192B51EC100B03F071FB53EC182B03F059
:1067D0008FF89DED060B41EC180B53EC192B51EC87
:1067E000100B03F0A3FC53EC182B03F035F9CDE9A3
:1067F00006010CE09DED060B032453EC102B9FEDDE
:10680000580B51EC100B03F027F9CDE906019DED73
:10681000060B53EC102B51EC100B03F047FB41EC33
:10682000180B53EC182B03F041FB41EC190B4E48AD
:106830000621B0EE490AF0EE690A784400F038FC0F
:1068400053EC182B51EC100B03F030FB41EC180B00
:106850004648B0EE490AF0EE690A0521784400F096
:1068600027FC53EC192B51EC100B03F01FFB41ECF0
:10687000100B51EC180B53EC102B002C0EDA03F01C
:1068800037F89DED061B53EC112B03F00FFB9DED2C
:10689000061B53EC112B03F03DFC35E003F028F808
:1068A0009DED061B53EC112B03F000FB41EC100B8C
:1068B0002F48784400EBC40090ED001B51EC100B06
:1068C00053EC112B03F032FC9DED061B53EC112B06
:1068D00003F02CFC41EC100B2648784400EBC4007C
:1068E00090ED001B51EC100B53EC112B03F012FC3C
:1068F00041EC100B002DA2BFBDEC068B02B070BDA9
:1069000051EC100B02F0B6FF41EC100B01E7000058
:10691000000010440000F07F182D4454FB21F93F83
:10692000182D4454FB21F9BF0000DC3F0000203E3D
:106930000000F33F00000000000000000000F03FF6
:106940000000E63F000000000000000000000040E2
:106950000080034000000000000000000000F83F3D
:10696000000000000000F0BF324C0000E84B0000C7
:10697000724B00002A4B000010B52F499FED2C1BD5
:106980002DED020B84B0059820F000408842D8BF5E
:106990009DED040B2DDD2949884209D1049840B9A9
:1069A0004FF00100F9F7B6FE00F0A2FC06B010BDF2
:1069B00005DB9DED040B00F08FFC06B010BD6846B2
:1069C0009DED040B00F0A0F810F0030004BF9DED56
:1069D000021B9DED000B0CD001280ED09DED021B7B
:1069E0009DED000B022817D0012000F0DDFB06B062
:1069F00010BD00F0A5FA06B010BD9DED021B9DED87
:106A0000000B012000F0D0FB51EC100B02F032FF24
:106A100006B041EC100B10BD00F092FA51EC100BD7
:106A200002F028FF06B041EC100B10BD0000000082
:106A30000000000000000000FB21E93F0000F07FA3
:106A400010B52F499FED2C1B2DED020B84B005983E
:106A500020F000408842DCBF00209DED040B32DDB9
:106A60002849884209D1049840B94FF00100F9F74C
:106A700051FE00F03DFC06B010BD05DB9DED040BA2
:106A800000F02AFC06B010BD68469DED040B00F036
:106A90003BF810F0030011D0012818D09DED021B27
:106AA0009DED000B02281AD000F04AFA51EC100BB1
:106AB00002F0E0FE06B041EC100B10BD9DED021B94
:106AC0009DED000B012000F06FFB06B010BD9DEDA9
:106AD000021B9DED000B00F033FA06B010BD012043
:106AE00000F062FB51EC100B02F0C4FE06B041EC6A
:106AF000100B10BD000000000000000000000000AE
:106B0000FB21E93F0000F07F2DE9F14F04462DED18
:106B1000020B2DED088B8AB09FEDE70B80ED020B89
:106B2000139EE74826F0004585420ADC9DED120BD6
:106B3000002084ED000B0AB0BDEC088B03B0BDE86B
:106B4000F08FE0489FEDE0AB9FEDE1BBA84247DD51
:106B5000E14F9FEDE39B9FEDE48B9DED120B53EC1A
:106B60001A2B51EC100B002E1CDD03F0DFFA41EC68
:106B7000100BBD4208D053EC1B2B51EC100B03F053
:106B8000D5FAC4E900010BE053EC192B51EC100BC2
:106B900003F0CCFA53EC182B03F0C8FAC4E9000157
:106BA0000120C8E702F0A4FE41EC100BBD4208D062
:106BB00053EC1B2B51EC100B02F09AFEC4E90001C0
:106BC0000BE053EC192B51EC100B02F091FE53EC3F
:106BD000182B02F08DFEC4E900014FF0FF30AAE748
:106BE000C348A84279DB9DED120B51EC100B00F06D
:106BF0000DFD41EC180B9FEDC00B53EC102B03F077
:106C000055F99FEDBF1B53EC112B02F071FE03F001
:106C1000B7F8074603F0E3F841EC190B53EC1A2BD5
:106C200003F044F953EC182B03F074FA41EC180B01
:106C300053EC1B2B51EC190B03F038F9DFF8C8A209
:106C400041EC100B4FEA15580125FA4453EC102B78
:106C500051EC180B03F06AFA032DC4E900013DD092
:106C6000C1F30A5005EB4511A8EB00001139814230
:106C700034DA0AEB051BB0EE48AA9BED000BF0EEF0
:106C800068AA53EC102B51EC190B03F00FF941ECEF
:106C90001B0B51EC1A0B53EC1B2B03F047FA41EC86
:106CA000180B51EC1A0B53EC182B03F03FFA53EC72
:106CB0001B2B03F03BFA9BED020B41EC1A0B53EC40
:106CC000102B51EC190B03F0F1F853EC1A2B03F0D5
:106CD0002DFA41EC100B6D1CB8E70EE0002EA8BF9A
:106CE0003846BFF628AF94ED000B51EC100B02F0C4
:106CF000C1FDC4E9000178421DE7C6F3130040F46A
:106D0000801EC6F30A50A0F2F530471100F01F05AF
:106D1000C5F12000DDF848B00890002006900790EB
:106D20000520EC467949002D07EB0002794408BFA5
:106D300051F8221009D051F8223001EB8201AB400A
:106D40004A68089922FA01F11943A1FB0E26A1FB1A
:106D50000B131A449A4234BF0123002303EB0608A5
:106D60000CEB8003D3E901A60E448E4234BF01210F
:106D7000002192448A4411B1924502D903E0924520
:106D800001D2012100E00021C3E901A641444CF8F1
:106D90002010011EA0F10100C4DC029800F1005097
:106DA000850F0298DDE903678000DDF8148003F0A9
:106DB00016F841EC1A0B304603F028F89FED541BEF
:106DC00053EC112B03F072F841EC1B0B384603F027
:106DD0001DF89FED511B53EC112B03F067F841ECAC
:106DE000180B404603F012F89FED4D1B53EC112B8E
:106DF00003F05CF841EC190B51EC180B53EC192B18
:106E000002F076FD53EC1B2B02F072FD53EC1A2BB3
:106E100002F06EFDCDE90801002008909DED080B01
:106E200053EC1A2B51EC100B03F080F953EC1B2B95
:106E300003F07CF953EC182B03F078F953EC192B81
:106E400003F068F99FED381B53EC112B03F02EF87B
:106E50009FED370B41EC180B53EC102B9DED080BFD
:106E600051EC100B03F022F853EC182B02F040FD0C
:106E70009FED310B41EC180B53EC102B9DED080BE3
:106E800051EC100B03F012F853EC182B02F030FD0C
:106E900041EC100B139810F0004F06D06D4251ECEE
:106EA000100B02F0E7FC41EC100B284684ED000BC0
:106EB00041E60000000000000000000000000000AB
:106EC000FB21E93F7CD9024000004054FB21F93FFF
:106ED0003163621A61B4D03DFB21F93F000000002C
:106EE0000000601A61B4D03D7370032E8A19A33B71
:106EF000FB2139410000000083C8C96D305FE43FC9
:106F0000000000000000E03FCA48000018480000F0
:106F1000000000000000103E000000000000103CD7
:106F2000000000000000103A182D4454FB21F93DE8
:106F30003326A611460B113C00000054FB21F93DFD
:106F400010B52DED040B2DED088B82B0B0EE419AFB
:106F5000F0EE619A0B9820F000449FED4BABB4F13A
:106F6000795F11DA9DED0A0B51EC100B02F008FF6E
:106F7000002801BFB0EE4A0AF0EE6A0A02B0BDEC8A
:106F8000088B04BF04B010BD9DED0A0B53EC102B11
:106F900051EC100B02F08AFF41EC180B3C48062123
:106FA000B0EE480AF0EE680A784400F081F853EC3D
:106FB000182B51EC100B02F079FF9DED0A0B41EC00
:106FC0001B0B53EC192B51EC100B02F06FFF41EC33
:106FD000190B53EC1B2B51EC180B02F067FF53EC11
:106FE000192B03F0A3F89FED2C0B41EC190B53EC7C
:106FF000102B51EC180B02F059FF41EC100B2848F4
:10700000844210DA53EC192B51EC100B03F08EF87C
:1070100053EC1A2B03F07EF841EC100B02B0BDECE0
:10702000088B04B010BD1F48A042BCBF9FED1E1BC3
:107030008DED001B06DBA4F50010019000200090F0
:107040009DED001B51EC100B53EC112B03F06EF86F
:107050009DED000B41EC180B53EC102B51EC1A0B6F
:1070600003F064F841EC1A0B53EC192B51EC180B9C
:1070700003F05CF853EC1A2B03F04CF841EC100BC6
:10708000CCE7000000000000000000000000F03F1E
:107090003C45000000000000000000000000E03F50
:1070A0003333D33F0000E93F000000000000D23F2F
:1070B00070B504462DED028B4D1E00EBC500B0EE01
:1070C000408AF0EE608A90ED000B35F0060017D094
:1070D00053EC182B51EC100B02F0E8FE41EC100BB6
:1070E0006D1E04EBC50090ED001B51EC100B53EC32
:1070F000112B02F0FDFB41EC100B35F00600E7D13F
:10710000022D36D0042D1CD0062D1CBFBDEC028BE9
:1071100070BD53EC182B51EC100B02F0C7FE94ED30
:107120000A1B53EC112B02F0E3FB53EC182B02F07B
:10713000BDFE94ED081B53EC112B02F0D9FB41EC82
:10714000100B53EC182B51EC100B02F0AFFE94ED2A
:10715000061B53EC112B02F0CBFB53EC182B02F067
:10716000A5FE94ED040B53EC102B02F0C1FB41EC97
:10717000100B53EC182B51EC100B02F097FE94ED12
:10718000021B53EC112B02F0B3FB53EC182B02F053
:107190008DFE94ED001B53EC112B02F0A9FBBDEC0E
:1071A000028B41EC100B70BD31B504462DED040B84
:1071B0002DED0A8BB0EE41BAF0EE61BA0B989DED61
:1071C0000A0B20F00040B0F1795F0DDA51EC100BA2
:1071D000FFF74EFA042808BF00F09AF89DED0A0B5D
:1071E000BDEC0A8B05B030BD53EC102B51EC100BED
:1071F00002F05CFE41EC180B9DED0A0B53EC182BD2
:1072000051EC100B02F052FE41EC190B2C48B0EE81
:10721000480AF0EE680A05217844FFF749FF9FED20
:107220002ACBB0EE40AAF0EE60AA9CB353EC1C2B24
:1072300051EC190B02F03AFE41EC1C0B53EC1A2BEB
:1072400051EC190B02F032FE9FED210B41EC190BB2
:1072500053EC102B51EC1B0B02F028FE53EC192BB6
:1072600002F064FF53EC182B02F020FE53EC1B2BB2
:1072700002F05CFF53EC1C2B02F058FF9DED0A1B43
:1072800053EC112B02F046FFBDEC0A8B05B041EC2C
:10729000100B30BDFFE753EC1A2B51EC180B02F02A
:1072A00005FE53EC1C2B02F023FB53EC192B02F0D0
:1072B000FDFD9DED0A1B53EC112B02F019FBE3E7DA
:1072C000C443000000000000495555555555C5BF41
:1072D000000000000000E03F10B553EC102B51EC13
:1072E000100B02F005FB41EC100B10BD000000007C
:1072F0009FED050B10B553EC102B51EC100B02F069
:10730000ABFB41EC100B10BD0000000000000000C2
:107310009FED050B10B553EC102B51EC100B02F048
:10732000C5FD41EC100B10BD000000000000001076
:1073300030380A2801D20120704700207047D0ED74
:10734000000AF4EEC00AF1EE10FA01DD80ED000A49
:10735000D0ED000AB1EE400AF4EEC00AF1EE10FAE8
:1073600001D280ED000A7047002000F03BFB00F0E6
:10737000A1FB104D104C2869012804D0022809D027
:10738000032814D10DE00121207800F06DFC00F0FD
:107390007FF80CE00221207800F066FC00F00EF887
:1073A00005E00321207800F05FFC00F033F800F0E6
:1073B00081FBE0E7FC4D0020F00000200A4810B5FA
:1073C000037A0AA20121002000F050FB0B480121A2
:1073D0000BA2037A084600F049FB0A21BDE81040E1
:1073E0000BA2042000F042BB6445002054454D50E0
:1073F0005F5049543A202532640000009445002033
:1074000054454D505F5941573A20253264000000E1
:10741000322F330010B5124C12A20121B4F9003002
:10742000002000F023FBB4F9023011A20A21002051
:1074300000F01CFB0121B4F904300FA2084600F053
:1074400015FBB4F906300FA20A21012000F00EFB53
:107450000A21BDE810400DA2042000F007BB000087
:10746000064600204348313A2534642000000000DD
:107470004348323A253464004348333A2534642083
:10748000000000004348343A25346400332F3300B1
:1074900010B53548354C2DED028B82B00068B0F840
:1074A0000530A3F50070023809D0052830A24FF04E
:1074B00001014FF0000033D000F0D8FA4AE02CA2CE
:1074C0000121002000F0D2FAE08A9FED2D8A00EE23
:1074D000100AF8EE400A80EE880A10EE100A02F058
:1074E0000FFFCDE90001012126A2084600F0BEFAF7
:1074F000208B00EE100AF8EE400A80EE880A10EEAB
:10750000100A02F0FDFECDE9000123A201210220B4
:1075100000F0ACFAD4F81A0002F0F2FE23A213E055
:1075200000F0A4FA012114F8243F28A2084600F034
:107530009DFA63782AA20121022000F097FAD4F87C
:10754000020002F0DDFE2BA2CDE9000101210320A3
:1075500000F08CFA02B00A21BDEC028B2AA2BDE831
:107560001040042000F082BA9C0000204C4E002005
:10757000434D445F4944203A2020253034580000D0
:1075800000007A44566F6C746167653A202530328A
:107590002E3366205600000043757272656E743A91
:1075A00020202530322E336620410000506F776551
:1075B0007220203A202530342E316620572020209A
:1075C00020202020202020200000000042756C6C2C
:1075D000657420547970653A2020256420200000CD
:1075E00042756C6C657420467265713A2020256482
:1075F0002020000042756C6C6574205370656564D2
:107600003A20252E31660000312F330082B0CDE9BB
:10761000000121F0004001909DED000B02B051EC03
:10762000100B704730B5448984814A6B6FF00405B4
:10763000928A52BA42814B6BDB8A5BBA43800380E9
:107640004B6B1B8B5BBA1BB293FBF5F38380496BCF
:10765000131BB3F5805F897E0172416901DD491E0C
:1076600003E013F5805F01DA491C416102EB41310F
:10767000028A891A816130BDEFF30580002800D0AD
:10768000012070471CB50220F8F7B8FE1849002207
:10769000486001200321CDE9000103461146154849
:1076A000FDF750FC00241348009401232246214694
:1076B00014300194FDF746FC0E480022009401238B
:1076C000114628300194FDF73DFC0A480022009441
:1076D000012311463C300194FDF734FC002000F0FA
:1076E00081F900F04DF9BDE81C4000F0E3B900005D
:1076F000A8000020FC4D002010B5184C1849606807
:10770000898A018001F0FAF860684078C0F30011BE
:107710001448FDF7C3FB6068407800F00101114890
:107720001430FDF7BBFB60680078C1090D482830B4
:10773000FDF7B4FB0C48FBF7FFFA6421B0FBF1F056
:1077400080B260801F38042801D2012100E00021AE
:107750000448BDE810401438FDF7A0BBA800002085
:1077600006460020104E00204C3E002010B501229D
:10777000D1020548FCF782F90122BDE810409103CF
:107780000248FCF77BB900000010024000140240E0
:10779000FCF788F9FEF700FBFDF7E6FCFDF760FC5F
:1077A000FDF7ECFBFDF716FCFDF736FCFDF7CCFD15
:1077B000FDF7EEFDFDF7F6FFFEF714F8FEF72EF8E5
:1077C000FEF748F8FDF73AFEFDF77EFEFDF7C6FE30
:1077D000FDF7FCFEFDF740FFFDF78AFFFDF7FCFD1E
:1077E00001F09CF8FDF772FC00F00CFAFEE7014690
:1077F0000020842900D0C81C7047000030B58BB031
:1078000004460020012103900490CDE906010E25D5
:10781000CDE9081505900090019002906946204638
:10782000FBF736FB694620460595FBF731FB084818
:10783000844203D1074820631C30606306488442B9
:1078400004D10448403020631C3060630BB030BD6D
:10785000943E0020E4440020D43E002070B5474D03
:107860004FF48064002221462846FCF707F94FF4C4
:10787000FA70FCF712F8012221462846FCF7FEF8C0
:107880000021AE2000F09AF90021084600F096F998
:107890000021102000F092F90021402000F08EF924
:1078A0000021812000F08AF90021CF2000F086F924
:1078B0000021A12000F082F90021C82000F07EF90B
:1078C0000021A62000F07AF90021A82000F076F926
:1078D00000213F2000F072F90021D32000F06EF962
:1078E0000021084600F06AF90021D52000F066F971
:1078F0000021802000F062F90021D92000F05EF91B
:107900000021F12000F05AF90021DA2000F056F9A8
:107910000021122000F052F90021DB2000F04EF986
:107920000021402000F04AF90021202000F046F913
:107930000021022000F042F900218D2000F03EF9E4
:107940000021142000F03AF90021A42000F036F9BB
:107950000021A62000F032F90021AF2000F02EF91E
:107960000021AF2000F02AF9002000F03BF8BDE82C
:1079700070400021084600F0B7B800000004024043
:107980002DE9F047002000F02DF8DFF85490002496
:107990005FF0000609EBC60000EBD4000025077875
:1079A0004FFA86F8380604EB050041B201D50122F2
:1079B00000E00022404600F035F878066D1C070E06
:1079C000EDB2082DEED3761CF6B2802EE2D3083449
:1079D000E4B2402CDCD3BDE8F04700F06BB8000007
:1079E00004AC0008F0B500210D4BFF260C46002228
:1079F00001280FD003EBC20580B16F5CC7F1FF0710
:107A00006F54521CD2B2802AF2D3491CC9B2082941
:107A1000EDD3F0BD03EBC2056E54F2E76C54F0E712
:107A2000FC49002070B5802817D2002915DB3F29BA
:107A300013DCCB1701EB5375C5F3C70325F007051E
:107A40000124094E491B8C4006EBC000012A05D0D9
:107A5000C15C022A05D0A143C15470BDC15C214361
:107A6000FAE76140F8E70000FC4900200FB430B5A8
:107A7000A1B00C46054680216846F8F7A2FD042D0A
:107A800013D8142C11D8002C0FD027AA6846269999
:107A9000F8F7E4FCC4F11500C0B200210DF80010A5
:107AA0006A462146284600F071F821B030BC5DF8E6
:107AB00014FB000070B50B4E00242146002000F09E
:107AC00013F8002506EBC5000121005D00F076F8F3
:107AD0006D1CEDB2802DF5D3641CE4B2082CECD300
:107AE00070BD0000FC49002010B5801CC4B2B0314C
:107AF000C8B2002100F062F8102040EA1410002102
:107B000000F05CF804F0F000BDE81040002100F047
:107B100055B800002DE9F04F01EB410100EB4000AA
:107B200049068006040E203A4FEA1169D0B2164980
:107B300000EB4000A046002501EB800B00261BF85F
:107B400005704FFA89FA380601D5012200E00022BB
:107B500061B25046FFF766FF7806641C070EE4B278
:107B6000A4EB08000C2809D0761CF6B2082EEAD344
:107B70006D1CEDB20C2DE1D3BDE8F08F09F10100D1
:107B8000444600F0FF09F3E790A70008F0B5174658
:107B90000C46064600250CE021463046FFF7BAFFAA
:107BA000641CE4B2142C02D90024761CF6B26D1CBD
:107BB000EDB27A5D002AEFD1F0BD000013B50848A0
:107BC0004FF4007309B1012200E000221946FBF7CF
:107BD00055FF0A23012269460248FCF7B9FB1CBD88
:107BE00000040240143F002010B500B9012000F04D
:107BF000D7FF002010BD10B501B9012100F0F6FF3C
:107C0000002010BD10B501F0C5F8002010BD10B562
:107C1000FFF732FD18B1BDE8104001F057BCBDE8D8
:107C2000104001F04DBC10B501F03CFC012803D020
:107C3000BDE8104001F08CB910BD3EB504460D46BC
:107C4000B0F90800FFF7D3FD02A9CDE90001208AB1
:107C50002B4682B2D4E9001001F0F8FB012801D0D4
:107C600000203EBD02983EBD884202D00020FFF7B2
:107C7000B9BE704700B530EEC01A80ED080AC0EDFD
:107C8000050A80ED0B1AD0ED141A01469FED692A02
:107C900030EEC00AF5EEC01AB1EE400AF1EE10FA6D
:107CA0000ED0B5EEC01AF1EE10FA02DDF0EE410A88
:107CB00001E0F0EE400AF4EEE10AF1EE10FA12DC17
:107CC000D1ED150AF5EEC00AF1EE10FA0ED0B5EEC0
:107CD000C01AF1EE10FA01DDB0EE410AB4EEE00A8E
:107CE000F1EE10FA02D2B0EE420A00BD886D01F149
:107CF0003402032802D0042838D07AE091ED000A3B
:107D0000104620EE010A81ED0C0A91ED0D0AD1ED2D
:107D1000010A00EE810A81ED0D0A91ED0A0AD1ED0A
:107D2000020A31EE400A20EE200A81ED0E0A91EDA2
:107D3000180AB8EE400AFFF702FB91ED0C0AD1EDEC
:107D40000D0A01F13C0030EE200AD1ED0E0A30EEB2
:107D5000200A81ED0F0A91ED170AB8EE400AFFF7ED
:107D6000EEFA91ED0F0A81ED100A42E091ED0A0A58
:107D7000D1ED001A104671EE400A60EEA10AC1ED85
:107D80000C0AD1ED010A60EE810AC1ED0D0AF0EE98
:107D9000000A00EE601A91ED090AD1ED020A31EEF7
:107DA000000A20EE200A81ED0E0A91ED180AB8EEC5
:107DB000400AFFF7C4FA91ED0C0AD1ED0D0A01F16A
:107DC000480030EE200AD1ED0E0A30EE200A81ED97
:107DD000110AD1ED130A30EE800A81ED120A91EDFD
:107DE000170AB8EE400AFFF7AAFA91ED120A81EDE0
:107DF000130A91ED0A0A81ED090A91ED0B0A81ED52
:107E00000A0A91ED070A81ED060A91ED080A81ED53
:107E1000070A91ED040A81ED030A91ED050A81ED4F
:107E2000040A886D032802D091ED120A00BD91ED7D
:107E30000F0A00BD0000000000F1580C8CE80E0095
:107E400080EC030A704780EC030A70472DE9F0418B
:107E5000184C0F460546E6682068001D00F089FDB5
:107E600038B9206890F82C1001208840216981439E
:107E70002161681C07D137B12168BDE8F0410E4887
:107E8000091D00F0AEBD20683544B542456021684B
:107E900005D2A06BBDE8F041091D00F08ABD606B02
:107EA000091D00F086FDA06A854200D2A562BDE8EA
:107EB000F081000008000020D00100202DE9F041F1
:107EC000054600F09BFD2E4CA068401CA060206879
:107ED0002C4F10B1606940B32DE02560A0680128E7
:107EE00029D1002606EB860007EB800000F053FD49
:107EF000761C072EF6D323488C3000F04CFD214829
:107F0000A03000F048FD1F48B43000F044FD1D488B
:107F1000C83000F040FD1B48DC3000F03CFD194843
:107F20008C3060631430A06305E02068E96AC06AA1
:107F3000884200D82560606A401C60626864E96A13
:107F40000120226988401043206101EB810007EB8A
:107F50008000291D00F045FD00F070FD60690028DB
:107F60000CD02068E96AC06A884207D206494FF0FF
:107F700080500860BFF34F8FBFF36F8FBDE8F08173
:107F800008000020F400002004ED00E010B500F02F
:107F900035FD0E4C2068A0B90D4800F0FCFC0C48E3
:107FA000143000F0F8FC0A48E06014302061002230
:107FB0000C210A2000F0E2FF206010B105A100F0C2
:107FC000B9FDBDE8104000F039BD000044000020BC
:107FD000E4010020546D72510000000070B5114E94
:107FE000114C17E000F00EFF3068B8B101F060FBF3
:107FF00000F004FDF068C568281D00F0BAFCA06818
:10800000401EA0606068401E606000F017FD2846BA
:1080100000F055F860680028E4D170BD01F048FB1D
:10802000F8E70000BC0100200800002030B4026C1A
:108030000B46002A0BD0C1681144C1604468A142BC
:1080400001D30168C16030BC1846F8F719BA30BCDA
:1080500070472DE9F041856B174604460026026CF7
:1080600082B1C7B1E068F8F70BFAE168206C091A31
:10807000E1602268914202D26168081AE060022F32
:1080800016D017E02068A8B9606801F08BFA0646A0
:10809000002060600EE0A068F8F7F2F9216CA0689B
:1080A0000844A0606168884204D32068A06001E0B1
:1080B00005B16D1E6D1CA5633046BDE8F08110B59D
:1080C0000446006B00F0CEFC2046BDE8104000F0F6
:1080D000C9BC000010484FF47051420706D0C01DC3
:1080E0000D4920F00700411AC1F570510B4A0023D9
:1080F0000144C2E900030839103A21F00701116078
:108100004B600B600B1AC0E9001393604FF0004006
:108110005360D060704700004C02002074000020C3
:10812000074C4FF08056074DFFF758FF2068012895
:10813000FAD92E60BFF34F8FBFF36F8FF4E70000C3
:10814000F400002004ED00E02DE9F0470E46DDE9E3
:1081500009841746824691009946089DA522206B06
:10816000F8F705FA6FF00301206B01EB8701084473
:1081700020F00707780707D0502080F31188BFF35D
:108180004F8FBFF36F8FFEE72218315C82F83410F7
:10819000315C11B1401C1028F6D3002684F84360EE
:1081A000072D00D30625E562C4E91356201D00F013
:1081B000FDFB04F1180000F0F9FB2461C5F1070094
:1081C0006462A061666584F858604A465146384644
:1081D00000F03CFA2060B8F1000F01D0C8F8004070
:1081E000BDE8F08730B5114900E011460A688242C7
:1081F000FBD34B685C18844203D140681844486044
:10820000084643681C18944209D1084C103C246865
:10821000A24209D052681A4442600A681268026099
:10822000814200D0086030BD0460F9E7740000208E
:1082300070B5002441600B4D0061914206D8D11AFF
:108240008269914206D2011D286907E09A4203D251
:10825000994201D3012403E0011DE86800F0A9FB65
:10826000204670BD4400002010B5044600F0C6FB57
:10827000A06B28B15FF0000400F0E0FB204610BDC9
:108280000124F9E730B587B02B4D4BE00498002866
:1082900048DB069C606910B1201D00F06AFB02A853
:1082A00000F0B6F8024604980A283BD2DFE800F056
:1082B0000505053A263705053A260598A1690346BE
:1082C00001442046FFF7B4FF00B3616A20468847A7
:1082D000E069012826D1002000900598A1690023BB
:1082E00042181946204601F069FA78B9502080F307
:1082F0001188BFF34F8FBFF36F8FFEE70598A06122
:1083000028B1811813462046FFF792FF0AE050205B
:1083100080F31188BFF34F8FBFF36F8FFEE72046C6
:1083200000F0A0FB00231A4604A9286800F050FEC4
:108330000028ABD107B030BD440000202DE9FC413E
:108340000F46054600F05EFD01A800F061F8044606
:10835000019818B101F0ACF9BDE8FC81224EAFB133
:1083600030690068A8B30027291B3A46306800F03E
:10837000F5FB01F09DF90028EED11C494FF080502B
:108380000860BFF34F8FBFF36F8FE5E7A542EBD8CF
:1083900001F08EF9F0682746C068C468201D00F01F
:1083A000E8FAE069012810D1A0692B4641193A4644
:1083B0002046FFF73DFF40B10020034601460090F4
:1083C0002A46204601F0FAF920B1616A2046884722
:1083D000C2E707E0502080F31188BFF34F8FBFF34F
:1083E0006F8FFEE70127BFE74400002004ED00E0A7
:1083F0000648416B096829B1416BC968C968496879
:10840000816270474FF0FF31FAE70000080000205A
:1084100070B5054601F054F8064E0446B068844233
:1084200003D200F009F8012000E000202860204677
:10843000B46070BD44000020F8B5194D1FE0C0685D
:10844000C4680668201D00F094FA616A20468847D7
:10845000E069012813D1A0693044B04206D92461F3
:108460006060211DE86800F0A4FA08E000200346DF
:10847000014600903246204601F0A0F938B1E86884
:1084800001680029DBD12969C5E90310F8BD502036
:1084900080F31188BFF34F8FBFF36F8FFEE70000AB
:1084A0004400002008484068401C4FF0500080F312
:1084B000118804D0BFF34F8FBFF36F8FFEE7BFF378
:1084C0004F8FBFF36F8FFEE758000020074CE06826
:1084D000016841B1C0680021D0F80000FFF72EFF0D
:1084E000FFF7D0FEF3E701210020F7E7440000206A
:1084F0002DE9F041044600F081FA94F9455004F169
:10850000240609E0606A48B1304601F097F808B1E6
:1085100000F0B2FB6D1E6DB2002DF3DC4FF0FF36A4
:1085200084F8456000F08AFA00F068FA94F9445043
:1085300004F1100709E0206948B1384601F07EF8DF
:1085400008B100F099FB6D1E6DB2002DF3DC84F8CC
:108550004460BDE8F04100F071BA00002DE9F0413F
:108560000546002700F04EFC314E306808B9FFF791
:10857000B1FDF06805424BD1C5B3083568070ED090
:1085800005F00700C0F108000544680707D0502037
:1085900080F31188BFF34F8FBFF36F8FFEE72DB3CA
:1085A0007068854234D82248103001460C6801E0DA
:1085B00020460C466168A94202D221680029F7D101
:1085C00031688C4224D007682168016060680837F0
:1085D000411B10290FD96019420708D0502080F3A1
:1085E0001188BFF34F8FBFF36F8FFEE710E041603C
:1085F0006560FFF7F7FD61687068401A7060B268E7
:10860000904200D2B060F06801430020C4E900014C
:1086100001F04EF8780707D0502080F31188BFF39F
:108620004F8FBFF36F8FFEE73846BDE8F081000043
:10863000640000200449086818B10868026D521CE3
:1086400002650868704700000800002010B5031F8D
:108650004FF080741C601B1F21F001011960191F6D
:10866000044B0B6014390A60091F6FF00202443892
:108670000A6010BDA5840008144801681448B1F8C8
:108680000520B2F5817F0DD0A2F50072013A13D01A
:10869000012A14D0062A04D151F8072F4262898892
:1086A00001857047017801714178C279914200D10A
:1086B00041713221817170470F22C01D02E00448D0
:1086C0000E221630C91DF7F7DBBE00009C0000200B
:1086D0004C4E0020F0B4056BDDE9044616B340F2C1
:1086E000FF162E60066B0025B560066BF560066B05
:1086F00008253561066B0D0A3575056B6975056BC7
:10870000110AA975016BCA75026B190A1176016B02
:108710004B76026B210A9176016BCC76F0BC64211A
:10872000FAF77EBE4FF40076DBE70000DFED040AC7
:1087300020EE200ABCEEC00A10EE100A80B270478C
:1087400000009A432DED088B82B00027FFF75FFAF7
:10875000DFF87C81DFF87C919FED5FAB604E4FF4DA
:10876000AF6B4FF080449FED5FBA5F4D4FF47A7A64
:108770009FED5E9B009005216846FFF73CFAD8F814
:1087800000004078810701D501213170000601D534
:1087900000203070B5F80F00F02808D0B0F5B47F95
:1087A00005D0B0F5F07F02D0F020A5F80F0099F8C1
:1087B0000000C0F3810102296AD100F00300022801
:1087C0003ED0B5F80F0001F021FB53EC192B01F05E
:1087D0006DFB41EC180B288C01F018FB53EC182BA7
:1087E00001F062FC00D927B3B5F80F0001F00EFBD1
:1087F00053EC1A2B01F05AFB41EC180B288C01F0BA
:1088000005FB53EC182B01F04FFC00D957B1C4F80D
:1088100034B0C4F838B0B0EE4B0AFFF787FF708071
:1088200077B340E0C4F834B0C4F838B0B0EE000A12
:108830002AE04FF4C8606063A063B1EE000A23E051
:10884000307828B3B5F80F0001F0E0FA53EC1A2B9A
:1088500001F02CFB41EC180B288C01F0D7FA53ECFB
:10886000182B01F021FCD2D9002FD0D14FF4C860D1
:108870006063A0631F48807C20B19FED1F0A03E066
:10888000012710E0B0EE4B0AFFF750FF708072E74F
:10889000C4F834A0C4F838A0B0EE4B0AFFF746FF86
:1088A0007080002FF3D0B5F80F0001F0AFFA53EC51
:1088B000192B01F0FBFA41EC180B288C01F0A6FAF9
:1088C00053EC182B01F0B6FAE1D8002753E700006B
:1088D000AC000020A8000020666666666666EE3F73
:1088E000EC000020000000004C4E00209A9999995D
:1088F0009999E93F0646002033337340054A0649FB
:10890000137A0878527A63F3010062F383000870E7
:108910007047000006460020A800002070B5FAF756
:1089200005F8FDF7EFF8FDF773F8FEF797FFFFF78F
:1089300027F8FCF781FAFEF7A5FE064D002428680B
:10894000400028609620FAF7A8FF641CE4B2082CC7
:10895000F5D370BD1418024001680A68D20604D528
:10896000C968C90601D5FDF7E9BD7047FFF784FE68
:10897000FCE7D0E9013201699A60D0E901235A602D
:108980004A68824201D182684A6000220261086816
:10899000401E0860704700F108014FF0FF32C0E947
:1089A0000112C16001610021016070470021016175
:1089B000704730B50B685A1C02D000F1080202E083
:1089C000026904E02246546825689D42FAD953683A
:1089D0004B6099608A60516008610168491C0160C0
:1089E00030BD42684A6093688B60936859609160BB
:1089F00008610168491C016070470000502080F345
:108A00001188BFF34F8FBFF36F8F0A494868401C2E
:108A1000486001280CD10848006810F0FF0F07D00B
:108A2000502080F31188BFF34F8FBFF36F8FFEE7A5
:108A3000704700005800002004ED00E00849486835
:108A400028B1401E486001D180F311887047502042
:108A500080F31188BFF34F8FBFF36F8FFEE70000E5
:108A60005800002070B5002827D0144DA0F108044C
:108A70006168E868014207D1502080F31188BFF394
:108A80004F8FBFF36F8FFEE722683AB1502080F31B
:108A90001188BFF34F8FBFF36F8FFEE78143616093
:108AA00000F0B0F960686968084468602046FFF724
:108AB00099FBBDE8704000F0FBBD70BD6400002074
:108AC00006484FF47A710068B0FBF1F14FF0E020F6
:108AD000491E416107210161704700000400002028
:108AE00010B5F7F767FC114910280ED300F1E0200C
:108AF00090F8F0030A78904207D2502080F3118852
:108B0000BFF34F8FBFF36F8FFEE709480068896896
:108B100000F4E060884207D9502080F31188BFF349
:108B20004F8FBFF36F8FFEE710BD0000580000208D
:108B30000CED00E010B5084B002200BF53F83240A6
:108B40001CB1521C082AF9D310BD43F8321003EBB4
:108B5000C201486010BD00000C02002070B515462F
:108B60000E460446FFF74AFF94F944100020491CC2
:108B700001D184F8440094F94510491C01D184F8CE
:108B80004500FFF75BFFA06B28B92A46314604F188
:108B9000240000F08FF82046BDE87040FFF7A8BC25
:108BA00010B5020014D00F48006B38B1502080F38C
:108BB0001188BFF34F8FBFF36F8FFEE700F022F9EC
:108BC00000211046FFF742F900F072FD002807D19E
:108BD00005494FF080500860BFF34F8FBFF36F8F90
:108BE00010BD00000800002004ED00E070B50D4647
:108BF00004000BD095B11E4A106BB8B1502080F321
:108C00001188BFF34F8FBFF36F8FFEE7502080F3C3
:108C10001188BFF34F8FBFF36F8FFEE7502080F3B3
:108C20001188BFF34F8FBFF36F8FFEE700F0EAF8B4
:108C3000D26823685919934204D98B420AD99142C8
:108C400002D807E08B42FAD9881A21600021FFF789
:108C5000FDF800E0216000F02BFD002807D1054958
:108C60004FF080500860BFF34F8FBFF36F8F70BD20
:108C70000800002004ED00E001490120C8617047B0
:108C80000800002010B50C4650B109490968183198
:108C9000FFF78FFE2046BDE810400121FFF7D6B850
:108CA000502080F31188BFF34F8FBFF36F8FFEE723
:108CB0000800002070B514460D4668B10A490968DD
:108CC0001831FFF78EFE0CB14FF0FF3521462846D4
:108CD000BDE87040FFF7BAB8502080F31188BFF3A9
:108CE0004F8FBFF36F8FFEE70800002070B50400C0
:108CF00039D01D4DE06A2968C96A884233D2A0691B
:108D0000002804DB2868C06AC0F10700A061E16A9E
:108D1000164E01EB8101606906EB810188421FD18B
:108D2000201DFFF726FE012150B9E06A00EB80020A
:108D300056F8222022B92A6901FA00F082432A61FA
:108D40002868C06AE0622A6981401143296100EB0A
:108D5000800006EB8000211DBDE87040FFF741BE9A
:108D60002868C06AE06270BD08000020F40000209E
:108D700028B107490A6A0260C968416070475020FB
:108D800080F31188BFF34F8FBFF36F8FFEE70000B2
:108D9000080000201CB517480024CDE900402346F8
:108DA000802215A1164800F051FB012803D100F0E4
:108DB000E1FC012809D0401C1AD1502080F3118811
:108DC000BFF34F8FBFF36F8FFEE7502080F3118802
:108DD000BFF34F8FBFF36F8F06484FF0FF312C3832
:108DE000816201214161C460BDE81C4000F040B8CF
:108DF0001CBD00003400002049444C450000000028
:108E0000218100080248016B491C01637047000082
:108E1000080000201448016B11B10121C1617047A5
:108E20000021C1610169B1FA81F1C1F11F0101EBBA
:108E300081020E4951F822306BB101EB820101F140
:108E400008034A6852684A609A4201D152684A60EF
:108E5000D16801607047502080F31188BFF34F8FB5
:108E6000BFF36F8FFEE7000008000020F400002031
:108E70001CB532480168324A914207D1502080F334
:108E80001188BFF34F8FBFF36F8FFEE700682C4947
:108E9000491E884207D1502080F31188BFF34F8FBD
:108EA000BFF36F8FFEE7274908780190FF20087015
:108EB00008788DF800009DF800009DF8002000F073
:108EC000F000904207D0502080F31188BFF34F8FFD
:108ED000BFF36F8FFEE79DF800001B4A00F05000C3
:108EE00010700720906005E09DF800305B008DF861
:108EF0000030401E9DF800301B06F5D4000200F43F
:108F0000E0609060019808700C482030016841F4DE
:108F100070010160016841F070410160FFF7D0FD10
:108F200000205060F7F70CFA0848016841F0404112
:108F30000160F7F7F5F900201CBD000000ED00E02E
:108F400071C20F4100E400E05800002034EF00E05F
:108F500010B5502080F31188BFF34F8FBFF36F8F90
:108F600000F0BCFA18B104494FF0805008600020AE
:108F700080F3118810BD000004ED00E02DE9F04100
:108F800017460E46050016D0EEB105FB06F0503030
:108F9000FFF7E4FA04000CD004F15000AEB12060F9
:108FA000C4E90F562046012100F0C8F8204684F895
:108FB0004C70BDE8F081502080F31188BFF34F8FD3
:108FC000BFF36F8FFEE70020E1E72460E8E70000D1
:108FD0002DE9FF4F002683B09B468A46040003D04C
:108FE000BAF1000F08D011E0502080F31188BFF3D0
:108FF0004F8FBFF36F8FFEE7206C38B1502080F3A6
:109000001188BFF34F8FBFF36F8FFEE700F04AFA6E
:10901000DFF824814FF000094FF0805748B90598D8
:1090200038B1502080F31188BFF34F8FBFF36F8F9B
:10903000FEE7FFF7E3FCA56B45B351462046E66823
:10904000FEF7F4FFBBF1000F13D0E660606A50B189
:1090500004F1240000F0F2FA28B1C8F80070BFF360
:109060004F8FBFF36F8FFFF7E9FC012007B0BDE81A
:10907000F08F6D1EA563206810B9FFF7DBFA606002
:1090800020690028EFD004F11000E3E7059808B14B
:109090001EB106E0FFF7D2FC27E06846FFF768FE46
:1090A0000126FFF7CBFCFFF7ADFEFFF7A7FC94F915
:1090B0004400401C01D184F8449094F94500401CC0
:1090C00001D184F84590FFF7B9FC05A9684600F086
:1090D00087F9002820460AD0FFF70AFA00F0E8FADC
:1090E0002046FFF7C1F80028A3D00020BEE7FFF715
:1090F000BBF8D8B1206830B9FFF780FC6068FFF793
:10910000F5FDFFF79BFC04F124000599FFF7BAFD7C
:109110002046FFF7EDF900F0CBFA002889D1C8F816
:109120000070BFF34F8FBFF36F8F82E72046FFF7CA
:10913000DFF900F0BDFA7CE704ED00E070B50D4604
:10914000040025D0FFF75AFCD4E90F20216802FB68
:10915000001161600021A1632168A1600A46D4E981
:109160000F01401E00FB0121E16021464FF0FF305E
:1091700001F8440F487004F110008DB1FFF70BFCAB
:1091800004F12400FFF707FCFFF758FC012070BD35
:10919000502080F31188BFF34F8FBFF36F8FFEE72E
:1091A00021690029F0D000F049FA0028ECD00449E8
:1091B0004FF080500860BFF34F8FBFF36F8FE3E72E
:1091C00004ED00E02DE9FF4782B01D468A464FF0CE
:1091D0000008040003D0BAF1000F08D011E05020BD
:1091E00080F31188BFF34F8FBFF36F8FFEE7206CC2
:1091F00038B1502080F31188BFF34F8FBFF36F8FCA
:10920000FEE7022D0AD1E06B012807D0502080F341
:109210001188BFF34F8FBFF36F8FFEE700F042F965
:109220003F4F4FF000094FF0805648B9049838B1CD
:10923000502080F31188BFF34F8FBFF36F8FFEE78D
:10924000FFF7DCFBA06BE16B884207D3022D05D052
:109250000498D0B1B8F1000F1AD01EE02A4651464A
:109260002046FEF7F6FE616A19B104F1240000F011
:10927000E5F920B13E60BFF34F8FBFF36F8FFFF76B
:10928000DDFB012006B0BDE8F087FFF7D7FB22E049
:109290006846FFF76DFD4FF00108FFF7CFFBFFF7C2
:1092A000B1FDFFF7ABFB94F94400401C01D184F8F9
:1092B000449094F94500401C01D184F84590FFF793
:1092C000BDFB04A9684600F08BF830B12046FFF7DB
:1092D0000FF900F0EDF90020D4E7FFF78FFBA06B4A
:1092E000E16B884213D1FFF7A9FB04F11000049948
:1092F000FFF7C8FC2046FFF7FBF800F0D9F900287B
:109300009ED13E60BFF34F8FBFF36F8F98E7FFF79B
:1093100095FB2046FFF7ECF800F0CAF990E7000053
:1093200004ED00E02DE9F0471F4690468946040011
:1093300003D0B9F1000F08D011E0502080F311885C
:10934000BFF34F8FBFF36F8FFEE7206C38B1502013
:1093500080F31188BFF34F8FBFF36F8FFEE7022FAB
:109360000AD1E06B012807D0502080F31188BFF3A9
:109370004F8FBFF36F8FFEE7FFF7B2FB5020EFF385
:10938000118680F31188BFF34F8FBFF36F8FA06BEF
:10939000E16B884206D3022F04D0002086F31188A7
:1093A000BDE8F08794F945503A4649462046FEF715
:1093B00050FE681C04D06D1C84F845500120EDE778
:1093C000606A0028FAD004F1240000F037F9002880
:1093D000F4D0B8F1000FF1D00121C8F80010EDE78A
:1093E00070B50D46040019D005B3FFF707FB164A08
:1093F000D1682868431C0FD02368126A934202D0B8
:1094000062688A421AD96268891A814216D2401A61
:1094100028602046FFF7ACFC002410E0502080F3C9
:109420001188BFF34F8FBFF36F8FFEE7502080F39B
:109430001188BFF34F8FBFF36F8FFEE70124FFF753
:10944000FDFA204670BD0000080000202DE9FF5FF6
:109450008346DDE90E87994616468A469000FFF757
:109460007DF805001AD05C20FFF778F8040012D0D0
:1094700025630021CDE90241CDE900874B46324604
:1094800051465846FEF760FE2046FEF717FD0120C4
:1094900004B0BDE8F09F2846FFF7E4FA4FF0FF3034
:1094A000F6E700000548416919B1006B18B10020CA
:1094B000704701207047022070470000080000201C
:1094C0000148C068704700000800002010B5FFF791
:1094D00007FB0148C06810BD080000202DE9F041DD
:1094E0002E4C0027206B40B1A069401CA061E069B0
:1094F00000B101273846BDE8F081E668761CE660D9
:1095000013D1606B006838B1502080F31188BFF32D
:109510004F8FBFF36F8FFEE7606BA16B6163A0633A
:10952000206A401C2062FEF763FFA06ADFF87080AB
:10953000864209D3606B006880B1606BC068C56803
:10954000686886420DD2A0622068C06A00EB800184
:1095500058F821000128CAD90127C8E74FF0FF3089
:10956000F1E7281DFFF705FAA86A18B105F1180000
:10957000FFF7FFF9E86A0121226981401143216167
:1095800000EB800108EB8100291DFFF72AFAE86A49
:109590002168C96A8842CDD30127CBE708000020A3
:1095A000F400002070B504004FF0000140D0214DC0
:1095B0002868844207D0502080F31188BFF34F8F72
:1095C000BFF36F8FFEE7206D38B1401E2065E36C5E
:1095D000E26A9A422CD040B12AE0502080F31188F0
:1095E000BFF34F8FBFF36F8FFEE7201DFFF7C1F969
:1095F000114A012150B9E06A00EB800352F8233090
:1096000023B92B6901FA00F083432B61E06CE0621F
:10961000C0F10700A061E06A2B698140194329610C
:1096200000EB800002EB8000211DFFF7DAF9012139
:10963000084670BD08000020F40000202DE9F0412C
:10964000C068C468ACB104F118000746FFF791F98F
:10965000154D286B0126A0B139461448FFF7C1F912
:10966000E06A2968C96A88421CD90120EE61BDE818
:10967000F081502080F31188BFF34F8FBFF36F8FBD
:10968000FEE7201DFFF775F9E16A2A6906FA01F085
:109690001043286101EB81000449B43901EB8000DB
:1096A000211DDBE70020E2E708000020A8010020E0
:1096B0002DE9F0472C4D00242746286B38B1FFF7E1
:1096C0009DF9286B401E2863286B40B146E050206E
:1096D00080F31188BFF34F8FBFF36F8FFEE7A96848
:1096E000224E0120D1B3A6F1B40980463068E8B11A
:1096F000F068C46804F11800FFF73BF9201DFFF77C
:1097000038F9E06A2A6908FA00F11143296100EB8F
:10971000800109EB8100211DFFF763F9E06A2968E8
:10972000C96A8842E2D3C5F81C80DFE70CB1FEF7B6
:109730005FFEAC6944B14646FFF7D0FE00B1EE6172
:10974000641EF9D10020A861E86938B108490127F1
:1097500038070860BFF34F8FBFF36F8FFFF76EF9C5
:109760003846BDE8F087000008000020A80100206E
:1097700004ED00E01CB5FEF709FC0C48006860B180
:109780000A490220091DCDE900010202002308A1B7
:109790000948FFF75BFE002807D1502080F31188AD
:1097A000BFF34F8FBFF36F8FFEE71CBD4400002057
:1097B000546D722053766300CD840008FEB51E46BA
:1097C00013460200089D4FF0000014D0124C276889
:1097D000002F0FD0CDE900130292062915DAFFF70A
:1097E00061FE02284FF000030DD000226946206878
:1097F000FFF7E8FCFEBD502080F31188BFF34F8FC8
:10980000BFF36F8FFEE72A46F0E700233246694632
:109810003846FFF787FDFEBD4400002010B5002943
:109820000AD00878002807D005487844F8F706F8E9
:10983000002801D0002010BD0248784410BD00006F
:10984000021F0000FA1E000010B500290AD0087897
:10985000002807D005487844F7F7F0FF002801D02A
:10986000002010BD0248784410BD0000F21E000028
:10987000EA1E000081F00041704780F00040704710
:1098800021F00041704720F00040704721F0004275
:10989000A2F16052B2F5801F01F0004328BFD2F15F
:1098A0007F6C0BD95FEA001C43EAC20242EB5070A6
:1098B00018BF704728BF20F001007047B2F5801F25
:1098C000BCBF184670474FEA410C1CF5001F02D27E
:1098D000084600F08BBD70B500F092FB00000089D7
:1098E000FFF7F6BF4FF00040A0F580007047000082
:1098F00010B591EA030F48BF83F0004300F11E84C6
:10990000841A71EB030C05D2121943EB0C03001BF4
:1099100061EB0C01DFF824E14FEA1154A4EB135C76
:109920001EEA430F18BF9EEA445F73D023EA0E037A
:10993000DCF1200E21EA045143F4801332D322FAE1
:109940000CFE10EB0E0023FA0CFE41EB0E01CCF1E5
:10995000200E03FA0EFE10EB0E0051F10001B1F5DE
:10996000801FCCF1200E32D201EB045112FA0EF21C
:10997000BDE8104058BF7047401C38BF5FEA420244
:1099800018BF7047002814BF20F0010041F100010A
:109990004FEA410313F5001F38BF7047A1F1C041E2
:1099A00000F07CBB012A43EB0302ACF1200CDCF19C
:1099B0001F0E32BF4FF0000E23FA0CF310EB030022
:1099C00041EB0451B4EB115FD0D0A1EB045101F590
:1099D000801149085FEA300001EB04510ED350F1C9
:1099E000000038BF12FA0EFE08D1BDE81040C9E7EA
:1099F000401C38BF5FEA4202CAD1C3E7BDE810404D
:109A00004FEA410313F5001F38BF7047A1F1C04171
:109A100000F044BB9EEA445F08D011EA5E0FBDE847
:109A2000104004BF01F0004100207047BDE8104025
:109A300070B500F0E5FA00BF64FBBE3E0000E0FF39
:109A4000491058BFC1F140415B1058BFC3F14043BA
:109A50008B42EFF3008070472DE9C04130B4DFF84E
:109A6000A0C23CEA111418BF3CEA131400F0EC80C9
:109A700081EA03051CEA111444EAD57418BF1CEAF4
:109A8000131500F0C780A4EB05044FF0004545EA2C
:109A9000C12145EAC32341EA505143EA525304F13C
:109AA0007F74994204F500344FEAC0204FEAC22285
:109AB00008BF904200F09C804FEA13650FF24016F9
:109AC000765D4FEA134506FB05F7C7F1807706FB85
:109AD00007F74FEAD737A7FB03687642C8F5803807
:109AE000A7FB06CE38BFA8F1010807FB08E64FF038
:109AF000000EA6FB028CE6FB03CEDCF1000CCEF1DF
:109B0000004E38BFAEF1010EA6FB0C584FF0000717
:109B10004FF00005E6FB0E87A1FB08C6A0FB07CEB1
:109B200016EB0E0645F10005E1FB076515F1E04E69
:109B30007EBFA4F580345FEA46066D4116F18007CA
:109B400045F100054FEA17274FEA066647EA056721
:109B5000A6F1DE46B6F1805F4FEA15251FD93846DB
:109B600024F0010C05EBC471BCF1FE6F01EB0C118C
:109B700002D8F0BCBDE8008124425CBF01F5801E24
:109B80009EEAC47F02D4F0BCBDE80081244238D4F0
:109B9000F0BCA1F1C041BDE8004100F07FBA4FEA3E
:109BA000D22242EA43524FEAD323A7FB02864FEA6E
:109BB000D02040EA415007FB03661EEA0E0F4FEA31
:109BC000D12105FB026658BFA6EB0056B6EB005646
:109BD0004FEA520E4EEAC37E18EB0E0E56EB530EB2
:109BE000BDD518EB02085E417F1C55F10005B6E7B4
:109BF0004FF480154FF000074FF000064FF00008BB
:109C0000ADE7F0BC4FF0000001F1C04101F00041B0
:109C1000BDE8008111EA0C1F0CEA131500D00CE01E
:109C200013EA0C1F00F025804FF00000F0BC81EA21
:109C3000030101F00041BDE80081F0BCBDE8004136
:109C400081EA030100F02ABAF0BCBDE8004170B51A
:109C500000F0D6F9097EFC3E00F007B881EA030166
:109C60004FF0000001F00041704781EA030100F06D
:109C700015BAF0BCBDE800414FF000002149704723
:109C8000FFFDFBF9F7F5F4F2F0EEEDEBE9E8E6E4C1
:109C9000E3E1E0DEDDDBDAD8D7D5D4D3D1D0CFCD48
:109CA000CCCBCAC8C7C6C5C4C2C1C0BFBEBDBCBB81
:109CB000BAB9B8B7B6B5B4B3B2B1B0AFAEADACAB7C
:109CC000AAA9A8A8A7A6A5A4A3A3A2A1A09F9F9E56
:109CD0009D9C9C9B9A999998979796959594939308
:109CE000929191908F8F8E8E8D8C8C8B8B8A89899F
:109CF0008888878786858584848383828281818022
:109D00000000FF070000F87F51EA030C17D41CF590
:109D1000801F58BFBCF5801F00F10680994218BF14
:109D2000704708BF9042704707D711F5801F58BF92
:109D300013F5801F19D499427047894270471CF56A
:109D4000801F08D5BCF5801FF7D58B4218BF704720
:109D500008BF824270474FF4001C1CEB410F38BF14
:109D60001CEB430F01D28B42704770B500F048F9ED
:109D7000922449004FF000514FF08053FFF760BE2E
:109D80004FEA41034FEA5353A3F58063D3F11E0317
:109D9000C8BFD3F1210C0CDD4FF0004242EAC122D2
:109DA00042EA505232FA03FC8CEAE17CACEBE170FF
:109DB0007047102BC4BF0020704703F5787CBCF1BE
:109DC000FF3F04D06FF0004282EA2100704770B577
:109DD00000F016F94992248000207047F2E710F055
:109DE000004248BF4042B0FA80F310FA03F10AD0B3
:109DF000C3F11D0303F580634FEA415002EB0352A8
:109E000002EBD12170474FF000007047B0FA80F3A9
:109E100010FA03F10AD0C3F11D0303F580634FEA82
:109E200041504FEA035202EBD12170474FF000003E
:109E30007047000051EA030C17D41CF5801F58BF6F
:109E4000BCF5801F00F10680994218BF704708BF1B
:109E50009042704707D711F5801F58BF13F5801F38
:109E600019D499427047894270471CF5801F08D564
:109E7000BCF5801FF7D58B4218BF704708BF8242E0
:109E800070474FF4001C1CEB410F38BF1CEB430F15
:109E900001D28B42704770B500F0B2F892244900AD
:109EA0004FF000514FF08053FFF7CABDDFF848C1B3
:109EB00070B51CEA111E1EBF1CEA13159EEA0C0F9A
:109EC00095EA0C0F00F06F8081EA030423EA4C133B
:109ED0004EEAD47E21EA4C1141F4801143F4801300
:109EE000AE44A1FB024CA0FB0365AEF17F7E3619A8
:109EF00055EB0C05A1FB034C4CF10003A0FB021C2D
:109F000016EB0C06654153F10003094218BF46F0F9
:109F1000010613F4007F0BD14FEA03314FEA0530FD
:109F2000340341EA155140EA16506FF003020AE08B
:109F30004FEAC3214FEAC520F40241EA555140EAF5
:109F400056506FF0020202EB2E4201EB025585EAF9
:109F5000CE710AD05FEA440C18BF24F0004450F1DF
:109F6000000041F1000120EAD47040F2FE7C62451D
:109F700000D270BDA84214BF4FF080444FF040445F
:109F8000002E08BF0024BEF1806FA8BFA1F1C04120
:109F9000BDE8704080F282804FF0000001F1C041C6
:109FA00001F0004170479EEA0C0F0CEA131518BF30
:109FB00095EA0C0F06D04FF0000081EA030E0EF078
:109FC000004170BD00F01CF88900013E00F007B8A8
:109FD00000F009B84FEA430C5FEA5C5C08D081EA04
:109FE000030100F05BB84FEA410C5FEA5C5CF6D11C
:109FF0004FF00000014970470000FF070000F87FA4
:10A000000EF1020E2EF0030E5EF8046B364205D4FC
:10A01000012A43EB030515F5001F12D8012841EB77
:10A02000010C1CF5001F0CD80ED14FEAD17C15F5A0
:10A03000001F0CEB4C0C0CF1020C08BF4CEBD37C5A
:10A0400004E04FF0080C01E04FEAD37C0CEB4C0528
:10A0500026FA05F606F00706B6F1040C06D20EEB5A
:10A06000860CBDE870404CF0010C6047DFE80CF056
:10A07000090B02024FF000414FF00000A1F5002152
:10A0800070BD19461046012851EB010418BFD4F5E4
:10A09000001484BF002001F0004170BD0808A0F545
:10A0A00000114FEA3101704753EA010C17D41CF537
:10A0B000801F58BFBCF5801F00F106808B4218BF7F
:10A0C000704708BF8242704707D713F5801F58BFFB
:10A0D00011F5801F19D48B4270479B4270471CF5C5
:10A0E000801F08D5BCF5801FF7D5994218BF70476F
:10A0F00008BF904270474FF4001C1CEB430F38BF61
:10A100001CEB410F01D2994270470FB40CBC03BC49
:10A11000FFF7C1BE91EA030F10B581F000413FF592
:10A12000EFAB83F0004300F009B8000010B591EAEE
:10A13000030F48BF83F000433FF5E2AB841A71EB95
:10A14000030C07D212198CF0004C43EB0C03001BDC
:10A1500061EB0C01DFF8A4E14FEA1154A4EB135CAE
:10A160001EEA430F18BF9EEA445F00F0B08023EA66
:10A170006E03524221EA0451C3EB6E0338BF5B1EEB
:10A18000DCF1200E25D322FA0CFE10EB0E0043FA70
:10A190000CFE41EB0E01CCF1200E03FA0EFE10EB8B
:10A1A0000E0051F10001CCF1200E29D412FA0EF26A
:10A1B00001EB0451BDE8104058BF7047401C1CBF64
:10A1C000B2F1004F704700280CBF491C20F001007D
:10A1D000704712EB020E43EB030218BF4FF0010E63
:10A1E0004EEA4202ACF1200CDCF11E0E54D943FAC7
:10A1F0000CFE10EB0E0051F1FF31CCF11E0ED5D547
:10A200000EF1010E12FA0EFE404141EB010101EB8D
:10A21000445C5FEA5C5C10D910EBDE7001EB04512A
:10A2200038BFBEF1004FBDE8104018BF704700288E
:10A230000CBF491C20F00100704730D24FEAD42CEB
:10A2400011F5001124F400641BD0B1FA81F20B3A2D
:10A25000A41AA41ED2F12003914030FA03F319434B
:10A26000904001EBCC71002C01EB0451BDE8104093
:10A27000A8BF704701F1C0414FF0000001F000415C
:10A280007047B0FA80F310FA03F100D110BDE41A60
:10A29000173C4805C90AE4E701EB045110BD491019
:10A2A00001EB0451BDE810404FEA300002E04FF0EE
:10A2B000000170474A0008BF0042F8D0B2F5001F05
:10A2C00028BF704701F000414FF0000070479EEA40
:10A2D000445F07D011EA5E0FBDE8104004BF0021C3
:10A2E00000207047BDE8104070B5FFF789FE00BF41
:10A2F00040DFF63E83F00041104670470000E0FF6B
:10A3000043004FEAD30C4FEA3C0C43401FBF4007C9
:10A310000CF1605113F0FE4F70471CF0006F03D139
:10A3200000200CF0004170470CF0004343EA5070ED
:10A3300010B540EACC0000F00EF800BF000000921B
:10A340004FEA0001FFF7AABE4FF000414FF00000B6
:10A35000A1F5002170470EF1020E2EF0030E5EF8FB
:10A36000044B244204D44FEA4102B2F17F4F11D88A
:10A370004FEA4003B3F17F4F0CD80ED14FEAD07CA7
:10A38000B2F17F4F0CEB4C0C0CF1020C08BF4CEB04
:10A39000D17C04E04FF0080C01E04FEAD17C0CEBDB
:10A3A0004C0324FA03F404F00704B4F1040C06D2BD
:10A3B0000EEB840CBDE810404CF0010C6047DFE868
:10A3C0000CF0070802024FF00040A0F5800010BD1D
:10A3D0000846420018BFD2F1807288BF00F00040EA
:10A3E00010BD4FF04070E1EE100A7047FF2141EAC6
:10A3F000D050C0057047F6F7DEBDF6F713BF000674
:10A4000010160006101600000000010203040102ED
:10A410000304060708090000E8B60008655D0008A7
:10A42000000000000000000080000000DCB6000812
:10A43000512600080300000000000000800000001A
:10A44000D0B60008852A00080300000000000000C4
:10A4500080000000F4B600084587000803000000F3
:10A46000000000008000000000B7000869730008C9
:10A47000000000000000000000020000C4B6000858
:10A480006D890008000000000000000000020000CC
:10A49000005EBCE2613FDD83C29C7E20A3FD1F41C4
:10A4A0009DC3217FFCA2401E5F01E3BD3E6082DCB4
:10A4B000237D9FC1421CFEA0E1BF5D0380DE3C62A4
:10A4C000BEE0025CDF81633D7C22C09E1D43A1FF94
:10A4D0004618FAA427799BC584DA3866E5BB590784
:10A4E000DB856739BAE406581947A5FB7826C49A74
:10A4F000653BD987045AB8E6A7F91B45C6987A2464
:10A50000F8A6441A99C7257B3A6486D85B05E7B953
:10A510008CD2306EEDB3510F4E10F2AC2F7193CD43
:10A52000114FADF3702ECC92D38D6F31B2EC0E5033
:10A53000AFF1134DCE90722C6D33D18F0C52B0EE23
:10A54000326C8ED0530DEFB1F0AE4C1291CF2D7313
:10A55000CA947628ABF517490856B4EA6937D58B03
:10A560005709EBB536688AD495CB2977F4AA4816F3
:10A57000E9B7550B88D6346A2B7597C94A14F6A8E3
:10A58000742AC896154BA9F7B6E80A54D7896B35D3
:10A590000000891112239B322446AD573665BF74E3
:10A5A000488CC19D5AAFD3BE6CCAE5DB7EE9F7F893
:10A5B0008110080193331A22A5562C47B7753E64C3
:10A5C000C99C408DDBBF52AEEDDA64CBFFF976E873
:10A5D00002218B30100299132667AF763444BD55A3
:10A5E0004AADC3BC588ED19F6EEBE7FA7CC8F5D953
:10A5F00083310A2091121803A7772E66B5543C4583
:10A60000CBBD42ACD99E508FEFFB66EAFDD874C932
:10A6100004428D5316619F702004A9153227BB3662
:10A620004CCEC5DF5EEDD7FC6888E1997AABF3BA12
:10A6300085520C4397711E60A1142805B3373A2642
:10A64000CDDE44CFDFFD56ECE9986089FBBB72AAF2
:10A6500006638F7214409D512225AB343006B91722
:10A660004EEFC7FE5CCCD5DD6AA9E3B8788AF19BD2
:10A6700087730E6295501C41A3352A24B116380702
:10A68000CFFF46EEDDDC54CDEBB962A8F99A708BB2
:10A69000088481951AA793B62CC2A5D33EE1B7F0E2
:10A6A0004008C919522BDB3A644EED5F766DFF7C92
:10A6B000899400859BB712A6ADD224C3BFF136E0C2
:10A6C000C1184809D33B5A2AE55E6C4FF77D7E6C72
:10A6D0000AA583B4188691972EE3A7F23CC0B5D1A2
:10A6E0004229CB38500AD91B666FEF7E744CFD5D52
:10A6F0008BB502A499961087AFF326E2BDD034C182
:10A70000C3394A28D11A580BE77F6E6EF55C7C4D31
:10A710000CC685D71EE597F42880A1913AA3B3B261
:10A72000444ACD5B5669DF78600CE91D722FFB3E11
:10A730008DD604C79FF516E4A9902081BBB332A241
:10A74000C55A4C4BD7795E68E11C680DF33F7A2EF1
:10A750000EE787F61CC495D52AA1A3B03882B19321
:10A76000466BCF7A5448DD59622DEB3C700EF91FD1
:10A770008FF706E69DD414C5ABB122A0B992308301
:10A78000C77B4E6AD5585C49E33D6A2CF11E780FB1
:10A7900000000000000000000000000000000000B9
:10A7A0003F4000000000000000003000400030008A
:10A7B0004000000009000BC03D000BC03D00090037
:10A7C00018C024407FE0224031800000180024C0DF
:10A7D0001B000D803240018003801C4027401C80FC
:10A7E0000740004010006000000000000000000072
:10A7F0000000000000001F8020404020000040209A
:10A8000020401F8000000000090006001F80060095
:10A8100009000000040004003F8004000400000060
:10A8200000100060000000000000000004000400B0
:10A8300004000400040000000000004000000000CC
:10A8400000000000002001C00600380040000000A9
:10A850001F802040204020401F800000000010404A
:10A860003FC000400000000018C0214022402440AA
:10A870001840000010802040244024401B8000002D
:10A8800002000D0011003FC0014000003C80244048
:10A8900024402440238000001F8024402440344072
:10A8A000038000003000200027C038002000000096
:10A8B0001B802440244024401B8000001C0022C038
:10A8C000224022401F8000000000000008400000DD
:10A8D0000000000000000000046000000000000014
:10A8E000000004000A001100208040400900090017
:10A8F000090009000900000000004040208011000C
:10A900000A00040018002000234024001800000062
:10A910001F802040274029401F400000004007C002
:10A9200039000F0001C0004020403FC024402440B7
:10A930001B8000001F80204020402040308000000D
:10A9400020403FC0204020401F80000020403FC0EA
:10A9500024402E4030C0000020403FC024402E0044
:10A96000300000000F0010802040224033800200A1
:10A9700020403FC0040004003FC020402040204051
:10A980003FC02040204000000060202020203FC029
:10A990002000200020403FC024400B0030C0204059
:10A9A00020403FC020400040004000C03FC03C006D
:10A9B00003C03C003FC0000020403FC00C402300CB
:10A9C0003FC020001F802040204020401F8000000A
:10A9D00020403FC024402400180000001F80214078
:10A9E000214020E01FA0000020403FC0244026005E
:10A9F00019C0004018C0244024402240318000008B
:10AA0000300020403FC020403000000020003F8048
:10AA1000004000403F80200020003E0001C00700B1
:10AA200038002000380007C03C0007C03800000094
:10AA3000204039C0060039C02040000020003840C6
:10AA400007C0384020000000304021C02640384078
:10AA500020C00000000000007FE0402040200000F7
:10AA6000000070000C000380004000000000402047
:10AA700040207FE000000000000020004000200097
:10AA80000000000000100010001000100010001066
:10AA900000000000400000000000000000000280F4
:10AAA0000540054003C0004020003FC00440044072
:10AAB00003800000000003800440044006400000C2
:10AAC00000000380044024403FC000400000038099
:10AAD0000540054003400000000004401FC0244022
:10AAE00024402000000002E00550055006500420DC
:10AAF00020403FC00440040003C000400000044068
:10AB000027C000400000000000100010041027E0E3
:10AB10000000000020403FC00140070004C0044086
:10AB2000204020403FC000400040000007C004001B
:10AB300007C0040003C00000044007C00440040034
:10AB400003C0004000000380044004400380000074
:10AB5000041007F00450044003800000000003804C
:10AB60000440045007F00010044007C002400400F5
:10AB700004000000000006400540054004C000003D
:10AB8000000004001F800440004000000400078013
:10AB90000040044007C000400400070004C00180DA
:10ABA00006000400060001C0070001C00600000006
:10ABB000044006C0010006C0044000000410071055
:10ABC00004E00180060004000000044005C00640C7
:10ABD000044000000000000004007BE04020000072
:10ABE000000000000000FFF0000000000000402016
:10ABF0007BE00400000000004000800040002000D6
:10AC000020004000000000000000000000000000E4
:10AC10000000000000000000000000000000000034
:10AC20000000000000000000000000000000000024
:10AC30000000000000000000000000000000000014
:10AC400000000000000000000000000600000000FE
:10AC50000000001E00000000000000DE00000000F8
:10AC6000000000D800000000000000D80000000034
:10AC7000000000D800000000000000DE000000001E
:10AC8000000000FE00000000000000F600000000D0
:10AC90000000007200000000000000000000000042
:10ACA0000000007C00000000000000FE000000002A
:10ACB000000000C600000000000000C60000000008
:10ACC000000000C600000000000000FE00000000C0
:10ACD0000000007C000000000000000000000000F8
:10ACE0000000001E00000000000000DE0000000068
:10ACF000000000D600000000000000D600000000A8
:10AD0000000000D600000000000000D60000000097
:10AD1000000000DE40000000000000FE60000000B7
:10AD20000010006C7000000000300000780000008F
:10AD300000F0007C7C00000007F000FE7E000000B8
:10AD40003FF000C67F000001FFF000C67F80000FCB
:10AD5000FFF000C67FC0007FFFF000FE7FE003FF32
:10AD6000FFF0007C7FF03FFFFFF000027FF83FFF25
:10AD7000FFF000067FFC3FFFFFF0001E7FFE3FFF5D
:10AD8000FFF000BC7FFF3FFFFFF000E07FFFBFFF51
:10AD9000FF8000F87FFFFFFFFC00003E7FFFFFFF0A
:10ADA000E000000E7FFFFFFF000000B87FFFFFF80C
:10ADB000000000E07FFFFFF0000000FE7FFFFFF0DB
:10ADC0000000001E7FFFFFF0000000027FFFFFF089
:10ADD000000000007FEFFFF0020000067FE7FFF0B9
:10ADE0000200000E7FE3FFF00200001C7FE1FFF88D
:10ADF000030000BA7FE0FFFC030000F67FE07FFE67
:10AE0000038000E67FE03FFF038000F67FE03FFF26
:10AE100083C0003E7FE03FFFC3C0000E7FE03FFFE6
:10AE2000E3E000027FE03FFFF3E000007FE03FFF50
:10AE3000FBF000027FE03FFFFFF000667FE03FFF96
:10AE4000FFF800F67FE03FFFFFF800D67FE03FFF0E
:10AE5000FFFC00D67FF07FFFFFFC00D67FF8FFF7F6
:10AE6000FFFE00D67FFFFFF3FFFE00DE3FFFFFE1A6
:10AE7000FFFF008C3FFFFFE0FFCF00401FFFFFC040
:10AE80007FC780C01FFFFFC03FC380C00FFFFF8090
:10AE90001FC1C0FE07FFFF000FC0C0FE03FFFE0082
:10AEA00007C060C001FFFC0003C020C0007FF000AD
:10AEB00001C00086000F800000C0001600000000E6
:10AEC000004000D600000000000000D60000000096
:10AED000000000D600000000000000D600000000C6
:10AEE000000000D600000000000000D000000000BC
:10AEF000000000C00000000000000006000000008C
:10AF00000000001E00000000000000DE0000000045
:10AF1000000000D800000000000000D80000000081
:10AF2000000000D800000000000000DE000000006B
:10AF3000000000DE00000000000000F6000000003D
:10AF4000000000720000000000000000000000008F
:10AF50000000006200000000000000F60000000099
:10AF6000000000F600000000000000D60000000015
:10AF7000000000D600000000000000D60000000025
:10AF8000000000DE000000000000008C0000000057
:10AF900000000000000000000000000000000000B1
:10AFA00000000000000000000000000000000000A1
:10AFB0000000000000000000000000000000000091
:10AFC0000000000000000000000000000000000081
:10AFD0000000000000000000000000000000000071
:10AFE0000000000000000000000000000000000061
:10AFF0000000000000000000000000000000000051
:10B0000000000000FFFE000000007FFFFFFE0000C8
:10B0100000007FFFFFFE000000007FFFFFFE00003A
:10B0200000007FFFFFFE000000007FFFFFFE00002A
:10B0300000007FFFFFFE000000007FFFFFFE00001A
:10B0400000007FFFFFFE000000007FFFFFFE00000A
:10B0500000007FFFFFFE000000007FFFFFFE0003F7
:10B06000FFFC7FFFFFFE0003FFFC7FFFFFFE0003EE
:10B07000FFFC7FFFFFFE00FFFFFC7FFFFFFE03FFE3
:10B08000FFFC7FFFFFFE0783FFFC7FFFFFFE0F0338
:10B09000FFFC7FFFFFFE1C03FFFC7FFFFFFE18038A
:10B0A000FFFC7FFFFFFE1803E7FC7FFFFFFE180396
:10B0B000C03C7FFFFFFE1803C03C7FFFFFFE18036C
:10B0C000E7FC7FFFFFFE1C03FFFC7FFFFFFE0F037B
:10B0D000FFFC7FFFFFFE0783FFFC7FFFFFFE03FFF8
:10B0E000FFFC7FFFFFFE00FFFFFC7FFFFFFE000372
:10B0F000FFFC7FFFFFFE0003FFFC7FFFFFFE00035E
:10B10000FFFC7FFFFFFE0003FFFC7FFFFFFE000050
:10B1100000007FFFFFFE000000007FFFFFFE000039
:10B1200000007FFFFFFE000000007FFFFFFE000029
:10B1300000007FFFFFFE000000007FFFFFFE000019
:10B1400000007FFFFFFE000000007FFFFFFE003FCA
:10B15000FC007FFFFFFE001FFC007FFFFFFE003FA3
:10B16000FC007FFFFFFE00001C007FFFFFFE0000D1
:10B170000C007FFFFFFE00000C007FFFFFFE0000C1
:10B180000C007FFFFFFE00000C007FFFFFFE0000B1
:10B190000C007FFFFFFE00000C007FFFFFFE0000A1
:10B1A00008007FFFFFFE000000007FFFFFFE003F62
:10B1B000F0007FFFFFFE003FF8007FFFFFFE003F33
:10B1C000FC007FFFFFFE00381C007FFFFFFE003009
:10B1D0000C007FFFFFFE00300C007FFFFFFE003001
:10B1E0000C007FFFFFFE00300C007FFFFFFE0030F1
:10B1F0000C007FFFFFFE00381C007FFFFFFE003FBA
:10B20000FC007FFFFFFE003FFC007FFFFFFE003FD2
:10B21000FC007FFFFFFE000000007FFFFFFE00003C
:10B2200000007FFFFFFE003FFC007FFFFFFE003FAE
:10B23000FC007FFFFFFE003FFC007FFFFFFE003FA2
:10B24000FC007FFFFFFE00300C007FFFFFFE0030A0
:10B250000C007FFFFFFE00300C007FFFFFFE003080
:10B260000C007FFFFFFE00300C007FFFFFFE003070
:10B270000C007FFFFFFE00300C007FFFFFFE003060
:10B280000C007FFFFFFE002008007FFFFFFE000094
:10B2900000007FFFFFFE003FFC007FFFFFFE003F3E
:10B2A000FC007FFFFFFE003FFC007FFFFFFE000170
:10B2B00080007FFFFFFE000180007FFFFFFE000394
:10B2C000C0007FFFFFFE0007E0007FFFFFFE000FD2
:10B2D000F0007FFFFFFE001E7C007FFFFFFE003CB2
:10B2E0003C007FFFFFFE00381C007FFFFFFE0038A0
:10B2F0000C007FFFFFFE002004007FFFFFFE000028
:10B3000000007FFFFFFE000000007FFFFFFE003F08
:10B31000FC007FFFFFFE003FFC007FFFFFFE003FC1
:10B32000FC007FFFFFFE003FFC007FFFFFFE0039B7
:10B330009C007FFFFFFE00318C007FFFFFFE00318D
:10B340008C007FFFFFFE00318C007FFFFFFE00318D
:10B350008C007FFFFFFE00318C007FFFFFFE00317D
:10B360008C007FFFFFFE00318C007FFFFFFE00207E
:10B3700004007FFFFFFE000000007FFFFFFE003F94
:10B38000FC007FFFFFFE003FFC007FFFFFFE003F51
:10B39000FC007FFFFFFE00380C007FFFFFFE003047
:10B3A0000C007FFFFFFE00300C007FFFFFFE00302F
:10B3B0000C007FFFFFFE003C3C007FFFFFFE003ED5
:10B3C0007C007FFFFFFE003FFC007FFFFFFE0007C9
:10B3D000E0007FFFFFFE0003E0007FFFFFFE0001B3
:10B3E000C0007FFFFFFE000080007FFFFFFE000027
:10B3F00000007FFFFFFE000000007FFFFFFE000057
:10B4000000007FFF000000004FBB610567ACDD3F1F
:10B41000182D4454FB21E93F9BF681D20B73EF3F7B
:10B42000182D4454FB21F93FE2652F227F2B7A3CF3
:10B43000075C143326A6813CBDCBF07A8807703CAC
:10B44000075C143326A6913CC4EB98999999C9BF1F
:10B45000711623FEC671BCBF6D9A74AFF2B0B3BF54
:10B460009AFDDE522DDEADBF2F6C6A2C44B4A2BF14
:10B470000D5555555555D53FFF8300922449C23F80
:10B480006E204CC5CD45B73F513DD0A0660DB13FB4
:10B49000EB0D76244B7BA93F11DA22E33AAD903FC6
:10B4A0000000000000000000303132333435363700
:10B4B00038394142434445464030580030313233F8
:10B4C00034353637383961626364656640307800F8
:10B4D000040000080000000000000002000100005D
:10B4E00010000000000000004C5555555555A53F73
:10B4F0007751C1166CC156BF9015CB19A001FA3E09
:10B50000AD529C804F7E92BEC4B1B4BD9EEE213E32
:10B51000D43888BEE9FAA8BD00004054FB21F93FA9
:10B520003163621A61B4D03D0000601A61B4D03D4D
:10B530007370032E8A19A33B0000002E8A19A33BC7
:10B54000C14920259A837B390000000000000000DB
:10B550006E83F9A22915444ED15727FCC0DD34F57E
:10B56000999562DB4190433CAB6351FE61C5BBDE04
:10B570003A6E24B7E0D24D42EA2E49061C92D10918
:10B580001CEB1DFE3EA729B1F53582E88444BB2E95
:10B5900026709CE9417E5FB439D69139F4395383E2
:10B5A0008B5F849C3B28F9BDFF97F81F0F9805DE41
:10B5B0008B112FEF1F6D0A5ACF7E366DB709CB273F
:10B5C000663F464F2DEA5F9EC7BA27757BF1E5EBD4
:10B5D000F739073DEA92528AB15FFB6B085D8D1F18
:10B5E000A6F810111111813FD561C119A0012ABF20
:10B5F0007DFEB157E31DC73EEB9C2B8AE6E55ABEA4
:10B600007CD5CF5A3AD9E53D3031323334353637EF
:10B610003839616263646566787000303132333482
:10B6200035363738394142434445465850000000CA
:10B6300002400000000000A00000000005400000E3
:10B64000000000C8000000000C4000000000409C0A
:10B6500000000000194000000020BCBE00000000F7
:10B6600034400000BFC91B8E00000004B54000003C
:10B67000504BCFD06607E2CF010000006C410000C4
:10B680003E8251AADFEEA73401000000D94200003B
:10B69000DCB5A0E23A301F97FFFFFFFFB445000082
:10B6A000FD25A0C8E9A3C14FFFFFFFFFFF3F00003A
:10B6B0000000008000000000FF3F0000000000804C
:10B6C00000000000756E7061636B5461736B000065
:10B6D00067696D62616C5461736B000063686173CC
:10B6E0007369735461736B0064656661756C74543F
:10B6F00061736B0073686F6F745461736B0000004B
:10B70000646973706C61795461736B0058B8000898
:10B7100000000020F4000000E80100084CB9000817
:10B72000F400002014540000040200081C00000073
:10B7300043000000F8FFFFFF0C0000000E000000B7
:10B740000F0000002E000000100100004300000068
:10B75000F8FFFFFF00404040404040404040414132
:10B7600041414140404040404040404040404040D6
:10B770004040404040050202020202020202020270
:10B78000020202020220202020202020202020026D
:10B7900002020202020290909090909010101010FD
:10B7A0001010101010101010101010101010101099
:10B7B000020202020202888888888888080808082D
:10B7C00008080808080808080808080808080808F9
:10B7D0000202020240000000000000000000000021
:10B7E0000000000000000000000000000000000059
:10B7F0000000000000000000000000000000000049
:10B800000000000000000000000000000000000038
:10B810000000000000000000000000000000000028
:10B820000000000000000000000000000000000018
:10B830000000000000000000000000000000000008
:10B8400000000000000000000000000000000000F8
:10B850000000000000000000000000000024F400D0
:10B8600000000000000000000000000000000000D8
:10B8700000000000000000000000000000000000C8
:10B8800000000000000000000000000000000000B8
:10B8900000000000000000000000000000000000A8
:10B8A0000000000000000000000000000000000098
:10B8B00000000000AAAAAAAA0000000000000000E0
:10B8C0000000000000000000000000000000000078
:10B8D0000000000000000000000000000000000068
:10B8E0000000000000000000000000000000000058
:10B8F000000000001C4600200000000000000000C6
:10B900000000000000000000000000000080BB45B7
:10B910000000000000000000000000000000000027
:10B920000000000000000000000000000000000017
:10B930000000000000000000000000000000000007
:0CB94000000000000000000000000000FB
:04000005080001AD41
:00000001FF
