:020000040800F2
:1000000008550020BD030008EF590008354E0008D0
:10001000ED590008012400081566000800000000E2
:1000200000000000000000000000000001030008C4
:10003000552900080000000055030008955D0008E0
:10004000D7030008D7030008D7030008D703000828
:10005000D7030008D7030008D7030008D703000818
:10006000D7030008D7030008D7030008D703000808
:1000700059280008D7030008D7030008D703000851
:1000800065280008D7030008D703000811240008DA
:1000900005240008D7030008D7030008D703000889
:1000A000D7030008D7030008D7030008D7030008C8
:1000B000D7030008D7030008D7030008D7030008B8
:1000C000D7030008D7030008D7030008D7030008A8
:1000D000D7030008A9640008C1640008CD640008C3
:1000E000D7030008D7030008D7030008D703000888
:1000F000D7030008D7030008D7030008D703000878
:10010000D7030008D7030008D7030008D703000867
:10011000D7030008D7030008915E0008D703000842
:10012000D7030008712800087D280008D7030008BD
:10013000D7030008D7030008D703000829240008C4
:100140001D240008D7030008D7030008D7030008C0
:10015000D7030008D7030008D7030008E5640008A8
:10016000D7030008D7030008D7030008D703000807
:10017000D7030008D7030008D703000800000000D9
:10018000D7030008D7030008D7030008D7030008E7
:10019000D7030008D7030008D7030008D7030008D7
:1001A0000000000000000000D703000800F002F883
:1001B00000F096F80AA090E8000C82448344AAF16B
:1001C0000107DA4501D100F08BF8AFF2090EBAE869
:1001D0000F0013F0010F18BFFB1A43F0010318477B
:1001E0002CB500004CB50000103A24BF78C878C187
:1001F000FAD8520724BF30C830C144BF04680C602D
:10020000704700000023002400250026103A28BF74
:1002100078C1FBD8520728BF30C148BF0B60704778
:100220006E2900F01B83702900F05D8466290AF0B6
:10023000E28065290AF0DF8067290AF0DC80612905
:100240000AF0DB8003681B0A28BF41F0800169299E
:1002500000F0C882642900F0C582752900F0C282CE
:100260006F2900F0EA83782900F02984E92900F059
:100270008583E42900F08283F52900F07F83EF294C
:1002800000F0E783F82900F028840368DB0928BF21
:1002900041F08001632901F04D81732901F0528101
:1002A000E32901F05D81F32901F0628100207047AC
:1002B0001FB50AF096F89DE8030000F0C9F901F0B7
:1002C000B1F904000020002109F0BEFA401C606072
:1002D0000020002109F0A2FAE0601FBD10B510BD9A
:1002E00001F072F91146FFF7E3FF07F051FA01F050
:1002F0004FFA03B4FFF7F2FF03BC01F07FFA0000EE
:100300002B4B19680868B0E8F04F80F30988BFF3F9
:100310006F8F4FF0000080F31188704700000000DD
:1003200006480068006880F3088862B661B6BFF3CB
:100330004F8FBFF36F8F00DF00BF00BF08ED00E0FD
:10034000DFF80C00016841F470010160704700BFE4
:1003500088ED00E0EFF30980BFF36F8F144B1A684C
:100360001EF0100F08BF20ED108A20E9F04F10603A
:1003700008B44FF0500080F31188BFF34F8FBFF3E4
:100380006F8F08F047FD4FF0000080F3118808BC24
:1003900019680868B0E8F04F1EF0100F08BFB0EC05
:1003A000108A80F30988BFF36F8F704700BF00BFCA
:1003B00008000020EFF305807047000009488047DF
:1003C00009480047FEE7FEE7FEE7FEE7FEE7FEE737
:1003D000FEE7FEE7FEE7FEE704480549054A064B4F
:1003E000704700003D5E0008AD010008084F002086
:1003F00008550020085100200851002070B506461D
:1004000000F00AF9056806F10B0020F00704B44279
:100410009CBF002070BD2B466A68BAB11068A0422C
:1004200010D304F1080188423CBF5068586007D3DC
:100430005168101941601168091B0160586014600F
:10044000101D70BD13465268002AE7D12146284688
:1004500000F0EAF80028DED170BD00001CB50C46A3
:10046000064B7B4469460090204600F010FA044693
:100470000020694600F01EFA20461CBD4F04000013
:10048000032A40F2308010F0030C00F0158011F8C0
:10049000013BBCF1020F624498BF11F801CB00F898
:1004A000013B38BF11F8013BA2F1040298BF00F8EC
:1004B00001CB38BF00F8013B11F0030300F02580A9
:1004C000083AC0F0088051F8043B083A51F804CBD0
:1004D000A0E80810F5E7121D5CBF51F8043B40F896
:1004E000043BAFF30080D20724BF11F8013B11F8A1
:1004F00001CB48BF11F8012B24BF00F8013B00F8E5
:1005000001CB48BF00F8012B704710B5203AC0F06E
:100510000B80B1E81850203AA0E81850B1E8185004
:10052000A0E81850BFF4F5AF5FEA027C24BFB1E841
:100530001850A0E8185044BF18C918C0BDE81040B2
:100540005FEA827C24BF51F8043B40F8043B08BFBB
:100550007047D20728BF31F8023B48BF11F8012B82
:1005600028BF20F8023B48BF00F8012B704702F07B
:10057000FF0343EA032242EA024200F002B84FF0CE
:1005800000020429C0F0128010F0030C00F01B8060
:10059000CCF1040CBCF1020F18BF00F8012BA8BF6E
:1005A00020F8022BA1EB0C0100F00DB85FEAC17C32
:1005B00024BF00F8012B00F8012B48BF00F8012BE5
:1005C00070474FF0000200B5134694469646203916
:1005D00022BFA0E80C50A0E80C50B1F12001BFF4FC
:1005E000F7AF090728BFA0E80C5048BF0CC05DF862
:1005F00004EB890028BF40F8042B08BF704748BFB0
:1006000020F8022B11F0804F18BF00F8012B704723
:10061000704770477047000000487047B04E002098
:10062000704770477047704738B504460A46002047
:100630006946AFF30080002808BF38BD0246009924
:10064000204600F027FB012038BD012000F0B4BF98
:10065000F8B5AFF30080054600200C46102000BF1F
:100660000646A819A0420DD9324669460020AFF3CC
:100670000080070008BF00F09FFF0098A04218BF4D
:100680000546C419FFF7C8FF05600746F01D20F0B6
:1006900007004619284600F00AF8B44208BFF8BD22
:1006A000A21B31463868BDE8F84000F0F3BA0021DB
:1006B0000160C0E9011070471020704770B5044612
:1006C000051FFFF7A9FF0068002C14BF446870BD28
:1006D000002C18BFAC423CBF20466468F8D30168C8
:1006E0000A18AA4218BF456003D12A68054611447A
:1006F000016028684119A1421CBF6C6070BD61682F
:10070000696021680844286070BD10B500F0BEFA29
:10071000006810BD10B5044600F0B8FA046010BDC2
:1007200070B5044685690068C10601D5302600E031
:100730002026C00707D070BDD4E90121304690477C
:10074000206A401C20626D1EF6D570BD70B504464F
:1007500085690078C00707D170BDD4E90121202048
:100760009047206A401C20626D1EF6D570BD096856
:100770004A0501D540B27047C905FCD500B27047A3
:1007800009684A0501D5C0B27047C905FCD580B2D9
:10079000704770B50C460546012A05D028788006BA
:1007A00000D5EA69002302E0012305E05B1C9342C7
:1007B00002D2E05C0028F9D1A869E618C01AA86145
:1007C000286A184428622846FFF7AAFF04E0D5E902
:1007D000012114F8010B9047B442F8D32846FFF7E3
:1007E000B5FF70BD2DE9F04106460024106875295B
:1007F000314616A510D0FFF7BAFF002802DA4042B2
:1008000013A507E031688A0701D512A502E0490760
:1008100004D511A5012401E0FFF7B2FF00210A224F
:1008200006F1240709E0B0FBF2FCB0FBF2F302FB97
:100830001C00303078541846491C0028F3D1234658
:100840002A463046BDE8F04100F083BA00000000BF
:100850002D0000002B00000020000000116802683D
:10086000006A530501D508700AE0D30501D5088058
:1008700006E0130603D5C217C1E9000200E00860D4
:100880000120704701694A1C02610878704700B571
:100890008FB0CDE901310021059105497944CDE9B9
:1008A00003101146684600F029F90FB000BD0000A2
:1008B000E5FFFFFF0A6802F8010B0A6070470000BD
:1008C0002DE9FF5F15468A460446DFF8AC80F84400
:1008D0000027D8E900103E46CDE9001010E03AF8B4
:1008E00016106A4602A800F047FE411C07D0217886
:1008F000890603D5E269391891420DD80744761C60
:100900002078800602D5E069B84205DDAE42E6DB1C
:100910003AF816000028E2D1A069C01BA061204669
:10092000FFF7FEFED8E90010CDE90010002017E027
:100930003AF818106A4602A800F01EFEB0F1FF3F18
:1009400081460BD000250DF1080B05E0D4E901210B
:100950001BF8050090476D1C4D45F7D308F10100C9
:10096000B0428046E4DB206A384420622046FFF72C
:10097000EDFEBDE8FF9F0000CEAB00002DE9F04189
:100980008046D21D22F007020025D2E90002F52997
:1009900015A614D0011E72F1000106DA0023D0EB77
:1009A000030063EB020211A608E0D8F800108B07E1
:1009B00001D50FA602E0490701D50EA60125114673
:1009C000002408F1240704E000F07EF930323A55A3
:1009D000641C50EA0102F7D12B46324621464046BC
:1009E000BDE8F04100F0B5B9000000002D000000A6
:1009F0002B0000002000000030B4002100F124048E
:100A000008E002F00705D208303542EA4372DB08FD
:100A10006554491C52EA0305F3D10468002310A26F
:100A2000250707D5A40600D421B1C46901230DA26E
:100A3000641EC46130BC00F08CB910B50446214678
:100A40001068FFF79DFE02462046BDE810400023D7
:100A5000D2E7D21D22F00701D1E90023CCE7000044
:100A60000000000030000000F0B40D4601880905C8
:100A700002D5214C7C4402E01F4C7C440E34002102
:100A800000F1240608E002F00F071209E75D42EAD0
:100A900003721B097754491C52EA0307F3D1027809
:100AA0000023120704D5702D06D009B1022311349A
:100AB0002246F0BC00F04DB901231034F8E770B5C0
:100AC00004460D4621461068FFF75AFE02462946A5
:100AD0002046BDE870400023C6E7D21D22F0070380
:100AE000D3E90023C0E70368126843F020030360E2
:100AF0000823C3610023B7E730AA00002DE9F05FA7
:100B0000894604464FF0000ADFF874B1FB44C0F890
:100B100020A02046E1688847002874D0252806D008
:100B2000D4E901219047206A401C2062F1E70026A9
:100B30005F462046E16888472028054607DB312DBF
:100B400005D2781910F8200C08B10643F1E7B00778
:100B500001D526F00406C4F81CA00027C4F818A08C
:100B60002A2D09D0284606F0E3FB38B304EB8708AA
:100B7000303DC8F8185019E059F8041B204604EB22
:100B800087029161E1688847012F054618D1E06925
:100B9000002820DA26F020061DE0D8F8180000EB27
:100BA000800005EB40003038C8F818002046E168A6
:100BB0008847054606F0BCFB0028EED1012F0AD07D
:100BC0002E2D08D12046E16888477F1C0546022F5C
:100BD00046F02006C4DBA069002803DA404246F054
:100BE0000106A061F00701D026F010066C2D0BD095
:100BF000682D09D04C2D39D06A2D35D0742D35D0C3
:100C00007A2D33D016E038E0E1682F462046884739
:100C1000B842054609D16C2F26D04FF48060E168B8
:100C2000064320468847054604E06C2F1AD04FF44F
:100C3000807006430DB3A5F14100192802D8203574
:100C400046F400664A462946204626604E46FFF78F
:100C5000E7FA80B101280BD0F61D26F0070000F15D
:100C6000080956E74020E4E78020D8E70020D6E7CF
:100C700006F104094DE7284652E7206ABDE8F09FD7
:100C8000C0A9000000487047A84E002000487047E7
:100C9000A84E0020034640688C46002818BF8842B2
:100CA0003CBF03464068F8D318681844884207D010
:100CB0000CF1030020F00700001D411A521A0146F2
:100CC000081D0A60FFF7FABC30B5B0F10A024FEA1E
:100CD000900E71F100034EEA817EB0EB0E0061EBE5
:100CE00091014FEA101E4EEA017E10EB0E0041EB1F
:100CF00011114FEA102E4EEA016E10EB0E0041EB7F
:100D000011214FEA104E4EEA014E10EB0E0041EB5E
:100D10001141401841F100014FEAD00040EA417012
:100D20004FEAD10110EB80054FEA810444EA907448
:100D300044EB01046D1944EB0404521BA3414FF032
:100D4000000348BF0A3200D530BD401C41F100010C
:100D500030BD2DE9F0470D4699469246044600F114
:100D600024080168880604D5E06921F0100121609B
:100D700000E00120A84201DD471B00E00027A16937
:100D80007A1902EB0900081AA0612078C00602D483
:100D90002046FFF7C5FC002608E0D4E901211AF837
:100DA00006009047206A401C761C20624E45F4DB0A
:100DB0002078C0060AD52046FFF7B2FC06E0D4E949
:100DC000012130209047206A401C2062381EA7F184
:100DD0000107F4DC07E0D4E9012118F80500904789
:100DE000206A401C2062281EA5F10105F3DC204684
:100DF000FFF7ACFC2078000602D50220BDE8F087A2
:100E00000120FBE770472DE9FF4F0C461E464FF0CF
:100E1000FF378BB0D2E90001DDF860800A908A4686
:100E2000C1F30A5505B93D46002108464FF00000C0
:100E3000BAF1000F00F4400005DA00EB80004FF437
:100E4000400101EA50004FEA9059B9F1010F00DD6D
:100E5000B9460A9850EA4A000ED044F61050A5F25E
:100E6000FF3545432F14B8F1000F1ED07542291EDF
:100E70001EDDC9F100021CE0B8F1010F4FF00000C7
:100E800001D0302103E0F24305E02154401CB04280
:100E9000FBDB30460022002121540B99C1F8088069
:100EA000C1E900200FB0BDE8F08FBD1B6D1CDEE76F
:100EB0004A4600DA694206A800F0F8FB06AB93E860
:100EC000070003AB83E8070050460A9900F0FDFCD9
:100ED0008DE80700A0F500501F3800900398002D02
:100EE0000ADD42F21F014A460844002303A9039089
:100EF000684600F066FF09E0A0F500504A461F383A
:100F0000002303A90390684600F070FF8DE80700F6
:100F10000004000C03D04FF0FF30410800E0104601
:100F2000B8F1000F03D00022009215461EE0751E96
:100F300005D4FFF7C9FE303262556D1EF9D5B346B0
:100F40000122084302D000227F1C04E020783028D0
:100F500001D100227F1E002A099784D01DE0112DA7
:100F600007DAFFF7B1FE303262556D1C50EA01021C
:100F7000F5D1084302D00098C8B10EE00021681EE8
:100F800005E0235C625C63542254401E491C81428C
:100F9000F7DBAB46A81B401E0990002004F80B00AD
:100FA0000B98099AC0F80880C0E9002B7AE711264F
:100FB0004FF0000857E72DE9F04F88460446D21D50
:100FC00022F0070191B0D1E90001CDE90A0105F055
:100FD0004FFB02460B98C00F01D02D2007E0206880
:100FE000810701D52B2002E0202101EAC000032A5D
:100FF000099001D0072A05DB03464146204600F050
:1010000015FB0BE12078800601D5E06900E00620A1
:10101000B8F1650F814606D0B8F1660F18D0B8F167
:10102000670F70D131E00020B9F1110F009001DBA2
:10103000112301E009F101030AAA01A90CA8FFF795
:10104000E2FEDDE90C70002609F10105834647E068
:1010500001204B4600904FF000470AAA01A90CA8B6
:10106000FFF7D1FEDDE90DB00C995D46002610B901
:1010700009F101000D18B9EB050003D4C0F1FF36EA
:1010800009F10105A5EB09002BE0B9F1010F01DA27
:101090004FF001090020B9F1110F0090484601DD21
:1010A000112300E003460AAA01A90CA8FFF7ABFE32
:1010B000DDE90C704D4600268346207800070AD4EF
:1010C000AB4500DA5D4601A8012D04DD411911F898
:1010D000011C302907D04F4502DA17F1040F04DA5A
:1010E000012082460FE06D1EEEE7002F02DCED1BB3
:1010F0003E4403E0781CA84200DD7D1CB81B00F1D3
:10110000010A4FF000472078000703D4AA4501DB0D
:101110004FF0FF3A0021B7F1004F0DF143088DF871
:10112000431024D002202B23002F01DA7F422D23ED
:101130000A21021EA0F1010000DC5FB197FBF1FC67
:1011400097FBF1F201FB1C7C17460CF1300C08F800
:1011500001CDEEE7A8F1010003702188090501D552
:10116000452100E06521A0F1010800F8011C099863
:101170000FA9A1EB0807FF1D00B10120411901EBE8
:10118000EA70A1693844081A401EA0612078C006A0
:1011900002D42046FFF7C4FA099828B1D4E9012106
:1011A0009047206A401C20622078C00622D5204645
:1011B000FFF7B6FA1EE0002E04DBB34502DD01A8FE
:1011C000805D00E03020D4E901219047206A401C76
:1011D0002062761CAAF101005FEA000A0AD100F041
:1011E00021FAC0680168405CD4E901219047206A77
:1011F000401C2062281EA5F10105DCDC07E0D4E9D3
:10120000012118F8010B9047206A401C2062381E0B
:10121000A7F10107F3DC2046FFF798FA032011B08D
:1012200041E600002DE9F04F04460D46D21D22F0A4
:10123000070089B0D0E900974846394605F018FA0A
:101240000246F80F01D02D2307E02068810701D561
:101250002B2302E0202101EAC0038DF820300BB1DE
:10126000012000E00020032A824601D0072A04DB87
:101270002946204600F0DAF93FE12078800601D4C3
:101280000D2500E0E569C7F30A560D2D49DA002166
:101290004FEA175B08464FF00000002F00F44000B3
:1012A00007DA00EB80004FF4400100EBD07001EA58
:1012B00060008115012901DD4FF0FF3100224FEA66
:1012C000850CBCF1180F06D31346ACF118004FF093
:1012D0008052C24003E04FF4801323FA0CF30CF168
:1012E0000C0CBCF1200F04D3ACF1200C09FA0CF06B
:1012F00001E007FA0CF000294FF0004801DD18B9B1
:101300000FE00ED140450CD319EB02095F4121B922
:10131000404502D19F4329EA0209BBEB175F00D089
:10132000761C2088000502D57B48784402E07A4884
:101330007844193808AA302302F80A30037C0AF1ED
:101340000101002E0AF1020A53546A4602DC4FF0F2
:10135000300101E04FF031014FF001088DF800102D
:1013600002D0A6F2FF3603E059EA470100D06B4EE7
:10137000002D02DC2178090704D54FF002082E2148
:101380008DF80110C44600210BE0C7F303433F0171
:10139000C35C491C6D1E02F80830052908F10108DC
:1013A00001DA002DF1DC00210CE000EB1973491C7F
:1013B0001B786D1E082902F808304FEA091908F158
:1013C000010801DA002DF0DC21688B0602D516E059
:1013D000A8F10108E04505DD02EB080313F8013C24
:1013E000302BF5D0B8F1000F09DD02EB080313F83C
:1013F000013C2E2B03D1090701D4A8F10108002DCF
:1014000005DD3E2102F808106D1E08F10108407C40
:10141000002E02F8080008F1010804DA2D207642B7
:1014200002F8080002E02B2002F808000A214FF41D
:101430007A70864208F101080BDB96FBF0F330333B
:1014400002F8083096FBF0F308F1010800FB136680
:1014500001E0642E0CDB642096FBF0F3303302F8DD
:10146000083096FBF0F308F1010800FB136601E079
:101470000A2E06DB96FBF1F0303002F8080008F186
:10148000010896FBF1F001FB1060303002F8080013
:10149000A16908F1010808EB050202EB0A00081A2D
:1014A000A0612078C00602D42046FFF739F9216AEE
:1014B00008AE01EB0A00206204E0D4E9012116F82D
:1014C000010B9047BAF1010AF7D22078C00602D585
:1014D0002046FFF725F96E4609E016F8010B3E2875
:1014E0000FD0D4E901219047206A401C2062B8F156
:1014F0000108F2D22046FFF729F909B00320BDE820
:10150000F08F206A2844206203E0D4E901213020D2
:1015100090476D1EEBD3F8E7EDA2000002FCFFFF41
:1015200010B5436913B1AFF3008001E0FFF731F963
:10153000012010BD127800F124010A7000224A70C7
:101540000122EDE711684FF0FF32E9E710B543697A
:1015500013B1AFF3008001E0FFF7B2F9012010BD35
:10156000128800F1240182840022C2840122EDE766
:1015700011684FF0FF32E9E770B516460C46054694
:1015800000F048F8036893F80101012806D0FF2C09
:101590000FD8185D68B101202C7070BDD3F8070119
:1015A0003246214603F2071303442846BDE8704043
:1015B00018474FF0FF3070BD10B500F0F7F8BDE8E8
:1015C000104000F0EEB870477546FFF75BFBAE4683
:1015D00005006946534620F00700854618B020B53F
:1015E000FEF7FAFEBDE820404FF000064FF000077E
:1015F0004FF000084FF0000B21F00701AC46ACE8BB
:10160000C009ACE8C009ACE8C009ACE8C0098D4627
:101610007047000010B500F005F8001D10BD00BFB8
:101620002982000000487047C84E00202DE9F04193
:101630001F46044603260168072A01F4006004DB04
:1016400008B116A505E016A503E008B115A500E050
:1016500015A521F010002060A069C01EA0610FB187
:10166000401EA0612046FFF75BF84FB1D4E901218D
:1016700038469047206A401C2062C01C206206E069
:10168000206AFAE7D4E9012115F8010B9047761E8C
:10169000F8D22046FFF75AF8BDE8F0814E414E00DF
:1016A0006E616E00494E4600696E66002DE9F04796
:1016B000814616468AB0354878440DC88DE80D003D
:1016C00032487844801C03AC0DC884E80D0041F614
:1016D0009B300844372190FBF1F290FBF1F5A5F126
:1016E000800501FB12041B3C02D56442012000E08E
:1016F0000020DFF898A080460027FA44AAF1BE0A2D
:101700000EE0E0070AD03246684607EB47010123A6
:101710000AEB810100F06AFB8DE8070064107F1C72
:10172000002CEED1194F7F44AE3F19E0E80715D0E9
:1017300007EB04100DF1180A90E80E008AE80E007D
:10174000C068F04201D1981908903246012306A9D9
:1017500003A800F04BFB03AB83E807006D10641C8B
:10176000002DE3D14FF0010332466946B8F1000F76
:1017700003A802D000F025FB01E000F037FBC9E927
:101780000001C9F808200AB0BDE8F087F09F00000A
:1017900010B50446AFF300802046BDE81040FEF7C8
:1017A000A8BD002801D000F029B8704710B5012865
:1017B00005D0002103A000F027F8012010BD09A1E9
:1017C000F8E7000053494752544D454D3A204F75B4
:1017D00074206F662068656170206D656D6F727929
:1017E000000000003A2048656170206D656D6F72E1
:1017F0007920636F727275707465640001491820F6
:10180000ABBEFEE72600020070B505460C460A2076
:1018100000E06D1C00F052F835B128780028F8D1AE
:1018200002E0641C00F04AF814B120780028F8D1D6
:10183000BDE870400A2000F041B800004FF0013CC4
:1018400050F8042B51F8043B9A4221D1A2EB0C032F
:10185000934313EACC1317D150F8042B51F8043BEF
:101860009A4215D1A2EB0C03934313EACC130BD18C
:1018700050F8042B51F8043B9A4209D1A2EB0C0317
:10188000934313EACC13DBD04FF00000704700BF46
:10189000D01A01BAB1FA81F101F0180122FA01F06F
:1018A000CB40C1F12001DBB2C0B2C01A2CFA01F367
:1018B000D11A914311EAC311E6D1704708B56946C0
:1018C0008DF800000320ABBE08BD5FEA400C08BFE6
:1018D00091F0000F4FEA8C234FEAC12243EA5151A5
:1018E0004FEA1C5018BF00F5F0404FEA300018BF17
:1018F00041F000415FEA6C5C00F02980BCF1FF3FE1
:1019000008BF40F080407047130C06BF12044FF030
:10191000100C4FF0000C130E04BF12020CF1080C57
:10192000130F04BF12010CF1040C930F04BF9200BB
:101930000CF1020CD30F04BF52000CF1010C114644
:101940004FF00002A0F11F00A0EB0C00704711F057
:10195000004F08BF704731F000413FF4D5AF0B0C8A
:1019600006BF09044FF0100C4FF0000C0B0E04BF23
:1019700009020CF1080C0B0F04BF09010CF1040C57
:101980008B0F04BF89000CF1020CCB0F04BF490080
:101990000CF1010CCCF12003A0EB0C0022FA03F3B4
:1019A00002FA0CF241EA030100F10100704720F055
:1019B0007F4C80EA030023F07F47ACEB070303F57D
:1019C0007C5300F0004003F1FF032DE980494FEA0A
:1019D000154B09B44FEA144325EA0B4E24EA034899
:1019E0000FF2042606EB132749083E785FEA32021D
:1019F00003FB0667C7F5000707FB06F64FEA5437F7
:101A00004FEAD64606F1020607FB066CCCF1005CF5
:101A10004FEA1C472CEA074C07FB06F40CFB06F5C3
:101A200004EB15464FEA961634BF00204FF00040F5
:101A30004FEAD13706FB07FC4FEA1C4C0CFB0BF7B7
:101A4000D21B03FB0CF761EB07010CFB0EF7B0EBAD
:101A5000074072EB17420CFB08F734BFA2EB0742BA
:101A6000B2EB074261EB17414FEA0C444FEA910792
:101A700006FB07FC4FEA1C4C0CFB0BF7B0EBC74016
:101A800072EB573203FB0CF734BFA2EBC742B2EB49
:101A9000C74261EB57310CFB0EF7B0EBC70072EB9E
:101AA00057720CFB08F734BFA2EBC702B2EBC702B8
:101AB00061EB5771039F4FEA816141EA921104EB98
:101AC000CC044FEAD1374FEA826206FB07FC42EAB8
:101AD00090124FEA80604FEA1C4C0CFB0BF7D21BB4
:101AE00003FB0CF761EB07010CFB0EF7B0EB0740B3
:101AF00072EB17420CFB08F734BFA2EB0742B2EBC4
:101B0000074261EB17414FEA8C554FEA910704EB0E
:101B10009C2406FB07FC4FEA1C4C0CFB0BF7B0EBBC
:101B2000C74072EB573203FB0CF734BFA2EBC7423E
:101B3000B2EBC74261EB57310CFB0EF7B0EBC700BD
:101B400072EB57720CFB08F734BFA2EBC702B2EB83
:101B5000C70261EB577115EB4C254FEA816141EAF1
:101B600092114FEA82624FEAD13742EA901206FBA5
:101B700007FC44F100044FEA80604FEA1C4C0CFB68
:101B80000BF7D21B03FB0CF761EB07010CFB0EF705
:101B9000B0EB074072EB17420CFB08F734BFA2EB27
:101BA0000742B2EB074261EB174115EB1C154FEAF8
:101BB000813141EA92414FEA823242EA90424FEA51
:101BC00080304FEA0C7644F1000448EA03434EEAC1
:101BD0000B484FF0000EB2EB080C71EB030724BF6B
:101BE000624639464EEB0E0E4FF0000B0018524184
:101BF00049414BEB0B0BB2EB080C71EB03077BF18C
:101C0000000B24BF624639464EEB0E0E4FF0000B20
:101C10000018524149414BEB0B0BB2EB080C71EB36
:101C200003077BF1000B24BF624639464EEB0E0ED4
:101C300051EA020718BF46F0010616EB0E7655F181
:101C4000000254F1000103D5BDE88901BDE8008818
:101C5000BDE88901BDE80048B619524141EB0101D8
:101C6000A3F10103704780807F7E7D7C7B7A797849
:101C7000777676757473727171706F6E6E6D6C6C51
:101C80006B6A6A69686867666665646463636261F3
:101C90006160605F5F5E5E5D5D5C5C5B5B5A5A5974
:101CA00059585857575656555555545453535252E0
:101CB0005251515050504F4F4F4E4E4D4D4D4C4C38
:101CC0004C4B4B4B4A4A4A49494948484847474781
:101CD00047464646454545444444444343434342BE
:101CE000424242414141002B9C4630D477002BD0E8
:101CF0001CB54FEA370703B44FF010004FF0100146
:101D0000BAF1000F06D0BCF1000FDCBF40F00800B4
:101D100040F008014FF000000FBCBDE810400BF18F
:101D2000010BBBF1010F08BF5FEA170722BF12F1D9
:101D3000010211F101014FF0004143F1000300F0F5
:101D4000004043EA00007047F9D35708D0E746EA5D
:101D5000064613F1400F4FEA16461FDD13F1200F20
:101D6000DFBF16430A46002120335B42BED0C3F1D9
:101D7000200746EA064602FA07F74FEA164646EA01
:101D80000706C3F1200722FA03F201FA07F721FA46
:101D900003F14FF0000342EA0702A7E746EA020612
:101DA00046EA06464FEA164646EA0106BCBF46EA40
:101DB0000646360C4FF000034FF000024FF00001D2
:101DC00094E72DE9804C9A46934670B491E8380028
:101DD00007C831EA400C48BF34EA430C03D5FFF78B
:101DE000E6FDFFF780FFF0BCBDE8008C2DE9804CDC
:101DF0009A46934670B491E8380007C810F0804FB7
:101E000008BF13F0804F03D100F005F8FFF76BFF18
:101E1000F0BCBDE8008C20F07F4780EA030023F08F
:101E20007F4C07EB0C03A3F57C5300F00040A3F1BB
:101E3000FE0392F0000F00F0B38095F0000F00F069
:101E400077802DE901494FEA11404FEA144621EA13
:101E5000004800FB06FC24EA064708FB06F607FBE1
:101E600008F800FB07F718EB06484CEB164C4FEA56
:101E7000124B18EB07484FEA15464CEB174022EA85
:101E80000B4E0BFB06FC25EA06470EFB06F607FB8E
:101E90000EFE0BFB07F71EEB064E4CEB164C4FF0FD
:101EA00000061EEB074E4CEB174B18EB0B0840F1EE
:101EB000000018EB0E0B58EB000840F100008F1AE1
:101EC0004FF000013CBFC943661B14BFB5EB040CC7
:101ED00000213CBFC943F61B4FEA17444EEA8E0E61
:101EE00027EA04454FEA1C4704FB07622CEA074C2B
:101EF00005FB07F70CFB05F604FB0CFC16EB07468D
:101F000042EB174216EB0C4642EB1C421BEB06065B
:101F100058EB0202414146EA9E0601D5BDE801891F
:101F2000B619524141EB0101A3F10103BDE801895A
:101F30004FEA14454FEA114724EA054621EA074CC7
:101F400005FB07F406FB07F70CFB06F105FB0CFC91
:101F500011EB074144EB17444FEA124711EB0C41D8
:101F600044EB1C4422EA074C05FB07F206FB07F78B
:101F70000CFB06F605FB0CFC16EB074642EB174282
:101F800016EB0C4642EB1C456A1854F1000148BFA1
:101F90007047B619524141EB0101A3F101037047AB
:101FA00095F0000F37D04FEA11424FEA144721EA6B
:101FB000024624EA074C02FB07F106FB07F70CFB7D
:101FC00006F402FB0CFC14EB074441EB17414FEA0B
:101FD000154714EB0C4441EB1C4125EA074C02FB6E
:101FE00007F506FB07F70CFB06F602FB0CFC16EBED
:101FF000074645EB174516EB0C4645EB1C421219FC
:1020000051F1000148BF7047B619524141EB01013F
:10201000A3F1010370474FEA14454FEA114724EA40
:10202000054621EA074C05FB07F106FB07F70CFB09
:1020300006F24FF0000605FB0CFC12EB074241EBE9
:10204000174112EB0C4251EB1C4148BF70479218EC
:1020500041EB0101A3F10103704700004A4910B5AB
:10206000D1F8042322F44032C1F80423D1F8042328
:1020700043681A43C1F8042301684A6822F4807255
:102080004A6001684A68036942EA03224A600168BB
:102090004A6822F040724A6001684A6883681A43BD
:1020A0004A6001688A6822F400628A6001688A686E
:1020B000C3681A438A60816A6FF07062D142016816
:1020C0008A6822F070628A6001688A680CD0836A2C
:1020D0001A438A6001688A6822F040528A60016867
:1020E0008A68C36A1A4301E022F040528A6001689C
:1020F0008A6822F002028A6001688A68836942EA7B
:1021000043028A60016A002901684A6815D042F4D6
:1021100000624A6001684A6822F460424A600168CD
:102120004B684FF46044426A94FAA4F4B4FA84F41D
:10213000521EA24013434B6002E022F400624A6048
:102140000168CA6A22F47002CA620168CA6A838B93
:102150000E4C04EB03531A43CA6201688A6822F4E6
:1021600000728A6001688A68036B42EA43228A60CF
:1021700001688A6822F480628A6001688A6840691E
:1021800042EA8020886010BD002001400000F0FF7E
:1021900070B56E496E4C6F4D4FF400522DED048BAF
:1021A000B0F5805F498908D3914203D8A0F58052E9
:1021B00091420ADC01F5005107E0914205D800F593
:1021C0008052914201D9A1F50051081A80B22080B5
:1021D00007F01CFE9FED601B53EC112B07F066FE11
:1021E00007F054FBE06095ED000B9FED5D1B51EC9B
:1021F000100B53EC112B07F087FD36D194ED030A39
:10220000DFED590A60EE200A9FED581A80EE810A30
:1022100010EE100A08F074F841EC180BB0EE480A02
:10222000F0EE680A04F0A8FB84ED080BB0EE480A53
:10223000F0EE680A04F004FC84ED060B95ED028BC9
:10224000B0EE409AF0EE609A51EC180B07F012FBDA
:1022500053EC192B07F02AFEC5E9000194ED080B99
:1022600051EC180B53EC102B68E095EC040B53EC7D
:10227000102B51EC110B07F0EFFB41EC100B04F0AD
:102280000FFA84ED0A0B04F077FB84ED080B95ED53
:10229000001B53EC102B51EC110B07F0DDFB07F08A
:1022A000F5FAA0609FED329B94ED0A0B53EC192BCD
:1022B00051EC100B07F0FAFD9FED2F1B53EC112B87
:1022C00007F0CAFB41EC180B84ED0C8BE06808F0BA
:1022D00017F853EC182B07F00BFB9FED291B53EC61
:1022E000112B07F0E3FD53EC192B07F0B5FB41EC84
:1022F000180BB0EE480AF0EE680A04F03DFB84EDDE
:10230000080BB0EE480AF0EE680A04F099FB84ED81
:10231000060BA068B0EE408AF0EE608A064607F031
:10232000EFFF94ED081B53EC112B07F0BFFDC5E93F
:102330000001304607F0E4FF53EC182B07F0B6FD20
:10234000C5E90201BDEC048B70BD0000944500207E
:10235000B0000020884E0020000000000080A63F52
:102360000000000000000000DB0F49400000344383
:1023700000000000008066406F1283C0CA2109403F
:1023800000000060FB21094030B51B4A4FF4805427
:102390001046D18963004089A14208D3984203D8EE
:1023A000A1F58055A8420ADC00F5005007E09842EC
:1023B00005D801F58055A84201D9A0F50050401A72
:1023C000D0800E4A1046D1894089A14208D3984254
:1023D00003D8A1F5805398420ADC00F5005007E0CD
:1023E000984205D801F58053984201D9A0F50050D4
:1023F000401AD08030BD0000644500209445002084
:10240000FEE70000014800F0B7BD0000943E002048
:10241000014800F0B1BD0000943E0020014800F0EA
:10242000ABBD0000D43E0020014800F0A5BD000077
:10243000D43E002010B54FF4D872036802EB0112AD
:102440009B5813F00404436B9C600468436BA458CE
:1024500054D0E4085C6003689A58436B02F00202AF
:10246000DA604FF4DA72036802EB01129B58446B96
:1024700003F00F03236103689A58436BC2F30722EA
:10248000DA614FF4DC72036802EB01129B58446B73
:10249000237503689B58446B1B0A637503689B583C
:1024A000446B1B0CA37503689A58436B120EDA75C4
:1024B0004FF4DE72036802EB01129B58446B2376E3
:1024C00003689B58446B1B0A637603689B58446BF4
:1024D0001B0CA37603689A58436B120EDA762022FF
:1024E000002901680DD00A6101684A6922F01002D2
:1024F0004A6190F83810222909D021E0640D1C604F
:10250000A9E7CA6001684A6922F00202F0E701689F
:102510004A6922F480724A6101684A6922F40072B1
:102520004A6101684A6922F480624A6101684A6925
:1025300022F400624A6101684A6922F400424A6159
:1025400090F83810322907D05FF0010180F8381078
:1025500000F02AFF002010BD1221F7E710B5016836
:102560004A6922F001024A6190F83810122918D104
:1025700001684A6922F480724A6101684A6922F45A
:1025800000724A6101684A6922F480624A61016806
:102590004A6922F400624A6101684A6922F40042F1
:1025A0004A6190F83810322906D0012180F838109D
:1025B00001F000F8002010BD2221F7E72DE9F041DD
:1025C00000212DED028B1D4802F02AFA04211B4840
:1025D00002F026FA0821194802F022FA0C211748C5
:1025E00002F01EFA164805F009F90021144800F01F
:1025F00097FE0021134800F093FE134D9FED138AC0
:1026000000244FF4FA6640F6AC5700BF04EBC40058
:10261000F0EE480A00EB400005EB8000B0EE601AD7
:10262000B7EE080A33463A46032103F005FA641C64
:10263000042CEBDBBDEC028BBDE8F081B440002044
:10264000943E0020D43E0020E0470020CDCCCC3D7D
:102650002DED068B82B0FFF7B1FF05F0D8FADFF859
:10266000D891744DDFF8D4A1754F764C002641F611
:10267000B32BA9F1100801900A2101A805F0BBFABB
:102680002878401F0B28F7D2DFE800F00615070670
:102690000657070606150700EEE731464A46A9F831
:1026A0000060012022F81010401C0428FADB624868
:1026B00003F00AFBE0E738886FF0090110FB01F036
:1026C00007F08DFBC4E9000179886FF0090011FB68
:1026D00000F007F084FBC4E90201B8886FF009013B
:1026E00010FB01F007F07BFBC4E904015846FFF73B
:1026F0004FFD94ED040B51EC100B07F0C7F894ED6F
:10270000020B08EE100A51EC100B07F0BFF894ED25
:10271000000B08EE900A51EC100B07F0B7F8D8ED5B
:10272000010A00EE100A4449FDEEE00AB0EE481A34
:1027300010EE900AF0EE680A75E0DAF800000090FA
:102740004FF22812007800F0010111FB02F1C0F3F2
:10275000400040F2DB1210FB02F001EBC00007F07A
:102760003EFB41EC190B4FF2281284ED029B0098BE
:102770000078C0F3C00111FB02F1C0F3800040F209
:10278000DB1210FB02F001EBC00007F028FB41EC6C
:10279000180B84ED008B00980078C10646D48006A3
:1027A00012D59FED29AB00BF53EC1A2B51EC190B3E
:1027B00007F07CFBC4E9020153EC1A2B51EC180B17
:1027C00007F074FBC4E90001B8896FF0950110FBB4
:1027D00001F007F004FBC4E904015846FFF7D8FCF8
:1027E00094ED040B51EC100B07F050F894ED020B34
:1027F00008EE900A51EC100B07F048F894ED000B2E
:1028000008EE100A51EC100B07F040F8D8ED010A61
:1028100000EE100A0849FDEEE00AB0EE681A10EE6C
:10282000900AF0EE480A03F031F840E79FED08AB5C
:10283000BAE70000A8000020C0000020AC00002083
:1028400006460020884E0020000000000000E03F07
:102850000000000000000040014800F0BFBE000082
:1028600028430020014800F0B9BE0000C842002003
:10287000014800F0B3BE000088430020014800F08A
:10288000ADBE00006842002001681823CAB2103AA9
:10289000B2FBF3F2054B6FF30901032A9B5CC3659E
:1028A00000D9091D8165084670470000FEA3000895
:1028B00010B5014600208B698A6A4FF0C07453B18D
:1028C000B3F5005F15D072B1012A0CD0022A0AD0EC
:1028D000032A09D104E01AB1012A06D0022A03D141
:1028E000C96AC90100D5012010BDC96AA142FAD048
:1028F00010BD002AF7D0012AF2D0022AF3D0032A11
:10290000F3D010BD30B50468256825F48025256016
:10291000046863608368402B036803D09960006893
:10292000C26030BD9A600068C16030BD074882B0A7
:102930000068016841680091C16841F01001C16000
:1029400032220349014802B003F0D8BD684100209B
:10295000F44500207047FEE710B558B1084C491EF9
:102960000BD310F8013B5340DBB234F8133083EA49
:102970001222F4E74FF6FF7010BD104610BD0000A4
:1029800090A5000810B5054C04E000BF10F8013B0D
:102990005340E25C491EF9D2104610BD90A40008D5
:1029A00010B500F017F80021074802F039F8074881
:1029B00041F6B32140F6AA22C1810549CA8100220D
:1029C00002820A8210BD00000040002094450020D1
:1029D0006445002070B541F2883447F230552DED42
:1029E000028B23469FED1D1ADFED1D0A9FED1D0A88
:1029F0002A4603211C4803F01FF89FED1C8A4FF460
:102A00008052B2EE041AF0EE480A9FED190A1346FE
:102A10000321184803F010F8DFED178AF0EE480A9A
:102A2000B3EE0E0AB0EE681A23462A460321134875
:102A300003F002F8B0EE681AF0EE480AB7EE080AA2
:102A400023464FF4804203210D4802F0F5FFBDEC10
:102A5000028B6420BDE8704000F01FBF0040E643D9
:102A6000CDCCCC3E0000F14208470020CDCCCC3D7F
:102A7000333353409C460020000000007447002080
:102A8000904900202DED028B82B0FFF789FF05F001
:102A9000BEF84A4F4A4CDFF82CB14B4D40F2B638E5
:102AA0004FF080464FF4C8694FF4C87A0190012175
:102AB00001A805F0A0F8FFF767FC3878401F0B2845
:102AC000F5D2DFE800F0060707061B2F1B060E0EE7
:102AD0000E00ECE72888002102B2084603F082F8D5
:102AE00069E0E0882A88404201B2608912B2400061
:102AF00000B203F077F8C6F83C805CE0E0882A88F2
:102B0000404201B2608912B2400000B203F06AF89C
:102B1000C6F83C904DE000BF4FF400512B4800F048
:102B2000ADFFC4E72A48006800904078400701D50F
:102B3000C6F83C8000984078C00701D0C6F83C90A9
:102B4000B4F90E0007F04BF99FED221B53EC112B4B
:102B500007F0ACF941EC180B2048B0F9020007F07F
:102B60003EF953EC182B06F0C3FE07F009F91B4998
:102B700000B25045488003DD0846A0F802A004E0FA
:102B8000164A584501DAA2F802B000984078C0F31E
:102B9000800100980078A1EBD010104980020880D5
:102BA0002A88B1F9021012B203F01CF80C48C07B5D
:102BB00008B10122B0E70022AEE70000A800002023
:102BC0000646002044FDFFFFEE00002000180240F2
:102BD000AC000020CDCCCCCCCCCCF43FE800002025
:102BE000104E002078B50024009490F83C20012A73
:102BF00019D0012280F83C200A6807230568092AB9
:102C000013D9EE680A3A02EB420293409E43EE600B
:102C10000B788A680A3B03EB43039A400368DD683C
:102C20002A43DA6010E0022078BD2E6902EB4202EE
:102C300093409E432E610A788B6802EB42029340D8
:102C4000026815692B4313614A681F23072A13D2B0
:102C500005686E6B521E02EB820293409E436E63C8
:102C60000A8893B20A79521E02EB820293400268EC
:102C7000556B2B43536327E005680D2A12D22E6B48
:102C8000D21F02EB820293409E432E630B790A8887
:102C9000DB1F92B203EB83039A4003681D6B2A4348
:102CA0001A6311E0EE6A0D3A02EB820293409E43F2
:102CB000EE620B790A880D3B92B203EB83039A40D4
:102CC0000368DD6A2A43DA62174A0368934208D12F
:102CD0000B68122B05D1D2F8043343F48003C2F8F9
:102CE0000433036893421BD1104B0D689D4201D001
:102CF000112D15D1D2F8045345F40005C2F8045340
:102D0000096899420CD10A490A4A0968B1FBF2F1F3
:102D100001EB8101490000E0491E00910029FBD12F
:102D200080F83C40002078BD0020014012000010D7
:102D30000400002040420F000068C06C704770B56E
:102D400004004FF0000503D0206C002610B107E00E
:102D5000012070BD666484F83C60204600F01AF8DB
:102D6000206CC00610D4206C20F4885040F0020083
:102D700020642046FFF772F96664206C20F00200A0
:102D800040F00100206400E0012584F83C60284602
:102D900070BD000000B500680C4987B0884212D1B0
:102DA0000B480021026842F480720260006800F45F
:102DB00080700590402000900320CDE90101694614
:102DC000044800F075FD07B000BD00000020014080
:102DD000443802400000024018B50021009190F8EC
:102DE0003C20012A07D0012280F83C200268936829
:102DF000DB0702D011E0022018BD936843F0010305
:102E00009360204A204B1268B2FBF3F202EB4202BD
:102E100000E0521E0092002AFBD102689368DB0793
:102E20002DD0036C40F20164A34343F48073036428
:102E300053685B0505D5036C23F4005343F48053BA
:102E40000364036CDB0404D5436C23F00603436482
:102E500000E0416480F83C106FF0220111600B49E2
:102E6000D1F804230068D20601D0884207D18168D6
:102E700011F0405F03D1816841F080418160002002
:102E800018BD00000400002040420F000020014057
:102E9000F0B50A7D01209040344A136843F00103E5
:102EA0001360136823F47C53136013684C6A43EA7D
:102EB000042313602D4B1C331C6884431C602B4D72
:102EC0002B4CCE690C35A6B92E6886432E608F89AF
:102ED0004E6867F31F464F6904EBC707C7F84066A3
:102EE0000F890E6867F31F464F6904EBC707C7F8E1
:102EF0004466CE69012E14D12E6806432E600E88DA
:102F00004D6866F31F454E6904EBC606C6F8405689
:102F10000E89CD6866F31F454E6904EBC604C4F8FC
:102F20004456124C8D69241D002D256806D005439A
:102F300025600E4C0D69143415B104E08543F7E7A4
:102F40002568854325600D69012D02D1256805435B
:102F50002560096A012902D11968014319601068C6
:102F600020F0010010600020F0BD0000006600406D
:102F7000006000407047000010B5044600684169D9
:102F8000C943C90714D182685849914368D00021C8
:102F90008368574A9A4365D000228368554898430E
:102FA00062D000201143014302D02046FFF7D6FA39
:102FB0002068C168406911F0030FC0F3400004D0DD
:102FC00018B100212046FFF735FA216808694969E0
:102FD00010F0030FC1F3001104D019B101212046F4
:102FE000FFF728FA20688169426911F0010FC2F3E6
:102FF00000234269C2F3C03205D023B11AB1E16B9C
:1030000041F00101E1638169C1F340034169426913
:10301000C1F34021C2F3C0322BB121B11AB1E16B2F
:1030200041F00201E16381694269C1F38001C2F3A9
:1030300080234269C2F3C03229B123B11AB1E16BD6
:1030400041F00401E163816911F0700F0ED000219D
:1030500042694369C2F3C022C3F3C03341B127E0E0
:10306000012195E7012298E701209BE70121EFE785
:10307000F2B1EBB1816901F07001402929D006DC81
:10308000102909D020290BD030290DD11DE050295D
:1030900023D0602908D124E0E16B41F0080102E06F
:1030A000E16B41F01001E163816921F07001816100
:1030B000E06B002808D0216804204860012084F8D3
:1030C00038002046FFF756FF10BDE16B41F02001AC
:1030D000E9E7E16B41F04001E5E7E16B41F0800198
:1030E000E1E7E16B41F48071DDE7000003000004DB
:1030F00000030008000003102DE9F041040004D093
:1031000094F83800002518B107E00120BDE8F081EF
:1031100084F83950204600F093F8022084F83800F3
:103120002068016821F0020101602068016841F017
:103130000101016000F0A8FC0746032605E000BF7E
:1031400000F0A2FCC01B0A2863D820684068C007B2
:10315000F6D020684168C90768D0A16901290168D3
:103160003FD021F080010160E069012820680168FA
:103170003AD021F040010160206A012820680168EE
:1031800035D021F020010160606A012820680168C3
:1031900030D021F010010160A06A01282068016888
:1031A0002BD021F008010160E06A01282068016845
:1031B00026D021F004010160D4E902010843D4E9DA
:1031C0000412114308436168491E08432168C8611D
:1031D0002068016821F00101016000F055FC0746FC
:1031E0001CE041F08001BEE741F04001C3E741F03F
:1031F0002001C8E741F01001CDE741F00801D2E716
:1032000041F00401D7E700BF00F03EFCC01B0A28D4
:1032100004D904F8386F0320657077E720684068A8
:10322000C007F1D120684068C00703D0042084F8AB
:1032300038006AE7E563012084F83800002065E77C
:10324000F0B5324B0768DFF8C0C0186803220224CB
:1032500009252F490026401C87B0674521D11860F9
:10326000012807D1086840F000700860086800F085
:10327000007005908DE85400CDE903256946254886
:1032800000F016FB00220521132000F097FC13200C
:1032900000F088FC00220521142000F08FFC14208F
:1032A0002EE0DFF874C067452CD10F6847F08067C7
:1032B0000F600F68012807F080670597186007D135
:1032C000086840F000700860086800F00070059021
:1032D0004FF440508DE85100CDE9032569460F4871
:1032E00000F0E6FA002211463F2000F067FC3F2084
:1032F00000F058FC00221146402000F05FFC402006
:1033000000F050FC07B0F0BD006400407C000020DD
:1033100040380240000C02400068004000040240B7
:1033200010B590F83820012A01D0122A39D190F82E
:103330003920012A35D0012280F8392090F8382030
:10334000122A29D05FF0220280F838200022C263BE
:1033500003685C6944F480745C6103685C6944F4EC
:1033600000745C6103685C6944F480645C610368B8
:103370005C6944F400645C6103685C6944F4004483
:103380005C6180F8392000680029416906D041F06D
:1033900010014161002010BD3222D5E741F0020149
:1033A000F7E7022010BD000000B5416B0968A1F2EB
:1033B0000121072914D2DFE801F0040404042024C9
:1033C0000F00124AC9B21170114A01EB410102EB20
:1033D00001120146104601E001460E4804F022F9B0
:1033E0000D480068416941F0020141610B480068E5
:1033F000416941F00201416100BD01460548303894
:10340000ECE7014603486038E8E700009800002038
:1034100024440020C4450020943E0020D43E0020D7
:103420002DE9F05F0E46016804468868400105D426
:103430008868000102D48868C00067D594F8390014
:1034400001280ED0012784F8397094F8380022281A
:103450000AD0122084F838008868400106D500257B
:103460000AE00220BDE8F09F3220F3E788680001FF
:1034700001D5012500E002254FF4C07000EB0510D6
:103480000A5802F001020A50216B8A68EAB3D4F8A4
:1034900000C05CF800301343CA68496842EAC101C1
:1034A0000B434CF80030216B0A7C02F00F020A61DA
:1034B0004FF4C271226801EB0511535823F00F033A
:1034C000535022685358D4F830C0DCF810C043EA97
:1034D0000C035350216B4FF4C47303EB05130A7DA7
:1034E000D1F8151042EA01212268D150216B4FF426
:1034F000C67303EB05130A7ED1F8191042EA0121C5
:103500002268D15021680A5801E00DE046E042F0FF
:1035100001020A5000F0B8FA81464FF00008DFF8C7
:1035200088A0DFF888B019E022681358D1F80CC0E1
:10353000098843EA0C0343EA41511150B3E7701C78
:103540000CD02EB100F0A0FAA0EB0900B04205D9D2
:10355000032084F8380084F8398083E795B1206827
:10356000012D816813D0124888430028E7D194F8D0
:10357000380032280ED084F8387000BF84F83980C3
:1035800000206FE7206881682AEA0100EDE72BEA56
:103590000100EAE7222084F83800EFE7042084F8ED
:1035A000380001205EE7000003000004000300086B
:1035B00000000310704790F83510022903D08021D5
:1035C000416501207047052180F8351000680168C9
:1035D00021F0010101600020704700002DE9F8434F
:1035E00004464FF00008CDF8008064484FF41651AF
:1035F000A56D0068B0FBF1F72E6894F85C10082008
:1036000000FA01F131420FD021680A6852070BD548
:103610000A6822F004020A6094F85C108840A860EE
:10362000606D40F00100606594F85C10544888407B
:10363000304208D021684969090604D5A860606D48
:1036400040F0020060654E4894F85C10C01C884051
:10365000304208D021680968890704D5A860606DE8
:1036600040F00400606594F85C10102088403042FF
:1036700018D021680968090714D5A8602068016876
:10368000490304D50068000308D5A16C07E0016870
:10369000C90503D4016821F008010160216C09B15A
:1036A0002046884794F85C102020884030424FF034
:1036B000010631D021680968C9062DD5A86094F8A3
:1036C000350005282068016806D0490347D5006801
:1036D00000031DD4616C1CE021F01601016020681C
:1036E000416921F080014161206C08B9A06C20B1D2
:1036F0002068016821F00801016094F85C103F2007
:103700008840A86084F8348084F83560216D1FE01B
:10371000E16B09B120468847606D00282BD0606DB1
:10372000C00714D0052084F835002068016821F016
:10373000010101600098401C0090B84203D8206845
:103740000068C007F6D184F8348084F83560E16CF5
:10375000002910D001B02046BDE8F04308470168B9
:10376000C905D5D4016821F01001016084F83480C6
:1037700084F83560CCE7BDE8F88300000400002041
:10378000010080002DE9F041044600F07DF9064675
:103790005CB1002584F83450022084F8350020689C
:1037A000016821F0010101600DE00120BDE8F08118
:1037B00000F06AF9801B052805D9202060650320E8
:1037C00084F83500F2E720680068C007F0D122686D
:1037D00011681F480140D4E901031843D4E90336B6
:1037E0003343184363691843A3691843E3691843D3
:1037F000236A18430843616A042903D1D4E90B13EF
:1038000019430843106020684069666A20F0070188
:1038100030460E43012704280AD1A06A06432046F9
:10382000FFF746F820B14020606584F83570BCE7AA
:10383000206846612046FFF727F894F85C203F2176
:1038400091408160656584F835700020AEE7000026
:103850003F8010F070B5044690F834000025012830
:103860000CD0012084F8340094F835600020012E3B
:1038700006D084F834000225284670BD022070BDB1
:10388000022684F8356060652046FFF73BF8206823
:10389000016841F001010160EEE731B500F0F4F894
:1038A000044600F0F1F80099001B8842F9D338BDB6
:1038B0002DE9F84FDFF890B100224FF001084FF0EA
:1038C000030A4FF00F090BF1040E00BF0B6808FA52
:1038D00002F42340A3426ED14D68022D01D0122D77
:1038E0000ED1D50800EB850CDCF820505607F70EFA
:1038F00009FA07F6B5430E69BE402E43CCF82060A6
:10390000066855000F790AFA05FC07F0030726EA56
:103910000C06AF40374307604E68012E05D0022EDB
:1039200003D0112E01D0122E0ED18768CE6827EA5F
:103930000C07AE403E4386604668A6430C79C4F34C
:103940000014944034434460C4688E6824EA0C0434
:10395000AE402643C6604C68E4006FD53B4C2568FA
:1039600045F480452560246822F0030504F4804472
:103970000094374C2E19D6F8084895072F0F09FAEE
:1039800007F5AC43334DA84201D100252EE0324D5E
:10399000A84201D1012529E0304DA84201D10225DC
:1039A00024E02F4DA84201D103251FE02D4DA84250
:1039B00002D104251AE041E02B4DA84201D1052592
:1039C00014E02A4DA84201D106250FE0284DA84257
:1039D00001D107250AE0274DA84201D1082505E0BD
:1039E000254DA84201D1092500E00A25BD40254307
:1039F000C6F80858DBF800405D464E689C43F60365
:103A000000D51C432C60DEF8004075464E689C4390
:103A1000B60300D51C432C600B4D08352C684E684E
:103A20009C43F60200D51C432C60074D0C352C68D6
:103A30004E689C43B60200D51C432C60521C102AD1
:103A4000FFF444AFBDE8F88F003C01404438024029
:103A50000030014000000240000402400008024023
:103A6000000C024000100240001402400018024006
:103A7000001C024000200240002402400AB1816183
:103A800070470904FBE70000014800687047000028
:103A90000000002002480168491C016070470000D6
:103AA000000000200B4810B5016841F4007101606E
:103AB000016841F480610160016841F48071016036
:103AC000032000F09BF8002000F006F800F03EF81C
:103AD000002010BD003C024010B5014688B0002215
:103AE000362000F06BF8362000F05CF81348002414
:103AF000016841F010010160006805A900F01000A4
:103B00000690684600F090F900F0B4F90C494000C6
:103B1000B0FBF1F10C480B4A491E026040F2E7325B
:103B2000C0E90324C0E9011400F031FD10B1012007
:103B300008B010BD044800F046FDF9E740380240E7
:103B400040420F0000100040E843002010B5032061
:103B500000F054F8002211466FF00B0000F02EF830
:103B6000002211466FF00A0000F028F800221146EA
:103B70006FF0090000F022F800221146501F00F0FB
:103B80001DF800221146101F00F018F800220F2126
:103B9000901E00F013F800220F21BDE81040501EC7
:103BA00000F00CB800F01F02012191404009800094
:103BB00000F1E020C0F8001170470000F0B40E4B97
:103BC0001B680C46C3F30223C3F10705042D00D97B
:103BD0000425191D072901D2002300E0DB1E012660
:103BE00006FA05F1491E214099409E40761E164076
:103BF0003143F0BC01F0FCBE0CED00E0064900F0E2
:103C0000070208684FF6FF03184040EA0220034A03
:103C100010430860704700000CED00E00000FA055A
:103C20002DE9F8431E48016841F0805101600068A9
:103C3000012600F080500090300490FAA0F0194F57
:103C4000B0FA80F047F82060FFF71EFF05464FF4FA
:103C50007A78154C05E000BFFFF716FF401B404582
:103C600015D86068C003F7D54FF4003090FAA0F083
:103C7000B0FA80F047F82060FFF706FF0546464699
:103C800008E000BFFFF700FF401BB04202D903204D
:103C9000BDE8F88360688003F4D50020F8E70000F1
:103CA0004038024000000E42007000402DE9F0470D
:103CB000DFF8649105460F46D9F8000000F00F01C7
:103CC000F8B28046B94208D2014689F80010D9F806
:103CD000000000F00F00B84274D128784F4C8007E4
:103CE00005D52068A96820F0F000084320602878F6
:103CF000C00759D049496868083901281AD00228F4
:103D00001BD0032819D00968890700295ADA2168CD
:103D100021F0030101432160FFF7B6FE6968064602
:103D200041F28830012911D002291DD00329824691
:103D300027D035E009688903E7E709688901E4E7E6
:103D4000FFF7A2FE811B514501D926E0824620687B
:103D5000C0F381000128F3D126E000BFFFF794FEF5
:103D6000811B514501D918E082462068C0F38100CB
:103D70000228F3D118E000BFFFF786FE811B5145F2
:103D80000BD82068C0F381000328F5D10CE000BFF8
:103D9000FFF77AFE811B514502D90320BDE8F08769
:103DA000206810F00C0FF3D1D9F80010484601F04C
:103DB0000F01B94208D980F80080006800F00F00B8
:103DC000B84201D00120E9E72878400705D52068EE
:103DD000E96820F4E050084320602878000706D501
:103DE0002068296920F4604040EAC100206000F0AA
:103DF00071F82168F02292FAA2F201F0F001B2FA11
:103E000082F2D140064A515CC84006490860002051
:103E1000FFF762FE0020C1E7003C02400838024084
:103E200006A40008040000200F2202600C4A136858
:103E300003F003034360136803F0F0038360136827
:103E400003F4E053C36012684FF4E05303EAD20274
:103E500002610448006800F00F000860704700002D
:103E600008380240003C02400148006870470000EA
:103E70000400002008480949006809684FF4E0522E
:103E800092FAA2F201F4E051B2FA82F2D140044A6D
:103E9000515CC84070470000040000200838024010
:103EA00006A4000808480949006809684FF4604200
:103EB00092FAA2F201F46041B2FA82F2D140044ACD
:103EC000515CC840704700000400002008380240E0
:103ED00006A4000830B51948006810F00C01184815
:103EE00012D0184C04290ED008290DD11349091FEE
:103EF0000A6802F03F030A68550247F6C07204D50B
:103F0000B4FBF3F003E0204630BDB0FBF3F00B68E8
:103F10000968134092FAA2F2B2FA82F2D3405843EF
:103F20004FF4403292FAA2F201F44031B2FA82F236
:103F3000D140491C4900B0FBF1F030BD08380240C7
:103F40000024F400001BB7002DE9F84F0446DFF809
:103F5000CC820078A8F1040BC007ABF1040537D080
:103F6000D8F800104046C1F38101012908D000684B
:103F7000C0F3810002280AD1DBF80000400206D518
:103F80002868800324D56068002878D020E0A34901
:103F90002079891F0870606868B1FFF775FD0646D3
:103FA00005E000BFFFF770FD801B642868D8286813
:103FB0008003F7D50CE0FFF767FD064605E000BF7C
:103FC000FFF762FD801B6428F0D828688003F7D4CF
:103FD0002078934E80074FF0010A4FF0000742D53A
:103FE000D8F80010404611F00C0F08D00068C0F35C
:103FF000810002280AD1DBF80000400206D42868BC
:10400000800714D5E068012839D110E0E068D8B104
:10401000C6F800A0FFF738FD814605E0FFF734FD44
:10402000A0EB09000228C1D828688007F6D52868C7
:10403000F82292FAA2F22169B2FA82F220F0F80094
:104040009140084328600EE03760FFF71DFD814670
:1040500006E000BFFFF718FDA0EB090002280FD80B
:1040600028688007F6D42078000728D56D48616954
:10407000A1B1C0F800A0FFF707FD814608E0CAE043
:1040800079E000BFFFF700FDA0EB0900022872D81D
:1040900062486C3000688007F4D510E00760FFF7D5
:1040A000F3FC814606E000BFFFF7EEFCA0EB090041
:1040B000022860D859486C3000688007F4D4207812
:1040C000400749D555483830016841F080510160BA
:1040D000006800F0805000905348016841F48071FE
:1040E0000160FFF7D1FC814606E000BFFFF7CCFC82
:1040F000A0EB090002283ED84B480068C005F5D562
:10410000DFF81891207A09F1680989F80000A068A1
:1041100088B1FFF7B9FC009008E000BFFFF7B4FCDE
:104120000099411A41F2883081426CD8D9F80000D8
:104130008007F3D510E0FFF7A7FC009008E000BF70
:10414000FFF7A2FC0099411A41F2883081425AD807
:10415000D9F800008007F3D4A069E0B3D8F80010C4
:10416000C1F38101022956D00228376604D0FFF737
:104170008BFC04464AE046E0FFF786FC074604E075
:10418000FFF782FCC01B02283DD828688001F7D4C5
:10419000D4E90701084347F6C07292FAA2F2616AB5
:1041A000B2FA82F29140A26A4FF0FF3303EB52025F
:1041B0004FF4403393FAA3F3B3FA83F39A401143D5
:1041C00008434FF0706292FAA2F2E16AB2FA82F208
:1041D0009140084300E01CE0CBF80000C6F860A066
:1041E000FFF752FC044604E0FFF74EFC001B0228D8
:1041F00009D828688001F7D50BE000BFFFF744FC21
:10420000001B022802D90320BDE8F88F286880012E
:10421000F4D40020F8E70120F6E700000838024057
:1042200000004742800E47420070004070B5040015
:1042300005D00025A56294F8510010B106E00120D8
:1042400070BD84F85050204600F030F8022084F809
:1042500051002068016821F040010160D4E90101AA
:104260000843D4E903121143084361690843218BD1
:1042700001F400710843E1690843216A0843A16A17
:10428000084321680860A069042101EA1040616ABE
:104290000843216848602068C16921F40061C16158
:1042A0006565012084F85100002070BD2DE9F043C0
:1042B0000746006820490025204C022687B04FF0B1
:1042C00003084FF0050988421BD1206840F4805054
:1042D0002060206802AA00F4805005901820CDE9E3
:1042E000000682E8200369461548FFF7E1FA8020BE
:1042F000CDE9000602AA694682E820031148FFF7CB
:10430000D7FA11493868884212D1206840F48010E9
:104310002060206802AA00F4801005904FF46070BD
:10432000CDE9000682E8200369460848FFF7C0FA95
:1043300007B0BDE8F083000000300140443802407F
:1043400000040240000002400050014000140240FE
:104350002DE9F84F044690F850000026994617467C
:104360000D4601280DD04FF0010B84F850B0FFF737
:104370008BFB804694F85100B246012804D00226F7
:1043800094E00220BDE8F88F002D7BD0002F79D07B
:10439000032084F85100C4F854A02563A786E7865B
:1043A000C4F838A0A4F83CA0A4F83EA0C4F844A0E7
:1043B000C4F840A0A068B0F5004F04D1206801689F
:1043C00041F48041016020680168490603D4016816
:1043D00041F040010160E068B0F5006F606804D012
:1043E00030B3E08E012823D03EE010B1E08E0128EA
:1043F0001AD135F8021B206805E02068816889071A
:1044000006D535F8021BC160E08E401EE0860BE049
:10441000B9F1000F34D0B9F1FF3F05D0FFF734FBFD
:10442000A0EB080149452BD2E08E0028E5D11EE023
:10443000216815F8010B087306E020688168890778
:1044400006D515F8011B0173E08E401EE0860BE0D7
:10445000B9F1000F14D0B9F1FF3F05D0FFF714FBFD
:10446000A0EB080149450BD2E08E0028E5D14B4670
:10447000012202212046CDF8008001F067FB10B137
:10448000032613E011E042464946204601F04EFB68
:1044900018B101262020606508E0A06818B92068DE
:1044A000C16880680090606D00B1012684F851B049
:1044B00084F850A0304665E74FF0E02104280869F1
:1044C00003D020F004000861704740F00400FAE7D0
:1044D00010B5401EB0F1807F01D3012010BD4FF018
:1044E000E02460610F21601701F082FA0020A061D2
:1044F00007202061002010BD7047704730B590F84C
:104500003820012A19D0012200F8382F02234370E5
:10451000D1E900342343D1E902452C4323430C69FC
:1045200023434C69896923430B4350F8381C4B647F
:10453000427000210170084630BD022030BD30B508
:1045400090F83820012A20D0012280F83820022358
:1045500080F8393003685C6824F070045C6003689C
:104560005C680D682C435C6003689C6824F08004E0
:104570009C6003689C6849680C439C6080F8392003
:10458000002180F83810084630BD022030BD10B53B
:10459000040003D094F8390010B107E0012010BDE9
:1045A000002084F83800204600F00CF8022084F83F
:1045B0003900211D206801F071FC012084F83900C8
:1045C000002010BD70470168CA6842F00102CA604D
:1045D0000068016841F001010160002070477047E8
:1045E00070B50446006801694FF00005C9438907AA
:1045F00015D4C168C943890711D4E91E016101209E
:104600002076206880698007204602D0FFF7E7FF08
:1046100004E000F021F9204600F000FA2576206839
:104620000169C943490717D4C168C943490713D46D
:104630006FF004010161022020762068806910F487
:10464000407F204602D0FFF7CAFF04E000F004F9E3
:10465000204600F0E3F9257620680169C94309077F
:1046600016D4C168C943090712D46FF0080101616B
:10467000042020762068C0698007204602D0FFF71A
:10468000AEFF04E000F0E8F8204600F0C7F9257618
:1046900020680169C943C90617D4C168C943C9065E
:1046A00013D46FF010010161082020762068C069E2
:1046B00010F4407F204602D0FFF791FF04E000F0A5
:1046C000CBF8204600F0AAF9257620680169C94395
:1046D000C90708D1C168C943C90704D1891E01614E
:1046E000204600F0B9F920680169C943090609D4D8
:1046F000C168C943090605D46FF0800101612046F5
:10470000FFF7FAFE20680169C943490609D4C16868
:10471000C943490605D46FF040010161204600F00D
:10472000A5F920680169C94389060BD4C168C9434A
:10473000890607D46FF0200101612046BDE8704072
:10474000FFF7DBBE70BD0000F0B5374A01680024FA
:1047500002250126354885B0914211D14FF44071B0
:104760000091CDE90154CDE903466946FFF7A0F871
:104770004FF4C0400090CDE9015469462C4811E047
:10478000B1F1804F09D02B48814211D160200090B7
:10479000CDE901546946284829E007210091CDE977
:1047A00001546946CDE90346FFF782F805B0F0BD34
:1047B0002248814207D14FF470400090CDE9015466
:1047C00069461F4813E01F4A1F48204F914211D1EC
:1047D0000096CDE901546946CDE90345FFF768F835
:1047E0004FF4E0500090CDE9015469463846CDE9D8
:1047F0000345D9E7164A914208D1E4210091CDE959
:1048000001540321CDE903416946CDE711488142B6
:10481000CCD140200090CDE901540920CDE90340DE
:1048200069463846C0E70000000001400000024031
:104830000010024000040040000402400008004054
:10484000000C0240000C004000200240001C02400E
:104850000004014000180040704770B5044690F80D
:1048600038000D4601280DD0012684F8386002205A
:1048700084F8390042B1042A18D0082A2AD00C2A18
:104880004DD139E0022070BD206801F073FB206833
:10489000816941F0080181612068816921F004018A
:1048A0008161206881692A69114311E0206801F063
:1048B0008DFB2068816941F4006181612068816914
:1048C00021F480618161206881692A6941EA0221BD
:1048D000816124E0206801F0ABFB2068C16941F0F0
:1048E0000801C1612068C16921F00401C16120682B
:1048F000C1692A69114311E0206801F0C9FB2068F1
:10490000C16941F40061C1612068C16921F480611D
:10491000C1612068C1692A6941EA0221C16184F844
:104920003960002084F8380070BD10B5040003D051
:1049300094F8390010B107E0012010BD002084F880
:104940003800204600F00CF8022084F83900211DC0
:10495000206801F0A3FA012084F83900002010BD7E
:1049600008B501682648274A814205D1106840F001
:1049700001001060106812E02248001FB1F1804F62
:1049800008D0214B99420ED1016841F0020101602B
:10499000006826E0016841F001010160006800F054
:1049A0000100009008BD194B994207D1016841F000
:1049B00004010160006800F00400F2E7144B994222
:1049C00007D1016841F008010160006800F00800AB
:1049D000E7E7104B994207D1106840F002001060E1
:1049E000106800F00200DCE70B4A9142DAD101685E
:1049F00041F040010160006800F04000D1E7000094
:104A0000000001404438024000040040000800401B
:104A1000000C0040000401400018004070470000F6
:104A200010B504460068012201F098FA0849206890
:104A3000884202D00749884203D1416C41F40041C9
:104A400041642068016841F001010160002010BD4F
:104A5000000001400004014000680349884201D180
:104A6000FFF718B87047000000100040704770470B
:104A700070B5026804461068D168536910F00F0FD2
:104A800050D003F0010501F4907635435DD0C207A4
:104A900005D0CA0503D5E26B42F00102E26342078A
:104AA00005D5DA0703D0E26B42F00202E263820727
:104AB00005D5DA0703D0E26B42F00402E263020795
:104AC00005D5DA0703D0E26B42F00802E263E26B3D
:104AD000002A33D0800604D5880602D5204601F08E
:104AE00015FB20684069E16BC0F38010090700D412
:104AF00028B3204601F0FCFA2068416949061AD51E
:104B0000416921F040014161606BA0B11B49016521
:104B1000606BFEF750FD002810D0606B016DBDE8A2
:104B200070400847830610D58B060ED52046BDE899
:104B3000704001F0EBBA2046FFF799FF70BD2046A8
:104B4000FFF795FF0020E06370BD030606D50B0656
:104B500004D52046BDE8704001F074BC4006F3D592
:104B60004806F1D5D168204621F04001D1602021CE
:104B700084F8391000F05DF970BD0000E1600008B4
:104B800070B5040004D094F83900002510B106E097
:104B9000012070BD84F83850204600F023F824200E
:104BA00084F839002068C16821F40051C1602046B2
:104BB00001F0F2FA2068016921F490410161206856
:104BC000416921F02A0141612068C16841F4005126
:104BD000C160E563202084F8390084F83A000020A1
:104BE00070BD00002DE9F04F0546D0F800C002204E
:104BF000DFF80C820024DFF80CB201210322072326
:104C00004602C70187B04FF00069C44539D1DBF8CF
:104C1000008048F01008CBF80080DBF800C00DF1F0
:104C200004080CF0100CCDF814C04FF0C00CCDF8F7
:104C300000C088E80F0069467348FEF739FEDFF8C8
:104C4000D08172494046C8F80010C0E90194C0E91B
:104C50000346C8F81440C0E90647C8F82040C8F821
:104C60002440FEF78FFD08B1FDF775FEC5F83480CE
:104C7000002201212520C8F83850FEF79FFF25208B
:104C800039E0DFF89081DFF87CA1DFF88CE1AAF150
:104C9000040AC44534D1DAF800C04CF4003CCAF828
:104CA00000C0DAF800700DF1040807F4003705972A
:104CB0006027009788E80F0069467046FEF7F8FD08
:104CC000534F564860373860C7E90194C7E9034637
:104CD0007C61BC61FC613C6238467C62FEF752FD3F
:104CE00008B1FDF738FE6F63002201212620BD6365
:104CF000FEF764FF2620FEF755FF07B0BDE8F08FF2
:104D0000DFF81C81C4453CD1DAF8008048F48028E3
:104D1000CAF80080DAF800C00DF104080CF4802C09
:104D2000CDF814C04FF4407CCDF800C088E80F00E7
:104D300069467046FEF7BCFDDFF8D480374908F1BC
:104D4000C00860394046C8F80010C0E90194C0E9C5
:104D50000346C8F81440C0E90647C8F82040C8F820
:104D60002440FEF70FFD08B1FDF7F5FDC5F83480CE
:104D7000002211462720C8F83850FEF71FFF2720D1
:104D8000B9E7284B9C45B8D1DBF800C04CF0200CAB
:104D9000CBF800C0DBF800300DF1040803F020036D
:104DA00005934FF48443009388E80700082004909B
:104DB00069461D48FEF77CFD1449DFF870801839FC
:104DC0004046C8F800108905C0E90114C0E903464F
:104DD000C8F81440C0E90647C8F82040C8F8244085
:104DE000FEF7D0FC08B1FDF7B6FDC5F8348000220F
:104DF00005214720C8F83850FEF7E0FE47207AE743
:104E00000010014044380240000402404064024067
:104E10006842002000440040000C024088600240CC
:104E20000048004000140140001802408843002060
:104E300070477047FEE7000010B500211348FFF7E8
:104E4000EFFD00211248FFF7EBFD04211048FFF7AA
:104E5000E7FD08210E48FFF7E3FD0E4C0122042177
:104E60002046FEF70BFE012208212046FEF706FE33
:104E7000012210212046FEF701FE012220212046BA
:104E8000FEF7FCFD04490020086010BD2C41002005
:104E900000400020001C02403418004070B5044659
:104EA0000D462748FDF798FF002005B10120617BE2
:104EB00030EA01012173607339D020784FF0FF018F
:104EC000C207A27B03D0FF2A19D0A17332E0FF2AC8
:104ED00030D0A173E17BC1F10101E17381071FD4DF
:104EE0002169491C21616268914223D9400700D59C
:104EF000A26822611EE0400710D561680EE0E17BE8
:104F0000C1F10101E17381070AD42269521C2261B7
:104F100061688A420ED9400700D5A168216109E085
:104F20002269521E2261A1688A42E4D302E008B9D4
:104F30000020A073BDE870400A2002F055BE0000BA
:104F40004C3E002070B50478DDE9046561F300048F
:104F500062F3410463F382040470C0E901560AB1AC
:104F6000294600E031460161AE4204D30021816050
:104F70004160012070BD002070BD00001FB51348C6
:104F80001149012401604FF48031416000218160AA
:104F9000016184610E4A0162C0E90A21C4610463AF
:104FA0004461C160FDF7CBFE08B1FDF7D4FC0620DB
:104FB000CDE90004694605480294FDF713FE002878
:104FC00001D0FDF7C8FC1FBD002001404C3E002071
:104FD0000100000F0F4810B50D4901600521416027
:104FE00000214FF400328160C0E903125201C0E990
:104FF00005210122C0E9072141628162C162FEF7F9
:105000007BF8002803D0BDE81040FDF7A4BC10BD1C
:1050100000640040943E0020104810B50E49016025
:105020000521416000214FF04072C0E902124FF4A7
:10503000003202615201C0E905210122C0E90721C5
:1050400041628162C162FEF757F8002803D0BDE8D3
:105050001040FDF780BC10BD00680040D43E002029
:10506000194808B5016841F480010160016801F444
:1050700080010091016841F4001101600068002284
:1050800000F40010009005210C20FEF797FD0C2085
:10509000FEF788FD002205211020FEF78FFD10206D
:1050A000FEF780FD002205213920FEF787FD39201B
:1050B000FEF778FD002205213A20FEF77FFDBDE8CE
:1050C00008403A20FEF76EBD3038024010B59EB061
:1050D00003F094FC142222496846FBF716FA0021DB
:1050E000684602F0AAFD1F4C1D49142220601431AD
:1050F00005A8FBF70AFA002105A802F09EFD184951
:105100006060142228310AA8FBF7FFF900210AA8E1
:1051100002F093FD1249A06014223C310FA8FBF766
:10512000F4F900210FA802F088FD0D49E060142277
:10513000503114A8FBF7E9F9002114A802F07DFD15
:10514000074920611422643119A8FBF7DEF9002118
:1051500019A802F072FD606103F070FC1EB010BD72
:1051600018A40008800000202DE9F04F6E4887B099
:105170000024016841F001010160016801F00101B2
:105180000591016841F002010160016801F002012E
:105190000591016841F004010160016801F004011A
:1051A0000591016841F008010160016801F0080102
:1051B0000591016841F010010160016801F01001E2
:1051C0000591016841F020010160016801F02001B2
:1051D0000591016841F040010160016801F0400162
:1051E0000591016841F0800101600068002200F033
:1051F0008000059008214D48FEF740FC0122042163
:105200004A48FEF73BFC4FF4005700223946484815
:10521000FEF734FC002240214648FEF72FFCDFF861
:1052200018B14FF4C068002241465846FEF726FCEC
:10523000BE10002231463D48FEF720FC4FF4804965
:10524000002249463B48FEF719FC4FF4FF7A012241
:1052500051463748FEF712FC0C2000900125CDE99D
:105260000154694631480394FEF722FB0220009066
:105270003248CDE9010569462C48FEF719FB009735
:10528000CDE9015469462A480394FEF711FB4FF417
:105290009060CDE90004694629480294FEF708FBB6
:1052A00040200090CDE90154694622480394FEF75E
:1052B000FFFACDF80080CDE90154694658460394C1
:1052C000FEF7F6FA0096CDE90154694617480394B3
:1052D000FEF7EEFACDF80090CDE901546946154885
:1052E0000394FEF7E5FACDF800A0CDE90154694634
:1052F0000F480394FEF7DCFA3C200090CDE90154FE
:10530000694610480394FEF7D3FA002202210848A8
:10531000FEF7B4FB02F02AFA002231460348FEF7FA
:10532000ADFB07B0BDE8F08F3038024000100240FE
:105330000018024000140240000402400000211046
:10534000000C0240001C0240104810B50E490160DC
:105350004FF48271416000218160C1604FF400729E
:105360000161C0E905123022C0E907214162816272
:105370000A21C162FEF75AFF002803D0BDE81040A1
:10538000FDF7E9BA10BD000000300140143F0020D5
:10539000104810B50E4901604FF482714160002140
:1053A0008160C1604FF400720161C0E905123022D2
:1053B000C0E90721416281620A21C162FEF736FF1E
:1053C000002803D0BDE81040FDF7C5BA10BD0000AD
:1053D000005001406C3F002010B5174888B01549B7
:1053E000016059210024C0E9011440F2F311C0E921
:1053F0000314FFF79AFA08B1FDF7ADFA60200090A8
:10540000FA20CDE90104002269460B480494FFF715
:1054100024FA08B1FDF79FFA042269460648FFF70F
:105420001CFA08B1FDF797FA0348FFF78DF908B0A9
:1054300010BD0000001800402C41002010B521488C
:105440008AB01F490024C0E900148460C46004616C
:10545000FFF76BFA08B1FDF77EFA079407A9194820
:105460000894FFF76CF808B1FDF775FA6020CDE9F4
:10547000000402940022694612480494FFF7EDF9F3
:1054800008B1FDF768FA042269460E48FFF7E5F90E
:1054900008B1FDF760FA082269460A48FFF7DDF90E
:1054A00008B1FDF758FA0C2269460648FFF7D5F90E
:1054B00008B1FDF750FA0348FFF746F90AB010BDEE
:1054C00000000140C43F002010B523488AB04FF0CF
:1054D0008041016059210024C0E9011440F6C31144
:1054E000C0E90314FFF721FA08B1FDF734FA079475
:1054F00007A919480894FFF722F808B1FDF72BFA1D
:10550000602000904FF47A70CDE9010400226946D2
:1055100011480494FFF7A1F908B1FDF71CFA042221
:1055200069460D48FFF799F908B1FDF714FA08220A
:1055300069460948FFF791F908B1FDF70CFA0C220A
:1055400069460548FFF789F908B1FDF704FA0248F2
:10555000FFF7FAF80AB010BD0040002010B51A4855
:105560008AB018490160B3210024C0E90114C46065
:105570000461FFF7DAF908B1FDF7EDF9079407A91F
:1055800011480894FEF7DBFF08B1FDF7E4F960204D
:10559000CDE900040294002269460B480494FFF709
:1055A0005CF908B1FDF7D7F9042269460648FFF710
:1055B00054F908B1FDF7CFF90348FFF7C5F80AB071
:1055C00010BD0000000400403C40002010B5214800
:1055D0008AB01F490024C0E900148460C4600461DB
:1055E000FFF7A3F908B1FDF7B6F9079407A9194821
:1055F0000894FEF7A4FF08B1FDF7ADF96020CDE9EE
:10560000000402940022694612480494FFF725F929
:1056100008B1FDF7A0F9042269460E48FFF71DF90D
:1056200008B1FDF798F9082269460A48FFF715F90D
:1056300008B1FDF790F90C2269460648FFF70DF90D
:1056400008B1FDF788F90348FFF77EF80AB010BDEE
:10565000000800407840002010B524488AB0224954
:10566000016059210024C0E901144FF4FA61C0E936
:105670000314FFF75AF908B1FDF76DF9079407A96C
:105680001A480894FEF75BFF08B1FDF764F9602043
:1056900000904FF47A70CDE9010400226946134866
:1056A0000494FFF7DAF808B1FDF755F904226946CA
:1056B0000E48FFF7D2F808B1FDF74DF90822694608
:1056C0000A480194FFF7C9F808B1FDF744F90C2224
:1056D00069460648FFF7C1F808B1FDF73CF90348F1
:1056E000FFF732F80AB010BD000C0040B4400020B3
:1056F00010B52B4890B029490024C0E900148460FB
:10570000C46004614461FFF710F908B1FDF723F9A3
:105710000E940EA922480F94FEF711FF08B1FDF771
:105720001AF90794089409944FF400500A94CDE9AB
:105730000B4007A91A480D94FEF7E0FE08B1FDF7EB
:105740000AF96020CDE900040294039404940594BE
:105750000022694612480694FFF77FF808B1FDF76A
:10576000FAF8042269460E48FFF777F808B1FDF70A
:10577000F2F8082269460A48FFF76FF808B1FDF70A
:10578000EAF80C2269460648FFF767F808B1FDF70A
:10579000E2F80348FEF7D8FF10B010BD0004014046
:1057A000F04000200D4810B50B4901600C494160E4
:1057B00000214FF480628160C0E903120C22C0E92D
:1057C0000521C161FFF7DCF9002803D0BDE81040D6
:1057D000FDF7C1B810BD0000001001406841002075
:1057E000A08601000C4810B50A4901604FF4E13170
:1057F0004160002181600C22C160C0E90412816116
:10580000C161FFF7BDF9002803D0BDE81040FDF7E6
:10581000A2B810BD00440040A84100200C4810B5BB
:105820000A4901604FF4E1314160002181600C229E
:10583000C160C0E904128161C161FFF7A1F90028CC
:1058400003D0BDE81040FDF786B810BD0048004009
:10585000E84100200C4810B50A4901604FF4E131DD
:105860004160002181600C22C160C0E904128161A5
:10587000C161FFF785F9002803D0BDE81040FDF7AE
:105880006AB810BD00140140284200203CB5DFED8D
:105890004E1A10EE103A4D4A9FED4D2A4D4CDFED59
:1058A0004E2A934202DDB0EE420A05E010EE103AB5
:1058B000A34201D9B0EE620A10EE903A934202DDA3
:1058C000F0EE420A05E010EE902AA24201D9F0EE75
:1058D000620A11EE102A414C414BA24202DD9FEDBB
:1058E000411A05E011EE102A9A4201D99FED3E1AA5
:1058F00030EEC02A00236C4632EE412ABDEEC22AA9
:1059000012EE102AB1EE402AADF8002032EE602AE5
:1059100032EE412ABDEEC22A12EE102A30EE602A83
:1059200030EE200AADF8022032EE412A30EE410A74
:10593000BDEEC22ABDEEC00A12EE102AADF8042058
:1059400010EE102AADF8062034F91320002A01DDEC
:10595000154600E0554200EE105AB8EEC00AB4EE0B
:10596000E10AF1EE10FA06DD002A00DC524200EEF8
:10597000102AF8EEC01A5B1C042BE5DB00EE100ABF
:10598000B8EEC00AF4EEC01AF1EE10FA17DD00EE20
:10599000100A0020F8EEC00A80EEA10A34F91020A7
:1059A00000EE902AF8EEE00A60EE800AFDEEE00AD2
:1059B00010EE902A24F81020401C0428EEDB0098FA
:1059C0000860019848603CBD0000000000C05A46D5
:1059D00000C05A4600C05AC600C05AC600401C4605
:1059E00000401CC600401C4600401CC6FEE7704735
:1059F0000907090E002806DA00F00F0000F1E02088
:105A000080F8141D704700F1E02080F80014704702
:105A1000074882B00068016841680091C16841F0A0
:105A20001001C16008220349014802B000F066BDC0
:105A300028420020A000002030B4034C4466034CF0
:105A4000846630BC02F0F8B9397E0008477E000851
:105A500070B5054608880C46C0F30A02A2F58062BC
:105A60002A8048788978C00840EA4110C0F30A03C8
:105A7000A3F580636B80A078E178800940EA81001B
:105A8000217902F5257240EA8120C0F30A01A1F5CF
:105A90008061A98020796679400840EAC610C0F389
:105AA0000A00A0F58060E8806679B6092E726679F2
:105AB000C6F301166E724FF4A566B2420BD803F519
:105AC0002573B34207D801F52571B14203D800F51B
:105AD0002570B04203D916212846FAF750FDE08818
