:020000040800F2
:10000000B05400207D02000813430008593700084F
:1000100011430008410D0008394F0008000000009E
:10002000000000000000000000000000C101000806
:10003000951200080000000015020008B9460008EB
:10004000970200089702000897020008970200082C
:10005000970200089702000897020008970200081C
:10006000970200089702000897020008970200080C
:1000700099110008970200089702000897020008EB
:10008000A51100089702000897020008510D00080A
:10009000450D000897020008970200089702000823
:1000A00097020008970200089702000897020008CC
:1000B00097020008970200089702000897020008BC
:1000C00097020008970200089702000897020008AC
:1000D00097020008CD4D0008E54D0008F14D0008DD
:1000E000970200089702000897020008970200088C
:1000F000970200089702000897020008970200087C
:10010000970200089702000897020008970200086B
:100110009702000897020008B547000897020008F8
:1001200097020008B1110008BD11000897020008ED
:10013000970200089702000897020008690D00085E
:100140005D0D00089702000897020008970200085A
:10015000970200089702000897020008094E00085D
:10016000970200089702000897020008970200080B
:10017000970200089702000897020008000000009C
:1001800097020008970200089702000897020008EB
:1001900097020008970200089702000897020008DB
:1001A000000000000000000097020008DFF80CD0FB
:1001B00000F0E2FB00480047B5690008B054002099
:1001C0002B4B19680868B0E8F04F80F30988BFF33B
:1001D0006F8F4FF0000080F311887047000000001F
:1001E00006480068006880F3088862B661B6BFF30D
:1001F0004F8FBFF36F8F00DF00BF00BF08ED00E03F
:10020000DFF80C00016841F470010160704700BF25
:1002100088ED00E0EFF30980BFF36F8F144B1A688D
:100220001EF0100F08BF20ED108A20E9F04F10607B
:1002300008B44FF0500080F31188BFF34F8FBFF325
:100240006F8F07F02FFF4FF0000080F3118808BC7C
:1002500019680868B0E8F04F1EF0100F08BFB0EC46
:10026000108A80F30988BFF36F8F704700BF00BF0B
:1002700008000020EFF30580704700000648804723
:1002800006480047FEE7FEE7FEE7FEE7FEE7FEE77B
:10029000FEE7FEE7FEE7FEE761470008AD01000864
:1002A00040EA01039B0703D009E008C9121F08C0F8
:1002B000042AFAD203E011F8013B00F8013B521E78
:1002C000F9D27047D2B201E000F8012B491EFBD2EF
:1002D00070470022F6E710B513460A460446194651
:1002E000FFF7F0FF204610BD2DE9FE4F804681EA62
:1002F0000300C00F0C46009021F0004123F00045A0
:10030000B8EB0200A94105D24046214690461C4662
:100310000B46024623F00040104347D0270DC7F399
:100320000A00C3F30A510290401A019040286BDA88
:10033000C3F3130040F4801B0098924620B10023C1
:10034000D2EB030A63EB0B0B01985946C0F1400254
:10035000504600F034FA06460D4650465946019A7A
:1003600000F04CFA10EB08006141002487EA1152BA
:1003700084EAE7731A4340D0009A62B3019A012AD3
:100380004FEA075215DC001B61EB02014FF00042FF
:1003900002EA0752CDE90042001C41F580113246C5
:1003A0002B4600F083FA03B0BDE8F08F40462146AB
:1003B000F9E7001B61EB0201001C41F580130018F6
:1003C0005B412018A2F5001747EB030140EAD57006
:1003D000B6196D4111E06D084FEA360645EAC07561
:1003E0004FEA0752001B61EB0201001C41F580112E
:1003F00049084FEA30000019514132462B4603B0FC
:10040000BDE8F04F00F043BA0098012240000023FD
:10041000D0EB020263EBE073009821464FEAE074F0
:10042000B8EB000061EB0401E9E783F000435BE710
:1004300081F0004158E72DE9FE4F81EA030404F002
:10044000004421F0004100944FF0000B23F00043E2
:1004500050EA01045ED052EA03045BD0C3F30A54AD
:10046000C1F30A552C44A4F2F3340194A0FB0254C6
:10047000C1F3130141F48011C3F3130343F4801358
:1004800001FB024400FB034E840A970A44EA8154AC
:1004900047EA8357A4FB076802958D0A05FB078589
:1004A0004FEA932C04FB0C542705029D4FEA065893
:1004B00047EA1637B5EB08056EEB070C870E920E70
:1004C00047EA811742EA8312A7FB0201B6EB0B0150
:1004D00064EB00042B0D43EA0C335E1844EB1C5014
:1004E000DA465146E7FB0201C5F313044FEA0B332A
:1004F00043EA14534FEA0432019C43EA0603A4F191
:100500000C040294009CCDE900B400F0CFF903B0D4
:10051000BDE8F08F00200146F9E72DE9F04D81EAB2
:10052000030404F0004B21F0004514464FF0000A8C
:1005300023F0004150EA050220D054EA01021DD008
:10054000C5F30A570246C5F31303C1F31300C1F301
:100550000A5640F4801543F48013A7EB0608101BDD
:10056000D64608F2FD3873EB050002D308F1010806
:1005700001E092185B41B8F1000F03DA0020014658
:10058000BDE8F08D00204FF48011064684460EE051
:10059000171B73EB050705D3121B63EB050306431B
:1005A0004CEA010C49084FEA300092185B4150EACE
:1005B0000107EDD152EA030012D082EA040083EA77
:1005C0000501084305D0101BAB4106D201220023D0
:1005D00006E000224FF0004302E06FF001025310EA
:1005E0001AEB06004CEB085110EB0A0041EB0B0133
:1005F000BDE8F04D00F04BB90EB5C10F80EAE070D8
:100600000844CA07002140F233438DE80E000A4631
:100610000B4600F04BF903B000BD0EB540F233417C
:1006200002910021CDE900110A460B4600F03EF987
:1006300003B000BD70B5C1F30A5201F000450024BB
:10064000C1F3130140F2FF3341F480119A4201DA01
:10065000002070BD40F233439A42A2F2334203DCE1
:10066000524200F0BBF800E090402C43F1D04042F1
:1006700070BD00F0004230F000400AD0C10D01F51D
:100680006071C0F3160042EA0151C20840071143ED
:10069000704700200146704730B5041E71F1000418
:1006A00004DB4FF00044404264EB0101141E73F17F
:1006B000000405DB1C464FF00043524263EB040389
:1006C0008B4208BF824230BD30B5041E71F1000478
:1006D00004DB4FF00044404264EB0101141E73F14F
:1006E000000405DB1C464FF00043524263EB040359
:1006F000994208BF904230BD01F0004330B421F070
:10070000004150EA010206D00A0DA2F56072C1F361
:100710001301002A02DC30BC00207047440F44EA79
:10072000C104C100E01830BC00EBC25000F078B842
:1007300030B50B46014600202022012409E021FAB1
:1007400002F59D4205D303FA02F5491B04FA02F5AE
:100750002844151EA2F10102F1DC30BD2DE9F05F45
:100760000546002092469B46884606468146402420
:100770001BE0284641464746224600F02FF85346E4
:100780005A46C01A914110D311461846224600F02D
:1007900016F82D1A67EB01084F462246012000216A
:1007A00000F00DF817EB00094E41201EA4F10104E2
:1007B000DFDC484631462A464346BDE8F09F202A02
:1007C00004DB203A00FA02F1002070479140C2F1A8
:1007D000200320FA03F3194390407047202A04DBDA
:1007E000203A21FA02F00021704721FA02F3D040AA
:1007F000C2F120029140084319467047202A06DBC7
:10080000CB17203A41FA02F043EAE07306E041FADE
:1008100002F3D040C2F120029140084319467047CC
:100820000029A8BF7047401C490008BF20F0010004
:10083000704710B4B0FA80FC00FA0CF050EA0104E2
:1008400004BF10BC704749B1CCF1200421FA04F474
:1008500011FA0CF118BF012121430843A3EB0C014D
:10086000CB1D4FEA00614FEA102042BF002010BCB0
:10087000704700EBC35010440029A4BF10BC704760
:10088000401C490008BF20F0010010BC704710B5A3
:10089000141E73F1000408DA401C41F100019218A3
:1008A0005B411A4301D120F0010010BD2DE9F04D4C
:1008B00092469B4611B1B1FA81F202E0B0FA80F2A1
:1008C00020329046FFF77BFF04460F4640EA0A00BD
:1008D00041EA0B0153465A46084313D0114653EAE6
:1008E000010019D0C8F140025046FFF777FF0546D6
:1008F0000E46504659464246FFF761FF084305D071
:10090000012004E020463946BDE8F08D0020054373
:1009100046EAE0762C4337430A986305E40AA0EBE5
:1009200008000022FD0A44EA47540A3002D500209C
:100930000146E9E7010510196941DDE9084500199B
:100940006941BDE8F04DA2E7C1F30A52C1F31301BA
:1009500040F2FF3341F480119A4202DA002001464E
:10096000704740F233439A42A2F2334202DC5242D1
:10097000FFF734BFFFF723BF064C074D06E0E068E2
:1009800040F0010394E8070098471034AC42F6D3D6
:10099000FFF710FCB09C0008D09C00084A4910B535
:1009A000D1F8042322F44032C1F80423D1F80423FF
:1009B00043681A43C1F8042301684A6822F480722C
:1009C0004A6001684A68036942EA03224A60016892
:1009D0004A6822F040724A6001684A6883681A4394
:1009E0004A6001688A6822F400628A6001688A6845
:1009F000C3681A438A60816A6FF07062D1420168ED
:100A00008A6822F070628A6001688A680CD0836A02
:100A10001A438A6001688A6822F040528A6001683D
:100A20008A68C36A1A4301E022F040528A60016872
:100A30008A6822F002028A6001688A68836942EA51
:100A400043028A60016A002901684A6815D042F4AD
:100A500000624A6001684A6822F460424A600168A4
:100A60004B684FF46044426A94FAA4F4B4FA84F4F4
:100A7000521EA24013434B6002E022F400624A601F
:100A80000168CA6A22F47002CA620168CA6A838B6A
:100A90000E4C04EB03531A43CA6201688A6822F4BD
:100AA00000728A6001688A68036B42EA43228A60A6
:100AB00001688A6822F480628A6001688A684069F5
:100AC00042EA8020886010BD002001400000F0FF55
:100AD00070B56E496E4C6F4D4FF400522DED048B86
:100AE000B0F5805F498908D3914203D8A0F58052C0
:100AF00091420ADC01F5005107E0914205D800F56A
:100B00008052914201D9A1F50051081A80B220808B
:100B1000FFF783FD9FED601B53EC112BFFF78BFC60
:100B2000FFF7EAFDE06095ED000B9FED5D1B51ECDA
:100B3000100B53EC112BFFF7AFFD36D194ED030AE8
:100B4000DFED590A60EE200A9FED581A80EE810A07
:100B500010EE100AFFF78DFD41EC180BB0EE480ABD
:100B6000F0EE680A04F0ACFB84ED080BB0EE480A26
:100B7000F0EE680A04F008FC84ED060B95ED028B9C
:100B8000B0EE409AF0EE609A51EC180B81F0004103
:100B900053EC192BFFF74FFCC5E9000194ED080B4E
:100BA00051EC180B53EC102B68E095EC040B53EC54
:100BB000102B51EC110BFFF7B0FC41EC100B04F0C3
:100BC00013FA84ED0A0B04F07BFB84ED080B95ED22
:100BD000001B53EC102B51EC110BFFF79EFCFFF7A1
:100BE0008BFDA0609FED329B94ED0A0B53EC192B0B
:100BF00051EC100BFFF71FFC9FED2F1B53EC112B3B
:100C0000FFF78BFC41EC180B84ED0C8BE068FFF7D1
:100C100030FD53EC182BFFF767FB9FED291B53ECBE
:100C2000112BFFF708FC53EC192BFFF776FC41EC76
:100C3000180BB0EE480AF0EE680A04F041FB84EDB0
:100C4000080BB0EE480AF0EE680A04F09DFB84ED54
:100C5000060BA068B0EE408AF0EE608A0646FFF709
:100C600008FD94ED081B53EC112BFFF7E4FBC5E9DD
:100C700000013046FFF7FDFC53EC182BFFF7DBFBC0
:100C8000C5E90201BDEC048B70BD00009C4500204D
:100C9000B0000020904E0020000000000080A63F21
:100CA0000000000000000000DB0F4940000034435A
:100CB00000000000008066406F1283C0CA21094016
:100CC00000000060FB21094030B51B4A4FF48054FE
:100CD0001046D18963004089A14208D3984203D8C5
:100CE000A1F58055A8420ADC00F5005007E09842C3
:100CF00005D801F58055A84201D9A0F50050401A49
:100D0000D0800E4A1046D1894089A14208D398422A
:100D100003D8A1F5805398420ADC00F5005007E0A3
:100D2000984205D801F58053984201D9A0F50050AA
:100D3000401AD08030BD00006C4500209C4500204A
:100D4000FEE70000014800F0A9BD00009C3E002025
:100D5000014800F0A3BD00009C3E0020014800F0C7
:100D60009DBD0000DC3E0020014800F097BD000062
:100D7000DC3E002010B54FF4D872036802EB01127C
:100D80009B5813F00404436B9C600468436BA458A5
:100D900054D0E4085C6003689A58436B02F0020286
:100DA000DA604FF4DA72036802EB01129B58446B6D
:100DB00003F00F03236103689A58436BC2F30722C1
:100DC000DA614FF4DC72036802EB01129B58446B4A
:100DD000237503689B58446B1B0A637503689B5813
:100DE000446B1B0CA37503689A58436B120EDA759B
:100DF0004FF4DE72036802EB01129B58446B2376BA
:100E000003689B58446B1B0A637603689B58446BCA
:100E10001B0CA37603689A58436B120EDA762022D5
:100E2000002901680DD00A6101684A6922F01002A8
:100E30004A6190F83810222909D021E0640D1C6025
:100E4000A9E7CA6001684A6922F00202F0E7016876
:100E50004A6922F480724A6101684A6922F4007288
:100E60004A6101684A6922F480624A6101684A69FC
:100E700022F400624A6101684A6922F400424A6130
:100E800090F83810322907D05FF0010180F838104F
:100E900000F01CFF002010BD1221F7E710B501681B
:100EA0004A6922F001024A6190F83810122918D1DB
:100EB00001684A6922F480724A6101684A6922F431
:100EC00000724A6101684A6922F480624A610168DD
:100ED0004A6922F400624A6101684A6922F40042C8
:100EE0004A6190F83810322906D0012180F8381074
:100EF00000F0F2FF002010BD2221F7E72DE9F041BC
:100F000000212DED028B1D4802F01CFA04211B4824
:100F100002F018FA0821194802F014FA0C211748B7
:100F200002F010FA164805F0B1FD0021144800F057
:100F300089FE0021134800F085FE134D9FED138AB2
:100F400000244FF4FA6640F6AC5700BF04EBC4002F
:100F5000F0EE480A00EB400005EB8000B0EE601AAE
:100F6000B7EE080A33463A46032103F0F7F9641C4A
:100F7000042CEBDBBDEC028BBDE8F081BC40002013
:100F80009C3E0020DC3E0020E8470020CDCCCC3D3C
:100F90002DED068B82B0FFF7B1FF05F080FFDFF883
:100FA000D891744DDFF8D4A1754F764C002641F6E8
:100FB000B32BA9F1100801900A2101A805F063FFE5
:100FC0002878401F0B28F7D2DFE800F00615070647
:100FD0000657070606150700EEE731464A46A9F808
:100FE0000060012022F81010401C0428FADB62483F
:100FF00003F0FCFAE0E738886FF0090110FB01F01C
:10100000FFF7FAFAC4E9000179886FF0090011FBD3
:1010100000F0FFF7F1FAC4E90201B8886FF00901A6
:1010200010FB01F0FFF7E8FAC4E904015846FFF7A6
:101030004FFD94ED040B51EC100BFFF75DFB94EDAD
:10104000020B08EE100A51EC100BFFF755FB94ED64
:10105000000B08EE900A51EC100BFFF74DFBD8ED9A
:10106000010A00EE100A4449FDEEE00AB0EE481A0B
:1010700010EE900AF0EE680A75E0DAF800000090D1
:101080004FF22812007800F0010111FB02F1C0F3C9
:10109000400040F2DB1210FB02F001EBC000FFF752
:1010A000ABFA41EC190B4FF2281284ED029B009829
:1010B0000078C0F3C00111FB02F1C0F3800040F2E0
:1010C000DB1210FB02F001EBC000FFF795FA41ECD8
:1010D000180B84ED008B00980078C10646D480067A
:1010E00012D59FED29AB00BF53EC1A2B51EC190B15
:1010F000FFF7A1F9C4E9020153EC1A2B51EC180BCC
:10110000FFF799F9C4E90001B8896FF0C70110FB36
:1011100001F0FFF771FAC4E904015846FFF7D8FC63
:1011200094ED040B51EC100BFFF7E6FA94ED020B73
:1011300008EE900A51EC100BFFF7DEFA94ED000B6D
:1011400008EE100A51EC100BFFF7D6FAD8ED010AA1
:1011500000EE100A0849FDEEE00AB0EE681A10EE43
:10116000900AF0EE480A03F023F840E79FED08AB41
:10117000BAE70000A8000020C0000020AC0000205A
:101180000E460020904E0020000000000000E03FCE
:101190000000000000000040014800F0B1BE000067
:1011A00030430020014800F0ABBE0000D0420020D8
:1011B000014800F0A5BE000090430020014800F067
:1011C0009FBE00007042002001681823CAB2103A86
:1011D000B2FBF3F2054B6FF30901032A9B5CC36575
:1011E00000D9091D8165084670470000AC8A0008D7
:1011F00010B5014600208B698A6A4FF0C07453B164
:10120000B3F5005F15D072B1012A0CD0022A0AD0C2
:10121000032A09D104E01AB1012A06D0022A03D117
:10122000C96AC90100D5012010BDC96AA142FAD01E
:1012300010BD002AF7D0012AF2D0022AF3D0032AE7
:10124000F3D010BD30B50468256825F480252560ED
:10125000046863608368402B036803D0996000686A
:10126000C26030BD9A600068C16030BD074882B07E
:101270000068016841680091C16841F01001C160D7
:1012800032220349014802B003F0CABD7041002078
:10129000FC4500207047FEE710B558B1084C491EC8
:1012A0000BD310F8013B5340DBB234F8133083EA20
:1012B0001222F4E74FF6FF7010BD104610BD00007B
:1012C0003C8C000810B5054C04E000BF10F8013B51
:1012D0005340E25C491EF9D2104610BD3C8B000819
:1012E00010B500F017F80021074802F02BF8074866
:1012F00041F6C56140F6AA22C1810549CA81002292
:1013000002820A8210BD0000084000209C45002097
:101310006C45002070B541F2883447F230552DED10
:10132000028B23469FED1D1ADFED1D0A9FED1D0A5E
:101330002A4603211C4803F011F89FED1C8A4FF444
:101340008052B2EE041AF0EE480A9FED190A1346D5
:101350000321184803F002F8DFED178AF0EE480A7F
:10136000B3EE0E0AB0EE681A23462A46032113484C
:1013700002F0F4FFB0EE681AF0EE480AB7EE080A81
:1013800023464FF4804203210D4802F0E7FFBDECF5
:10139000028B6420BDE8704000F011BF0040E643BE
:1013A000CDCCCC3E0000F14210470020CDCCCC3D4E
:1013B00033335340A4460020000000007C47002047
:1013C000984900202DED028B82B0FFF789FF05F0D0
:1013D00066FD434F434D444CDFF810A140F2B63850
:1013E0004FF080464FF4C8694FF4C87B009001214C
:1013F000684605F048FDFFF767FC3878401F0B286A
:10140000F5D2DFE800F0060707061B2F1B060E0EBD
:101410000E00ECE72888002102B2084603F074F8B9
:101420005CE0E0882A88404201B2608912B2400044
:1014300000B203F069F8C6F83C804FE0E0882A88E3
:10144000404201B2608912B2400000B203F05CF881
:10145000C6F83C9040E000BF4FF40051244800F033
:101460009FFFC4E7234800680178090601D5C6F844
:101470003C804078C00701D0C6F83C90B4F90E001B
:10148000FFF7BAF89FED1C1B53EC112BFEF7D3FFAF
:1014900041EC180BBAF90000FFF7AEF853EC182B2B
:1014A000FEF722FFFFF7C6F800B2AAF80000584581
:1014B00002DDAAF800B004E0114A904201DAAAF86D
:1014C00000202988B4F90A000AB2BAF9001003F022
:1014D0001BF80C48C07B08B10122BDE70022BBE726
:1014E000A8000020EC0000200E460020E8000020AC
:1014F00000180240AC000020CDCCCCCCCCCCF43FCA
:1015000044FDFFFF184E002078B50024009490F8A9
:101510003C20012A19D0012280F83C200A680723C8
:101520000568092A13D9EE680A3A02EB4202934091
:101530009E43EE600B788A680A3B03EB43039A40B4
:101540000368DD682A43DA6010E0022078BD2E6966
:1015500002EB420293409E432E610A788B6802EBB5
:1015600042029340026815692B4313614A681F23A6
:10157000072A13D205686E6B521E02EB820293405B
:101580009E436E630A8893B20A79521E02EB82026E
:1015900093400268556B2B43536327E005680D2A7F
:1015A00012D22E6BD21F02EB820293409E432E6317
:1015B0000B790A88DB1F92B203EB83039A4003681E
:1015C0001D6B2A431A6311E0EE6A0D3A02EB8202A8
:1015D00093409E43EE620B790A880D3B92B203EB77
:1015E00083039A400368DD6A2A43DA62174A036874
:1015F000934208D10B68122B05D1D2F8043343F47F
:101600008003C2F80433036893421BD1104B0D686A
:101610009D4201D0112D15D1D2F8045345F4000597
:10162000C2F80453096899420CD10A490A4A096868
:10163000B1FBF2F101EB8101490000E0491E00918C
:101640000029FBD180F83C40002078BD00200140FB
:10165000120000100400002040420F000068C06C1F
:10166000704770B504004FF0000503D0206C0026D1
:1016700010B107E0012070BD666484F83C6020462C
:1016800000F01AF8206CC00610D4206C20F48850AA
:1016900040F0020020642046FFF780F96664206C69
:1016A00020F0020040F00100206400E0012584F8F1
:1016B0003C60284670BD000000B500680C4987B04A
:1016C000884212D10B480021026842F48072026005
:1016D000006800F480700590402000900320CDE960
:1016E00001016946044800F075FD07B000BD000027
:1016F00000200140443802400000024018B500219B
:10170000009190F83C20012A07D0012280F83C206B
:1017100002689368DB0702D011E0022018BD9368CD
:1017200043F001039360204A204B1268B2FBF3F2AE
:1017300002EB420200E0521E0092002AFBD1026836
:101740009368DB072DD0036C40F20164A34343F49C
:101750008073036453685B0505D5036C23F4005361
:1017600043F480530364036CDB0404D5436C23F01F
:101770000603436400E0416480F83C106FF02201EE
:1017800011600B49D1F804230068D20601D08842C9
:1017900007D1816811F0405F03D1816841F0804139
:1017A0008160002018BD00000400002040420F00AE
:1017B00000200140F0B50A7D01209040344A1368B2
:1017C00043F001031360136823F47C531360136820
:1017D0004C6A43EA042313602D4B1C331C6884437A
:1017E0001C602B4D2B4CCE690C35A6B92E68864358
:1017F0002E608F894E6867F31F464F6904EBC70759
:10180000C7F840660F890E6867F31F464F6904EBFF
:10181000C707C7F84466CE69012E14D12E68064367
:101820002E600E884D6866F31F454E6904EBC606B0
:10183000C6F840560E89CD6866F31F454E6904EB25
:10184000C604C4F84456124C8D69241D002D256829
:1018500006D0054325600E4C0D69143415B104E023
:101860008543F7E72568854325600D69012D02D181
:10187000256805432560096A012902D119680143D9
:101880001960106820F0010010600020F0BD000019
:1018900000660040006000407047000010B504463C
:1018A00000684169C943C90714D182685849914306
:1018B00068D000218368574A9A4365D00022836824
:1018C0005548984362D000201143014302D020467E
:1018D000FFF7E4FA2068C168406911F0030FC0F314
:1018E000400004D018B100212046FFF743FA2168D8
:1018F0000869496910F0030FC1F3001104D019B150
:1019000001212046FFF736FA20688169426911F00B
:10191000010FC2F300234269C2F3C03205D023B1E4
:101920001AB1E16B41F00101E1638169C1F3400348
:1019300041694269C1F34021C2F3C0322BB121B1E8
:101940001AB1E16B41F00201E16381694269C1F3BF
:101950008001C2F380234269C2F3C03229B123B1AE
:101960001AB1E16B41F00401E163816911F0700F7C
:101970000ED0002142694369C2F3C022C3F3C033D1
:1019800041B127E0012195E7012298E701209BE77B
:101990000121EFE7F2B1EBB1816901F0700140295B
:1019A00029D006DC102909D020290BD030290DD1EF
:1019B0001DE0502923D0602908D124E0E16B41F0DB
:1019C000080102E0E16B41F01001E163816921F05F
:1019D00070018161E06B002808D021680420486014
:1019E000012084F838002046FFF756FF10BDE16B58
:1019F00041F02001E9E7E16B41F04001E5E7E16BEF
:101A000041F08001E1E7E16B41F48071DDE7000026
:101A10000300000400030008000003102DE9F0415A
:101A2000040004D094F83800002518B107E0012024
:101A3000BDE8F08184F83950204600F093F8022088
:101A400084F838002068016821F0020101602068F4
:101A5000016841F00101016000F0A8FC074603267F
:101A600005E000BF00F0A2FCC01B0A2863D8206874
:101A70004068C007F6D020684168C90768D0A169EE
:101A8000012901683FD021F080010160E06901284F
:101A9000206801683AD021F040010160206A0128E5
:101AA0002068016835D021F020010160606A0128BA
:101AB0002068016830D021F010010160A06A01287F
:101AC000206801682BD021F008010160E06A01283C
:101AD0002068016826D021F004010160D4E90201E8
:101AE0000843D4E90412114308436168491E0843BE
:101AF0002168C8612068016821F00101016000F0DF
:101B000055FC07461CE041F08001BEE741F0400172
:101B1000C3E741F02001C8E741F01001CDE741F0F3
:101B20000801D2E741F00401D7E700BF00F03EFC16
:101B3000C01B0A2804D904F8386F0320657077E7C2
:101B400020684068C007F1D120684068C00703D012
:101B5000042084F838006AE7E563012084F838003F
:101B6000002065E7F0B5324B0768DFF8C0C01868A1
:101B70000322022409252F490026401C87B067450F
:101B800021D11860012807D1086840F00070086072
:101B9000086800F0007005908DE85400CDE9032539
:101BA0006946254800F016FB00220521132000F0AD
:101BB00097FC132000F088FC00220521142000F07F
:101BC0008FFC14202EE0DFF874C067452CD10F681D
:101BD00047F080670F600F68012807F0806705975E
:101BE000186007D1086840F000700860086800F0CD
:101BF000007005904FF440508DE85100CDE9032569
:101C000069460F4800F0E6FA002211463F2000F036
:101C100067FC3F2000F058FC00221146402000F0F5
:101C20005FFC402000F050FC07B0F0BD00640040B5
:101C30007C00002040380240000C02400068004058
:101C40000004024010B590F83820012A01D0122A71
:101C500039D190F83920012A35D0012280F8392075
:101C600090F83820122A29D05FF0220280F838201C
:101C70000022C26303685C6944F480745C61036899
:101C80005C6944F400745C6103685C6944F48064DA
:101C90005C6103685C6944F400645C6103685C69CE
:101CA00044F400445C6180F83920006800294169EF
:101CB00006D041F010014161002010BD3222D5E76D
:101CC00041F00201F7E7022010BD000000B5416BB2
:101CD0000968A1F20121072914D2DFE801F0040408
:101CE000040420240F00124AC9B21170114A01EBFA
:101CF000410102EB01120146104601E001460E4887
:101D000004F0A2FD0D480068416941F00201416103
:101D10000B480068416941F00201416100BD014684
:101D200005483038ECE7014603486038E8E7000032
:101D3000980000202C440020CC4500209C3E002030
:101D4000DC3E00202DE9F05F0E46016804468868FD
:101D5000400105D48868000102D48868C00067D5B6
:101D600094F8390001280ED0012784F8397094F8CE
:101D7000380022280AD0122084F8380088684001F0
:101D800006D500250AE00220BDE8F09F3220F3E7E7
:101D90008868000101D5012500E002254FF4C070DC
:101DA00000EB05100A5802F001020A50216B8A6804
:101DB000EAB3D4F800C05CF800301343CA6849683D
:101DC00042EAC1010B434CF80030216B0A7C02F05F
:101DD0000F020A614FF4C271226801EB05115358DA
:101DE00023F00F03535022685358D4F830C0DCF866
:101DF00010C043EA0C035350216B4FF4C47303EB40
:101E000005130A7DD1F8151042EA01212268D1504C
:101E1000216B4FF4C67303EB05130A7ED1F819103A
:101E200042EA01212268D15021680A5801E00DE000
:101E300046E042F001020A5000F0B8FA81464FF045
:101E40000008DFF888A0DFF888B019E0226813588E
:101E5000D1F80CC0098843EA0C0343EA4151115000
:101E6000B3E7701C0CD02EB100F0A0FAA0EB090073
:101E7000B04205D9032084F8380084F8398083E71C
:101E800095B12068012D816813D01248884300283D
:101E9000E7D194F8380032280ED084F8387000BFAB
:101EA00084F8398000206FE7206881682AEA010001
:101EB000EDE72BEA0100EAE7222084F83800EFE79B
:101EC000042084F8380001205EE7000003000004CD
:101ED0000003000800000310704790F83510022935
:101EE00003D08021416501207047052180F835101D
:101EF0000068016821F001010160002070470000C6
:101F00002DE9F84304464FF00008CDF800806448FE
:101F10004FF41651A56D0068B0FBF1F72E6894F8E8
:101F20005C10082000FA01F131420FD021680A68E4
:101F300052070BD50A6822F004020A6094F85C107C
:101F40008840A860606D40F00100606594F85C1006
:101F500054488840304208D021684969090604D5B0
:101F6000A860606D40F0020060654E4894F85C1017
:101F7000C01C8840304208D021680968890704D510
:101F8000A860606D40F00400606594F85C1010205B
:101F90008840304218D021680968090714D5A86024
:101FA00020680168490304D50068000308D5A16CC6
:101FB00007E00168C90503D4016821F00801016048
:101FC000216C09B12046884794F85C102020884095
:101FD00030424FF0010631D021680968C9062DD57D
:101FE000A86094F8350005282068016806D04903E8
:101FF00047D5006800031DD4616C1CE021F0160178
:1020000001602068416921F080014161206C08B9BC
:10201000A06C20B12068016821F00801016094F8EB
:102020005C103F208840A86084F8348084F83560D4
:10203000216D1FE0E16B09B120468847606D0028E3
:102040002BD0606DC00714D0052084F835002068BF
:10205000016821F0010101600098401C0090B84225
:1020600003D820680068C007F6D184F8348084F86B
:102070003560E16C002910D001B02046BDE8F04386
:1020800008470168C905D5D4016821F01001016035
:1020900084F8348084F83560CCE7BDE8F88300002C
:1020A00004000020010080002DE9F041044600F00A
:1020B0007DF906465CB1002584F83450022084F88E
:1020C00035002068016821F0010101600DE0012068
:1020D000BDE8F08100F06AF9801B052805D92020B1
:1020E0006065032084F83500F2E720680068C007C7
:1020F000F0D1226811681F480140D4E90103184358
:10210000D4E903363343184363691843A36918437A
:10211000E3691843236A18430843616A042903D119
:10212000D4E90B1319430843106020684069666ABC
:1021300020F0070130460E43012704280AD1A06A87
:1021400006432046FFF754F820B14020606584F82C
:102150003570BCE7206846612046FFF735F894F8F3
:102160005C203F2191408160656584F835700020D6
:10217000AEE700003F8010F070B5044690F83400E0
:10218000002501280CD0012084F8340094F8356033
:102190000020012E06D084F834000225284670BDA8
:1021A000022070BD022684F8356060652046FFF786
:1021B00049F82068016841F001010160EEE731B59E
:1021C00000F0F4F8044600F0F1F80099001B884292
:1021D000F9D338BD2DE9F84FDFF890B100224FF068
:1021E00001084FF0030A4FF00F090BF1040E00BF76
:1021F0000B6808FA02F42340A3426ED14D68022D09
:1022000001D0122D0ED1D50800EB850CDCF8205042
:102210005607F70E09FA07F6B5430E69BE402E437E
:10222000CCF82060066855000F790AFA05FC07F023
:10223000030726EA0C06AF40374307604E68012EBD
:1022400005D0022E03D0112E01D0122E0ED1876898
:10225000CE6827EA0C07AE403E4386604668A64338
:102260000C79C4F30014944034434460C4688E680D
:1022700024EA0C04AE402643C6604C68E4006FD5E7
:102280003B4C256845F480452560246822F0030511
:1022900004F480440094374C2E19D6F8084895076A
:1022A0002F0F09FA07F5AC43334DA84201D10025A1
:1022B0002EE0324DA84201D1012529E0304DA8423F
:1022C00001D1022524E02F4DA84201D103251FE0B2
:1022D0002D4DA84202D104251AE041E02B4DA84221
:1022E00001D1052514E02A4DA84201D106250FE0B1
:1022F000284DA84201D107250AE0274DA84201D167
:10230000082505E0254DA84201D1092500E00A2550
:10231000BD402543C6F80858DBF800405D464E68CE
:102320009C43F60300D51C432C60DEF80040754644
:102330004E689C43B60300D51C432C600B4D0835FA
:102340002C684E689C43F60200D51C432C60074D58
:102350000C352C684E689C43B60200D51C432C609B
:10236000521C102AFFF444AFBDE8F88F003C014036
:1023700044380240003001400000024000040240A6
:1023800000080240000C024000100240001402400D
:1023900000180240001C02400020024000240240BD
:1023A0000AB1816170470904FBE700000148006839
:1023B000704700000000002002480168491C0160CD
:1023C00070470000000000200B4810B5016841F480
:1023D00000710160016841F480610160016841F4AD
:1023E00080710160032000F09BF8002000F006F8E7
:1023F00000F03EF8002010BD003C024010B5014640
:1024000088B00022362000F06BF8362000F05CF82F
:1024100013480024016841F010010160006805A91B
:1024200000F010000690684600F090F900F0B4F952
:102430000C494000B0FBF1F10C480B4A491E026008
:1024400040F2E732C0E90324C0E9011400F031FD95
:1024500010B1012008B010BD044800F046FDF9E7B6
:102460004038024040420F0000100040F04300207E
:1024700010B5032000F054F8002211466FF00B0055
:1024800000F02EF8002211466FF00A0000F028F844
:10249000002211466FF0090000F022F800221146D8
:1024A000501F00F01DF800221146101F00F018F810
:1024B00000220F21901E00F013F800220F21BDE82A
:1024C0001040501E00F00CB800F01F020121914096
:1024D0004009800000F1E020C0F8001170470000C2
:1024E000F0B40E4B1B680C46C3F30223C3F107057F
:1024F000042D00D90425191D072901D2002300E06D
:10250000DB1E012606FA05F1491E214099409E4036
:10251000761E16403143F0BC01F0FCBE0CED00E02D
:10252000064900F0070208684FF6FF03184040EA2A
:102530000220034A10430860704700000CED00E0E1
:102540000000FA052DE9F8431E48016841F080516A
:1025500001600068012600F080500090300490FA7D
:10256000A0F0194FB0FA80F047F82060FFF71EFF87
:1025700005464FF47A78154C05E000BFFFF716FFCB
:10258000401B404515D86068C003F7D54FF40030B4
:1025900090FAA0F0B0FA80F047F82060FFF706FF4D
:1025A0000546464608E000BFFFF700FF401BB0426B
:1025B00002D90320BDE8F88360688003F4D50020C9
:1025C000F8E700004038024000000E420070004072
:1025D0002DE9F047DFF8649105460F46D9F8000071
:1025E00000F00F01F8B28046B94208D2014689F8DE
:1025F0000010D9F8000000F00F00B84274D128781C
:102600004F4C800705D52068A96820F0F0000843EA
:1026100020602878C00759D04949686808390128DE
:102620001AD002281BD0032819D00968890700296D
:102630005ADA216821F0030101432160FFF7B6FE59
:102640006968064641F28830012911D002291DD05F
:102650000329824627D035E009688903E7E709683E
:102660008901E4E7FFF7A2FE811B514501D926E06D
:1026700082462068C0F381000128F3D126E000BF24
:10268000FFF794FE811B514501D918E0824620686E
:10269000C0F381000228F3D118E000BFFFF786FEE7
:1026A000811B51450BD82068C0F381000328F5D168
:1026B0000CE000BFFFF77AFE811B514502D90320D1
:1026C000BDE8F087206810F00C0FF3D1D9F80010A6
:1026D000484601F00F01B94208D980F8008000682F
:1026E00000F00F00B84201D00120E9E72878400748
:1026F00005D52068E96820F4E05008432060287878
:10270000000706D52068296920F4604040EAC1002E
:10271000206000F071F82168F02292FAA2F201F034
:10272000F001B2FA82F2D140064A515CC840064933
:1027300008600020FFF762FE0020C1E7003C024075
:1027400008380240B48A0008040000200F2202600A
:102750000C4A136803F003034360136803F0F003AB
:102760008360136803F4E053C36012684FF4E053CE
:1027700003EAD20202610448006800F00F0008601A
:102780007047000008380240003C024001480068E1
:1027900070470000040000200848094900680968E3
:1027A0004FF4E05292FAA2F201F4E051B2FA82F24E
:1027B000D140044A515CC84070470000040000202A
:1027C00008380240B48A00080848094900680968C6
:1027D0004FF4604292FAA2F201F46041B2FA82F23E
:1027E000D140044A515CC8407047000004000020FA
:1027F00008380240B48A000830B51948006810F063
:102800000C01184812D0184C04290ED008290DD1FB
:102810001349091F0A6802F03F030A68550247F688
:10282000C07204D5B4FBF3F003E0204630BDB0FB2A
:10283000F3F00B680968134092FAA2F2B2FA82F23E
:10284000D34058434FF4403292FAA2F201F440319F
:10285000B2FA82F2D140491C4900B0FBF1F030BD20
:10286000083802400024F400001BB7002DE9F84F9F
:102870000446DFF8CC820078A8F1040BC007ABF166
:10288000040537D0D8F800104046C1F38101012972
:1028900008D00068C0F3810002280AD1DBF80000EC
:1028A000400206D52868800324D56068002878D0C7
:1028B00020E0A3492079891F0870606868B1FFF79C
:1028C00075FD064605E000BFFFF770FD801B64281C
:1028D00068D828688003F7D50CE0FFF767FD064647
:1028E00005E000BFFFF762FD801B6428F0D8286870
:1028F0008003F7D42078934E80074FF0010A4FF001
:10290000000742D5D8F80010404611F00C0F08D04F
:102910000068C0F3810002280AD1DBF80000400201
:1029200006D42868800714D5E068012839D110E062
:10293000E068D8B1C6F800A0FFF738FD814605E091
:10294000FFF734FDA0EB09000228C1D828688007F2
:10295000F6D52868F82292FAA2F22169B2FA82F238
:1029600020F0F8009140084328600EE03760FFF740
:102970001DFD814606E000BFFFF718FDA0EB090032
:1029800002280FD828688007F6D42078000728D5B9
:102990006D486169A1B1C0F800A0FFF707FD81464D
:1029A00008E0CAE079E000BFFFF700FDA0EB0900F6
:1029B000022872D862486C3000688007F4D510E0B5
:1029C0000760FFF7F3FC814606E000BFFFF7EEFC6F
:1029D000A0EB0900022860D859486C3000688007D5
:1029E000F4D42078400749D555483830016841F083
:1029F00080510160006800F08050009053480168E9
:102A000041F480710160FFF7D1FC814606E000BF10
:102A1000FFF7CCFCA0EB090002283ED84B48006829
:102A2000C005F5D5DFF81891207A09F1680989F811
:102A30000000A06888B1FFF7B9FC009008E000BF73
:102A4000FFF7B4FC0099411A41F2883081426CD8FA
:102A5000D9F800008007F3D510E0FFF7A7FC00903D
:102A600008E000BFFFF7A2FC0099411A41F288304C
:102A700081425AD8D9F800008007F3D4A069E0B3A6
:102A8000D8F80010C1F38101022956D00228376618
:102A900004D0FFF78BFC04464AE046E0FFF786FCD3
:102AA000074604E0FFF782FCC01B02283DD82868D7
:102AB0008001F7D4D4E90701084347F6C07292FABF
:102AC000A2F2616AB2FA82F29140A26A4FF0FF3339
:102AD00003EB52024FF4403393FAA3F3B3FA83F3B8
:102AE0009A40114308434FF0706292FAA2F2E16AF1
:102AF000B2FA82F29140084300E01CE0CBF80000FB
:102B0000C6F860A0FFF752FC044604E0FFF74EFC55
:102B1000001B022809D828688001F7D50BE000BF08
:102B2000FFF744FC001B022802D90320BDE8F88F00
:102B300028688001F4D40020F8E70120F6E70000BF
:102B40000838024000004742800E474200700040B3
:102B500070B5040005D00025A56294F8510010B1AD
:102B600006E0012070BD84F85050204600F030F897
:102B7000022084F851002068016821F040010160C2
:102B8000D4E901010843D4E9031211430843616900
:102B90000843218B01F400710843E1690843216A6D
:102BA0000843A16A084321680860A069042101EA7A
:102BB0001040616A0843216848602068C16921F4B7
:102BC0000061C1616565012084F85100002070BD7D
:102BD0002DE9F0430746006820490025204C0226D5
:102BE00087B04FF003084FF0050988421BD12068D9
:102BF00040F480502060206802AA00F480500590C4
:102C00001820CDE9000682E8200369461548FFF741
:102C1000E1FA8020CDE9000602AA694682E8200395
:102C20001148FFF7D7FA11493868884212D1206855
:102C300040F480102060206802AA00F48010059003
:102C40004FF46070CDE9000682E820036946084829
:102C5000FFF7C0FA07B0BDE8F08300000030014084
:102C6000443802400004024000000240005001408D
:102C7000001402402DE9F84F044690F85000002659
:102C8000994617460D4601280DD04FF0010B84F8E8
:102C900050B0FFF78BFB804694F85100B2460128F4
:102CA00004D0022694E00220BDE8F88F002D7BD0EE
:102CB000002F79D0032084F85100C4F854A0256374
:102CC000A786E786C4F838A0A4F83CA0A4F83EA0E4
:102CD000C4F844A0C4F840A0A068B0F5004F04D1E7
:102CE0002068016841F4804101602068016849065C
:102CF00003D4016841F040010160E068B0F5006F65
:102D0000606804D030B3E08E012823D03EE010B1DB
:102D1000E08E01281AD135F8021B206805E02068F2
:102D20008168890706D535F8021BC160E08E401E18
:102D3000E0860BE0B9F1000F34D0B9F1FF3F05D0C8
:102D4000FFF734FBA0EB080149452BD2E08E0028A9
:102D5000E5D11EE0216815F8010B087306E0206834
:102D60008168890706D515F8011B0173E08E401EA6
:102D7000E0860BE0B9F1000F14D0B9F1FF3F05D0A8
:102D8000FFF714FBA0EB080149450BD2E08E0028A9
:102D9000E5D14B46012202212046CDF8008001F00A
:102DA00067FB10B1032613E011E042464946204676
:102DB00001F04EFB18B101262020606508E0A068F4
:102DC00018B92068C16880680090606D00B1012664
:102DD00084F851B084F850A0304665E74FF0E02108
:102DE0000428086903D020F004000861704740F00F
:102DF0000400FAE710B5401EB0F1807F01D3012036
:102E000010BD4FF0E02460610F21601701F082FADD
:102E10000020A06107202061002010BD704770478E
:102E200030B590F83820012A19D0012200F8382F47
:102E300002234370D1E900342343D1E902452C43F6
:102E400023430C6923434C69896923430B4350F89E
:102E5000381C4B64427000210170084630BD0220CE
:102E600030BD30B590F83820012A20D0012280F8FA
:102E70003820022380F8393003685C6824F070043D
:102E80005C6003685C680D682C435C6003689C6848
:102E900024F080049C6003689C6849680C439C6033
:102EA00080F83920002180F83810084630BD022013
:102EB00030BD10B5040003D094F8390010B107E01C
:102EC000012010BD002084F83800204600F00CF8E6
:102ED000022084F83900211D206801F071FC0120D6
:102EE00084F83900002010BD70470168CA6842F0BC
:102EF0000102CA600068016841F001010160002020
:102F00007047704770B50446006801694FF00005CE
:102F1000C943890715D4C168C943890711D4E91E7B
:102F2000016101202076206880698007204602D058
:102F3000FFF7E7FF04E000F021F9204600F000FA77
:102F4000257620680169C943490717D4C168C94378
:102F5000490713D46FF00401016102202076206834
:102F6000806910F4407F204602D0FFF7CAFF04E0DA
:102F700000F004F9204600F0E3F9257620680169A5
:102F8000C943090716D4C168C943090712D46FF0B1
:102F900008010161042020762068C069800720466E
:102FA00002D0FFF7AEFF04E000F0E8F8204600F0A2
:102FB000C7F9257620680169C943C90617D4C168D5
:102FC000C943C90613D46FF01001016108202076AF
:102FD0002068C06910F4407F204602D0FFF791FFBF
:102FE00004E000F0CBF8204600F0AAF9257620682E
:102FF0000169C943C90708D1C168C943C90704D1D8
:10300000891E0161204600F0B9F920680169C943B1
:10301000090609D4C168C943090605D46FF08001C7
:1030200001612046FFF7FAFE20680169C94349069D
:1030300009D4C168C943490605D46FF04001016154
:10304000204600F0A5F920680169C94389060BD420
:10305000C168C943890607D46FF020010161204689
:10306000BDE87040FFF7DBBE70BD0000F0B5374A29
:103070000168002402250126354885B0914211D10E
:103080004FF440710091CDE90154CDE90346694602
:10309000FFF7A0F84FF4C0400090CDE90154694615
:1030A0002C4811E0B1F1804F09D02B48814211D159
:1030B00060200090CDE901546946284829E00721A5
:1030C0000091CDE901546946CDE90346FFF782F846
:1030D00005B0F0BD2248814207D14FF47040009006
:1030E000CDE9015469461F4813E01F4A1F48204F8D
:1030F000914211D10096CDE901546946CDE90345CD
:10310000FFF768F84FF4E0500090CDE901546946AC
:103110003846CDE90345D9E7164A914208D1E42162
:103120000091CDE901540321CDE903416946CDE782
:1031300011488142CCD140200090CDE901540920B2
:10314000CDE9034069463846C0E700000000014071
:103150000000024000100240000400400004024051
:1031600000080040000C0240000C0040002002401B
:10317000001C02400004014000180040704770B578
:10318000044690F838000D4601280DD0012684F839
:103190003860022084F8390042B1042A18D0082A85
:1031A0002AD00C2A4DD139E0022070BD206801F0F0
:1031B00073FB2068816941F00801816120688169A1
:1031C00021F004018161206881692A69114311E0BD
:1031D000206801F08DFB2068816941F40061816104
:1031E0002068816921F480618161206881692A6990
:1031F00041EA0221816124E0206801F0ABFB2068F4
:10320000C16941F00801C1612068C16921F0040170
:10321000C1612068C1692A69114311E0206801F089
:10322000C9FB2068C16941F40061C1612068C169BE
:1032300021F48061C1612068C1692A6941EA0221E3
:10324000C16184F83960002084F8380070BD10B581
:10325000040003D094F8390010B107E0012010BD3C
:10326000002084F83800204600F00CF8022084F892
:103270003900211D206801F0A3FA012084F83900EB
:10328000002010BD08B501682648274A814205D1B3
:10329000106840F001001060106812E02248001F22
:1032A000B1F1804F08D0214B99420ED1016841F015
:1032B00002010160006826E0016841F0010101603F
:1032C000006800F00100009008BD194B994207D139
:1032D000016841F004010160006800F00400F2E7B9
:1032E000144B994207D1016841F008010160006860
:1032F00000F00800E7E7104B994207D1106840F052
:1033000002001060106800F00200DCE70B4A9142F6
:10331000DAD1016841F040010160006800F040002E
:10332000D1E70000000001404438024000040040A2
:1033300000080040000C004000040140001800405C
:103340007047000010B504460068012201F098FAA9
:1033500008492068884202D00749884203D1416C5D
:1033600041F4004141642068016841F001010160BD
:10337000002010BD00000140000401400068034926
:10338000884201D1FFF718B87047000000100040D4
:103390007047704770B5026804461068D168536979
:1033A00010F00F0F50D003F0010501F49076354373
:1033B0005DD0C20705D0CA0503D5E26B42F0010219
:1033C000E263420705D5DA0703D0E26B42F002025E
:1033D000E263820705D5DA0703D0E26B42F004020C
:1033E000E263020705D5DA0703D0E26B42F0080278
:1033F000E263E26B002A33D0800604D5880602D54A
:10340000204601F015FB20684069E16BC0F3801095
:10341000090700D428B3204601F0FCFA206841696E
:1034200049061AD5416921F040014161606BA0B1A4
:103430001B490165606BFEF750FD002810D0606BE2
:10344000016DBDE870400847830610D58B060ED588
:103450002046BDE8704001F0EBBA2046FFF799FF27
:1034600070BD2046FFF795FF0020E06370BD0306A6
:1034700006D50B0604D52046BDE8704001F074BCAB
:103480004006F3D54806F1D5D168204621F0400129
:10349000D160202184F8391000F05DF970BD000082
:1034A000054A000870B5040004D094F839000025DE
:1034B00010B106E0012070BD84F83850204600F0BD
:1034C00023F8242084F839002068C16821F40051D1
:1034D000C160204601F0F2FA2068016921F49041B0
:1034E00001612068416921F02A0141612068C168B9
:1034F00041F40051C160E563202084F8390084F86C
:103500003A00002070BD00002DE9F04F0546D0F8CC
:1035100000C00220DFF80C820024DFF80CB2012189
:10352000032207234602C70187B04FF00069C44554
:1035300039D1DBF8008048F01008CBF80080DBF8C8
:1035400000C00DF104080CF0100CCDF814C04FF0C1
:10355000C00CCDF800C088E80F0069467348FEF73C
:1035600039FEDFF8D08172494046C8F80010C0E942
:103570000194C0E90346C8F81440C0E90647C8F8FA
:103580002040C8F82440FEF78FFD08B1FDF783FE08
:10359000C5F83480002201212520C8F83850FEF7F4
:1035A0009FFF252039E0DFF89081DFF87CA1DFF86C
:1035B0008CE1AAF1040AC44534D1DAF800C04CF415
:1035C000003CCAF800C0DAF800700DF1040807F4F6
:1035D000003705976027009788E80F006946704616
:1035E000FEF7F8FD534F564860373860C7E901943D
:1035F000C7E903467C61BC61FC613C6238467C6281
:10360000FEF752FD08B1FDF746FE6F63002201216F
:103610002620BD63FEF764FF2620FEF755FF07B0A6
:10362000BDE8F08FDFF81C81C4453CD1DAF800809A
:1036300048F48028CAF80080DAF800C00DF10408C8
:103640000CF4802CCDF814C04FF4407CCDF800C0B1
:1036500088E80F0069467046FEF7BCFDDFF8D480AD
:10366000374908F1C00860394046C8F80010C0E981
:103670000194C0E90346C8F81440C0E90647C8F8F9
:103680002040C8F82440FEF70FFD08B1FDF703FE07
:10369000C5F83480002211462720C8F83850FEF7BC
:1036A0001FFF2720B9E7284B9C45B8D1DBF800C0A5
:1036B0004CF0200CCBF800C0DBF800300DF1040812
:1036C00003F0200305934FF48443009388E8070038
:1036D0000820049069461D48FEF77CFD1449DFF878
:1036E000708018394046C8F800108905C0E90114F7
:1036F000C0E90346C8F81440C0E90647C8F82040AE
:10370000C8F82440FEF7D0FC08B1FDF7C4FDC5F8A9
:103710003480002205214720C8F83850FEF7E0FE2B
:1037200047207AE70010014044380240000402407C
:10373000406402407042002000440040000C0240FF
:103740008860024000480040001401400018024018
:103750009043002070477047FEE7000010B500213D
:103760001348FFF7EFFD00211248FFF7EBFD04219E
:103770001048FFF7E7FD08210E48FFF7E3FD0E4C68
:10378000012204212046FEF70BFE012208212046DB
:10379000FEF706FE012210212046FEF701FE01225F
:1037A00020212046FEF7FCFD04490020086010BDE2
:1037B0003441002008400020001C02403418004022
:1037C00070B504460D462748FDF798FF002005B167
:1037D0000120617B30EA01012173607339D02078C8
:1037E0004FF0FF01C207A27B03D0FF2A19D0A173BB
:1037F00032E0FF2A30D0A173E17BC1F10101E17316
:1038000081071FD42169491C21616268914223D933
:10381000400700D5A26822611EE0400710D561680C
:103820000EE0E17BC1F10101E17381070AD4226955
:10383000521C226161688A420ED9400700D5A168F6
:10384000216109E02269521E2261A1688A42E4D303
:1038500002E008B90020A073BDE870400A2003F020
:103860000BBB0000543E002070B50478DDE9046510
:1038700061F3000462F3410463F382040470C0E95D
:1038800001560AB1294600E031460161AE4204D337
:10389000002181604160012070BD002070BD0000EA
:1038A0001FB513481149012401604FF48031416074
:1038B00000218160016184610E4A0162C0E90A2130
:1038C000C46104634461C160FDF7CBFE08B1FDF73C
:1038D000E2FC0620CDE90004694605480294FDF7A4
:1038E00013FE002801D0FDF7D6FC1FBD00200140CB
:1038F000543E00200100000F0F4810B50D49016033
:103900000521416000214FF400328160C0E90312BB
:103910005201C0E905210122C0E90721416281620B
:10392000C162FEF77BF8002803D0BDE81040FDF728
:10393000B2BC10BD006400409C3E0020104810B591
:103940000E4901600521416000214FF04072C0E93D
:1039500002124FF4003202615201C0E90521012236
:10396000C0E9072141628162C162FEF757F8002871
:1039700003D0BDE81040FDF78EBC10BD00680040CC
:10398000DC3E0020194808B5016841F4800101605F
:10399000016801F480010091016841F400110160A7
:1039A0000068002200F40010009005210C20FEF7B2
:1039B00097FD0C20FEF788FD002205211020FEF760
:1039C0008FFD1020FEF780FD002205213920FEF733
:1039D00087FD3920FEF778FD002205213A20FEF709
:1039E0007FFDBDE808403A20FEF76EBD303802404A
:1039F00010B59EB004F04AF9142222496846FCF73B
:103A00004FFC0021684603F060FA1F4C1D49142248
:103A10002060143105A8FCF743FC002105A803F041
:103A200054FA18496060142228310AA8FCF738FCBF
:103A300000210AA803F049FA1249A06014223C317F
:103A40000FA8FCF72DFC00210FA803F03EFA0D494A
:103A5000E0601422503114A8FCF722FC002114A8C5
:103A600003F033FA074920611422643119A8FCF7E6
:103A700017FC002119A803F028FA606104F026F968
:103A80001EB010BDC48A0008800000202DE9F04F50
:103A90006E4887B00024016841F0010101600168AF
:103AA00001F001010591016841F002010160016826
:103AB00001F002010591016841F004010160016813
:103AC00001F004010591016841F0080101600168FD
:103AD00001F008010591016841F0100101600168E1
:103AE00001F010010591016841F0200101600168B9
:103AF00001F020010591016841F040010160016879
:103B000001F040010591016841F080010160006809
:103B1000002200F08000059008214D48FEF740FC8F
:103B2000012204214A48FEF73BFC4FF400570022D3
:103B300039464848FEF734FC002240214648FEF74B
:103B40002FFCDFF818B14FF4C068002241465846F8
:103B5000FEF726FCBE10002231463D48FEF720FC51
:103B60004FF48049002249463B48FEF719FC4FF4C8
:103B7000FF7A012251463748FEF712FC0C200090D4
:103B80000125CDE90154694631480394FEF722FB33
:103B9000022000903248CDE9010569462C48FEF725
:103BA00019FB0097CDE9015469462A480394FEF7B2
:103BB00011FB4FF49060CDE9000469462948029456
:103BC000FEF708FB40200090CDE9015469462248E9
:103BD0000394FEF7FFFACDF80080CDE90154694661
:103BE00058460394FEF7F6FA0096CDE9015469466B
:103BF00017480394FEF7EEFACDF80090CDE9015492
:103C0000694615480394FEF7E5FACDF800A0CDE922
:103C1000015469460F480394FEF7DCFA3C200090FB
:103C2000CDE90154694610480394FEF7D3FA002207
:103C300002210848FEF7B4FB02F0AAFE002231463A
:103C40000348FEF7ADFB07B0BDE8F08F3038024007
:103C5000001002400018024000140240000402401C
:103C600000002110000C0240001C0240104810B55A
:103C70000E4901604FF48271416000218160C16092
:103C80004FF400720161C0E905123022C0E907213A
:103C9000416281620A21C162FEF75AFF002803D007
:103CA000BDE81040FDF7F7BA10BD0000003001403C
:103CB0001C3F0020104810B50E4901604FF482717E
:103CC000416000218160C1604FF400720161C0E970
:103CD00005123022C0E90721416281620A21C162D6
:103CE000FEF736FF002803D0BDE81040FDF7D3BA39
:103CF00010BD000000500140743F002010B517486F
:103D000088B01549016059210024C0E9011440F22E
:103D1000F311C0E90314FFF79AFA08B1FDF7BBFAF3
:103D200060200090FA20CDE90104002269460B488A
:103D30000494FFF724FA08B1FDF7ADFA04226946AE
:103D40000648FFF71CFA08B1FDF7A5FA0348FFF78C
:103D50008DF908B010BD000000180040344100206B
:103D600010B521488AB01F490024C0E900148460BE
:103D7000C4600461FFF76BFA08B1FDF78CFA079491
:103D800007A919480894FFF76CF808B1FDF783FA02
:103D90006020CDE900040294002269461248049490
:103DA000FFF7EDF908B1FDF776FA042269460E48EF
:103DB000FFF7E5F908B1FDF76EFA082269460A48EF
:103DC000FFF7DDF908B1FDF766FA0C2269460648EF
:103DD000FFF7D5F908B1FDF75EFA0348FFF746F99A
:103DE0000AB010BD00000140CC3F002010B52348B0
:103DF0008AB04FF08041016059210024C0E90114CC
:103E000040F6C311C0E90314FFF721FA08B1FDF72A
:103E100042FA079407A919480894FFF722F808B155
:103E2000FDF739FA602000904FF47A70CDE9010473
:103E30000022694611480494FFF7A1F908B1FDF783
:103E40002AFA042269460D48FFF799F908B1FDF7EF
:103E500022FA082269460948FFF791F908B1FDF7EF
:103E60001AFA0C2269460548FFF789F908B1FDF7EF
:103E700012FA0248FFF7FAF80AB010BD0840002015
:103E800010B51A488AB018490160B3210024C0E96E
:103E90000114C4600461FFF7DAF908B1FDF7FBF91A
:103EA000079407A911480894FEF7DBFF08B1FDF756
:103EB000F2F96020CDE900040294002269460B4823
:103EC0000494FFF75CF908B1FDF7E5F904226946AF
:103ED0000648FFF754F908B1FDF7DDF90348FFF78D
:103EE000C5F80AB010BD00000004004044400020A6
:103EF00010B521488AB01F490024C0E9001484602D
:103F0000C4600461FFF7A3F908B1FDF7C4F9079491
:103F100007A919480894FEF7A4FF08B1FDF7BBF9FB
:103F20006020CDE9000402940022694612480494FE
:103F3000FFF725F908B1FDF7AEF9042269460E48EE
:103F4000FFF71DF908B1FDF7A6F9082269460A48EE
:103F5000FFF715F908B1FDF79EF90C2269460648EE
:103F6000FFF70DF908B1FDF796F90348FFF77EF862
:103F70000AB010BD000800408040002010B5244861
:103F80008AB02249016059210024C0E901144FF48C
:103F9000FA61C0E90314FFF75AF908B1FDF77BF99C
:103FA000079407A91A480894FEF75BFF08B1FDF7CC
:103FB00072F9602000904FF47A70CDE9010400227C
:103FC000694613480494FFF7DAF808B1FDF763F97E
:103FD000042269460E48FFF7D2F808B1FDF75BF9F5
:103FE000082269460A480194FFF7C9F808B1FDF7AD
:103FF00052F90C2269460648FFF7C1F808B1FDF7EF
:104000004AF90348FFF732F80AB010BD000C00402F
:10401000BC40002010B52B4890B029490024C0E9CD
:1040200000148460C46004614461FFF710F908B1B2
:10403000FDF731F90E940EA922480F94FEF711FFF7
:1040400008B1FDF728F90794089409944FF400503B
:104050000A94CDE90B4007A91A480D94FEF7E0FE3B
:1040600008B1FDF718F96020CDE90004029403942B
:10407000049405940022694612480694FFF77FF8DD
:1040800008B1FDF708F9042269460E48FFF777F8F2
:1040900008B1FDF700F9082269460A48FFF76FF8F2
:1040A00008B1FDF7F8F80C2269460648FFF767F8F3
:1040B00008B1FDF7F0F80348FEF7D8FF10B010BDC7
:1040C00000040140F84000200D4810B50B49016084
:1040D0000C49416000214FF480628160C0E9031205
:1040E0000C22C0E90521C161FFF7DCF9002803D0EB
:1040F000BDE81040FDF7CFB810BD00000010014032
:1041000070410020A08601000C4810B50A490160EA
:104110004FF4E1314160002181600C22C160C0E9AF
:1041200004128161C161FFF7BDF9002803D0BDE829
:104130001040FDF7B0B810BD00440040B041002071
:104140000C4810B50A4901604FF4E131416000218B
:1041500081600C22C160C0E904128161C161FFF776
:10416000A1F9002803D0BDE81040FDF794B810BDB8
:1041700000480040F04100200C4810B50A49016099
:104180004FF4E1314160002181600C22C160C0E93F
:1041900004128161C161FFF785F9002803D0BDE8F1
:1041A0001040FDF778B810BD0014014030420020E7
:1041B0003CB5DFED4E1A10EE103A4D4A9FED4D2AF8
:1041C0004D4CDFED4E2A934202DDB0EE420A05E08F
:1041D00010EE103AA34201D9B0EE620A10EE903A06
:1041E000934202DDF0EE420A05E010EE902AA24270
:1041F00001D9F0EE620A11EE102A414C414BA24265
:1042000002DD9FED411A05E011EE102A9A4201D914
:104210009FED3E1A30EEC02A00236C4632EE412A52
:10422000BDEEC22A12EE102AB1EE402AADF80020EF
:1042300032EE602A32EE412ABDEEC22A12EE102A78
:1042400030EE602A30EE200AADF8022032EE412A2C
:1042500030EE410ABDEEC22ABDEEC00A12EE102AAF
:10426000ADF8042010EE102AADF8062034F9132022
:10427000002A01DD154600E0554200EE105AB8EE66
:10428000C00AB4EEE10AF1EE10FA06DD002A00DC05
:10429000524200EE102AF8EEC01A5B1C042BE5DB3C
:1042A00000EE100AB8EEC00AF4EEC01AF1EE10FAF1
:1042B00017DD00EE100A0020F8EEC00A80EEA10A19
:1042C00034F9102000EE902AF8EEE00A60EE800A41
:1042D000FDEEE00A10EE902A24F81020401C04287D
:1042E000EEDB00980860019848603CBD00000000CB
:1042F00000C05A4600C05A4600C05AC600C05AC63E
:1043000000401C4600401CC600401C4600401CC625
:10431000FEE770470907090E002806DA00F00F00D3
:1043200000F1E02080F8141D704700F1E02080F8D3
:1043300000147047074882B0006801684168009126
:10434000C16841F01001C16008220349014802B070
:1043500000F066BD30420020A000002030B4034CC5
:104360004466034C846630BC02F0AEBEC9700008DF
:10437000D770000870B5054608880C46C0F30A02DD
:10438000A2F580622A8048788978C00840EA411006
:10439000C0F30A03A3F580636B80A078E1788009FD
:1043A00040EA8100217902F5257240EA8120C0F3BC
:1043B0000A01A1F58061A98020796679400840EA68
:1043C000C610C0F30A00A0F58060E8806679B609DF
:1043D0002E726679C6F301166E724FF4A566B2426C
:1043E0000BD803F52573B34207D801F52571B14207
:1043F00003D800F52570B04203D916212846FBF7F3
:1044000068FFE088A8812089E88160892882207B74
:10441000A874607BE874E089A882208AC0F30A004F
:10442000A0F58060688170BD074882B000680168AF
:1044300041680091C16841F01001C16080220349C8
:10444000014802B000F0ECBCF041002024460020FE
:1044500038B50B46009204460022802100F008F88F
:10446000002804D0606D40F020006065032038BD56
:104470002DE9F0411D4617460E460446DDF818802A
:1044800035E0681C33D02DB1FDF790FFA0EB08009C
:10449000A8422CD32068416821F0E00141606068A7
:1044A000B0F5827F0BD1A068B0F5004F02D0B0F517
:1044B000806F04D12068016821F040010160A06A8A
:1044C000B0F5005F0AD1206801684DF6FF72114017
:1044D00001602068016841F400510160012084F806
:1044E0005100002084F850000320BDE8F0812068CE
:1044F000806836EA000004D00020B842C1D1002014
:10450000F3E70120F9E700007CB50D462F4914467A
:1045100000EE900AB1F90620098AF8EEE00A11448B
:1045200000EE101A2A48B8EEC00A02F0EBFC294E41
:1045300000EE905AB6F90600318AF8EEE00A084417
:1045400000EE100A2448B8EEC00A02F0DBFC224854
:10455000D0ED0F0AB6F9020000EE100A1F48B8EEBF
:10456000C00A02F0CFFC1E4800EE904AB0F90000ED
:10457000F8EEE00A00EE100A1A48B8EEC00A02F09F
:10458000C1FC01210020CDE90001164890ED0F0A81
:10459000BDEEC00A10EE100A03B2104890ED0F0AEB
:1045A000BDEEC00A10EE100A02B2094890ED0F0AE3
:1045B000BDEEC00A10EE100A01B20B4803F0D2F9AA
:1045C000BDE87C400A2002F057BC00009C4500205A
:1045D000104700206C450020A44600207C470020A6
:1045E000CC450020984900209C3E00202DE9FC414C
:1045F000224F234D0646002436F9140000EE100A1F
:1046000004EB440007EB0010F8EEC00AB0F900001C
:1046100000EE100A04EBC40000EB4000B8EEC00A44
:1046200005EB800002F06EFC641C042CE4DB95EDCD
:10463000600A0021BDEEC00A10EE100A00B2CDE9FA
:10464000000195ED450ABDEEC00A10EE100A95ED89
:104650002A0A03B2BDEEC00A10EE100A95ED0F0A49
:1046600002B2BDEEC00A10EE100A01B2054803F016
:1046700079F9BDE8FC410A2002F0FEBB2C44002081
:10468000E84700209C3E00204FF40064084D094F8D
:10469000E60000BF02F042F9012221462846FDF75C
:1046A0007FFE002231463846FDF77AFEF2E7000031
:1046B000001002400014024002F0FDBB30B5264855
:1046C00093B00025016841F080510160006800F05E
:1046D000805011902148016841F440410160006818
:1046E000022400F4404011900120009001908005C8
:1046F000CDE9064006200890B420CDE90904042045
:104700000B906846FEF7B2F800B1FEE7FDF71AFF1E
:1047100000B1FEE70CA90F2081E831004FF4A05052
:104720000F904FF48050109005210CA8FDF750FF1A
:1047300000B1FEE7FEF72AF84FF47A71B0FBF1F012
:10474000FEF758FB0420FEF749FB00220F21501E04
:10475000FDF7C6FE13B030BD403802400070004087
:104760001048016841F4700101600F48016841F090
:10477000010101600C4A00210832116002680B4BF4
:104780001A400260031D0A4A1A60026822F480225D
:10479000026005480C300160024958068039086003
:1047A0007047000088ED00E000380240FFFFF6FE91
:1047B000103000240148FEF7A5BB0000F0430020A4
:1047C000F0B50268234B244D244E254F254C4FF065
:1047D000804C984209D0604507D0A84205D0B0422D
:1047E00003D0B84201D0A04204D122F0700E4A6832
:1047F00042EA0E0298421BD0604519D0A84217D059
:10480000B04215D0B84213D0A04211D0164DA842E4
:104810000ED0164DA8420BD0154DA84208D0154D0C
:10482000A84205D0144DA84202D0144DA84203D18D
:1048300022F44075CA682A4302608A68C2620A6824
:104840008262984201D0A04201D10969016301212D
:104850004161F0BD0000014000040040000800403C
:10486000000C0040000401400040014000440140B1
:104870000048014000180040001C0040002000409B
:1048800010B50123046A8B409C430462036A8A408A
:104890001343036210BD000030B5026A22F001022A
:1048A0000262026A436884690D6824F07304254338
:1048B00022F002048A6822430B4CA04202D00B4C27
:1048C000A0420BD122F00804CA6823F440732243AB
:1048D0004C6922F004021C438B69234343608561C9
:1048E00049684163026230BD00000140000401409C
:1048F00030B5026A22F010020262026A43688469DB
:104900000D6824F4E64444EA05248D6822F0200270
:1049100042EA05120D4DA84202D00D4DA8420ED11B
:10492000CD6822F0800242EA05124D6923F440630B
:1049300043EA85038D6922F0400243EA8503436020
:10494000846149688163026230BD0000000001405B
:104950000004014030B5026A22F480720262036AE8
:104960004268C46923F4007324F073050C682C4377
:104970008D6843EA05230D4DA84202D00C4DA84294
:104980000ED1CD6823F4006343EA05234D6922F478
:10499000405242EA05128D6923F4806342EA05120F
:1049A0004260C4614968C163036230BD00000140D8
:1049B0000004014030B5026A22F480520262046AA7
:1049C0004268C3690D6823F4E64343EA05238D6812
:1049D00024F4005444EA0534084DA84202D0084D9E
:1049E000A84204D14D6922F4804242EA8512426015
:1049F000C36149680164046230BD000000000140E9
:104A00000004014010B5806B0021C185C184FEF710
:104A1000C0FC10BD0168CA6822F49072CA600168C7
:104A20004A6922F001024A61202180F83A10704759
:104A300010B590F83A10222901D0022010BD8168EB
:104A4000B1F5805F11D00169002901681FD0496864
:104A500001F07F03816A4A1C82620B70C18D491E7E
:104A60000904090CC18518D026E00269816A002A70
:104A70000268526805D0D2B20A80816A491C8162FC
:104A8000ECE7C2F308020A80816A891CF7E74A68EA
:104A9000816A4B1C83620A70E0E70168CA6822F4ED
:104AA0009072CA6001684A6922F001024A612021BD
:104AB00080F83A10FEF74EFE002010BD2DE9F041BF
:104AC00004460068016921F44052E1681143016124
:104AD0002168C86849F20C6290432369A268E569BD
:104AE0001A4363692B431A430243CA602168486929
:104AF00020F44072A06910434861E1696425B1F572
:104B0000004F9748974A21684FF032083FD09142B2
:104B100001D081427CD1FDF757FE00EBC00101EBD3
:104B2000001061688900B0FBF1F6FDF74DFE00EB67
:104B3000C00101EB001061688900B0FBF1F0B0FB2F
:104B4000F5F06FF01801484306EB800108EB011007
:104B5000B0FBF5F000F0F006FDF736FE00EBC0010B
:104B600001EB001061688900B0FBF1F0B0FBF5F0DB
:104B700006EB0016FDF728FE00EBC00101EB00106C
:104B800061688900B0FBF1F7FDF71EFED2E09142AB
:104B900001D081423DD1FDF717FE00EBC00101EBD2
:104BA000001061684900B0FBF1F0B0FBF5F00601C0
:104BB000FDF70AFE00EBC00101EB0010616849003F
:104BC000B0FBF1F7FDF700FE00EBC00101EB0010B8
:104BD00061684900B0FBF1F0B0FBF5F06FF018012F
:104BE000484307EB800108EBC100B0FBF5F000F093
:104BF000F80006EB4006FDF7E7FD00EBC00101EB16
:104C0000001061684900B0FBF1F7FDF7DDFD3CE005
:104C100055E0FDF7C1FD00EBC00101EB001061683C
:104C20004900B0FBF1F0B0FBF5F00601FDF7B4FD73
:104C300000EBC00101EB001061684900B0FBF1F727
:104C4000FDF7AAFD00EBC00101EB0010616849000F
:104C5000B0FBF1F0B0FBF5F06FF01801484307EB43
:104C6000800108EBC100B0FBF5F000F0F80006EBA6
:104C70004006FDF791FD00EBC00101EB00106168FB
:104C80004900B0FBF1F7FDF787FD00EBC00101EB38
:104C9000001061684900B0FBF1F0B0FBF5F06FF077
:104CA0001801484307EB800108EBC100B0FBF5F0A9
:104CB00000F00700216830448860BDE8F081FDF70E
:104CC0006BFD00EBC00101EB001061688900B0FBD7
:104CD000F1F6FDF761FD00EBC00101EB001061682A
:104CE0008900B0FBF1F0B0FBF5F06FF0180148431C
:104CF00006EB800108EB0110B0FBF5F000F0F006C8
:104D0000FDF74AFD00EBC00101EB0010616889006E
:104D1000B0FBF1F0B0FBF5F006EB0016FDF73CFD43
:104D200000EBC00101EB001061688900B0FBF1F7F6
:104D3000FDF732FD00EBC00101EB00106168890056
:104D4000B0FBF1F0B0FBF5F06FF01801484307EB52
:104D5000800108EB0110B0FBF5F000F00F00A9E7AF
:104D6000001401400010014090F83910212901D0B1
:104D7000022070478168B1F5805F016A0BD04A1C40
:104D80000262026809785160C18C491E0904090C4D
:104D9000C1840ED017E009880268C1F30801516090
:104DA00001690029016A02D0491C0162ECE7891CF3
:104DB000FBE70168CA6822F08002CA600068C16827
:104DC00041F04001C16000207047000010B5044868
:104DD00002F00AFFBDE810400148FEF7DBBA000010
:104DE000704100200148FEF7D5BA0000B041002014
:104DF00010B5044802F0F8FEBDE810400148FEF787
:104E0000C9BA0000F041002010B5044802F0ECFEE1
:104E1000BDE810400148FEF7BDBA00003042002056
:104E200070B5044690F83A00202801D0022070BDE9
:104E300099B192B1A162A2850020E0631346206877
:104E40000A46656B011D2846FDF796F92068416901
:104E500041F040014161002070BD012070BD0000A3
:104E600038B5044600680168406800902D488442C7
:104E70001AD1606B0068016821F001010160606B6C
:104E80000068406880B2202804D1274901F112004F
:104E9000FFF770FA616B322009684860606B006848
:104EA000016841F0010101602048844226D1606B15
:104EB0000068016821F0010101601B4D2835287848
:104EC000A52811D10521284600F051F860B1B5F8A8
:104ED00005102846093100F030F828B114487E2228
:104EE00029460068FBF7DCF9616B8020096848609F
:104EF000606B0068016841F0010101600D48844267
:104F00000FD1606B0068016821F001010160616BE5
:104F1000082009684860606B0068016841F0010181
:104F2000016038BD70410020FC450020F0410020A8
:104F30009C00002030420020FEE730B50C46050002
:104F400013D0022C11D94FF6FF72A11EFCF7A4F961
:104F50002919C2B211F8023C9A4206D111F8011C7B
:104F6000B1EB102F01D1012030BD002030BD30B594
:104F70000C4605000CD0022C0AD9FF22611EFCF75A
:104F8000A1F9291911F8011C814201D1012030BD7C
:104F9000002030BD37B514460846064B6A46214608
:104FA00000F042FF04466946002001F0D4FA204692
:104FB0003EBD00005765000803B401984100009809
:104FC00050EAC12018BF04204A0D18BF40F001006C
:104FD00040F2FF72B2EB515F08BF40F002000128BF
:104FE00008BF052002B0704770B59B482DED020B3D
:104FF0002DED068B079D25F00044A04218DC974854
:10500000844202DC0AD1069840B19DED060BBDEC4E
:10501000068B02B0BDE8704000F002BE002DCCBF90
:105020009FED8F0B9FED900BBDEC068B02B070BD1A
:105030008F48A04215DD8F48A042D8BF4FF0FF3403
:1050400058DD9DED060B51EC100BFFF7B5FF042862
:1050500008BF00F001FE9DED060BBDEC068B02B013
:1050600070BD9DED060B51EC100B01F0E1FBCDE99D
:10507000060181489FED828BA0423CDD8248A04220
:105080001FDD00249FED82AB9DED060B53EC1A2B28
:1050900051EC100BFBF728F99DED060B41EC190BB9
:1050A00053EC1A2B51EC100BFBF7C5F953EC182BF2
:1050B000FBF7BBF953EC192BFBF72FFACDE90601EF
:1050C00049E09DED060B012453EC182B51EC100B1D
:1050D000FBF70AF99DED060B41EC190B53EC182B6D
:1050E00051EC100BFBF7A1F953EC192BFBF715FA58
:1050F000CDE906012FE06848A0421FDD02249FEDA4
:10510000689B9DED060B53EC192B51EC100BFBF734
:1051100092F953EC182BFBF7E7F89DED060B41ECE9
:10512000180B53EC192B51EC100BFBF77EF953ECD9
:10513000182BFBF7F2F9CDE906010CE09DED060B0B
:10514000032453EC102B9FED580B51EC100BFBF785
:10515000E4F9CDE906019DED060B53EC102B51EC63
:10516000100BFBF768F941EC180B53EC182BFBF70D
:1051700062F941EC190B4E480621B0EE490AF0EEF7
:10518000690A784400F038FC53EC182B51EC100BF2
:10519000FBF751F941EC180B4648B0EE490AF0EE26
:1051A000690A0521784400F027FC53EC192B51ECD7
:1051B000100BFBF740F941EC100B51EC180B53ECC2
:1051C000102B002C0EDAFBF78FF89DED061B53EC2D
:1051D000112BFBF730F99DED061B53EC112BFBF760
:1051E00027F935E0FBF780F89DED061B53EC112BFA
:1051F000FBF721F941EC100B2F48784400EBC40079
:1052000090ED001B51EC100B53EC112BFBF70DF93B
:105210009DED061B53EC112BFBF707F941EC100B2E
:105220002648784400EBC40090ED001B51EC100BB5
:1052300053EC112BFBF7FCF841EC100B002DA2BF37
:10524000BDEC068B02B070BD51EC100B81F000413B
:1052500041EC100B01E70000000010440000F07F5B
:10526000182D4454FB21F93F182D4454FB21F9BF5C
:105270000000DC3F0000203E0000F33F0000000083
:10528000000000000000F03F0000E63F00000000CA
:10529000000000000000004000800340000000000B
:1052A000000000000000F83F000000000000F0BF18
:1052B0009249000048490000D24800008A48000096
:1052C00010B52F499FED2C1B2DED020B84B00598D6
:1052D00020F000408842D8BF9DED040B2DDD294908
:1052E000884209D1049840B94FF0010000F0D4FC85
:1052F00000F0A2FC06B010BD05DB9DED040B00F034
:105300008FFC06B010BD68469DED040B00F0A0F8C0
:1053100010F0030004BF9DED021B9DED000B0CD0AF
:1053200001280ED09DED021B9DED000B022817D029
:10533000012000F0DDFB06B010BD00F0A5FA06B0BC
:1053400010BD9DED021B9DED000B012000F0D0FB78
:1053500051EC100B81F0004106B041EC100B10BD78
:1053600000F092FA51EC100B81F0004106B041ECD4
:10537000100B10BD00000000000000000000000045
:10538000FB21E93F0000F07F10B52F499FED2C1B5A
:105390002DED020B84B0059820F000408842DCBF60
:1053A00000209DED040B32DD2849884209D1049884
:1053B00040B94FF0010000F06FFC00F03DFC06B07A
:1053C00010BD05DB9DED040B00F02AFC06B010BDFE
:1053D00068469DED040B00F03BF810F0030011D07F
:1053E000012818D09DED021B9DED000B02281AD05C
:1053F00000F04AFA51EC100B81F0004106B041EC8C
:10540000100B10BD9DED021B9DED000B012000F067
:105410006FFB06B010BD9DED021B9DED000B00F073
:1054200033FA06B010BD012000F062FB51EC100B06
:1054300081F0004106B041EC100B10BD00000000EF
:105440000000000000000000FB21E93F0000F07FA9
:105450002DE9F14F04462DED020B2DED088B8AB09E
:105460009FEDE70B80ED020B139EE74826F0004509
:1054700085420ADC9DED120B002084ED000B0AB082
:10548000BDEC088B03B0BDE8F08FE0489FEDE0ABCA
:105490009FEDE1BBA84247DDE14F9FEDE39B9FED10
:1054A000E48B9DED120B53EC1A2B51EC100B002EDC
:1054B0001CDDFAF7BAFF41EC100BBD4208D053ECEB
:1054C0001B2B51EC100BFAF7B0FFC4E900010BE005
:1054D00053EC192B51EC100BFAF7A7FF53EC182BD8
:1054E000FAF7A3FFC4E900010120C8E7FAF7FCFEC0
:1054F00041EC100BBD4208D053EC1B2B51EC100BB0
:10550000FAF7F2FEC4E900010BE053EC192B51EC61
:10551000100BFAF7E9FE53EC182BFAF7E5FEC4E995
:1055200000014FF0FF30AAE7C348A84279DB9DEDA8
:10553000120B51EC100B01F07BF941EC180B9FEDB5
:10554000C00B53EC102BFAF776FF9FEDBF1B53EC0B
:10555000112BFAF7C9FEFBF76DF80746FBF74CF87D
:1055600041EC190B53EC1A2BFAF765FF53EC182B8F
:10557000FAF75EFF41EC180B53EC1B2B51EC190BA7
:10558000FAF759FFDFF8C8A241EC100B4FEA1558A3
:105590000125FA4453EC102B51EC180BFAF745FF98
:1055A000032DC4E900013DD0C1F30A5005EB4511BC
:1055B000A8EB00001139814234DA0AEB051BB0EE8A
:1055C00048AA9BED000BF0EE68AA53EC102B51ECAF
:1055D000190BFAF730FF41EC1B0B51EC1A0B53EC93
:1055E0001B2BFAF722FF41EC180B51EC1A0B53EC72
:1055F000182BFAF71AFF53EC1B2BFAF716FF9BED4B
:10560000020B41EC1A0B53EC102B51EC190BFAF76F
:1056100012FF53EC1A2BFAF708FF41EC100B6D1C2C
:10562000B8E70EE0002EA8BF3846BFF628AF94EDCD
:10563000000B51EC100B81F00041C4E900017842ED
:105640001DE7C6F3130040F4801EC6F30A50A0F213
:10565000F530471100F01F05C5F12000DDF848B016
:1056600008900020069007900520EC467949002D0F
:1056700007EB0002794408BF51F8221009D051F815
:10568000223001EB8201AB404A68089922FA01F10D
:105690001943A1FB0E26A1FB0B131A449A4234BFF7
:1056A0000123002303EB06080CEB8003D3E901A6DA
:1056B0000E448E4234BF0121002192448A4411B12C
:1056C000924502D903E0924501D2012100E0002178
:1056D000C3E901A641444CF82010011EA0F10100CD
:1056E000C4DC029800F10050850F0298DDE90367E1
:1056F0008000DDF81480FAF77FFF41EC1A0B30468A
:10570000FAF78BFF9FED541B53EC112BFAF793FE26
:1057100041EC1B0B3846FAF780FF9FED511B53EC11
:10572000112BFAF788FE41EC180B4046FAF775FF8B
:105730009FED4D1B53EC112BFAF77DFE41EC190B3D
:1057400051EC180B53EC192BFAF7CEFD53EC1B2B35
:10575000FAF7CAFD53EC1A2BFAF7C6FDCDE908019A
:10576000002008909DED080B53EC1A2B51EC100B08
:10577000FAF75BFE53EC1B2BFAF757FE53EC182B92
:10578000FAF753FE53EC192BFAF752FE9FED381B34
:1057900053EC112BFAF74FFE9FED370B41EC180B32
:1057A00053EC102B9DED080B51EC100BFAF743FE58
:1057B00053EC182BFAF798FD9FED310B41EC180BC9
:1057C00053EC102B9DED080B51EC100BFAF733FE48
:1057D00053EC182BFAF788FD41EC100B139810F0DE
:1057E000004F06D06D4251EC100B81F0004141ECAE
:1057F000100B284684ED000B41E60000000000007D
:105800000000000000000000FB21E93F7CD90240BD
:1058100000004054FB21F93F3163621A61B4D03D6E
:10582000FB21F93F000000000000601A61B4D03D88
:105830007370032E8A19A33BFB213941000000003D
:1058400083C8C96D305FE43F000000000000E03F06
:10585000E245000030450000000000000000103E5E
:10586000000000000000103C000000000000103AA2
:10587000182D4454FB21F93D3326A611460B113C4B
:1058800000000054FB21F93D10B52DED040B2DED6A
:10589000088B82B0B0EE419AF0EE619A0B9820F03E
:1058A00000449FED4BABB4F1795F11DA9DED0A0B2B
:1058B00051EC100BFAF7BEFE002801BFB0EE4A0A09
:1058C000F0EE6A0A02B0BDEC088B04BF04B010BD54
:1058D0009DED0A0B53EC102B51EC100BFAF7ABFDBE
:1058E00041EC180B3C480621B0EE480AF0EE680A7D
:1058F000784400F081F853EC182B51EC100BFAF7B8
:105900009AFD9DED0A0B41EC1B0B53EC192B51EC4E
:10591000100BFAF790FD41EC190B53EC1B2B51ECDB
:10592000180BFAF788FD53EC192BFAF77EFD9FED63
:105930002C0B41EC190B53EC102B51EC180BFAF714
:105940007AFD41EC100B2848844210DA53EC192BF5
:1059500051EC100BFAF769FD53EC1A2BFAF768FDBE
:1059600041EC100B02B0BDEC088B04B010BD1F4819
:10597000A042BCBF9FED1E1B8DED001B06DBA4F5F6
:1059800000100190002000909DED001B51EC100BC9
:1059900053EC112BFAF749FD9DED000B41EC180B70
:1059A00053EC102B51EC1A0BFAF73FFD41EC1A0B9C
:1059B00053EC192B51EC180BFAF737FD53EC1A2B5B
:1059C000FAF736FD41EC100BCCE7000000000000B8
:1059D000000000000000F03F544200000000000002
:1059E000000000000000E03F3333D33F0000E93FF8
:1059F000000000000000D23F70B504462DED028B80
:105A00004D1E00EBC500B0EE408AF0EE608A90EDCE
:105A1000000B35F0060017D053EC182B51EC100B8F
:105A2000FAF709FD41EC100B6D1E04EBC50090ED7B
:105A3000001B51EC100B53EC112BFAF755FC41EC09
:105A4000100B35F00600E7D1022D36D0042D1CD006
:105A5000062D1CBFBDEC028B70BD53EC182B51EC16
:105A6000100BFAF7E8FC94ED0A1B53EC112BFAF734
:105A70003BFC53EC182BFAF7DEFC94ED081B53ECBF
:105A8000112BFAF731FC41EC100B53EC182B51ECB5
:105A9000100BFAF7D0FC94ED061B53EC112BFAF720
:105AA00023FC53EC182BFAF7C6FC94ED040B53ECD3
:105AB000102BFAF719FC41EC100B53EC182B51EC9E
:105AC000100BFAF7B8FC94ED021B53EC112BFAF70C
:105AD0000BFC53EC182BFAF7AEFC94ED001B53ECC7
